{
	"Lottery.sol": {
		"Lottery": {
			"abi": [
				{
					"inputs": [
						{
							"internalType": "uint256",
							"name": "_ticket_price",
							"type": "uint256"
						}
					],
					"stateMutability": "nonpayable",
					"type": "constructor"
				},
				{
					"anonymous": false,
					"inputs": [],
					"name": "GameReset",
					"type": "event"
				},
				{
					"anonymous": false,
					"inputs": [
						{
							"indexed": false,
							"internalType": "address",
							"name": "player",
							"type": "address"
						},
						{
							"indexed": false,
							"internalType": "uint256",
							"name": "amount",
							"type": "uint256"
						}
					],
					"name": "TicketsPurchased",
					"type": "event"
				},
				{
					"anonymous": false,
					"inputs": [
						{
							"indexed": false,
							"internalType": "address",
							"name": "winner",
							"type": "address"
						},
						{
							"indexed": false,
							"internalType": "uint256",
							"name": "prize",
							"type": "uint256"
						}
					],
					"name": "WinnerSelected",
					"type": "event"
				},
				{
					"inputs": [
						{
							"internalType": "uint256",
							"name": "purchase_amount",
							"type": "uint256"
						}
					],
					"name": "buyTickets",
					"outputs": [],
					"stateMutability": "payable",
					"type": "function"
				},
				{
					"inputs": [],
					"name": "cleanup",
					"outputs": [],
					"stateMutability": "nonpayable",
					"type": "function"
				},
				{
					"inputs": [],
					"name": "game_status",
					"outputs": [
						{
							"internalType": "bool",
							"name": "",
							"type": "bool"
						}
					],
					"stateMutability": "view",
					"type": "function"
				},
				{
					"inputs": [],
					"name": "selectWinner",
					"outputs": [],
					"stateMutability": "nonpayable",
					"type": "function"
				},
				{
					"inputs": [
						{
							"internalType": "address",
							"name": "",
							"type": "address"
						}
					],
					"name": "ticketAmount",
					"outputs": [
						{
							"internalType": "uint256",
							"name": "",
							"type": "uint256"
						}
					],
					"stateMutability": "view",
					"type": "function"
				}
			],
			"devdoc": {
				"details": "Two-player Lottert where deployer sets ticket price. Then they interact with the contract and purchase tickets first,      and challenger joins by purchasing tickets. Each player can only buy tickets once.",
				"kind": "dev",
				"methods": {},
				"title": "Lottery",
				"version": 1
			},
			"evm": {
				"assembly": "    /* \"Lottery.sol\":301:3498  contract Lottery {... */\n  mstore(0x40, 0x80)\n    /* \"Lottery.sol\":486:491  false */\n  0x00\n    /* \"Lottery.sol\":460:491  bool public game_status = false */\n  0x04\n  exp(0x0100, 0x00)\n  dup2\n  sload\n  dup2\n  0xff\n  mul\n  not\n  and\n  swap1\n  dup4\n  iszero\n  iszero\n  mul\n  or\n  swap1\n  sstore\n  pop\n    /* \"Lottery.sol\":693:889  constructor(uint _ticket_price) {... */\n  callvalue\n  dup1\n  iszero\n  tag_1\n  jumpi\n  0x00\n  dup1\n  revert\ntag_1:\n  pop\n  mload(0x40)\n  sub(codesize, bytecodeSize)\n  dup1\n  bytecodeSize\n  dup4\n  codecopy\n  dup2\n  dup2\n  add\n  0x40\n  mstore\n  dup2\n  add\n  swap1\n  tag_2\n  swap2\n  swap1\n  tag_3\n  jump\t// in\ntag_2:\n    /* \"Lottery.sol\":759:760  0 */\n  0x00\n    /* \"Lottery.sol\":743:756  _ticket_price */\n  dup2\n    /* \"Lottery.sol\":743:760  _ticket_price > 0 */\n  gt\n    /* \"Lottery.sol\":735:790  require(_ticket_price > 0, \"Ticket prices must be > 0\") */\n  tag_6\n  jumpi\n  mload(0x40)\n  0x08c379a000000000000000000000000000000000000000000000000000000000\n  dup2\n  mstore\n  0x04\n  add\n  tag_7\n  swap1\n  tag_8\n  jump\t// in\ntag_7:\n  mload(0x40)\n  dup1\n  swap2\n  sub\n  swap1\n  revert\ntag_6:\n    /* \"Lottery.sol\":875:882  1 ether */\n  0x0de0b6b3a7640000\n    /* \"Lottery.sol\":859:872  _ticket_price */\n  dup2\n    /* \"Lottery.sol\":859:882  _ticket_price * 1 ether */\n  tag_9\n  swap2\n  swap1\n  tag_10\n  jump\t// in\ntag_9:\n    /* \"Lottery.sol\":844:856  ticket_price */\n  0x00\n    /* \"Lottery.sol\":844:882  ticket_price = _ticket_price * 1 ether */\n  dup2\n  swap1\n  sstore\n  pop\n    /* \"Lottery.sol\":693:889  constructor(uint _ticket_price) {... */\n  pop\n    /* \"Lottery.sol\":301:3498  contract Lottery {... */\n  jump(tag_11)\n    /* \"#utility.yul\":88:205   */\ntag_13:\n    /* \"#utility.yul\":197:198   */\n  0x00\n    /* \"#utility.yul\":194:195   */\n  dup1\n    /* \"#utility.yul\":187:199   */\n  revert\n    /* \"#utility.yul\":334:411   */\ntag_15:\n    /* \"#utility.yul\":371:378   */\n  0x00\n    /* \"#utility.yul\":400:405   */\n  dup2\n    /* \"#utility.yul\":389:405   */\n  swap1\n  pop\n    /* \"#utility.yul\":334:411   */\n  swap2\n  swap1\n  pop\n  jump\t// out\n    /* \"#utility.yul\":417:539   */\ntag_16:\n    /* \"#utility.yul\":490:514   */\n  tag_28\n    /* \"#utility.yul\":508:513   */\n  dup2\n    /* \"#utility.yul\":490:514   */\n  tag_15\n  jump\t// in\ntag_28:\n    /* \"#utility.yul\":483:488   */\n  dup2\n    /* \"#utility.yul\":480:515   */\n  eq\n    /* \"#utility.yul\":470:533   */\n  tag_29\n  jumpi\n    /* \"#utility.yul\":529:530   */\n  0x00\n    /* \"#utility.yul\":526:527   */\n  dup1\n    /* \"#utility.yul\":519:531   */\n  revert\n    /* \"#utility.yul\":470:533   */\ntag_29:\n    /* \"#utility.yul\":417:539   */\n  pop\n  jump\t// out\n    /* \"#utility.yul\":545:688   */\ntag_17:\n    /* \"#utility.yul\":602:607   */\n  0x00\n    /* \"#utility.yul\":633:639   */\n  dup2\n    /* \"#utility.yul\":627:640   */\n  mload\n    /* \"#utility.yul\":618:640   */\n  swap1\n  pop\n    /* \"#utility.yul\":649:682   */\n  tag_31\n    /* \"#utility.yul\":676:681   */\n  dup2\n    /* \"#utility.yul\":649:682   */\n  tag_16\n  jump\t// in\ntag_31:\n    /* \"#utility.yul\":545:688   */\n  swap3\n  swap2\n  pop\n  pop\n  jump\t// out\n    /* \"#utility.yul\":694:1045   */\ntag_3:\n    /* \"#utility.yul\":764:770   */\n  0x00\n    /* \"#utility.yul\":813:815   */\n  0x20\n    /* \"#utility.yul\":801:810   */\n  dup3\n    /* \"#utility.yul\":792:799   */\n  dup5\n    /* \"#utility.yul\":788:811   */\n  sub\n    /* \"#utility.yul\":784:816   */\n  slt\n    /* \"#utility.yul\":781:900   */\n  iszero\n  tag_33\n  jumpi\n    /* \"#utility.yul\":819:898   */\n  tag_34\n  tag_13\n  jump\t// in\ntag_34:\n    /* \"#utility.yul\":781:900   */\ntag_33:\n    /* \"#utility.yul\":939:940   */\n  0x00\n    /* \"#utility.yul\":964:1028   */\n  tag_35\n    /* \"#utility.yul\":1020:1027   */\n  dup5\n    /* \"#utility.yul\":1011:1017   */\n  dup3\n    /* \"#utility.yul\":1000:1009   */\n  dup6\n    /* \"#utility.yul\":996:1018   */\n  add\n    /* \"#utility.yul\":964:1028   */\n  tag_17\n  jump\t// in\ntag_35:\n    /* \"#utility.yul\":954:1028   */\n  swap2\n  pop\n    /* \"#utility.yul\":910:1038   */\n  pop\n    /* \"#utility.yul\":694:1045   */\n  swap3\n  swap2\n  pop\n  pop\n  jump\t// out\n    /* \"#utility.yul\":1051:1220   */\ntag_18:\n    /* \"#utility.yul\":1135:1146   */\n  0x00\n    /* \"#utility.yul\":1169:1175   */\n  dup3\n    /* \"#utility.yul\":1164:1167   */\n  dup3\n    /* \"#utility.yul\":1157:1176   */\n  mstore\n    /* \"#utility.yul\":1209:1213   */\n  0x20\n    /* \"#utility.yul\":1204:1207   */\n  dup3\n    /* \"#utility.yul\":1200:1214   */\n  add\n    /* \"#utility.yul\":1185:1214   */\n  swap1\n  pop\n    /* \"#utility.yul\":1051:1220   */\n  swap3\n  swap2\n  pop\n  pop\n  jump\t// out\n    /* \"#utility.yul\":1226:1401   */\ntag_19:\n    /* \"#utility.yul\":1366:1393   */\n  0x5469636b657420707269636573206d757374206265203e203000000000000000\n    /* \"#utility.yul\":1362:1363   */\n  0x00\n    /* \"#utility.yul\":1354:1360   */\n  dup3\n    /* \"#utility.yul\":1350:1364   */\n  add\n    /* \"#utility.yul\":1343:1394   */\n  mstore\n    /* \"#utility.yul\":1226:1401   */\n  pop\n  jump\t// out\n    /* \"#utility.yul\":1407:1773   */\ntag_20:\n    /* \"#utility.yul\":1549:1552   */\n  0x00\n    /* \"#utility.yul\":1570:1637   */\n  tag_39\n    /* \"#utility.yul\":1634:1636   */\n  0x19\n    /* \"#utility.yul\":1629:1632   */\n  dup4\n    /* \"#utility.yul\":1570:1637   */\n  tag_18\n  jump\t// in\ntag_39:\n    /* \"#utility.yul\":1563:1637   */\n  swap2\n  pop\n    /* \"#utility.yul\":1646:1739   */\n  tag_40\n    /* \"#utility.yul\":1735:1738   */\n  dup3\n    /* \"#utility.yul\":1646:1739   */\n  tag_19\n  jump\t// in\ntag_40:\n    /* \"#utility.yul\":1764:1766   */\n  0x20\n    /* \"#utility.yul\":1759:1762   */\n  dup3\n    /* \"#utility.yul\":1755:1767   */\n  add\n    /* \"#utility.yul\":1748:1767   */\n  swap1\n  pop\n    /* \"#utility.yul\":1407:1773   */\n  swap2\n  swap1\n  pop\n  jump\t// out\n    /* \"#utility.yul\":1779:2198   */\ntag_8:\n    /* \"#utility.yul\":1945:1949   */\n  0x00\n    /* \"#utility.yul\":1983:1985   */\n  0x20\n    /* \"#utility.yul\":1972:1981   */\n  dup3\n    /* \"#utility.yul\":1968:1986   */\n  add\n    /* \"#utility.yul\":1960:1986   */\n  swap1\n  pop\n    /* \"#utility.yul\":2032:2041   */\n  dup2\n    /* \"#utility.yul\":2026:2030   */\n  dup2\n    /* \"#utility.yul\":2022:2042   */\n  sub\n    /* \"#utility.yul\":2018:2019   */\n  0x00\n    /* \"#utility.yul\":2007:2016   */\n  dup4\n    /* \"#utility.yul\":2003:2020   */\n  add\n    /* \"#utility.yul\":1996:2043   */\n  mstore\n    /* \"#utility.yul\":2060:2191   */\n  tag_42\n    /* \"#utility.yul\":2186:2190   */\n  dup2\n    /* \"#utility.yul\":2060:2191   */\n  tag_20\n  jump\t// in\ntag_42:\n    /* \"#utility.yul\":2052:2191   */\n  swap1\n  pop\n    /* \"#utility.yul\":1779:2198   */\n  swap2\n  swap1\n  pop\n  jump\t// out\n    /* \"#utility.yul\":2204:2384   */\ntag_21:\n    /* \"#utility.yul\":2252:2329   */\n  0x4e487b7100000000000000000000000000000000000000000000000000000000\n    /* \"#utility.yul\":2249:2250   */\n  0x00\n    /* \"#utility.yul\":2242:2330   */\n  mstore\n    /* \"#utility.yul\":2349:2353   */\n  0x11\n    /* \"#utility.yul\":2346:2347   */\n  0x04\n    /* \"#utility.yul\":2339:2354   */\n  mstore\n    /* \"#utility.yul\":2373:2377   */\n  0x24\n    /* \"#utility.yul\":2370:2371   */\n  0x00\n    /* \"#utility.yul\":2363:2378   */\n  revert\n    /* \"#utility.yul\":2390:2800   */\ntag_10:\n    /* \"#utility.yul\":2430:2437   */\n  0x00\n    /* \"#utility.yul\":2453:2473   */\n  tag_45\n    /* \"#utility.yul\":2471:2472   */\n  dup3\n    /* \"#utility.yul\":2453:2473   */\n  tag_15\n  jump\t// in\ntag_45:\n    /* \"#utility.yul\":2448:2473   */\n  swap2\n  pop\n    /* \"#utility.yul\":2487:2507   */\n  tag_46\n    /* \"#utility.yul\":2505:2506   */\n  dup4\n    /* \"#utility.yul\":2487:2507   */\n  tag_15\n  jump\t// in\ntag_46:\n    /* \"#utility.yul\":2482:2507   */\n  swap3\n  pop\n    /* \"#utility.yul\":2542:2543   */\n  dup3\n    /* \"#utility.yul\":2539:2540   */\n  dup3\n    /* \"#utility.yul\":2535:2544   */\n  mul\n    /* \"#utility.yul\":2564:2594   */\n  tag_47\n    /* \"#utility.yul\":2582:2593   */\n  dup2\n    /* \"#utility.yul\":2564:2594   */\n  tag_15\n  jump\t// in\ntag_47:\n    /* \"#utility.yul\":2553:2594   */\n  swap2\n  pop\n    /* \"#utility.yul\":2743:2744   */\n  dup3\n    /* \"#utility.yul\":2734:2741   */\n  dup3\n    /* \"#utility.yul\":2730:2745   */\n  div\n    /* \"#utility.yul\":2727:2728   */\n  dup5\n    /* \"#utility.yul\":2724:2746   */\n  eq\n    /* \"#utility.yul\":2704:2705   */\n  dup4\n    /* \"#utility.yul\":2697:2706   */\n  iszero\n    /* \"#utility.yul\":2677:2760   */\n  or\n    /* \"#utility.yul\":2654:2793   */\n  tag_48\n  jumpi\n    /* \"#utility.yul\":2773:2791   */\n  tag_49\n  tag_21\n  jump\t// in\ntag_49:\n    /* \"#utility.yul\":2654:2793   */\ntag_48:\n    /* \"#utility.yul\":2438:2800   */\n  pop\n    /* \"#utility.yul\":2390:2800   */\n  swap3\n  swap2\n  pop\n  pop\n  jump\t// out\n    /* \"Lottery.sol\":301:3498  contract Lottery {... */\ntag_11:\n  dataSize(sub_0)\n  dup1\n  dataOffset(sub_0)\n  0x00\n  codecopy\n  0x00\n  return\nstop\n\nsub_0: assembly {\n        /* \"Lottery.sol\":301:3498  contract Lottery {... */\n      mstore(0x40, 0x80)\n      jumpi(tag_1, lt(calldatasize, 0x04))\n      shr(0xe0, calldataload(0x00))\n      dup1\n      0x19c19b34\n      eq\n      tag_2\n      jumpi\n      dup1\n      0x28821efe\n      eq\n      tag_3\n      jumpi\n      dup1\n      0x2f366637\n      eq\n      tag_4\n      jumpi\n      dup1\n      0x33a99e04\n      eq\n      tag_5\n      jumpi\n      dup1\n      0x3cecd719\n      eq\n      tag_6\n      jumpi\n    tag_1:\n      0x00\n      dup1\n      revert\n        /* \"Lottery.sol\":460:491  bool public game_status = false */\n    tag_2:\n      callvalue\n      dup1\n      iszero\n      tag_7\n      jumpi\n      0x00\n      dup1\n      revert\n    tag_7:\n      pop\n      tag_8\n      tag_9\n      jump\t// in\n    tag_8:\n      mload(0x40)\n      tag_10\n      swap2\n      swap1\n      tag_11\n      jump\t// in\n    tag_10:\n      mload(0x40)\n      dup1\n      swap2\n      sub\n      swap1\n      return\n        /* \"Lottery.sol\":407:454  mapping(address => uint256) public ticketAmount */\n    tag_3:\n      callvalue\n      dup1\n      iszero\n      tag_12\n      jumpi\n      0x00\n      dup1\n      revert\n    tag_12:\n      pop\n      tag_13\n      0x04\n      dup1\n      calldatasize\n      sub\n      dup2\n      add\n      swap1\n      tag_14\n      swap2\n      swap1\n      tag_15\n      jump\t// in\n    tag_14:\n      tag_16\n      jump\t// in\n    tag_13:\n      mload(0x40)\n      tag_17\n      swap2\n      swap1\n      tag_18\n      jump\t// in\n    tag_17:\n      mload(0x40)\n      dup1\n      swap2\n      sub\n      swap1\n      return\n        /* \"Lottery.sol\":895:1981  function buyTickets(uint purchase_amount) external payable {... */\n    tag_4:\n      tag_19\n      0x04\n      dup1\n      calldatasize\n      sub\n      dup2\n      add\n      swap1\n      tag_20\n      swap2\n      swap1\n      tag_21\n      jump\t// in\n    tag_20:\n      tag_22\n      jump\t// in\n    tag_19:\n      stop\n        /* \"Lottery.sol\":1987:3042  function selectWinner() public {... */\n    tag_5:\n      callvalue\n      dup1\n      iszero\n      tag_23\n      jumpi\n      0x00\n      dup1\n      revert\n    tag_23:\n      pop\n      tag_24\n      tag_25\n      jump\t// in\n    tag_24:\n      stop\n        /* \"Lottery.sol\":3052:3492  function cleanup() public {... */\n    tag_6:\n      callvalue\n      dup1\n      iszero\n      tag_26\n      jumpi\n      0x00\n      dup1\n      revert\n    tag_26:\n      pop\n      tag_27\n      tag_28\n      jump\t// in\n    tag_27:\n      stop\n        /* \"Lottery.sol\":460:491  bool public game_status = false */\n    tag_9:\n      0x04\n      0x00\n      swap1\n      sload\n      swap1\n      0x0100\n      exp\n      swap1\n      div\n      0xff\n      and\n      dup2\n      jump\t// out\n        /* \"Lottery.sol\":407:454  mapping(address => uint256) public ticketAmount */\n    tag_16:\n      mstore(0x20, 0x03)\n      dup1\n      0x00\n      mstore\n      keccak256(0x00, 0x40)\n      0x00\n      swap2\n      pop\n      swap1\n      pop\n      sload\n      dup2\n      jump\t// out\n        /* \"Lottery.sol\":895:1981  function buyTickets(uint purchase_amount) external payable {... */\n    tag_22:\n        /* \"Lottery.sol\":1046:1047  0 */\n      0x00\n        /* \"Lottery.sol\":1018:1030  ticketAmount */\n      0x03\n        /* \"Lottery.sol\":1018:1042  ticketAmount[msg.sender] */\n      0x00\n        /* \"Lottery.sol\":1031:1041  msg.sender */\n      caller\n        /* \"Lottery.sol\":1018:1042  ticketAmount[msg.sender] */\n      0xffffffffffffffffffffffffffffffffffffffff\n      and\n      0xffffffffffffffffffffffffffffffffffffffff\n      and\n      dup2\n      mstore\n      0x20\n      add\n      swap1\n      dup2\n      mstore\n      0x20\n      add\n      0x00\n      keccak256\n      sload\n        /* \"Lottery.sol\":1018:1047  ticketAmount[msg.sender] == 0 */\n      eq\n        /* \"Lottery.sol\":1010:1098  require(ticketAmount[msg.sender] == 0, \"You have already purchased tickets this round.\") */\n      tag_30\n      jumpi\n      mload(0x40)\n      0x08c379a000000000000000000000000000000000000000000000000000000000\n      dup2\n      mstore\n      0x04\n      add\n      tag_31\n      swap1\n      tag_32\n      jump\t// in\n    tag_31:\n      mload(0x40)\n      dup1\n      swap2\n      sub\n      swap1\n      revert\n    tag_30:\n        /* \"Lottery.sol\":1179:1195  uint total_price */\n      0x00\n        /* \"Lottery.sol\":1213:1228  purchase_amount */\n      dup2\n        /* \"Lottery.sol\":1198:1210  ticket_price */\n      sload(0x00)\n        /* \"Lottery.sol\":1198:1228  ticket_price * purchase_amount */\n      tag_33\n      swap2\n      swap1\n      tag_34\n      jump\t// in\n    tag_33:\n        /* \"Lottery.sol\":1179:1228  uint total_price = ticket_price * purchase_amount */\n      swap1\n      pop\n        /* \"Lottery.sol\":1258:1269  total_price */\n      dup1\n        /* \"Lottery.sol\":1246:1255  msg.value */\n      callvalue\n        /* \"Lottery.sol\":1246:1269  msg.value > total_price */\n      gt\n        /* \"Lottery.sol\":1238:1332  require(msg.value > total_price, \"You do not have enough ether to purchase that many tickets\") */\n      tag_35\n      jumpi\n      mload(0x40)\n      0x08c379a000000000000000000000000000000000000000000000000000000000\n      dup2\n      mstore\n      0x04\n      add\n      tag_36\n      swap1\n      tag_37\n      jump\t// in\n    tag_36:\n      mload(0x40)\n      dup1\n      swap2\n      sub\n      swap1\n      revert\n    tag_35:\n        /* \"Lottery.sol\":1401:1402  0 */\n      0x00\n        /* \"Lottery.sol\":1381:1403  address1 == address(0) */\n      0xffffffffffffffffffffffffffffffffffffffff\n      and\n        /* \"Lottery.sol\":1381:1389  address1 */\n      0x01\n      0x00\n      swap1\n      sload\n      swap1\n      0x0100\n      exp\n      swap1\n      div\n      0xffffffffffffffffffffffffffffffffffffffff\n      and\n        /* \"Lottery.sol\":1381:1403  address1 == address(0) */\n      0xffffffffffffffffffffffffffffffffffffffff\n      and\n      sub\n        /* \"Lottery.sol\":1377:1711  if (address1 == address(0)) {... */\n      tag_38\n      jumpi\n        /* \"Lottery.sol\":1438:1448  msg.sender */\n      caller\n        /* \"Lottery.sol\":1419:1427  address1 */\n      0x01\n      0x00\n        /* \"Lottery.sol\":1419:1449  address1 = payable(msg.sender) */\n      0x0100\n      exp\n      dup2\n      sload\n      dup2\n      0xffffffffffffffffffffffffffffffffffffffff\n      mul\n      not\n      and\n      swap1\n      dup4\n      0xffffffffffffffffffffffffffffffffffffffff\n      and\n      mul\n      or\n      swap1\n      sstore\n      pop\n        /* \"Lottery.sol\":1377:1711  if (address1 == address(0)) {... */\n      jump(tag_39)\n    tag_38:\n        /* \"Lottery.sol\":1490:1491  0 */\n      0x00\n        /* \"Lottery.sol\":1470:1492  address2 == address(0) */\n      0xffffffffffffffffffffffffffffffffffffffff\n      and\n        /* \"Lottery.sol\":1470:1478  address2 */\n      0x02\n      0x00\n      swap1\n      sload\n      swap1\n      0x0100\n      exp\n      swap1\n      div\n      0xffffffffffffffffffffffffffffffffffffffff\n      and\n        /* \"Lottery.sol\":1470:1492  address2 == address(0) */\n      0xffffffffffffffffffffffffffffffffffffffff\n      and\n      eq\n        /* \"Lottery.sol\":1470:1518  address2 == address(0) && msg.sender != address1 */\n      dup1\n      iszero\n      tag_40\n      jumpi\n      pop\n        /* \"Lottery.sol\":1510:1518  address1 */\n      0x01\n      0x00\n      swap1\n      sload\n      swap1\n      0x0100\n      exp\n      swap1\n      div\n      0xffffffffffffffffffffffffffffffffffffffff\n      and\n        /* \"Lottery.sol\":1496:1518  msg.sender != address1 */\n      0xffffffffffffffffffffffffffffffffffffffff\n      and\n        /* \"Lottery.sol\":1496:1506  msg.sender */\n      caller\n        /* \"Lottery.sol\":1496:1518  msg.sender != address1 */\n      0xffffffffffffffffffffffffffffffffffffffff\n      and\n      eq\n      iszero\n        /* \"Lottery.sol\":1470:1518  address2 == address(0) && msg.sender != address1 */\n    tag_40:\n        /* \"Lottery.sol\":1466:1711  if (address2 == address(0) && msg.sender != address1) {... */\n      iszero\n      tag_41\n      jumpi\n        /* \"Lottery.sol\":1553:1563  msg.sender */\n      caller\n        /* \"Lottery.sol\":1534:1542  address2 */\n      0x02\n      0x00\n        /* \"Lottery.sol\":1534:1564  address2 = payable(msg.sender) */\n      0x0100\n      exp\n      dup2\n      sload\n      dup2\n      0xffffffffffffffffffffffffffffffffffffffff\n      mul\n      not\n      and\n      swap1\n      dup4\n      0xffffffffffffffffffffffffffffffffffffffff\n      and\n      mul\n      or\n      swap1\n      sstore\n      pop\n        /* \"Lottery.sol\":1592:1596  true */\n      0x01\n        /* \"Lottery.sol\":1578:1589  game_status */\n      0x04\n      0x00\n        /* \"Lottery.sol\":1578:1596  game_status = true */\n      0x0100\n      exp\n      dup2\n      sload\n      dup2\n      0xff\n      mul\n      not\n      and\n      swap1\n      dup4\n      iszero\n      iszero\n      mul\n      or\n      swap1\n      sstore\n      pop\n        /* \"Lottery.sol\":1466:1711  if (address2 == address(0) && msg.sender != address1) {... */\n      jump(tag_42)\n    tag_41:\n        /* \"Lottery.sol\":1662:1667  false */\n      0x00\n        /* \"Lottery.sol\":1654:1700  require(false, \"Game already has two players\") */\n      tag_43\n      jumpi\n      mload(0x40)\n      0x08c379a000000000000000000000000000000000000000000000000000000000\n      dup2\n      mstore\n      0x04\n      add\n      tag_44\n      swap1\n      tag_45\n      jump\t// in\n    tag_44:\n      mload(0x40)\n      dup1\n      swap2\n      sub\n      swap1\n      revert\n    tag_43:\n        /* \"Lottery.sol\":1466:1711  if (address2 == address(0) && msg.sender != address1) {... */\n    tag_42:\n        /* \"Lottery.sol\":1377:1711  if (address1 == address(0)) {... */\n    tag_39:\n        /* \"Lottery.sol\":1789:1804  purchase_amount */\n      dup2\n        /* \"Lottery.sol\":1762:1774  ticketAmount */\n      0x03\n        /* \"Lottery.sol\":1762:1786  ticketAmount[msg.sender] */\n      0x00\n        /* \"Lottery.sol\":1775:1785  msg.sender */\n      caller\n        /* \"Lottery.sol\":1762:1786  ticketAmount[msg.sender] */\n      0xffffffffffffffffffffffffffffffffffffffff\n      and\n      0xffffffffffffffffffffffffffffffffffffffff\n      and\n      dup2\n      mstore\n      0x20\n      add\n      swap1\n      dup2\n      mstore\n      0x20\n      add\n      0x00\n      keccak256\n        /* \"Lottery.sol\":1762:1804  ticketAmount[msg.sender] = purchase_amount */\n      dup2\n      swap1\n      sstore\n      pop\n        /* \"Lottery.sol\":1819:1864  TicketsPurchased(msg.sender, purchase_amount) */\n      0xe11731cb4f1eb3ec3dd09bdc96809bb07365f4c881cda3192b397a4bc0b6da40\n        /* \"Lottery.sol\":1836:1846  msg.sender */\n      caller\n        /* \"Lottery.sol\":1848:1863  purchase_amount */\n      dup4\n        /* \"Lottery.sol\":1819:1864  TicketsPurchased(msg.sender, purchase_amount) */\n      mload(0x40)\n      tag_46\n      swap3\n      swap2\n      swap1\n      tag_47\n      jump\t// in\n    tag_46:\n      mload(0x40)\n      dup1\n      swap2\n      sub\n      swap1\n      log1\n        /* \"Lottery.sol\":1923:1934  game_status */\n      0x04\n      0x00\n      swap1\n      sload\n      swap1\n      0x0100\n      exp\n      swap1\n      div\n      0xff\n      and\n        /* \"Lottery.sol\":1919:1975  if (game_status) {... */\n      iszero\n      tag_48\n      jumpi\n        /* \"Lottery.sol\":1950:1964  selectWinner() */\n      tag_49\n        /* \"Lottery.sol\":1950:1962  selectWinner */\n      tag_25\n        /* \"Lottery.sol\":1950:1964  selectWinner() */\n      jump\t// in\n    tag_49:\n        /* \"Lottery.sol\":1919:1975  if (game_status) {... */\n    tag_48:\n        /* \"Lottery.sol\":954:1981  {... */\n      pop\n        /* \"Lottery.sol\":895:1981  function buyTickets(uint purchase_amount) external payable {... */\n      pop\n      jump\t// out\n        /* \"Lottery.sol\":1987:3042  function selectWinner() public {... */\n    tag_25:\n        /* \"Lottery.sol\":2108:2109  0 */\n      0x00\n        /* \"Lottery.sol\":2088:2110  address1 != address(0) */\n      0xffffffffffffffffffffffffffffffffffffffff\n      and\n        /* \"Lottery.sol\":2088:2096  address1 */\n      0x01\n      0x00\n      swap1\n      sload\n      swap1\n      0x0100\n      exp\n      swap1\n      div\n      0xffffffffffffffffffffffffffffffffffffffff\n      and\n        /* \"Lottery.sol\":2088:2110  address1 != address(0) */\n      0xffffffffffffffffffffffffffffffffffffffff\n      and\n      eq\n      iszero\n        /* \"Lottery.sol\":2088:2136  address1 != address(0) && address2 != address(0) */\n      dup1\n      iszero\n      tag_51\n      jumpi\n      pop\n        /* \"Lottery.sol\":2134:2135  0 */\n      0x00\n        /* \"Lottery.sol\":2114:2136  address2 != address(0) */\n      0xffffffffffffffffffffffffffffffffffffffff\n      and\n        /* \"Lottery.sol\":2114:2122  address2 */\n      0x02\n      0x00\n      swap1\n      sload\n      swap1\n      0x0100\n      exp\n      swap1\n      div\n      0xffffffffffffffffffffffffffffffffffffffff\n      and\n        /* \"Lottery.sol\":2114:2136  address2 != address(0) */\n      0xffffffffffffffffffffffffffffffffffffffff\n      and\n      eq\n      iszero\n        /* \"Lottery.sol\":2088:2136  address1 != address(0) && address2 != address(0) */\n    tag_51:\n        /* \"Lottery.sol\":2080:2160  require(address1 != address(0) && address2 != address(0), \"Waiting for players\") */\n      tag_52\n      jumpi\n      mload(0x40)\n      0x08c379a000000000000000000000000000000000000000000000000000000000\n      dup2\n      mstore\n      0x04\n      add\n      tag_53\n      swap1\n      tag_54\n      jump\t// in\n    tag_53:\n      mload(0x40)\n      dup1\n      swap2\n      sub\n      swap1\n      revert\n    tag_52:\n        /* \"Lottery.sol\":2203:2204  0 */\n      0x00\n        /* \"Lottery.sol\":2178:2190  ticketAmount */\n      0x03\n        /* \"Lottery.sol\":2178:2200  ticketAmount[address1] */\n      0x00\n        /* \"Lottery.sol\":2191:2199  address1 */\n      0x01\n      0x00\n      swap1\n      sload\n      swap1\n      0x0100\n      exp\n      swap1\n      div\n      0xffffffffffffffffffffffffffffffffffffffff\n      and\n        /* \"Lottery.sol\":2178:2200  ticketAmount[address1] */\n      0xffffffffffffffffffffffffffffffffffffffff\n      and\n      0xffffffffffffffffffffffffffffffffffffffff\n      and\n      dup2\n      mstore\n      0x20\n      add\n      swap1\n      dup2\n      mstore\n      0x20\n      add\n      0x00\n      keccak256\n      sload\n        /* \"Lottery.sol\":2178:2204  ticketAmount[address1] > 0 */\n      gt\n        /* \"Lottery.sol\":2178:2234  ticketAmount[address1] > 0 && ticketAmount[address2] > 0 */\n      dup1\n      iszero\n      tag_55\n      jumpi\n      pop\n        /* \"Lottery.sol\":2233:2234  0 */\n      0x00\n        /* \"Lottery.sol\":2208:2220  ticketAmount */\n      0x03\n        /* \"Lottery.sol\":2208:2230  ticketAmount[address2] */\n      0x00\n        /* \"Lottery.sol\":2221:2229  address2 */\n      0x02\n      0x00\n      swap1\n      sload\n      swap1\n      0x0100\n      exp\n      swap1\n      div\n      0xffffffffffffffffffffffffffffffffffffffff\n      and\n        /* \"Lottery.sol\":2208:2230  ticketAmount[address2] */\n      0xffffffffffffffffffffffffffffffffffffffff\n      and\n      0xffffffffffffffffffffffffffffffffffffffff\n      and\n      dup2\n      mstore\n      0x20\n      add\n      swap1\n      dup2\n      mstore\n      0x20\n      add\n      0x00\n      keccak256\n      sload\n        /* \"Lottery.sol\":2208:2234  ticketAmount[address2] > 0 */\n      gt\n        /* \"Lottery.sol\":2178:2234  ticketAmount[address1] > 0 && ticketAmount[address2] > 0 */\n    tag_55:\n        /* \"Lottery.sol\":2170:2268  require(ticketAmount[address1] > 0 && ticketAmount[address2] > 0, \"Both players must buy tickets\") */\n      tag_56\n      jumpi\n      mload(0x40)\n      0x08c379a000000000000000000000000000000000000000000000000000000000\n      dup2\n      mstore\n      0x04\n      add\n      tag_57\n      swap1\n      tag_58\n      jump\t// in\n    tag_57:\n      mload(0x40)\n      dup1\n      swap2\n      sub\n      swap1\n      revert\n    tag_56:\n        /* \"Lottery.sol\":2323:2340  uint totalTickets */\n      0x00\n        /* \"Lottery.sol\":2368:2380  ticketAmount */\n      0x03\n        /* \"Lottery.sol\":2368:2390  ticketAmount[address2] */\n      0x00\n        /* \"Lottery.sol\":2381:2389  address2 */\n      0x02\n      0x00\n      swap1\n      sload\n      swap1\n      0x0100\n      exp\n      swap1\n      div\n      0xffffffffffffffffffffffffffffffffffffffff\n      and\n        /* \"Lottery.sol\":2368:2390  ticketAmount[address2] */\n      0xffffffffffffffffffffffffffffffffffffffff\n      and\n      0xffffffffffffffffffffffffffffffffffffffff\n      and\n      dup2\n      mstore\n      0x20\n      add\n      swap1\n      dup2\n      mstore\n      0x20\n      add\n      0x00\n      keccak256\n      sload\n        /* \"Lottery.sol\":2343:2355  ticketAmount */\n      0x03\n        /* \"Lottery.sol\":2343:2365  ticketAmount[address1] */\n      0x00\n        /* \"Lottery.sol\":2356:2364  address1 */\n      0x01\n      0x00\n      swap1\n      sload\n      swap1\n      0x0100\n      exp\n      swap1\n      div\n      0xffffffffffffffffffffffffffffffffffffffff\n      and\n        /* \"Lottery.sol\":2343:2365  ticketAmount[address1] */\n      0xffffffffffffffffffffffffffffffffffffffff\n      and\n      0xffffffffffffffffffffffffffffffffffffffff\n      and\n      dup2\n      mstore\n      0x20\n      add\n      swap1\n      dup2\n      mstore\n      0x20\n      add\n      0x00\n      keccak256\n      sload\n        /* \"Lottery.sol\":2343:2390  ticketAmount[address1] + ticketAmount[address2] */\n      tag_59\n      swap2\n      swap1\n      tag_60\n      jump\t// in\n    tag_59:\n        /* \"Lottery.sol\":2323:2390  uint totalTickets = ticketAmount[address1] + ticketAmount[address2] */\n      swap1\n      pop\n        /* \"Lottery.sol\":2436:2453  uint randomNumber */\n      0x00\n        /* \"Lottery.sol\":2527:2539  totalTickets */\n      dup2\n        /* \"Lottery.sol\":2488:2503  block.timestamp */\n      timestamp\n        /* \"Lottery.sol\":2505:2521  block.prevrandao */\n      prevrandao\n        /* \"Lottery.sol\":2471:2522  abi.encodePacked(block.timestamp, block.prevrandao) */\n      add(0x20, mload(0x40))\n      tag_61\n      swap3\n      swap2\n      swap1\n      tag_62\n      jump\t// in\n    tag_61:\n      mload(0x40)\n      0x20\n      dup2\n      dup4\n      sub\n      sub\n      dup2\n      mstore\n      swap1\n      0x40\n      mstore\n        /* \"Lottery.sol\":2461:2523  keccak256(abi.encodePacked(block.timestamp, block.prevrandao)) */\n      dup1\n      mload\n      swap1\n      0x20\n      add\n      keccak256\n        /* \"Lottery.sol\":2456:2524  uint(keccak256(abi.encodePacked(block.timestamp, block.prevrandao))) */\n      0x00\n      shr\n        /* \"Lottery.sol\":2456:2539  uint(keccak256(abi.encodePacked(block.timestamp, block.prevrandao))) % totalTickets */\n      tag_63\n      swap2\n      swap1\n      tag_64\n      jump\t// in\n    tag_63:\n        /* \"Lottery.sol\":2436:2539  uint randomNumber = uint(keccak256(abi.encodePacked(block.timestamp, block.prevrandao))) % totalTickets */\n      swap1\n      pop\n        /* \"Lottery.sol\":2577:2599  address payable winner */\n      0x00\n        /* \"Lottery.sol\":2628:2640  ticketAmount */\n      0x03\n        /* \"Lottery.sol\":2628:2650  ticketAmount[address1] */\n      0x00\n        /* \"Lottery.sol\":2641:2649  address1 */\n      0x01\n      0x00\n      swap1\n      sload\n      swap1\n      0x0100\n      exp\n      swap1\n      div\n      0xffffffffffffffffffffffffffffffffffffffff\n      and\n        /* \"Lottery.sol\":2628:2650  ticketAmount[address1] */\n      0xffffffffffffffffffffffffffffffffffffffff\n      and\n      0xffffffffffffffffffffffffffffffffffffffff\n      and\n      dup2\n      mstore\n      0x20\n      add\n      swap1\n      dup2\n      mstore\n      0x20\n      add\n      0x00\n      keccak256\n      sload\n        /* \"Lottery.sol\":2613:2625  randomNumber */\n      dup3\n        /* \"Lottery.sol\":2613:2650  randomNumber < ticketAmount[address1] */\n      lt\n        /* \"Lottery.sol\":2609:2742  if (randomNumber < ticketAmount[address1]) {... */\n      iszero\n      tag_65\n      jumpi\n        /* \"Lottery.sol\":2675:2683  address1 */\n      0x01\n      0x00\n      swap1\n      sload\n      swap1\n      0x0100\n      exp\n      swap1\n      div\n      0xffffffffffffffffffffffffffffffffffffffff\n      and\n        /* \"Lottery.sol\":2666:2683  winner = address1 */\n      swap1\n      pop\n        /* \"Lottery.sol\":2609:2742  if (randomNumber < ticketAmount[address1]) {... */\n      jump(tag_66)\n    tag_65:\n        /* \"Lottery.sol\":2723:2731  address2 */\n      0x02\n      0x00\n      swap1\n      sload\n      swap1\n      0x0100\n      exp\n      swap1\n      div\n      0xffffffffffffffffffffffffffffffffffffffff\n      and\n        /* \"Lottery.sol\":2714:2731  winner = address2 */\n      swap1\n      pop\n        /* \"Lottery.sol\":2609:2742  if (randomNumber < ticketAmount[address1]) {... */\n    tag_66:\n        /* \"Lottery.sol\":2751:2761  uint prize */\n      0x00\n        /* \"Lottery.sol\":2764:2785  address(this).balance */\n      selfbalance\n        /* \"Lottery.sol\":2751:2785  uint prize = address(this).balance */\n      swap1\n      pop\n        /* \"Lottery.sol\":2832:2841  bool sent */\n      0x00\n        /* \"Lottery.sol\":2847:2853  winner */\n      dup3\n        /* \"Lottery.sol\":2847:2858  winner.call */\n      0xffffffffffffffffffffffffffffffffffffffff\n      and\n        /* \"Lottery.sol\":2866:2871  prize */\n      dup3\n        /* \"Lottery.sol\":2847:2876  winner.call{value: prize}(\"\") */\n      mload(0x40)\n      tag_67\n      swap1\n      tag_68\n      jump\t// in\n    tag_67:\n      0x00\n      mload(0x40)\n      dup1\n      dup4\n      sub\n      dup2\n      dup6\n      dup8\n      gas\n      call\n      swap3\n      pop\n      pop\n      pop\n      returndatasize\n      dup1\n      0x00\n      dup2\n      eq\n      tag_71\n      jumpi\n      mload(0x40)\n      swap2\n      pop\n      and(add(returndatasize, 0x3f), not(0x1f))\n      dup3\n      add\n      0x40\n      mstore\n      returndatasize\n      dup3\n      mstore\n      returndatasize\n      0x00\n      0x20\n      dup5\n      add\n      returndatacopy\n      jump(tag_70)\n    tag_71:\n      0x60\n      swap2\n      pop\n    tag_70:\n      pop\n        /* \"Lottery.sol\":2831:2876  (bool sent, ) = winner.call{value: prize}(\"\") */\n      pop\n      swap1\n      pop\n        /* \"Lottery.sol\":2894:2898  sent */\n      dup1\n        /* \"Lottery.sol\":2886:2923  require(sent, \"Failed to send prize\") */\n      tag_72\n      jumpi\n      mload(0x40)\n      0x08c379a000000000000000000000000000000000000000000000000000000000\n      dup2\n      mstore\n      0x04\n      add\n      tag_73\n      swap1\n      tag_74\n      jump\t// in\n    tag_73:\n      mload(0x40)\n      dup1\n      swap2\n      sub\n      swap1\n      revert\n    tag_72:\n        /* \"Lottery.sol\":2947:2976  WinnerSelected(winner, prize) */\n      0x75060f9e79552df167b73353fee6237a75bb5ba8ea022f77224e32f152138bcb\n        /* \"Lottery.sol\":2962:2968  winner */\n      dup4\n        /* \"Lottery.sol\":2970:2975  prize */\n      dup4\n        /* \"Lottery.sol\":2947:2976  WinnerSelected(winner, prize) */\n      mload(0x40)\n      tag_75\n      swap3\n      swap2\n      swap1\n      tag_76\n      jump\t// in\n    tag_75:\n      mload(0x40)\n      dup1\n      swap2\n      sub\n      swap1\n      log1\n        /* \"Lottery.sol\":3026:3035  cleanup() */\n      tag_77\n        /* \"Lottery.sol\":3026:3033  cleanup */\n      tag_28\n        /* \"Lottery.sol\":3026:3035  cleanup() */\n      jump\t// in\n    tag_77:\n        /* \"Lottery.sol\":2018:3042  {... */\n      pop\n      pop\n      pop\n      pop\n      pop\n        /* \"Lottery.sol\":1987:3042  function selectWinner() public {... */\n      jump\t// out\n        /* \"Lottery.sol\":3052:3492  function cleanup() public {... */\n    tag_28:\n        /* \"Lottery.sol\":3142:3143  0 */\n      0x00\n        /* \"Lottery.sol\":3115:3123  address1 */\n      0x01\n      0x00\n        /* \"Lottery.sol\":3115:3145  address1 = payable(address(0)) */\n      0x0100\n      exp\n      dup2\n      sload\n      dup2\n      0xffffffffffffffffffffffffffffffffffffffff\n      mul\n      not\n      and\n      swap1\n      dup4\n      0xffffffffffffffffffffffffffffffffffffffff\n      and\n      mul\n      or\n      swap1\n      sstore\n      pop\n        /* \"Lottery.sol\":3182:3183  0 */\n      0x00\n        /* \"Lottery.sol\":3155:3163  address2 */\n      0x02\n      0x00\n        /* \"Lottery.sol\":3155:3185  address2 = payable(address(0)) */\n      0x0100\n      exp\n      dup2\n      sload\n      dup2\n      0xffffffffffffffffffffffffffffffffffffffff\n      mul\n      not\n      and\n      swap1\n      dup4\n      0xffffffffffffffffffffffffffffffffffffffff\n      and\n      mul\n      or\n      swap1\n      sstore\n      pop\n        /* \"Lottery.sol\":3237:3242  false */\n      0x00\n        /* \"Lottery.sol\":3223:3234  game_status */\n      0x04\n      0x00\n        /* \"Lottery.sol\":3223:3242  game_status = false */\n      0x0100\n      exp\n      dup2\n      sload\n      dup2\n      0xff\n      mul\n      not\n      and\n      swap1\n      dup4\n      iszero\n      iszero\n      mul\n      or\n      swap1\n      sstore\n      pop\n        /* \"Lottery.sol\":3314:3315  0 */\n      0x00\n        /* \"Lottery.sol\":3289:3301  ticketAmount */\n      0x03\n        /* \"Lottery.sol\":3289:3311  ticketAmount[address1] */\n      0x00\n        /* \"Lottery.sol\":3302:3310  address1 */\n      0x01\n      0x00\n      swap1\n      sload\n      swap1\n      0x0100\n      exp\n      swap1\n      div\n      0xffffffffffffffffffffffffffffffffffffffff\n      and\n        /* \"Lottery.sol\":3289:3311  ticketAmount[address1] */\n      0xffffffffffffffffffffffffffffffffffffffff\n      and\n      0xffffffffffffffffffffffffffffffffffffffff\n      and\n      dup2\n      mstore\n      0x20\n      add\n      swap1\n      dup2\n      mstore\n      0x20\n      add\n      0x00\n      keccak256\n      sload\n        /* \"Lottery.sol\":3289:3315  ticketAmount[address1] > 0 */\n      gt\n        /* \"Lottery.sol\":3285:3368  if (ticketAmount[address1] > 0) {... */\n      iszero\n      tag_79\n      jumpi\n        /* \"Lottery.sol\":3356:3357  0 */\n      0x00\n        /* \"Lottery.sol\":3331:3343  ticketAmount */\n      0x03\n        /* \"Lottery.sol\":3331:3353  ticketAmount[address1] */\n      0x00\n        /* \"Lottery.sol\":3344:3352  address1 */\n      0x01\n      0x00\n      swap1\n      sload\n      swap1\n      0x0100\n      exp\n      swap1\n      div\n      0xffffffffffffffffffffffffffffffffffffffff\n      and\n        /* \"Lottery.sol\":3331:3353  ticketAmount[address1] */\n      0xffffffffffffffffffffffffffffffffffffffff\n      and\n      0xffffffffffffffffffffffffffffffffffffffff\n      and\n      dup2\n      mstore\n      0x20\n      add\n      swap1\n      dup2\n      mstore\n      0x20\n      add\n      0x00\n      keccak256\n        /* \"Lottery.sol\":3331:3357  ticketAmount[address1] = 0 */\n      dup2\n      swap1\n      sstore\n      pop\n        /* \"Lottery.sol\":3285:3368  if (ticketAmount[address1] > 0) {... */\n    tag_79:\n        /* \"Lottery.sol\":3406:3407  0 */\n      0x00\n        /* \"Lottery.sol\":3381:3393  ticketAmount */\n      0x03\n        /* \"Lottery.sol\":3381:3403  ticketAmount[address2] */\n      0x00\n        /* \"Lottery.sol\":3394:3402  address2 */\n      0x02\n      0x00\n      swap1\n      sload\n      swap1\n      0x0100\n      exp\n      swap1\n      div\n      0xffffffffffffffffffffffffffffffffffffffff\n      and\n        /* \"Lottery.sol\":3381:3403  ticketAmount[address2] */\n      0xffffffffffffffffffffffffffffffffffffffff\n      and\n      0xffffffffffffffffffffffffffffffffffffffff\n      and\n      dup2\n      mstore\n      0x20\n      add\n      swap1\n      dup2\n      mstore\n      0x20\n      add\n      0x00\n      keccak256\n      sload\n        /* \"Lottery.sol\":3381:3407  ticketAmount[address2] > 0 */\n      gt\n        /* \"Lottery.sol\":3377:3460  if (ticketAmount[address2] > 0) {... */\n      iszero\n      tag_80\n      jumpi\n        /* \"Lottery.sol\":3448:3449  0 */\n      0x00\n        /* \"Lottery.sol\":3423:3435  ticketAmount */\n      0x03\n        /* \"Lottery.sol\":3423:3445  ticketAmount[address2] */\n      0x00\n        /* \"Lottery.sol\":3436:3444  address2 */\n      0x02\n      0x00\n      swap1\n      sload\n      swap1\n      0x0100\n      exp\n      swap1\n      div\n      0xffffffffffffffffffffffffffffffffffffffff\n      and\n        /* \"Lottery.sol\":3423:3445  ticketAmount[address2] */\n      0xffffffffffffffffffffffffffffffffffffffff\n      and\n      0xffffffffffffffffffffffffffffffffffffffff\n      and\n      dup2\n      mstore\n      0x20\n      add\n      swap1\n      dup2\n      mstore\n      0x20\n      add\n      0x00\n      keccak256\n        /* \"Lottery.sol\":3423:3449  ticketAmount[address2] = 0 */\n      dup2\n      swap1\n      sstore\n      pop\n        /* \"Lottery.sol\":3377:3460  if (ticketAmount[address2] > 0) {... */\n    tag_80:\n        /* \"Lottery.sol\":3474:3485  GameReset() */\n      0xc6976b6410888b44c765590c8368eb4a60e0431d4ad683c8a53ea85a8479f22e\n      mload(0x40)\n      mload(0x40)\n      dup1\n      swap2\n      sub\n      swap1\n      log1\n        /* \"Lottery.sol\":3052:3492  function cleanup() public {... */\n      jump\t// out\n        /* \"#utility.yul\":7:97   */\n    tag_81:\n        /* \"#utility.yul\":41:48   */\n      0x00\n        /* \"#utility.yul\":84:89   */\n      dup2\n        /* \"#utility.yul\":77:90   */\n      iszero\n        /* \"#utility.yul\":70:91   */\n      iszero\n        /* \"#utility.yul\":59:91   */\n      swap1\n      pop\n        /* \"#utility.yul\":7:97   */\n      swap2\n      swap1\n      pop\n      jump\t// out\n        /* \"#utility.yul\":103:212   */\n    tag_82:\n        /* \"#utility.yul\":184:205   */\n      tag_123\n        /* \"#utility.yul\":199:204   */\n      dup2\n        /* \"#utility.yul\":184:205   */\n      tag_81\n      jump\t// in\n    tag_123:\n        /* \"#utility.yul\":179:182   */\n      dup3\n        /* \"#utility.yul\":172:206   */\n      mstore\n        /* \"#utility.yul\":103:212   */\n      pop\n      pop\n      jump\t// out\n        /* \"#utility.yul\":218:428   */\n    tag_11:\n        /* \"#utility.yul\":305:309   */\n      0x00\n        /* \"#utility.yul\":343:345   */\n      0x20\n        /* \"#utility.yul\":332:341   */\n      dup3\n        /* \"#utility.yul\":328:346   */\n      add\n        /* \"#utility.yul\":320:346   */\n      swap1\n      pop\n        /* \"#utility.yul\":356:421   */\n      tag_125\n        /* \"#utility.yul\":418:419   */\n      0x00\n        /* \"#utility.yul\":407:416   */\n      dup4\n        /* \"#utility.yul\":403:420   */\n      add\n        /* \"#utility.yul\":394:400   */\n      dup5\n        /* \"#utility.yul\":356:421   */\n      tag_82\n      jump\t// in\n    tag_125:\n        /* \"#utility.yul\":218:428   */\n      swap3\n      swap2\n      pop\n      pop\n      jump\t// out\n        /* \"#utility.yul\":515:632   */\n    tag_84:\n        /* \"#utility.yul\":624:625   */\n      0x00\n        /* \"#utility.yul\":621:622   */\n      dup1\n        /* \"#utility.yul\":614:626   */\n      revert\n        /* \"#utility.yul\":761:887   */\n    tag_86:\n        /* \"#utility.yul\":798:805   */\n      0x00\n        /* \"#utility.yul\":838:880   */\n      0xffffffffffffffffffffffffffffffffffffffff\n        /* \"#utility.yul\":831:836   */\n      dup3\n        /* \"#utility.yul\":827:881   */\n      and\n        /* \"#utility.yul\":816:881   */\n      swap1\n      pop\n        /* \"#utility.yul\":761:887   */\n      swap2\n      swap1\n      pop\n      jump\t// out\n        /* \"#utility.yul\":893:989   */\n    tag_87:\n        /* \"#utility.yul\":930:937   */\n      0x00\n        /* \"#utility.yul\":959:983   */\n      tag_131\n        /* \"#utility.yul\":977:982   */\n      dup3\n        /* \"#utility.yul\":959:983   */\n      tag_86\n      jump\t// in\n    tag_131:\n        /* \"#utility.yul\":948:983   */\n      swap1\n      pop\n        /* \"#utility.yul\":893:989   */\n      swap2\n      swap1\n      pop\n      jump\t// out\n        /* \"#utility.yul\":995:1117   */\n    tag_88:\n        /* \"#utility.yul\":1068:1092   */\n      tag_133\n        /* \"#utility.yul\":1086:1091   */\n      dup2\n        /* \"#utility.yul\":1068:1092   */\n      tag_87\n      jump\t// in\n    tag_133:\n        /* \"#utility.yul\":1061:1066   */\n      dup2\n        /* \"#utility.yul\":1058:1093   */\n      eq\n        /* \"#utility.yul\":1048:1111   */\n      tag_134\n      jumpi\n        /* \"#utility.yul\":1107:1108   */\n      0x00\n        /* \"#utility.yul\":1104:1105   */\n      dup1\n        /* \"#utility.yul\":1097:1109   */\n      revert\n        /* \"#utility.yul\":1048:1111   */\n    tag_134:\n        /* \"#utility.yul\":995:1117   */\n      pop\n      jump\t// out\n        /* \"#utility.yul\":1123:1262   */\n    tag_89:\n        /* \"#utility.yul\":1169:1174   */\n      0x00\n        /* \"#utility.yul\":1207:1213   */\n      dup2\n        /* \"#utility.yul\":1194:1214   */\n      calldataload\n        /* \"#utility.yul\":1185:1214   */\n      swap1\n      pop\n        /* \"#utility.yul\":1223:1256   */\n      tag_136\n        /* \"#utility.yul\":1250:1255   */\n      dup2\n        /* \"#utility.yul\":1223:1256   */\n      tag_88\n      jump\t// in\n    tag_136:\n        /* \"#utility.yul\":1123:1262   */\n      swap3\n      swap2\n      pop\n      pop\n      jump\t// out\n        /* \"#utility.yul\":1268:1597   */\n    tag_15:\n        /* \"#utility.yul\":1327:1333   */\n      0x00\n        /* \"#utility.yul\":1376:1378   */\n      0x20\n        /* \"#utility.yul\":1364:1373   */\n      dup3\n        /* \"#utility.yul\":1355:1362   */\n      dup5\n        /* \"#utility.yul\":1351:1374   */\n      sub\n        /* \"#utility.yul\":1347:1379   */\n      slt\n        /* \"#utility.yul\":1344:1463   */\n      iszero\n      tag_138\n      jumpi\n        /* \"#utility.yul\":1382:1461   */\n      tag_139\n      tag_84\n      jump\t// in\n    tag_139:\n        /* \"#utility.yul\":1344:1463   */\n    tag_138:\n        /* \"#utility.yul\":1502:1503   */\n      0x00\n        /* \"#utility.yul\":1527:1580   */\n      tag_140\n        /* \"#utility.yul\":1572:1579   */\n      dup5\n        /* \"#utility.yul\":1563:1569   */\n      dup3\n        /* \"#utility.yul\":1552:1561   */\n      dup6\n        /* \"#utility.yul\":1548:1570   */\n      add\n        /* \"#utility.yul\":1527:1580   */\n      tag_89\n      jump\t// in\n    tag_140:\n        /* \"#utility.yul\":1517:1580   */\n      swap2\n      pop\n        /* \"#utility.yul\":1473:1590   */\n      pop\n        /* \"#utility.yul\":1268:1597   */\n      swap3\n      swap2\n      pop\n      pop\n      jump\t// out\n        /* \"#utility.yul\":1603:1680   */\n    tag_90:\n        /* \"#utility.yul\":1640:1647   */\n      0x00\n        /* \"#utility.yul\":1669:1674   */\n      dup2\n        /* \"#utility.yul\":1658:1674   */\n      swap1\n      pop\n        /* \"#utility.yul\":1603:1680   */\n      swap2\n      swap1\n      pop\n      jump\t// out\n        /* \"#utility.yul\":1686:1804   */\n    tag_91:\n        /* \"#utility.yul\":1773:1797   */\n      tag_143\n        /* \"#utility.yul\":1791:1796   */\n      dup2\n        /* \"#utility.yul\":1773:1797   */\n      tag_90\n      jump\t// in\n    tag_143:\n        /* \"#utility.yul\":1768:1771   */\n      dup3\n        /* \"#utility.yul\":1761:1798   */\n      mstore\n        /* \"#utility.yul\":1686:1804   */\n      pop\n      pop\n      jump\t// out\n        /* \"#utility.yul\":1810:2032   */\n    tag_18:\n        /* \"#utility.yul\":1903:1907   */\n      0x00\n        /* \"#utility.yul\":1941:1943   */\n      0x20\n        /* \"#utility.yul\":1930:1939   */\n      dup3\n        /* \"#utility.yul\":1926:1944   */\n      add\n        /* \"#utility.yul\":1918:1944   */\n      swap1\n      pop\n        /* \"#utility.yul\":1954:2025   */\n      tag_145\n        /* \"#utility.yul\":2022:2023   */\n      0x00\n        /* \"#utility.yul\":2011:2020   */\n      dup4\n        /* \"#utility.yul\":2007:2024   */\n      add\n        /* \"#utility.yul\":1998:2004   */\n      dup5\n        /* \"#utility.yul\":1954:2025   */\n      tag_91\n      jump\t// in\n    tag_145:\n        /* \"#utility.yul\":1810:2032   */\n      swap3\n      swap2\n      pop\n      pop\n      jump\t// out\n        /* \"#utility.yul\":2038:2160   */\n    tag_92:\n        /* \"#utility.yul\":2111:2135   */\n      tag_147\n        /* \"#utility.yul\":2129:2134   */\n      dup2\n        /* \"#utility.yul\":2111:2135   */\n      tag_90\n      jump\t// in\n    tag_147:\n        /* \"#utility.yul\":2104:2109   */\n      dup2\n        /* \"#utility.yul\":2101:2136   */\n      eq\n        /* \"#utility.yul\":2091:2154   */\n      tag_148\n      jumpi\n        /* \"#utility.yul\":2150:2151   */\n      0x00\n        /* \"#utility.yul\":2147:2148   */\n      dup1\n        /* \"#utility.yul\":2140:2152   */\n      revert\n        /* \"#utility.yul\":2091:2154   */\n    tag_148:\n        /* \"#utility.yul\":2038:2160   */\n      pop\n      jump\t// out\n        /* \"#utility.yul\":2166:2305   */\n    tag_93:\n        /* \"#utility.yul\":2212:2217   */\n      0x00\n        /* \"#utility.yul\":2250:2256   */\n      dup2\n        /* \"#utility.yul\":2237:2257   */\n      calldataload\n        /* \"#utility.yul\":2228:2257   */\n      swap1\n      pop\n        /* \"#utility.yul\":2266:2299   */\n      tag_150\n        /* \"#utility.yul\":2293:2298   */\n      dup2\n        /* \"#utility.yul\":2266:2299   */\n      tag_92\n      jump\t// in\n    tag_150:\n        /* \"#utility.yul\":2166:2305   */\n      swap3\n      swap2\n      pop\n      pop\n      jump\t// out\n        /* \"#utility.yul\":2311:2640   */\n    tag_21:\n        /* \"#utility.yul\":2370:2376   */\n      0x00\n        /* \"#utility.yul\":2419:2421   */\n      0x20\n        /* \"#utility.yul\":2407:2416   */\n      dup3\n        /* \"#utility.yul\":2398:2405   */\n      dup5\n        /* \"#utility.yul\":2394:2417   */\n      sub\n        /* \"#utility.yul\":2390:2422   */\n      slt\n        /* \"#utility.yul\":2387:2506   */\n      iszero\n      tag_152\n      jumpi\n        /* \"#utility.yul\":2425:2504   */\n      tag_153\n      tag_84\n      jump\t// in\n    tag_153:\n        /* \"#utility.yul\":2387:2506   */\n    tag_152:\n        /* \"#utility.yul\":2545:2546   */\n      0x00\n        /* \"#utility.yul\":2570:2623   */\n      tag_154\n        /* \"#utility.yul\":2615:2622   */\n      dup5\n        /* \"#utility.yul\":2606:2612   */\n      dup3\n        /* \"#utility.yul\":2595:2604   */\n      dup6\n        /* \"#utility.yul\":2591:2613   */\n      add\n        /* \"#utility.yul\":2570:2623   */\n      tag_93\n      jump\t// in\n    tag_154:\n        /* \"#utility.yul\":2560:2623   */\n      swap2\n      pop\n        /* \"#utility.yul\":2516:2633   */\n      pop\n        /* \"#utility.yul\":2311:2640   */\n      swap3\n      swap2\n      pop\n      pop\n      jump\t// out\n        /* \"#utility.yul\":2646:2815   */\n    tag_94:\n        /* \"#utility.yul\":2730:2741   */\n      0x00\n        /* \"#utility.yul\":2764:2770   */\n      dup3\n        /* \"#utility.yul\":2759:2762   */\n      dup3\n        /* \"#utility.yul\":2752:2771   */\n      mstore\n        /* \"#utility.yul\":2804:2808   */\n      0x20\n        /* \"#utility.yul\":2799:2802   */\n      dup3\n        /* \"#utility.yul\":2795:2809   */\n      add\n        /* \"#utility.yul\":2780:2809   */\n      swap1\n      pop\n        /* \"#utility.yul\":2646:2815   */\n      swap3\n      swap2\n      pop\n      pop\n      jump\t// out\n        /* \"#utility.yul\":2821:3054   */\n    tag_95:\n        /* \"#utility.yul\":2961:2995   */\n      0x596f75206861766520616c726561647920707572636861736564207469636b65\n        /* \"#utility.yul\":2957:2958   */\n      0x00\n        /* \"#utility.yul\":2949:2955   */\n      dup3\n        /* \"#utility.yul\":2945:2959   */\n      add\n        /* \"#utility.yul\":2938:2996   */\n      mstore\n        /* \"#utility.yul\":3030:3046   */\n      0x7473207468697320726f756e642e000000000000000000000000000000000000\n        /* \"#utility.yul\":3025:3027   */\n      0x20\n        /* \"#utility.yul\":3017:3023   */\n      dup3\n        /* \"#utility.yul\":3013:3028   */\n      add\n        /* \"#utility.yul\":3006:3047   */\n      mstore\n        /* \"#utility.yul\":2821:3054   */\n      pop\n      jump\t// out\n        /* \"#utility.yul\":3060:3426   */\n    tag_96:\n        /* \"#utility.yul\":3202:3205   */\n      0x00\n        /* \"#utility.yul\":3223:3290   */\n      tag_158\n        /* \"#utility.yul\":3287:3289   */\n      0x2e\n        /* \"#utility.yul\":3282:3285   */\n      dup4\n        /* \"#utility.yul\":3223:3290   */\n      tag_94\n      jump\t// in\n    tag_158:\n        /* \"#utility.yul\":3216:3290   */\n      swap2\n      pop\n        /* \"#utility.yul\":3299:3392   */\n      tag_159\n        /* \"#utility.yul\":3388:3391   */\n      dup3\n        /* \"#utility.yul\":3299:3392   */\n      tag_95\n      jump\t// in\n    tag_159:\n        /* \"#utility.yul\":3417:3419   */\n      0x40\n        /* \"#utility.yul\":3412:3415   */\n      dup3\n        /* \"#utility.yul\":3408:3420   */\n      add\n        /* \"#utility.yul\":3401:3420   */\n      swap1\n      pop\n        /* \"#utility.yul\":3060:3426   */\n      swap2\n      swap1\n      pop\n      jump\t// out\n        /* \"#utility.yul\":3432:3851   */\n    tag_32:\n        /* \"#utility.yul\":3598:3602   */\n      0x00\n        /* \"#utility.yul\":3636:3638   */\n      0x20\n        /* \"#utility.yul\":3625:3634   */\n      dup3\n        /* \"#utility.yul\":3621:3639   */\n      add\n        /* \"#utility.yul\":3613:3639   */\n      swap1\n      pop\n        /* \"#utility.yul\":3685:3694   */\n      dup2\n        /* \"#utility.yul\":3679:3683   */\n      dup2\n        /* \"#utility.yul\":3675:3695   */\n      sub\n        /* \"#utility.yul\":3671:3672   */\n      0x00\n        /* \"#utility.yul\":3660:3669   */\n      dup4\n        /* \"#utility.yul\":3656:3673   */\n      add\n        /* \"#utility.yul\":3649:3696   */\n      mstore\n        /* \"#utility.yul\":3713:3844   */\n      tag_161\n        /* \"#utility.yul\":3839:3843   */\n      dup2\n        /* \"#utility.yul\":3713:3844   */\n      tag_96\n      jump\t// in\n    tag_161:\n        /* \"#utility.yul\":3705:3844   */\n      swap1\n      pop\n        /* \"#utility.yul\":3432:3851   */\n      swap2\n      swap1\n      pop\n      jump\t// out\n        /* \"#utility.yul\":3857:4037   */\n    tag_97:\n        /* \"#utility.yul\":3905:3982   */\n      0x4e487b7100000000000000000000000000000000000000000000000000000000\n        /* \"#utility.yul\":3902:3903   */\n      0x00\n        /* \"#utility.yul\":3895:3983   */\n      mstore\n        /* \"#utility.yul\":4002:4006   */\n      0x11\n        /* \"#utility.yul\":3999:4000   */\n      0x04\n        /* \"#utility.yul\":3992:4007   */\n      mstore\n        /* \"#utility.yul\":4026:4030   */\n      0x24\n        /* \"#utility.yul\":4023:4024   */\n      0x00\n        /* \"#utility.yul\":4016:4031   */\n      revert\n        /* \"#utility.yul\":4043:4453   */\n    tag_34:\n        /* \"#utility.yul\":4083:4090   */\n      0x00\n        /* \"#utility.yul\":4106:4126   */\n      tag_164\n        /* \"#utility.yul\":4124:4125   */\n      dup3\n        /* \"#utility.yul\":4106:4126   */\n      tag_90\n      jump\t// in\n    tag_164:\n        /* \"#utility.yul\":4101:4126   */\n      swap2\n      pop\n        /* \"#utility.yul\":4140:4160   */\n      tag_165\n        /* \"#utility.yul\":4158:4159   */\n      dup4\n        /* \"#utility.yul\":4140:4160   */\n      tag_90\n      jump\t// in\n    tag_165:\n        /* \"#utility.yul\":4135:4160   */\n      swap3\n      pop\n        /* \"#utility.yul\":4195:4196   */\n      dup3\n        /* \"#utility.yul\":4192:4193   */\n      dup3\n        /* \"#utility.yul\":4188:4197   */\n      mul\n        /* \"#utility.yul\":4217:4247   */\n      tag_166\n        /* \"#utility.yul\":4235:4246   */\n      dup2\n        /* \"#utility.yul\":4217:4247   */\n      tag_90\n      jump\t// in\n    tag_166:\n        /* \"#utility.yul\":4206:4247   */\n      swap2\n      pop\n        /* \"#utility.yul\":4396:4397   */\n      dup3\n        /* \"#utility.yul\":4387:4394   */\n      dup3\n        /* \"#utility.yul\":4383:4398   */\n      div\n        /* \"#utility.yul\":4380:4381   */\n      dup5\n        /* \"#utility.yul\":4377:4399   */\n      eq\n        /* \"#utility.yul\":4357:4358   */\n      dup4\n        /* \"#utility.yul\":4350:4359   */\n      iszero\n        /* \"#utility.yul\":4330:4413   */\n      or\n        /* \"#utility.yul\":4307:4446   */\n      tag_167\n      jumpi\n        /* \"#utility.yul\":4426:4444   */\n      tag_168\n      tag_97\n      jump\t// in\n    tag_168:\n        /* \"#utility.yul\":4307:4446   */\n    tag_167:\n        /* \"#utility.yul\":4091:4453   */\n      pop\n        /* \"#utility.yul\":4043:4453   */\n      swap3\n      swap2\n      pop\n      pop\n      jump\t// out\n        /* \"#utility.yul\":4459:4704   */\n    tag_98:\n        /* \"#utility.yul\":4599:4633   */\n      0x596f7520646f206e6f74206861766520656e6f75676820657468657220746f20\n        /* \"#utility.yul\":4595:4596   */\n      0x00\n        /* \"#utility.yul\":4587:4593   */\n      dup3\n        /* \"#utility.yul\":4583:4597   */\n      add\n        /* \"#utility.yul\":4576:4634   */\n      mstore\n        /* \"#utility.yul\":4668:4696   */\n      0x70757263686173652074686174206d616e79207469636b657473000000000000\n        /* \"#utility.yul\":4663:4665   */\n      0x20\n        /* \"#utility.yul\":4655:4661   */\n      dup3\n        /* \"#utility.yul\":4651:4666   */\n      add\n        /* \"#utility.yul\":4644:4697   */\n      mstore\n        /* \"#utility.yul\":4459:4704   */\n      pop\n      jump\t// out\n        /* \"#utility.yul\":4710:5076   */\n    tag_99:\n        /* \"#utility.yul\":4852:4855   */\n      0x00\n        /* \"#utility.yul\":4873:4940   */\n      tag_171\n        /* \"#utility.yul\":4937:4939   */\n      0x3a\n        /* \"#utility.yul\":4932:4935   */\n      dup4\n        /* \"#utility.yul\":4873:4940   */\n      tag_94\n      jump\t// in\n    tag_171:\n        /* \"#utility.yul\":4866:4940   */\n      swap2\n      pop\n        /* \"#utility.yul\":4949:5042   */\n      tag_172\n        /* \"#utility.yul\":5038:5041   */\n      dup3\n        /* \"#utility.yul\":4949:5042   */\n      tag_98\n      jump\t// in\n    tag_172:\n        /* \"#utility.yul\":5067:5069   */\n      0x40\n        /* \"#utility.yul\":5062:5065   */\n      dup3\n        /* \"#utility.yul\":5058:5070   */\n      add\n        /* \"#utility.yul\":5051:5070   */\n      swap1\n      pop\n        /* \"#utility.yul\":4710:5076   */\n      swap2\n      swap1\n      pop\n      jump\t// out\n        /* \"#utility.yul\":5082:5501   */\n    tag_37:\n        /* \"#utility.yul\":5248:5252   */\n      0x00\n        /* \"#utility.yul\":5286:5288   */\n      0x20\n        /* \"#utility.yul\":5275:5284   */\n      dup3\n        /* \"#utility.yul\":5271:5289   */\n      add\n        /* \"#utility.yul\":5263:5289   */\n      swap1\n      pop\n        /* \"#utility.yul\":5335:5344   */\n      dup2\n        /* \"#utility.yul\":5329:5333   */\n      dup2\n        /* \"#utility.yul\":5325:5345   */\n      sub\n        /* \"#utility.yul\":5321:5322   */\n      0x00\n        /* \"#utility.yul\":5310:5319   */\n      dup4\n        /* \"#utility.yul\":5306:5323   */\n      add\n        /* \"#utility.yul\":5299:5346   */\n      mstore\n        /* \"#utility.yul\":5363:5494   */\n      tag_174\n        /* \"#utility.yul\":5489:5493   */\n      dup2\n        /* \"#utility.yul\":5363:5494   */\n      tag_99\n      jump\t// in\n    tag_174:\n        /* \"#utility.yul\":5355:5494   */\n      swap1\n      pop\n        /* \"#utility.yul\":5082:5501   */\n      swap2\n      swap1\n      pop\n      jump\t// out\n        /* \"#utility.yul\":5507:5685   */\n    tag_100:\n        /* \"#utility.yul\":5647:5677   */\n      0x47616d6520616c7265616479206861732074776f20706c617965727300000000\n        /* \"#utility.yul\":5643:5644   */\n      0x00\n        /* \"#utility.yul\":5635:5641   */\n      dup3\n        /* \"#utility.yul\":5631:5645   */\n      add\n        /* \"#utility.yul\":5624:5678   */\n      mstore\n        /* \"#utility.yul\":5507:5685   */\n      pop\n      jump\t// out\n        /* \"#utility.yul\":5691:6057   */\n    tag_101:\n        /* \"#utility.yul\":5833:5836   */\n      0x00\n        /* \"#utility.yul\":5854:5921   */\n      tag_177\n        /* \"#utility.yul\":5918:5920   */\n      0x1c\n        /* \"#utility.yul\":5913:5916   */\n      dup4\n        /* \"#utility.yul\":5854:5921   */\n      tag_94\n      jump\t// in\n    tag_177:\n        /* \"#utility.yul\":5847:5921   */\n      swap2\n      pop\n        /* \"#utility.yul\":5930:6023   */\n      tag_178\n        /* \"#utility.yul\":6019:6022   */\n      dup3\n        /* \"#utility.yul\":5930:6023   */\n      tag_100\n      jump\t// in\n    tag_178:\n        /* \"#utility.yul\":6048:6050   */\n      0x20\n        /* \"#utility.yul\":6043:6046   */\n      dup3\n        /* \"#utility.yul\":6039:6051   */\n      add\n        /* \"#utility.yul\":6032:6051   */\n      swap1\n      pop\n        /* \"#utility.yul\":5691:6057   */\n      swap2\n      swap1\n      pop\n      jump\t// out\n        /* \"#utility.yul\":6063:6482   */\n    tag_45:\n        /* \"#utility.yul\":6229:6233   */\n      0x00\n        /* \"#utility.yul\":6267:6269   */\n      0x20\n        /* \"#utility.yul\":6256:6265   */\n      dup3\n        /* \"#utility.yul\":6252:6270   */\n      add\n        /* \"#utility.yul\":6244:6270   */\n      swap1\n      pop\n        /* \"#utility.yul\":6316:6325   */\n      dup2\n        /* \"#utility.yul\":6310:6314   */\n      dup2\n        /* \"#utility.yul\":6306:6326   */\n      sub\n        /* \"#utility.yul\":6302:6303   */\n      0x00\n        /* \"#utility.yul\":6291:6300   */\n      dup4\n        /* \"#utility.yul\":6287:6304   */\n      add\n        /* \"#utility.yul\":6280:6327   */\n      mstore\n        /* \"#utility.yul\":6344:6475   */\n      tag_180\n        /* \"#utility.yul\":6470:6474   */\n      dup2\n        /* \"#utility.yul\":6344:6475   */\n      tag_101\n      jump\t// in\n    tag_180:\n        /* \"#utility.yul\":6336:6475   */\n      swap1\n      pop\n        /* \"#utility.yul\":6063:6482   */\n      swap2\n      swap1\n      pop\n      jump\t// out\n        /* \"#utility.yul\":6488:6606   */\n    tag_102:\n        /* \"#utility.yul\":6575:6599   */\n      tag_182\n        /* \"#utility.yul\":6593:6598   */\n      dup2\n        /* \"#utility.yul\":6575:6599   */\n      tag_87\n      jump\t// in\n    tag_182:\n        /* \"#utility.yul\":6570:6573   */\n      dup3\n        /* \"#utility.yul\":6563:6600   */\n      mstore\n        /* \"#utility.yul\":6488:6606   */\n      pop\n      pop\n      jump\t// out\n        /* \"#utility.yul\":6612:6944   */\n    tag_47:\n        /* \"#utility.yul\":6733:6737   */\n      0x00\n        /* \"#utility.yul\":6771:6773   */\n      0x40\n        /* \"#utility.yul\":6760:6769   */\n      dup3\n        /* \"#utility.yul\":6756:6774   */\n      add\n        /* \"#utility.yul\":6748:6774   */\n      swap1\n      pop\n        /* \"#utility.yul\":6784:6855   */\n      tag_184\n        /* \"#utility.yul\":6852:6853   */\n      0x00\n        /* \"#utility.yul\":6841:6850   */\n      dup4\n        /* \"#utility.yul\":6837:6854   */\n      add\n        /* \"#utility.yul\":6828:6834   */\n      dup6\n        /* \"#utility.yul\":6784:6855   */\n      tag_102\n      jump\t// in\n    tag_184:\n        /* \"#utility.yul\":6865:6937   */\n      tag_185\n        /* \"#utility.yul\":6933:6935   */\n      0x20\n        /* \"#utility.yul\":6922:6931   */\n      dup4\n        /* \"#utility.yul\":6918:6936   */\n      add\n        /* \"#utility.yul\":6909:6915   */\n      dup5\n        /* \"#utility.yul\":6865:6937   */\n      tag_91\n      jump\t// in\n    tag_185:\n        /* \"#utility.yul\":6612:6944   */\n      swap4\n      swap3\n      pop\n      pop\n      pop\n      jump\t// out\n        /* \"#utility.yul\":6950:7119   */\n    tag_103:\n        /* \"#utility.yul\":7090:7111   */\n      0x57616974696e6720666f7220706c617965727300000000000000000000000000\n        /* \"#utility.yul\":7086:7087   */\n      0x00\n        /* \"#utility.yul\":7078:7084   */\n      dup3\n        /* \"#utility.yul\":7074:7088   */\n      add\n        /* \"#utility.yul\":7067:7112   */\n      mstore\n        /* \"#utility.yul\":6950:7119   */\n      pop\n      jump\t// out\n        /* \"#utility.yul\":7125:7491   */\n    tag_104:\n        /* \"#utility.yul\":7267:7270   */\n      0x00\n        /* \"#utility.yul\":7288:7355   */\n      tag_188\n        /* \"#utility.yul\":7352:7354   */\n      0x13\n        /* \"#utility.yul\":7347:7350   */\n      dup4\n        /* \"#utility.yul\":7288:7355   */\n      tag_94\n      jump\t// in\n    tag_188:\n        /* \"#utility.yul\":7281:7355   */\n      swap2\n      pop\n        /* \"#utility.yul\":7364:7457   */\n      tag_189\n        /* \"#utility.yul\":7453:7456   */\n      dup3\n        /* \"#utility.yul\":7364:7457   */\n      tag_103\n      jump\t// in\n    tag_189:\n        /* \"#utility.yul\":7482:7484   */\n      0x20\n        /* \"#utility.yul\":7477:7480   */\n      dup3\n        /* \"#utility.yul\":7473:7485   */\n      add\n        /* \"#utility.yul\":7466:7485   */\n      swap1\n      pop\n        /* \"#utility.yul\":7125:7491   */\n      swap2\n      swap1\n      pop\n      jump\t// out\n        /* \"#utility.yul\":7497:7916   */\n    tag_54:\n        /* \"#utility.yul\":7663:7667   */\n      0x00\n        /* \"#utility.yul\":7701:7703   */\n      0x20\n        /* \"#utility.yul\":7690:7699   */\n      dup3\n        /* \"#utility.yul\":7686:7704   */\n      add\n        /* \"#utility.yul\":7678:7704   */\n      swap1\n      pop\n        /* \"#utility.yul\":7750:7759   */\n      dup2\n        /* \"#utility.yul\":7744:7748   */\n      dup2\n        /* \"#utility.yul\":7740:7760   */\n      sub\n        /* \"#utility.yul\":7736:7737   */\n      0x00\n        /* \"#utility.yul\":7725:7734   */\n      dup4\n        /* \"#utility.yul\":7721:7738   */\n      add\n        /* \"#utility.yul\":7714:7761   */\n      mstore\n        /* \"#utility.yul\":7778:7909   */\n      tag_191\n        /* \"#utility.yul\":7904:7908   */\n      dup2\n        /* \"#utility.yul\":7778:7909   */\n      tag_104\n      jump\t// in\n    tag_191:\n        /* \"#utility.yul\":7770:7909   */\n      swap1\n      pop\n        /* \"#utility.yul\":7497:7916   */\n      swap2\n      swap1\n      pop\n      jump\t// out\n        /* \"#utility.yul\":7922:8101   */\n    tag_105:\n        /* \"#utility.yul\":8062:8093   */\n      0x426f746820706c6179657273206d75737420627579207469636b657473000000\n        /* \"#utility.yul\":8058:8059   */\n      0x00\n        /* \"#utility.yul\":8050:8056   */\n      dup3\n        /* \"#utility.yul\":8046:8060   */\n      add\n        /* \"#utility.yul\":8039:8094   */\n      mstore\n        /* \"#utility.yul\":7922:8101   */\n      pop\n      jump\t// out\n        /* \"#utility.yul\":8107:8473   */\n    tag_106:\n        /* \"#utility.yul\":8249:8252   */\n      0x00\n        /* \"#utility.yul\":8270:8337   */\n      tag_194\n        /* \"#utility.yul\":8334:8336   */\n      0x1d\n        /* \"#utility.yul\":8329:8332   */\n      dup4\n        /* \"#utility.yul\":8270:8337   */\n      tag_94\n      jump\t// in\n    tag_194:\n        /* \"#utility.yul\":8263:8337   */\n      swap2\n      pop\n        /* \"#utility.yul\":8346:8439   */\n      tag_195\n        /* \"#utility.yul\":8435:8438   */\n      dup3\n        /* \"#utility.yul\":8346:8439   */\n      tag_105\n      jump\t// in\n    tag_195:\n        /* \"#utility.yul\":8464:8466   */\n      0x20\n        /* \"#utility.yul\":8459:8462   */\n      dup3\n        /* \"#utility.yul\":8455:8467   */\n      add\n        /* \"#utility.yul\":8448:8467   */\n      swap1\n      pop\n        /* \"#utility.yul\":8107:8473   */\n      swap2\n      swap1\n      pop\n      jump\t// out\n        /* \"#utility.yul\":8479:8898   */\n    tag_58:\n        /* \"#utility.yul\":8645:8649   */\n      0x00\n        /* \"#utility.yul\":8683:8685   */\n      0x20\n        /* \"#utility.yul\":8672:8681   */\n      dup3\n        /* \"#utility.yul\":8668:8686   */\n      add\n        /* \"#utility.yul\":8660:8686   */\n      swap1\n      pop\n        /* \"#utility.yul\":8732:8741   */\n      dup2\n        /* \"#utility.yul\":8726:8730   */\n      dup2\n        /* \"#utility.yul\":8722:8742   */\n      sub\n        /* \"#utility.yul\":8718:8719   */\n      0x00\n        /* \"#utility.yul\":8707:8716   */\n      dup4\n        /* \"#utility.yul\":8703:8720   */\n      add\n        /* \"#utility.yul\":8696:8743   */\n      mstore\n        /* \"#utility.yul\":8760:8891   */\n      tag_197\n        /* \"#utility.yul\":8886:8890   */\n      dup2\n        /* \"#utility.yul\":8760:8891   */\n      tag_106\n      jump\t// in\n    tag_197:\n        /* \"#utility.yul\":8752:8891   */\n      swap1\n      pop\n        /* \"#utility.yul\":8479:8898   */\n      swap2\n      swap1\n      pop\n      jump\t// out\n        /* \"#utility.yul\":8904:9095   */\n    tag_60:\n        /* \"#utility.yul\":8944:8947   */\n      0x00\n        /* \"#utility.yul\":8963:8983   */\n      tag_199\n        /* \"#utility.yul\":8981:8982   */\n      dup3\n        /* \"#utility.yul\":8963:8983   */\n      tag_90\n      jump\t// in\n    tag_199:\n        /* \"#utility.yul\":8958:8983   */\n      swap2\n      pop\n        /* \"#utility.yul\":8997:9017   */\n      tag_200\n        /* \"#utility.yul\":9015:9016   */\n      dup4\n        /* \"#utility.yul\":8997:9017   */\n      tag_90\n      jump\t// in\n    tag_200:\n        /* \"#utility.yul\":8992:9017   */\n      swap3\n      pop\n        /* \"#utility.yul\":9040:9041   */\n      dup3\n        /* \"#utility.yul\":9037:9038   */\n      dup3\n        /* \"#utility.yul\":9033:9042   */\n      add\n        /* \"#utility.yul\":9026:9042   */\n      swap1\n      pop\n        /* \"#utility.yul\":9061:9064   */\n      dup1\n        /* \"#utility.yul\":9058:9059   */\n      dup3\n        /* \"#utility.yul\":9055:9065   */\n      gt\n        /* \"#utility.yul\":9052:9088   */\n      iszero\n      tag_201\n      jumpi\n        /* \"#utility.yul\":9068:9086   */\n      tag_202\n      tag_97\n      jump\t// in\n    tag_202:\n        /* \"#utility.yul\":9052:9088   */\n    tag_201:\n        /* \"#utility.yul\":8904:9095   */\n      swap3\n      swap2\n      pop\n      pop\n      jump\t// out\n        /* \"#utility.yul\":9101:9180   */\n    tag_107:\n        /* \"#utility.yul\":9140:9147   */\n      0x00\n        /* \"#utility.yul\":9169:9174   */\n      dup2\n        /* \"#utility.yul\":9158:9174   */\n      swap1\n      pop\n        /* \"#utility.yul\":9101:9180   */\n      swap2\n      swap1\n      pop\n      jump\t// out\n        /* \"#utility.yul\":9186:9343   */\n    tag_108:\n        /* \"#utility.yul\":9291:9336   */\n      tag_205\n        /* \"#utility.yul\":9311:9335   */\n      tag_206\n        /* \"#utility.yul\":9329:9334   */\n      dup3\n        /* \"#utility.yul\":9311:9335   */\n      tag_90\n      jump\t// in\n    tag_206:\n        /* \"#utility.yul\":9291:9336   */\n      tag_107\n      jump\t// in\n    tag_205:\n        /* \"#utility.yul\":9286:9289   */\n      dup3\n        /* \"#utility.yul\":9279:9337   */\n      mstore\n        /* \"#utility.yul\":9186:9343   */\n      pop\n      pop\n      jump\t// out\n        /* \"#utility.yul\":9349:9746   */\n    tag_62:\n        /* \"#utility.yul\":9489:9492   */\n      0x00\n        /* \"#utility.yul\":9504:9579   */\n      tag_208\n        /* \"#utility.yul\":9575:9578   */\n      dup3\n        /* \"#utility.yul\":9566:9572   */\n      dup6\n        /* \"#utility.yul\":9504:9579   */\n      tag_108\n      jump\t// in\n    tag_208:\n        /* \"#utility.yul\":9604:9606   */\n      0x20\n        /* \"#utility.yul\":9599:9602   */\n      dup3\n        /* \"#utility.yul\":9595:9607   */\n      add\n        /* \"#utility.yul\":9588:9607   */\n      swap2\n      pop\n        /* \"#utility.yul\":9617:9692   */\n      tag_209\n        /* \"#utility.yul\":9688:9691   */\n      dup3\n        /* \"#utility.yul\":9679:9685   */\n      dup5\n        /* \"#utility.yul\":9617:9692   */\n      tag_108\n      jump\t// in\n    tag_209:\n        /* \"#utility.yul\":9717:9719   */\n      0x20\n        /* \"#utility.yul\":9712:9715   */\n      dup3\n        /* \"#utility.yul\":9708:9720   */\n      add\n        /* \"#utility.yul\":9701:9720   */\n      swap2\n      pop\n        /* \"#utility.yul\":9737:9740   */\n      dup2\n        /* \"#utility.yul\":9730:9740   */\n      swap1\n      pop\n        /* \"#utility.yul\":9349:9746   */\n      swap4\n      swap3\n      pop\n      pop\n      pop\n      jump\t// out\n        /* \"#utility.yul\":9752:9932   */\n    tag_109:\n        /* \"#utility.yul\":9800:9877   */\n      0x4e487b7100000000000000000000000000000000000000000000000000000000\n        /* \"#utility.yul\":9797:9798   */\n      0x00\n        /* \"#utility.yul\":9790:9878   */\n      mstore\n        /* \"#utility.yul\":9897:9901   */\n      0x12\n        /* \"#utility.yul\":9894:9895   */\n      0x04\n        /* \"#utility.yul\":9887:9902   */\n      mstore\n        /* \"#utility.yul\":9921:9925   */\n      0x24\n        /* \"#utility.yul\":9918:9919   */\n      0x00\n        /* \"#utility.yul\":9911:9926   */\n      revert\n        /* \"#utility.yul\":9938:10114   */\n    tag_64:\n        /* \"#utility.yul\":9970:9971   */\n      0x00\n        /* \"#utility.yul\":9987:10007   */\n      tag_212\n        /* \"#utility.yul\":10005:10006   */\n      dup3\n        /* \"#utility.yul\":9987:10007   */\n      tag_90\n      jump\t// in\n    tag_212:\n        /* \"#utility.yul\":9982:10007   */\n      swap2\n      pop\n        /* \"#utility.yul\":10021:10041   */\n      tag_213\n        /* \"#utility.yul\":10039:10040   */\n      dup4\n        /* \"#utility.yul\":10021:10041   */\n      tag_90\n      jump\t// in\n    tag_213:\n        /* \"#utility.yul\":10016:10041   */\n      swap3\n      pop\n        /* \"#utility.yul\":10060:10061   */\n      dup3\n        /* \"#utility.yul\":10050:10085   */\n      tag_214\n      jumpi\n        /* \"#utility.yul\":10065:10083   */\n      tag_215\n      tag_109\n      jump\t// in\n    tag_215:\n        /* \"#utility.yul\":10050:10085   */\n    tag_214:\n        /* \"#utility.yul\":10106:10107   */\n      dup3\n        /* \"#utility.yul\":10103:10104   */\n      dup3\n        /* \"#utility.yul\":10099:10108   */\n      mod\n        /* \"#utility.yul\":10094:10108   */\n      swap1\n      pop\n        /* \"#utility.yul\":9938:10114   */\n      swap3\n      swap2\n      pop\n      pop\n      jump\t// out\n        /* \"#utility.yul\":10120:10267   */\n    tag_110:\n        /* \"#utility.yul\":10221:10232   */\n      0x00\n        /* \"#utility.yul\":10258:10261   */\n      dup2\n        /* \"#utility.yul\":10243:10261   */\n      swap1\n      pop\n        /* \"#utility.yul\":10120:10267   */\n      swap3\n      swap2\n      pop\n      pop\n      jump\t// out\n        /* \"#utility.yul\":10273:10387   */\n    tag_111:\n      pop\n      jump\t// out\n        /* \"#utility.yul\":10393:10791   */\n    tag_112:\n        /* \"#utility.yul\":10552:10555   */\n      0x00\n        /* \"#utility.yul\":10573:10656   */\n      tag_219\n        /* \"#utility.yul\":10654:10655   */\n      0x00\n        /* \"#utility.yul\":10649:10652   */\n      dup4\n        /* \"#utility.yul\":10573:10656   */\n      tag_110\n      jump\t// in\n    tag_219:\n        /* \"#utility.yul\":10566:10656   */\n      swap2\n      pop\n        /* \"#utility.yul\":10665:10758   */\n      tag_220\n        /* \"#utility.yul\":10754:10757   */\n      dup3\n        /* \"#utility.yul\":10665:10758   */\n      tag_111\n      jump\t// in\n    tag_220:\n        /* \"#utility.yul\":10783:10784   */\n      0x00\n        /* \"#utility.yul\":10778:10781   */\n      dup3\n        /* \"#utility.yul\":10774:10785   */\n      add\n        /* \"#utility.yul\":10767:10785   */\n      swap1\n      pop\n        /* \"#utility.yul\":10393:10791   */\n      swap2\n      swap1\n      pop\n      jump\t// out\n        /* \"#utility.yul\":10797:11176   */\n    tag_68:\n        /* \"#utility.yul\":10981:10984   */\n      0x00\n        /* \"#utility.yul\":11003:11150   */\n      tag_222\n        /* \"#utility.yul\":11146:11149   */\n      dup3\n        /* \"#utility.yul\":11003:11150   */\n      tag_112\n      jump\t// in\n    tag_222:\n        /* \"#utility.yul\":10996:11150   */\n      swap2\n      pop\n        /* \"#utility.yul\":11167:11170   */\n      dup2\n        /* \"#utility.yul\":11160:11170   */\n      swap1\n      pop\n        /* \"#utility.yul\":10797:11176   */\n      swap2\n      swap1\n      pop\n      jump\t// out\n        /* \"#utility.yul\":11182:11352   */\n    tag_113:\n        /* \"#utility.yul\":11322:11344   */\n      0x4661696c656420746f2073656e64207072697a65000000000000000000000000\n        /* \"#utility.yul\":11318:11319   */\n      0x00\n        /* \"#utility.yul\":11310:11316   */\n      dup3\n        /* \"#utility.yul\":11306:11320   */\n      add\n        /* \"#utility.yul\":11299:11345   */\n      mstore\n        /* \"#utility.yul\":11182:11352   */\n      pop\n      jump\t// out\n        /* \"#utility.yul\":11358:11724   */\n    tag_114:\n        /* \"#utility.yul\":11500:11503   */\n      0x00\n        /* \"#utility.yul\":11521:11588   */\n      tag_225\n        /* \"#utility.yul\":11585:11587   */\n      0x14\n        /* \"#utility.yul\":11580:11583   */\n      dup4\n        /* \"#utility.yul\":11521:11588   */\n      tag_94\n      jump\t// in\n    tag_225:\n        /* \"#utility.yul\":11514:11588   */\n      swap2\n      pop\n        /* \"#utility.yul\":11597:11690   */\n      tag_226\n        /* \"#utility.yul\":11686:11689   */\n      dup3\n        /* \"#utility.yul\":11597:11690   */\n      tag_113\n      jump\t// in\n    tag_226:\n        /* \"#utility.yul\":11715:11717   */\n      0x20\n        /* \"#utility.yul\":11710:11713   */\n      dup3\n        /* \"#utility.yul\":11706:11718   */\n      add\n        /* \"#utility.yul\":11699:11718   */\n      swap1\n      pop\n        /* \"#utility.yul\":11358:11724   */\n      swap2\n      swap1\n      pop\n      jump\t// out\n        /* \"#utility.yul\":11730:12149   */\n    tag_74:\n        /* \"#utility.yul\":11896:11900   */\n      0x00\n        /* \"#utility.yul\":11934:11936   */\n      0x20\n        /* \"#utility.yul\":11923:11932   */\n      dup3\n        /* \"#utility.yul\":11919:11937   */\n      add\n        /* \"#utility.yul\":11911:11937   */\n      swap1\n      pop\n        /* \"#utility.yul\":11983:11992   */\n      dup2\n        /* \"#utility.yul\":11977:11981   */\n      dup2\n        /* \"#utility.yul\":11973:11993   */\n      sub\n        /* \"#utility.yul\":11969:11970   */\n      0x00\n        /* \"#utility.yul\":11958:11967   */\n      dup4\n        /* \"#utility.yul\":11954:11971   */\n      add\n        /* \"#utility.yul\":11947:11994   */\n      mstore\n        /* \"#utility.yul\":12011:12142   */\n      tag_228\n        /* \"#utility.yul\":12137:12141   */\n      dup2\n        /* \"#utility.yul\":12011:12142   */\n      tag_114\n      jump\t// in\n    tag_228:\n        /* \"#utility.yul\":12003:12142   */\n      swap1\n      pop\n        /* \"#utility.yul\":11730:12149   */\n      swap2\n      swap1\n      pop\n      jump\t// out\n        /* \"#utility.yul\":12155:12215   */\n    tag_115:\n        /* \"#utility.yul\":12183:12186   */\n      0x00\n        /* \"#utility.yul\":12204:12209   */\n      dup2\n        /* \"#utility.yul\":12197:12209   */\n      swap1\n      pop\n        /* \"#utility.yul\":12155:12215   */\n      swap2\n      swap1\n      pop\n      jump\t// out\n        /* \"#utility.yul\":12221:12363   */\n    tag_116:\n        /* \"#utility.yul\":12271:12280   */\n      0x00\n        /* \"#utility.yul\":12304:12357   */\n      tag_231\n        /* \"#utility.yul\":12322:12356   */\n      tag_232\n        /* \"#utility.yul\":12331:12355   */\n      tag_233\n        /* \"#utility.yul\":12349:12354   */\n      dup5\n        /* \"#utility.yul\":12331:12355   */\n      tag_86\n      jump\t// in\n    tag_233:\n        /* \"#utility.yul\":12322:12356   */\n      tag_115\n      jump\t// in\n    tag_232:\n        /* \"#utility.yul\":12304:12357   */\n      tag_86\n      jump\t// in\n    tag_231:\n        /* \"#utility.yul\":12291:12357   */\n      swap1\n      pop\n        /* \"#utility.yul\":12221:12363   */\n      swap2\n      swap1\n      pop\n      jump\t// out\n        /* \"#utility.yul\":12369:12495   */\n    tag_117:\n        /* \"#utility.yul\":12419:12428   */\n      0x00\n        /* \"#utility.yul\":12452:12489   */\n      tag_235\n        /* \"#utility.yul\":12483:12488   */\n      dup3\n        /* \"#utility.yul\":12452:12489   */\n      tag_116\n      jump\t// in\n    tag_235:\n        /* \"#utility.yul\":12439:12489   */\n      swap1\n      pop\n        /* \"#utility.yul\":12369:12495   */\n      swap2\n      swap1\n      pop\n      jump\t// out\n        /* \"#utility.yul\":12501:12635   */\n    tag_118:\n        /* \"#utility.yul\":12559:12568   */\n      0x00\n        /* \"#utility.yul\":12592:12629   */\n      tag_237\n        /* \"#utility.yul\":12623:12628   */\n      dup3\n        /* \"#utility.yul\":12592:12629   */\n      tag_117\n      jump\t// in\n    tag_237:\n        /* \"#utility.yul\":12579:12629   */\n      swap1\n      pop\n        /* \"#utility.yul\":12501:12635   */\n      swap2\n      swap1\n      pop\n      jump\t// out\n        /* \"#utility.yul\":12641:12788   */\n    tag_119:\n        /* \"#utility.yul\":12736:12781   */\n      tag_239\n        /* \"#utility.yul\":12775:12780   */\n      dup2\n        /* \"#utility.yul\":12736:12781   */\n      tag_118\n      jump\t// in\n    tag_239:\n        /* \"#utility.yul\":12731:12734   */\n      dup3\n        /* \"#utility.yul\":12724:12782   */\n      mstore\n        /* \"#utility.yul\":12641:12788   */\n      pop\n      pop\n      jump\t// out\n        /* \"#utility.yul\":12794:13142   */\n    tag_76:\n        /* \"#utility.yul\":12923:12927   */\n      0x00\n        /* \"#utility.yul\":12961:12963   */\n      0x40\n        /* \"#utility.yul\":12950:12959   */\n      dup3\n        /* \"#utility.yul\":12946:12964   */\n      add\n        /* \"#utility.yul\":12938:12964   */\n      swap1\n      pop\n        /* \"#utility.yul\":12974:13053   */\n      tag_241\n        /* \"#utility.yul\":13050:13051   */\n      0x00\n        /* \"#utility.yul\":13039:13048   */\n      dup4\n        /* \"#utility.yul\":13035:13052   */\n      add\n        /* \"#utility.yul\":13026:13032   */\n      dup6\n        /* \"#utility.yul\":12974:13053   */\n      tag_119\n      jump\t// in\n    tag_241:\n        /* \"#utility.yul\":13063:13135   */\n      tag_242\n        /* \"#utility.yul\":13131:13133   */\n      0x20\n        /* \"#utility.yul\":13120:13129   */\n      dup4\n        /* \"#utility.yul\":13116:13134   */\n      add\n        /* \"#utility.yul\":13107:13113   */\n      dup5\n        /* \"#utility.yul\":13063:13135   */\n      tag_91\n      jump\t// in\n    tag_242:\n        /* \"#utility.yul\":12794:13142   */\n      swap4\n      swap3\n      pop\n      pop\n      pop\n      jump\t// out\n\n    auxdata: 0xa26469706673582212207243b04227b3f24f8f178edeed235a2108a036857fee1be23da4dae828436f1e64736f6c634300081a0033\n}\n",
				"bytecode": {
					"linkReferences": {},
					"object": "60806040525f60045f6101000a81548160ff021916908315150217905550348015610028575f80fd5b506040516113f73803806113f7833981810160405281019061004a91906100e2565b5f811161008c576040517f08c379a000000000000000000000000000000000000000000000000000000000815260040161008390610167565b60405180910390fd5b670de0b6b3a7640000816100a091906101b2565b5f81905550506101f3565b5f80fd5b5f819050919050565b6100c1816100af565b81146100cb575f80fd5b50565b5f815190506100dc816100b8565b92915050565b5f602082840312156100f7576100f66100ab565b5b5f610104848285016100ce565b91505092915050565b5f82825260208201905092915050565b7f5469636b657420707269636573206d757374206265203e2030000000000000005f82015250565b5f61015160198361010d565b915061015c8261011d565b602082019050919050565b5f6020820190508181035f83015261017e81610145565b9050919050565b7f4e487b71000000000000000000000000000000000000000000000000000000005f52601160045260245ffd5b5f6101bc826100af565b91506101c7836100af565b92508282026101d5816100af565b915082820484148315176101ec576101eb610185565b5b5092915050565b6111f7806102005f395ff3fe608060405260043610610049575f3560e01c806319c19b341461004d57806328821efe146100775780632f366637146100b357806333a99e04146100cf5780633cecd719146100e5575b5f80fd5b348015610058575f80fd5b506100616100fb565b60405161006e9190610b8b565b60405180910390f35b348015610082575f80fd5b5061009d60048036038101906100989190610c02565b61010d565b6040516100aa9190610c45565b60405180910390f35b6100cd60048036038101906100c89190610c88565b610122565b005b3480156100da575f80fd5b506100e3610477565b005b3480156100f0575f80fd5b506100f9610916565b005b60045f9054906101000a900460ff1681565b6003602052805f5260405f205f915090505481565b5f60035f3373ffffffffffffffffffffffffffffffffffffffff1673ffffffffffffffffffffffffffffffffffffffff1681526020019081526020015f2054146101a1576040517f08c379a000000000000000000000000000000000000000000000000000000000815260040161019890610d33565b60405180910390fd5b5f815f546101af9190610d7e565b90508034116101f3576040517f08c379a00000000000000000000000000000000000000000000000000000000081526004016101ea90610e2f565b60405180910390fd5b5f73ffffffffffffffffffffffffffffffffffffffff1660015f9054906101000a900473ffffffffffffffffffffffffffffffffffffffff1673ffffffffffffffffffffffffffffffffffffffff160361028c573360015f6101000a81548173ffffffffffffffffffffffffffffffffffffffff021916908373ffffffffffffffffffffffffffffffffffffffff1602179055506103db565b5f73ffffffffffffffffffffffffffffffffffffffff1660025f9054906101000a900473ffffffffffffffffffffffffffffffffffffffff1673ffffffffffffffffffffffffffffffffffffffff16148015610335575060015f9054906101000a900473ffffffffffffffffffffffffffffffffffffffff1673ffffffffffffffffffffffffffffffffffffffff163373ffffffffffffffffffffffffffffffffffffffff1614155b15610399573360025f6101000a81548173ffffffffffffffffffffffffffffffffffffffff021916908373ffffffffffffffffffffffffffffffffffffffff160217905550600160045f6101000a81548160ff0219169083151502179055506103da565b5f6103d9576040517f08c379a00000000000000000000000000000000000000000000000000000000081526004016103d090610e97565b60405180910390fd5b5b5b8160035f3373ffffffffffffffffffffffffffffffffffffffff1673ffffffffffffffffffffffffffffffffffffffff1681526020019081526020015f20819055507fe11731cb4f1eb3ec3dd09bdc96809bb07365f4c881cda3192b397a4bc0b6da40338360405161044e929190610ec4565b60405180910390a160045f9054906101000a900460ff161561047357610472610477565b5b5050565b5f73ffffffffffffffffffffffffffffffffffffffff1660015f9054906101000a900473ffffffffffffffffffffffffffffffffffffffff1673ffffffffffffffffffffffffffffffffffffffff161415801561052157505f73ffffffffffffffffffffffffffffffffffffffff1660025f9054906101000a900473ffffffffffffffffffffffffffffffffffffffff1673ffffffffffffffffffffffffffffffffffffffff1614155b610560576040517f08c379a000000000000000000000000000000000000000000000000000000000815260040161055790610f35565b60405180910390fd5b5f60035f60015f9054906101000a900473ffffffffffffffffffffffffffffffffffffffff1673ffffffffffffffffffffffffffffffffffffffff1673ffffffffffffffffffffffffffffffffffffffff1681526020019081526020015f205411801561062a57505f60035f60025f9054906101000a900473ffffffffffffffffffffffffffffffffffffffff1673ffffffffffffffffffffffffffffffffffffffff1673ffffffffffffffffffffffffffffffffffffffff1681526020019081526020015f2054115b610669576040517f08c379a000000000000000000000000000000000000000000000000000000000815260040161066090610f9d565b60405180910390fd5b5f60035f60025f9054906101000a900473ffffffffffffffffffffffffffffffffffffffff1673ffffffffffffffffffffffffffffffffffffffff1673ffffffffffffffffffffffffffffffffffffffff1681526020019081526020015f205460035f60015f9054906101000a900473ffffffffffffffffffffffffffffffffffffffff1673ffffffffffffffffffffffffffffffffffffffff1673ffffffffffffffffffffffffffffffffffffffff1681526020019081526020015f20546107329190610fbb565b90505f81424460405160200161074992919061100e565b604051602081830303815290604052805190602001205f1c61076b9190611066565b90505f60035f60015f9054906101000a900473ffffffffffffffffffffffffffffffffffffffff1673ffffffffffffffffffffffffffffffffffffffff1673ffffffffffffffffffffffffffffffffffffffff1681526020019081526020015f20548210156107fd5760015f9054906101000a900473ffffffffffffffffffffffffffffffffffffffff169050610822565b60025f9054906101000a900473ffffffffffffffffffffffffffffffffffffffff1690505b5f4790505f8273ffffffffffffffffffffffffffffffffffffffff168260405161084b906110c3565b5f6040518083038185875af1925050503d805f8114610885576040519150601f19603f3d011682016040523d82523d5f602084013e61088a565b606091505b50509050806108ce576040517f08c379a00000000000000000000000000000000000000000000000000000000081526004016108c590611121565b60405180910390fd5b7f75060f9e79552df167b73353fee6237a75bb5ba8ea022f77224e32f152138bcb83836040516108ff92919061119a565b60405180910390a161090f610916565b5050505050565b5f60015f6101000a81548173ffffffffffffffffffffffffffffffffffffffff021916908373ffffffffffffffffffffffffffffffffffffffff1602179055505f60025f6101000a81548173ffffffffffffffffffffffffffffffffffffffff021916908373ffffffffffffffffffffffffffffffffffffffff1602179055505f60045f6101000a81548160ff0219169083151502179055505f60035f60015f9054906101000a900473ffffffffffffffffffffffffffffffffffffffff1673ffffffffffffffffffffffffffffffffffffffff1673ffffffffffffffffffffffffffffffffffffffff1681526020019081526020015f20541115610a79575f60035f60015f9054906101000a900473ffffffffffffffffffffffffffffffffffffffff1673ffffffffffffffffffffffffffffffffffffffff1673ffffffffffffffffffffffffffffffffffffffff1681526020019081526020015f20819055505b5f60035f60025f9054906101000a900473ffffffffffffffffffffffffffffffffffffffff1673ffffffffffffffffffffffffffffffffffffffff1673ffffffffffffffffffffffffffffffffffffffff1681526020019081526020015f20541115610b43575f60035f60025f9054906101000a900473ffffffffffffffffffffffffffffffffffffffff1673ffffffffffffffffffffffffffffffffffffffff1673ffffffffffffffffffffffffffffffffffffffff1681526020019081526020015f20819055505b7fc6976b6410888b44c765590c8368eb4a60e0431d4ad683c8a53ea85a8479f22e60405160405180910390a1565b5f8115159050919050565b610b8581610b71565b82525050565b5f602082019050610b9e5f830184610b7c565b92915050565b5f80fd5b5f73ffffffffffffffffffffffffffffffffffffffff82169050919050565b5f610bd182610ba8565b9050919050565b610be181610bc7565b8114610beb575f80fd5b50565b5f81359050610bfc81610bd8565b92915050565b5f60208284031215610c1757610c16610ba4565b5b5f610c2484828501610bee565b91505092915050565b5f819050919050565b610c3f81610c2d565b82525050565b5f602082019050610c585f830184610c36565b92915050565b610c6781610c2d565b8114610c71575f80fd5b50565b5f81359050610c8281610c5e565b92915050565b5f60208284031215610c9d57610c9c610ba4565b5b5f610caa84828501610c74565b91505092915050565b5f82825260208201905092915050565b7f596f75206861766520616c726561647920707572636861736564207469636b655f8201527f7473207468697320726f756e642e000000000000000000000000000000000000602082015250565b5f610d1d602e83610cb3565b9150610d2882610cc3565b604082019050919050565b5f6020820190508181035f830152610d4a81610d11565b9050919050565b7f4e487b71000000000000000000000000000000000000000000000000000000005f52601160045260245ffd5b5f610d8882610c2d565b9150610d9383610c2d565b9250828202610da181610c2d565b91508282048414831517610db857610db7610d51565b5b5092915050565b7f596f7520646f206e6f74206861766520656e6f75676820657468657220746f205f8201527f70757263686173652074686174206d616e79207469636b657473000000000000602082015250565b5f610e19603a83610cb3565b9150610e2482610dbf565b604082019050919050565b5f6020820190508181035f830152610e4681610e0d565b9050919050565b7f47616d6520616c7265616479206861732074776f20706c6179657273000000005f82015250565b5f610e81601c83610cb3565b9150610e8c82610e4d565b602082019050919050565b5f6020820190508181035f830152610eae81610e75565b9050919050565b610ebe81610bc7565b82525050565b5f604082019050610ed75f830185610eb5565b610ee46020830184610c36565b9392505050565b7f57616974696e6720666f7220706c6179657273000000000000000000000000005f82015250565b5f610f1f601383610cb3565b9150610f2a82610eeb565b602082019050919050565b5f6020820190508181035f830152610f4c81610f13565b9050919050565b7f426f746820706c6179657273206d75737420627579207469636b6574730000005f82015250565b5f610f87601d83610cb3565b9150610f9282610f53565b602082019050919050565b5f6020820190508181035f830152610fb481610f7b565b9050919050565b5f610fc582610c2d565b9150610fd083610c2d565b9250828201905080821115610fe857610fe7610d51565b5b92915050565b5f819050919050565b61100861100382610c2d565b610fee565b82525050565b5f6110198285610ff7565b6020820191506110298284610ff7565b6020820191508190509392505050565b7f4e487b71000000000000000000000000000000000000000000000000000000005f52601260045260245ffd5b5f61107082610c2d565b915061107b83610c2d565b92508261108b5761108a611039565b5b828206905092915050565b5f81905092915050565b50565b5f6110ae5f83611096565b91506110b9826110a0565b5f82019050919050565b5f6110cd826110a3565b9150819050919050565b7f4661696c656420746f2073656e64207072697a650000000000000000000000005f82015250565b5f61110b601483610cb3565b9150611116826110d7565b602082019050919050565b5f6020820190508181035f830152611138816110ff565b9050919050565b5f819050919050565b5f61116261115d61115884610ba8565b61113f565b610ba8565b9050919050565b5f61117382611148565b9050919050565b5f61118482611169565b9050919050565b6111948161117a565b82525050565b5f6040820190506111ad5f83018561118b565b6111ba6020830184610c36565b939250505056fea26469706673582212207243b04227b3f24f8f178edeed235a2108a036857fee1be23da4dae828436f1e64736f6c634300081a0033",
					"opcodes": "PUSH1 0x80 PUSH1 0x40 MSTORE PUSH0 PUSH1 0x4 PUSH0 PUSH2 0x100 EXP DUP2 SLOAD DUP2 PUSH1 0xFF MUL NOT AND SWAP1 DUP4 ISZERO ISZERO MUL OR SWAP1 SSTORE POP CALLVALUE DUP1 ISZERO PUSH2 0x28 JUMPI PUSH0 DUP1 REVERT JUMPDEST POP PUSH1 0x40 MLOAD PUSH2 0x13F7 CODESIZE SUB DUP1 PUSH2 0x13F7 DUP4 CODECOPY DUP2 DUP2 ADD PUSH1 0x40 MSTORE DUP2 ADD SWAP1 PUSH2 0x4A SWAP2 SWAP1 PUSH2 0xE2 JUMP JUMPDEST PUSH0 DUP2 GT PUSH2 0x8C JUMPI PUSH1 0x40 MLOAD PUSH32 0x8C379A000000000000000000000000000000000000000000000000000000000 DUP2 MSTORE PUSH1 0x4 ADD PUSH2 0x83 SWAP1 PUSH2 0x167 JUMP JUMPDEST PUSH1 0x40 MLOAD DUP1 SWAP2 SUB SWAP1 REVERT JUMPDEST PUSH8 0xDE0B6B3A7640000 DUP2 PUSH2 0xA0 SWAP2 SWAP1 PUSH2 0x1B2 JUMP JUMPDEST PUSH0 DUP2 SWAP1 SSTORE POP POP PUSH2 0x1F3 JUMP JUMPDEST PUSH0 DUP1 REVERT JUMPDEST PUSH0 DUP2 SWAP1 POP SWAP2 SWAP1 POP JUMP JUMPDEST PUSH2 0xC1 DUP2 PUSH2 0xAF JUMP JUMPDEST DUP2 EQ PUSH2 0xCB JUMPI PUSH0 DUP1 REVERT JUMPDEST POP JUMP JUMPDEST PUSH0 DUP2 MLOAD SWAP1 POP PUSH2 0xDC DUP2 PUSH2 0xB8 JUMP JUMPDEST SWAP3 SWAP2 POP POP JUMP JUMPDEST PUSH0 PUSH1 0x20 DUP3 DUP5 SUB SLT ISZERO PUSH2 0xF7 JUMPI PUSH2 0xF6 PUSH2 0xAB JUMP JUMPDEST JUMPDEST PUSH0 PUSH2 0x104 DUP5 DUP3 DUP6 ADD PUSH2 0xCE JUMP JUMPDEST SWAP2 POP POP SWAP3 SWAP2 POP POP JUMP JUMPDEST PUSH0 DUP3 DUP3 MSTORE PUSH1 0x20 DUP3 ADD SWAP1 POP SWAP3 SWAP2 POP POP JUMP JUMPDEST PUSH32 0x5469636B657420707269636573206D757374206265203E203000000000000000 PUSH0 DUP3 ADD MSTORE POP JUMP JUMPDEST PUSH0 PUSH2 0x151 PUSH1 0x19 DUP4 PUSH2 0x10D JUMP JUMPDEST SWAP2 POP PUSH2 0x15C DUP3 PUSH2 0x11D JUMP JUMPDEST PUSH1 0x20 DUP3 ADD SWAP1 POP SWAP2 SWAP1 POP JUMP JUMPDEST PUSH0 PUSH1 0x20 DUP3 ADD SWAP1 POP DUP2 DUP2 SUB PUSH0 DUP4 ADD MSTORE PUSH2 0x17E DUP2 PUSH2 0x145 JUMP JUMPDEST SWAP1 POP SWAP2 SWAP1 POP JUMP JUMPDEST PUSH32 0x4E487B7100000000000000000000000000000000000000000000000000000000 PUSH0 MSTORE PUSH1 0x11 PUSH1 0x4 MSTORE PUSH1 0x24 PUSH0 REVERT JUMPDEST PUSH0 PUSH2 0x1BC DUP3 PUSH2 0xAF JUMP JUMPDEST SWAP2 POP PUSH2 0x1C7 DUP4 PUSH2 0xAF JUMP JUMPDEST SWAP3 POP DUP3 DUP3 MUL PUSH2 0x1D5 DUP2 PUSH2 0xAF JUMP JUMPDEST SWAP2 POP DUP3 DUP3 DIV DUP5 EQ DUP4 ISZERO OR PUSH2 0x1EC JUMPI PUSH2 0x1EB PUSH2 0x185 JUMP JUMPDEST JUMPDEST POP SWAP3 SWAP2 POP POP JUMP JUMPDEST PUSH2 0x11F7 DUP1 PUSH2 0x200 PUSH0 CODECOPY PUSH0 RETURN INVALID PUSH1 0x80 PUSH1 0x40 MSTORE PUSH1 0x4 CALLDATASIZE LT PUSH2 0x49 JUMPI PUSH0 CALLDATALOAD PUSH1 0xE0 SHR DUP1 PUSH4 0x19C19B34 EQ PUSH2 0x4D JUMPI DUP1 PUSH4 0x28821EFE EQ PUSH2 0x77 JUMPI DUP1 PUSH4 0x2F366637 EQ PUSH2 0xB3 JUMPI DUP1 PUSH4 0x33A99E04 EQ PUSH2 0xCF JUMPI DUP1 PUSH4 0x3CECD719 EQ PUSH2 0xE5 JUMPI JUMPDEST PUSH0 DUP1 REVERT JUMPDEST CALLVALUE DUP1 ISZERO PUSH2 0x58 JUMPI PUSH0 DUP1 REVERT JUMPDEST POP PUSH2 0x61 PUSH2 0xFB JUMP JUMPDEST PUSH1 0x40 MLOAD PUSH2 0x6E SWAP2 SWAP1 PUSH2 0xB8B JUMP JUMPDEST PUSH1 0x40 MLOAD DUP1 SWAP2 SUB SWAP1 RETURN JUMPDEST CALLVALUE DUP1 ISZERO PUSH2 0x82 JUMPI PUSH0 DUP1 REVERT JUMPDEST POP PUSH2 0x9D PUSH1 0x4 DUP1 CALLDATASIZE SUB DUP2 ADD SWAP1 PUSH2 0x98 SWAP2 SWAP1 PUSH2 0xC02 JUMP JUMPDEST PUSH2 0x10D JUMP JUMPDEST PUSH1 0x40 MLOAD PUSH2 0xAA SWAP2 SWAP1 PUSH2 0xC45 JUMP JUMPDEST PUSH1 0x40 MLOAD DUP1 SWAP2 SUB SWAP1 RETURN JUMPDEST PUSH2 0xCD PUSH1 0x4 DUP1 CALLDATASIZE SUB DUP2 ADD SWAP1 PUSH2 0xC8 SWAP2 SWAP1 PUSH2 0xC88 JUMP JUMPDEST PUSH2 0x122 JUMP JUMPDEST STOP JUMPDEST CALLVALUE DUP1 ISZERO PUSH2 0xDA JUMPI PUSH0 DUP1 REVERT JUMPDEST POP PUSH2 0xE3 PUSH2 0x477 JUMP JUMPDEST STOP JUMPDEST CALLVALUE DUP1 ISZERO PUSH2 0xF0 JUMPI PUSH0 DUP1 REVERT JUMPDEST POP PUSH2 0xF9 PUSH2 0x916 JUMP JUMPDEST STOP JUMPDEST PUSH1 0x4 PUSH0 SWAP1 SLOAD SWAP1 PUSH2 0x100 EXP SWAP1 DIV PUSH1 0xFF AND DUP2 JUMP JUMPDEST PUSH1 0x3 PUSH1 0x20 MSTORE DUP1 PUSH0 MSTORE PUSH1 0x40 PUSH0 KECCAK256 PUSH0 SWAP2 POP SWAP1 POP SLOAD DUP2 JUMP JUMPDEST PUSH0 PUSH1 0x3 PUSH0 CALLER PUSH20 0xFFFFFFFFFFFFFFFFFFFFFFFFFFFFFFFFFFFFFFFF AND PUSH20 0xFFFFFFFFFFFFFFFFFFFFFFFFFFFFFFFFFFFFFFFF AND DUP2 MSTORE PUSH1 0x20 ADD SWAP1 DUP2 MSTORE PUSH1 0x20 ADD PUSH0 KECCAK256 SLOAD EQ PUSH2 0x1A1 JUMPI PUSH1 0x40 MLOAD PUSH32 0x8C379A000000000000000000000000000000000000000000000000000000000 DUP2 MSTORE PUSH1 0x4 ADD PUSH2 0x198 SWAP1 PUSH2 0xD33 JUMP JUMPDEST PUSH1 0x40 MLOAD DUP1 SWAP2 SUB SWAP1 REVERT JUMPDEST PUSH0 DUP2 PUSH0 SLOAD PUSH2 0x1AF SWAP2 SWAP1 PUSH2 0xD7E JUMP JUMPDEST SWAP1 POP DUP1 CALLVALUE GT PUSH2 0x1F3 JUMPI PUSH1 0x40 MLOAD PUSH32 0x8C379A000000000000000000000000000000000000000000000000000000000 DUP2 MSTORE PUSH1 0x4 ADD PUSH2 0x1EA SWAP1 PUSH2 0xE2F JUMP JUMPDEST PUSH1 0x40 MLOAD DUP1 SWAP2 SUB SWAP1 REVERT JUMPDEST PUSH0 PUSH20 0xFFFFFFFFFFFFFFFFFFFFFFFFFFFFFFFFFFFFFFFF AND PUSH1 0x1 PUSH0 SWAP1 SLOAD SWAP1 PUSH2 0x100 EXP SWAP1 DIV PUSH20 0xFFFFFFFFFFFFFFFFFFFFFFFFFFFFFFFFFFFFFFFF AND PUSH20 0xFFFFFFFFFFFFFFFFFFFFFFFFFFFFFFFFFFFFFFFF AND SUB PUSH2 0x28C JUMPI CALLER PUSH1 0x1 PUSH0 PUSH2 0x100 EXP DUP2 SLOAD DUP2 PUSH20 0xFFFFFFFFFFFFFFFFFFFFFFFFFFFFFFFFFFFFFFFF MUL NOT AND SWAP1 DUP4 PUSH20 0xFFFFFFFFFFFFFFFFFFFFFFFFFFFFFFFFFFFFFFFF AND MUL OR SWAP1 SSTORE POP PUSH2 0x3DB JUMP JUMPDEST PUSH0 PUSH20 0xFFFFFFFFFFFFFFFFFFFFFFFFFFFFFFFFFFFFFFFF AND PUSH1 0x2 PUSH0 SWAP1 SLOAD SWAP1 PUSH2 0x100 EXP SWAP1 DIV PUSH20 0xFFFFFFFFFFFFFFFFFFFFFFFFFFFFFFFFFFFFFFFF AND PUSH20 0xFFFFFFFFFFFFFFFFFFFFFFFFFFFFFFFFFFFFFFFF AND EQ DUP1 ISZERO PUSH2 0x335 JUMPI POP PUSH1 0x1 PUSH0 SWAP1 SLOAD SWAP1 PUSH2 0x100 EXP SWAP1 DIV PUSH20 0xFFFFFFFFFFFFFFFFFFFFFFFFFFFFFFFFFFFFFFFF AND PUSH20 0xFFFFFFFFFFFFFFFFFFFFFFFFFFFFFFFFFFFFFFFF AND CALLER PUSH20 0xFFFFFFFFFFFFFFFFFFFFFFFFFFFFFFFFFFFFFFFF AND EQ ISZERO JUMPDEST ISZERO PUSH2 0x399 JUMPI CALLER PUSH1 0x2 PUSH0 PUSH2 0x100 EXP DUP2 SLOAD DUP2 PUSH20 0xFFFFFFFFFFFFFFFFFFFFFFFFFFFFFFFFFFFFFFFF MUL NOT AND SWAP1 DUP4 PUSH20 0xFFFFFFFFFFFFFFFFFFFFFFFFFFFFFFFFFFFFFFFF AND MUL OR SWAP1 SSTORE POP PUSH1 0x1 PUSH1 0x4 PUSH0 PUSH2 0x100 EXP DUP2 SLOAD DUP2 PUSH1 0xFF MUL NOT AND SWAP1 DUP4 ISZERO ISZERO MUL OR SWAP1 SSTORE POP PUSH2 0x3DA JUMP JUMPDEST PUSH0 PUSH2 0x3D9 JUMPI PUSH1 0x40 MLOAD PUSH32 0x8C379A000000000000000000000000000000000000000000000000000000000 DUP2 MSTORE PUSH1 0x4 ADD PUSH2 0x3D0 SWAP1 PUSH2 0xE97 JUMP JUMPDEST PUSH1 0x40 MLOAD DUP1 SWAP2 SUB SWAP1 REVERT JUMPDEST JUMPDEST JUMPDEST DUP2 PUSH1 0x3 PUSH0 CALLER PUSH20 0xFFFFFFFFFFFFFFFFFFFFFFFFFFFFFFFFFFFFFFFF AND PUSH20 0xFFFFFFFFFFFFFFFFFFFFFFFFFFFFFFFFFFFFFFFF AND DUP2 MSTORE PUSH1 0x20 ADD SWAP1 DUP2 MSTORE PUSH1 0x20 ADD PUSH0 KECCAK256 DUP2 SWAP1 SSTORE POP PUSH32 0xE11731CB4F1EB3EC3DD09BDC96809BB07365F4C881CDA3192B397A4BC0B6DA40 CALLER DUP4 PUSH1 0x40 MLOAD PUSH2 0x44E SWAP3 SWAP2 SWAP1 PUSH2 0xEC4 JUMP JUMPDEST PUSH1 0x40 MLOAD DUP1 SWAP2 SUB SWAP1 LOG1 PUSH1 0x4 PUSH0 SWAP1 SLOAD SWAP1 PUSH2 0x100 EXP SWAP1 DIV PUSH1 0xFF AND ISZERO PUSH2 0x473 JUMPI PUSH2 0x472 PUSH2 0x477 JUMP JUMPDEST JUMPDEST POP POP JUMP JUMPDEST PUSH0 PUSH20 0xFFFFFFFFFFFFFFFFFFFFFFFFFFFFFFFFFFFFFFFF AND PUSH1 0x1 PUSH0 SWAP1 SLOAD SWAP1 PUSH2 0x100 EXP SWAP1 DIV PUSH20 0xFFFFFFFFFFFFFFFFFFFFFFFFFFFFFFFFFFFFFFFF AND PUSH20 0xFFFFFFFFFFFFFFFFFFFFFFFFFFFFFFFFFFFFFFFF AND EQ ISZERO DUP1 ISZERO PUSH2 0x521 JUMPI POP PUSH0 PUSH20 0xFFFFFFFFFFFFFFFFFFFFFFFFFFFFFFFFFFFFFFFF AND PUSH1 0x2 PUSH0 SWAP1 SLOAD SWAP1 PUSH2 0x100 EXP SWAP1 DIV PUSH20 0xFFFFFFFFFFFFFFFFFFFFFFFFFFFFFFFFFFFFFFFF AND PUSH20 0xFFFFFFFFFFFFFFFFFFFFFFFFFFFFFFFFFFFFFFFF AND EQ ISZERO JUMPDEST PUSH2 0x560 JUMPI PUSH1 0x40 MLOAD PUSH32 0x8C379A000000000000000000000000000000000000000000000000000000000 DUP2 MSTORE PUSH1 0x4 ADD PUSH2 0x557 SWAP1 PUSH2 0xF35 JUMP JUMPDEST PUSH1 0x40 MLOAD DUP1 SWAP2 SUB SWAP1 REVERT JUMPDEST PUSH0 PUSH1 0x3 PUSH0 PUSH1 0x1 PUSH0 SWAP1 SLOAD SWAP1 PUSH2 0x100 EXP SWAP1 DIV PUSH20 0xFFFFFFFFFFFFFFFFFFFFFFFFFFFFFFFFFFFFFFFF AND PUSH20 0xFFFFFFFFFFFFFFFFFFFFFFFFFFFFFFFFFFFFFFFF AND PUSH20 0xFFFFFFFFFFFFFFFFFFFFFFFFFFFFFFFFFFFFFFFF AND DUP2 MSTORE PUSH1 0x20 ADD SWAP1 DUP2 MSTORE PUSH1 0x20 ADD PUSH0 KECCAK256 SLOAD GT DUP1 ISZERO PUSH2 0x62A JUMPI POP PUSH0 PUSH1 0x3 PUSH0 PUSH1 0x2 PUSH0 SWAP1 SLOAD SWAP1 PUSH2 0x100 EXP SWAP1 DIV PUSH20 0xFFFFFFFFFFFFFFFFFFFFFFFFFFFFFFFFFFFFFFFF AND PUSH20 0xFFFFFFFFFFFFFFFFFFFFFFFFFFFFFFFFFFFFFFFF AND PUSH20 0xFFFFFFFFFFFFFFFFFFFFFFFFFFFFFFFFFFFFFFFF AND DUP2 MSTORE PUSH1 0x20 ADD SWAP1 DUP2 MSTORE PUSH1 0x20 ADD PUSH0 KECCAK256 SLOAD GT JUMPDEST PUSH2 0x669 JUMPI PUSH1 0x40 MLOAD PUSH32 0x8C379A000000000000000000000000000000000000000000000000000000000 DUP2 MSTORE PUSH1 0x4 ADD PUSH2 0x660 SWAP1 PUSH2 0xF9D JUMP JUMPDEST PUSH1 0x40 MLOAD DUP1 SWAP2 SUB SWAP1 REVERT JUMPDEST PUSH0 PUSH1 0x3 PUSH0 PUSH1 0x2 PUSH0 SWAP1 SLOAD SWAP1 PUSH2 0x100 EXP SWAP1 DIV PUSH20 0xFFFFFFFFFFFFFFFFFFFFFFFFFFFFFFFFFFFFFFFF AND PUSH20 0xFFFFFFFFFFFFFFFFFFFFFFFFFFFFFFFFFFFFFFFF AND PUSH20 0xFFFFFFFFFFFFFFFFFFFFFFFFFFFFFFFFFFFFFFFF AND DUP2 MSTORE PUSH1 0x20 ADD SWAP1 DUP2 MSTORE PUSH1 0x20 ADD PUSH0 KECCAK256 SLOAD PUSH1 0x3 PUSH0 PUSH1 0x1 PUSH0 SWAP1 SLOAD SWAP1 PUSH2 0x100 EXP SWAP1 DIV PUSH20 0xFFFFFFFFFFFFFFFFFFFFFFFFFFFFFFFFFFFFFFFF AND PUSH20 0xFFFFFFFFFFFFFFFFFFFFFFFFFFFFFFFFFFFFFFFF AND PUSH20 0xFFFFFFFFFFFFFFFFFFFFFFFFFFFFFFFFFFFFFFFF AND DUP2 MSTORE PUSH1 0x20 ADD SWAP1 DUP2 MSTORE PUSH1 0x20 ADD PUSH0 KECCAK256 SLOAD PUSH2 0x732 SWAP2 SWAP1 PUSH2 0xFBB JUMP JUMPDEST SWAP1 POP PUSH0 DUP2 TIMESTAMP PREVRANDAO PUSH1 0x40 MLOAD PUSH1 0x20 ADD PUSH2 0x749 SWAP3 SWAP2 SWAP1 PUSH2 0x100E JUMP JUMPDEST PUSH1 0x40 MLOAD PUSH1 0x20 DUP2 DUP4 SUB SUB DUP2 MSTORE SWAP1 PUSH1 0x40 MSTORE DUP1 MLOAD SWAP1 PUSH1 0x20 ADD KECCAK256 PUSH0 SHR PUSH2 0x76B SWAP2 SWAP1 PUSH2 0x1066 JUMP JUMPDEST SWAP1 POP PUSH0 PUSH1 0x3 PUSH0 PUSH1 0x1 PUSH0 SWAP1 SLOAD SWAP1 PUSH2 0x100 EXP SWAP1 DIV PUSH20 0xFFFFFFFFFFFFFFFFFFFFFFFFFFFFFFFFFFFFFFFF AND PUSH20 0xFFFFFFFFFFFFFFFFFFFFFFFFFFFFFFFFFFFFFFFF AND PUSH20 0xFFFFFFFFFFFFFFFFFFFFFFFFFFFFFFFFFFFFFFFF AND DUP2 MSTORE PUSH1 0x20 ADD SWAP1 DUP2 MSTORE PUSH1 0x20 ADD PUSH0 KECCAK256 SLOAD DUP3 LT ISZERO PUSH2 0x7FD JUMPI PUSH1 0x1 PUSH0 SWAP1 SLOAD SWAP1 PUSH2 0x100 EXP SWAP1 DIV PUSH20 0xFFFFFFFFFFFFFFFFFFFFFFFFFFFFFFFFFFFFFFFF AND SWAP1 POP PUSH2 0x822 JUMP JUMPDEST PUSH1 0x2 PUSH0 SWAP1 SLOAD SWAP1 PUSH2 0x100 EXP SWAP1 DIV PUSH20 0xFFFFFFFFFFFFFFFFFFFFFFFFFFFFFFFFFFFFFFFF AND SWAP1 POP JUMPDEST PUSH0 SELFBALANCE SWAP1 POP PUSH0 DUP3 PUSH20 0xFFFFFFFFFFFFFFFFFFFFFFFFFFFFFFFFFFFFFFFF AND DUP3 PUSH1 0x40 MLOAD PUSH2 0x84B SWAP1 PUSH2 0x10C3 JUMP JUMPDEST PUSH0 PUSH1 0x40 MLOAD DUP1 DUP4 SUB DUP2 DUP6 DUP8 GAS CALL SWAP3 POP POP POP RETURNDATASIZE DUP1 PUSH0 DUP2 EQ PUSH2 0x885 JUMPI PUSH1 0x40 MLOAD SWAP2 POP PUSH1 0x1F NOT PUSH1 0x3F RETURNDATASIZE ADD AND DUP3 ADD PUSH1 0x40 MSTORE RETURNDATASIZE DUP3 MSTORE RETURNDATASIZE PUSH0 PUSH1 0x20 DUP5 ADD RETURNDATACOPY PUSH2 0x88A JUMP JUMPDEST PUSH1 0x60 SWAP2 POP JUMPDEST POP POP SWAP1 POP DUP1 PUSH2 0x8CE JUMPI PUSH1 0x40 MLOAD PUSH32 0x8C379A000000000000000000000000000000000000000000000000000000000 DUP2 MSTORE PUSH1 0x4 ADD PUSH2 0x8C5 SWAP1 PUSH2 0x1121 JUMP JUMPDEST PUSH1 0x40 MLOAD DUP1 SWAP2 SUB SWAP1 REVERT JUMPDEST PUSH32 0x75060F9E79552DF167B73353FEE6237A75BB5BA8EA022F77224E32F152138BCB DUP4 DUP4 PUSH1 0x40 MLOAD PUSH2 0x8FF SWAP3 SWAP2 SWAP1 PUSH2 0x119A JUMP JUMPDEST PUSH1 0x40 MLOAD DUP1 SWAP2 SUB SWAP1 LOG1 PUSH2 0x90F PUSH2 0x916 JUMP JUMPDEST POP POP POP POP POP JUMP JUMPDEST PUSH0 PUSH1 0x1 PUSH0 PUSH2 0x100 EXP DUP2 SLOAD DUP2 PUSH20 0xFFFFFFFFFFFFFFFFFFFFFFFFFFFFFFFFFFFFFFFF MUL NOT AND SWAP1 DUP4 PUSH20 0xFFFFFFFFFFFFFFFFFFFFFFFFFFFFFFFFFFFFFFFF AND MUL OR SWAP1 SSTORE POP PUSH0 PUSH1 0x2 PUSH0 PUSH2 0x100 EXP DUP2 SLOAD DUP2 PUSH20 0xFFFFFFFFFFFFFFFFFFFFFFFFFFFFFFFFFFFFFFFF MUL NOT AND SWAP1 DUP4 PUSH20 0xFFFFFFFFFFFFFFFFFFFFFFFFFFFFFFFFFFFFFFFF AND MUL OR SWAP1 SSTORE POP PUSH0 PUSH1 0x4 PUSH0 PUSH2 0x100 EXP DUP2 SLOAD DUP2 PUSH1 0xFF MUL NOT AND SWAP1 DUP4 ISZERO ISZERO MUL OR SWAP1 SSTORE POP PUSH0 PUSH1 0x3 PUSH0 PUSH1 0x1 PUSH0 SWAP1 SLOAD SWAP1 PUSH2 0x100 EXP SWAP1 DIV PUSH20 0xFFFFFFFFFFFFFFFFFFFFFFFFFFFFFFFFFFFFFFFF AND PUSH20 0xFFFFFFFFFFFFFFFFFFFFFFFFFFFFFFFFFFFFFFFF AND PUSH20 0xFFFFFFFFFFFFFFFFFFFFFFFFFFFFFFFFFFFFFFFF AND DUP2 MSTORE PUSH1 0x20 ADD SWAP1 DUP2 MSTORE PUSH1 0x20 ADD PUSH0 KECCAK256 SLOAD GT ISZERO PUSH2 0xA79 JUMPI PUSH0 PUSH1 0x3 PUSH0 PUSH1 0x1 PUSH0 SWAP1 SLOAD SWAP1 PUSH2 0x100 EXP SWAP1 DIV PUSH20 0xFFFFFFFFFFFFFFFFFFFFFFFFFFFFFFFFFFFFFFFF AND PUSH20 0xFFFFFFFFFFFFFFFFFFFFFFFFFFFFFFFFFFFFFFFF AND PUSH20 0xFFFFFFFFFFFFFFFFFFFFFFFFFFFFFFFFFFFFFFFF AND DUP2 MSTORE PUSH1 0x20 ADD SWAP1 DUP2 MSTORE PUSH1 0x20 ADD PUSH0 KECCAK256 DUP2 SWAP1 SSTORE POP JUMPDEST PUSH0 PUSH1 0x3 PUSH0 PUSH1 0x2 PUSH0 SWAP1 SLOAD SWAP1 PUSH2 0x100 EXP SWAP1 DIV PUSH20 0xFFFFFFFFFFFFFFFFFFFFFFFFFFFFFFFFFFFFFFFF AND PUSH20 0xFFFFFFFFFFFFFFFFFFFFFFFFFFFFFFFFFFFFFFFF AND PUSH20 0xFFFFFFFFFFFFFFFFFFFFFFFFFFFFFFFFFFFFFFFF AND DUP2 MSTORE PUSH1 0x20 ADD SWAP1 DUP2 MSTORE PUSH1 0x20 ADD PUSH0 KECCAK256 SLOAD GT ISZERO PUSH2 0xB43 JUMPI PUSH0 PUSH1 0x3 PUSH0 PUSH1 0x2 PUSH0 SWAP1 SLOAD SWAP1 PUSH2 0x100 EXP SWAP1 DIV PUSH20 0xFFFFFFFFFFFFFFFFFFFFFFFFFFFFFFFFFFFFFFFF AND PUSH20 0xFFFFFFFFFFFFFFFFFFFFFFFFFFFFFFFFFFFFFFFF AND PUSH20 0xFFFFFFFFFFFFFFFFFFFFFFFFFFFFFFFFFFFFFFFF AND DUP2 MSTORE PUSH1 0x20 ADD SWAP1 DUP2 MSTORE PUSH1 0x20 ADD PUSH0 KECCAK256 DUP2 SWAP1 SSTORE POP JUMPDEST PUSH32 0xC6976B6410888B44C765590C8368EB4A60E0431D4AD683C8A53EA85A8479F22E PUSH1 0x40 MLOAD PUSH1 0x40 MLOAD DUP1 SWAP2 SUB SWAP1 LOG1 JUMP JUMPDEST PUSH0 DUP2 ISZERO ISZERO SWAP1 POP SWAP2 SWAP1 POP JUMP JUMPDEST PUSH2 0xB85 DUP2 PUSH2 0xB71 JUMP JUMPDEST DUP3 MSTORE POP POP JUMP JUMPDEST PUSH0 PUSH1 0x20 DUP3 ADD SWAP1 POP PUSH2 0xB9E PUSH0 DUP4 ADD DUP5 PUSH2 0xB7C JUMP JUMPDEST SWAP3 SWAP2 POP POP JUMP JUMPDEST PUSH0 DUP1 REVERT JUMPDEST PUSH0 PUSH20 0xFFFFFFFFFFFFFFFFFFFFFFFFFFFFFFFFFFFFFFFF DUP3 AND SWAP1 POP SWAP2 SWAP1 POP JUMP JUMPDEST PUSH0 PUSH2 0xBD1 DUP3 PUSH2 0xBA8 JUMP JUMPDEST SWAP1 POP SWAP2 SWAP1 POP JUMP JUMPDEST PUSH2 0xBE1 DUP2 PUSH2 0xBC7 JUMP JUMPDEST DUP2 EQ PUSH2 0xBEB JUMPI PUSH0 DUP1 REVERT JUMPDEST POP JUMP JUMPDEST PUSH0 DUP2 CALLDATALOAD SWAP1 POP PUSH2 0xBFC DUP2 PUSH2 0xBD8 JUMP JUMPDEST SWAP3 SWAP2 POP POP JUMP JUMPDEST PUSH0 PUSH1 0x20 DUP3 DUP5 SUB SLT ISZERO PUSH2 0xC17 JUMPI PUSH2 0xC16 PUSH2 0xBA4 JUMP JUMPDEST JUMPDEST PUSH0 PUSH2 0xC24 DUP5 DUP3 DUP6 ADD PUSH2 0xBEE JUMP JUMPDEST SWAP2 POP POP SWAP3 SWAP2 POP POP JUMP JUMPDEST PUSH0 DUP2 SWAP1 POP SWAP2 SWAP1 POP JUMP JUMPDEST PUSH2 0xC3F DUP2 PUSH2 0xC2D JUMP JUMPDEST DUP3 MSTORE POP POP JUMP JUMPDEST PUSH0 PUSH1 0x20 DUP3 ADD SWAP1 POP PUSH2 0xC58 PUSH0 DUP4 ADD DUP5 PUSH2 0xC36 JUMP JUMPDEST SWAP3 SWAP2 POP POP JUMP JUMPDEST PUSH2 0xC67 DUP2 PUSH2 0xC2D JUMP JUMPDEST DUP2 EQ PUSH2 0xC71 JUMPI PUSH0 DUP1 REVERT JUMPDEST POP JUMP JUMPDEST PUSH0 DUP2 CALLDATALOAD SWAP1 POP PUSH2 0xC82 DUP2 PUSH2 0xC5E JUMP JUMPDEST SWAP3 SWAP2 POP POP JUMP JUMPDEST PUSH0 PUSH1 0x20 DUP3 DUP5 SUB SLT ISZERO PUSH2 0xC9D JUMPI PUSH2 0xC9C PUSH2 0xBA4 JUMP JUMPDEST JUMPDEST PUSH0 PUSH2 0xCAA DUP5 DUP3 DUP6 ADD PUSH2 0xC74 JUMP JUMPDEST SWAP2 POP POP SWAP3 SWAP2 POP POP JUMP JUMPDEST PUSH0 DUP3 DUP3 MSTORE PUSH1 0x20 DUP3 ADD SWAP1 POP SWAP3 SWAP2 POP POP JUMP JUMPDEST PUSH32 0x596F75206861766520616C726561647920707572636861736564207469636B65 PUSH0 DUP3 ADD MSTORE PUSH32 0x7473207468697320726F756E642E000000000000000000000000000000000000 PUSH1 0x20 DUP3 ADD MSTORE POP JUMP JUMPDEST PUSH0 PUSH2 0xD1D PUSH1 0x2E DUP4 PUSH2 0xCB3 JUMP JUMPDEST SWAP2 POP PUSH2 0xD28 DUP3 PUSH2 0xCC3 JUMP JUMPDEST PUSH1 0x40 DUP3 ADD SWAP1 POP SWAP2 SWAP1 POP JUMP JUMPDEST PUSH0 PUSH1 0x20 DUP3 ADD SWAP1 POP DUP2 DUP2 SUB PUSH0 DUP4 ADD MSTORE PUSH2 0xD4A DUP2 PUSH2 0xD11 JUMP JUMPDEST SWAP1 POP SWAP2 SWAP1 POP JUMP JUMPDEST PUSH32 0x4E487B7100000000000000000000000000000000000000000000000000000000 PUSH0 MSTORE PUSH1 0x11 PUSH1 0x4 MSTORE PUSH1 0x24 PUSH0 REVERT JUMPDEST PUSH0 PUSH2 0xD88 DUP3 PUSH2 0xC2D JUMP JUMPDEST SWAP2 POP PUSH2 0xD93 DUP4 PUSH2 0xC2D JUMP JUMPDEST SWAP3 POP DUP3 DUP3 MUL PUSH2 0xDA1 DUP2 PUSH2 0xC2D JUMP JUMPDEST SWAP2 POP DUP3 DUP3 DIV DUP5 EQ DUP4 ISZERO OR PUSH2 0xDB8 JUMPI PUSH2 0xDB7 PUSH2 0xD51 JUMP JUMPDEST JUMPDEST POP SWAP3 SWAP2 POP POP JUMP JUMPDEST PUSH32 0x596F7520646F206E6F74206861766520656E6F75676820657468657220746F20 PUSH0 DUP3 ADD MSTORE PUSH32 0x70757263686173652074686174206D616E79207469636B657473000000000000 PUSH1 0x20 DUP3 ADD MSTORE POP JUMP JUMPDEST PUSH0 PUSH2 0xE19 PUSH1 0x3A DUP4 PUSH2 0xCB3 JUMP JUMPDEST SWAP2 POP PUSH2 0xE24 DUP3 PUSH2 0xDBF JUMP JUMPDEST PUSH1 0x40 DUP3 ADD SWAP1 POP SWAP2 SWAP1 POP JUMP JUMPDEST PUSH0 PUSH1 0x20 DUP3 ADD SWAP1 POP DUP2 DUP2 SUB PUSH0 DUP4 ADD MSTORE PUSH2 0xE46 DUP2 PUSH2 0xE0D JUMP JUMPDEST SWAP1 POP SWAP2 SWAP1 POP JUMP JUMPDEST PUSH32 0x47616D6520616C7265616479206861732074776F20706C617965727300000000 PUSH0 DUP3 ADD MSTORE POP JUMP JUMPDEST PUSH0 PUSH2 0xE81 PUSH1 0x1C DUP4 PUSH2 0xCB3 JUMP JUMPDEST SWAP2 POP PUSH2 0xE8C DUP3 PUSH2 0xE4D JUMP JUMPDEST PUSH1 0x20 DUP3 ADD SWAP1 POP SWAP2 SWAP1 POP JUMP JUMPDEST PUSH0 PUSH1 0x20 DUP3 ADD SWAP1 POP DUP2 DUP2 SUB PUSH0 DUP4 ADD MSTORE PUSH2 0xEAE DUP2 PUSH2 0xE75 JUMP JUMPDEST SWAP1 POP SWAP2 SWAP1 POP JUMP JUMPDEST PUSH2 0xEBE DUP2 PUSH2 0xBC7 JUMP JUMPDEST DUP3 MSTORE POP POP JUMP JUMPDEST PUSH0 PUSH1 0x40 DUP3 ADD SWAP1 POP PUSH2 0xED7 PUSH0 DUP4 ADD DUP6 PUSH2 0xEB5 JUMP JUMPDEST PUSH2 0xEE4 PUSH1 0x20 DUP4 ADD DUP5 PUSH2 0xC36 JUMP JUMPDEST SWAP4 SWAP3 POP POP POP JUMP JUMPDEST PUSH32 0x57616974696E6720666F7220706C617965727300000000000000000000000000 PUSH0 DUP3 ADD MSTORE POP JUMP JUMPDEST PUSH0 PUSH2 0xF1F PUSH1 0x13 DUP4 PUSH2 0xCB3 JUMP JUMPDEST SWAP2 POP PUSH2 0xF2A DUP3 PUSH2 0xEEB JUMP JUMPDEST PUSH1 0x20 DUP3 ADD SWAP1 POP SWAP2 SWAP1 POP JUMP JUMPDEST PUSH0 PUSH1 0x20 DUP3 ADD SWAP1 POP DUP2 DUP2 SUB PUSH0 DUP4 ADD MSTORE PUSH2 0xF4C DUP2 PUSH2 0xF13 JUMP JUMPDEST SWAP1 POP SWAP2 SWAP1 POP JUMP JUMPDEST PUSH32 0x426F746820706C6179657273206D75737420627579207469636B657473000000 PUSH0 DUP3 ADD MSTORE POP JUMP JUMPDEST PUSH0 PUSH2 0xF87 PUSH1 0x1D DUP4 PUSH2 0xCB3 JUMP JUMPDEST SWAP2 POP PUSH2 0xF92 DUP3 PUSH2 0xF53 JUMP JUMPDEST PUSH1 0x20 DUP3 ADD SWAP1 POP SWAP2 SWAP1 POP JUMP JUMPDEST PUSH0 PUSH1 0x20 DUP3 ADD SWAP1 POP DUP2 DUP2 SUB PUSH0 DUP4 ADD MSTORE PUSH2 0xFB4 DUP2 PUSH2 0xF7B JUMP JUMPDEST SWAP1 POP SWAP2 SWAP1 POP JUMP JUMPDEST PUSH0 PUSH2 0xFC5 DUP3 PUSH2 0xC2D JUMP JUMPDEST SWAP2 POP PUSH2 0xFD0 DUP4 PUSH2 0xC2D JUMP JUMPDEST SWAP3 POP DUP3 DUP3 ADD SWAP1 POP DUP1 DUP3 GT ISZERO PUSH2 0xFE8 JUMPI PUSH2 0xFE7 PUSH2 0xD51 JUMP JUMPDEST JUMPDEST SWAP3 SWAP2 POP POP JUMP JUMPDEST PUSH0 DUP2 SWAP1 POP SWAP2 SWAP1 POP JUMP JUMPDEST PUSH2 0x1008 PUSH2 0x1003 DUP3 PUSH2 0xC2D JUMP JUMPDEST PUSH2 0xFEE JUMP JUMPDEST DUP3 MSTORE POP POP JUMP JUMPDEST PUSH0 PUSH2 0x1019 DUP3 DUP6 PUSH2 0xFF7 JUMP JUMPDEST PUSH1 0x20 DUP3 ADD SWAP2 POP PUSH2 0x1029 DUP3 DUP5 PUSH2 0xFF7 JUMP JUMPDEST PUSH1 0x20 DUP3 ADD SWAP2 POP DUP2 SWAP1 POP SWAP4 SWAP3 POP POP POP JUMP JUMPDEST PUSH32 0x4E487B7100000000000000000000000000000000000000000000000000000000 PUSH0 MSTORE PUSH1 0x12 PUSH1 0x4 MSTORE PUSH1 0x24 PUSH0 REVERT JUMPDEST PUSH0 PUSH2 0x1070 DUP3 PUSH2 0xC2D JUMP JUMPDEST SWAP2 POP PUSH2 0x107B DUP4 PUSH2 0xC2D JUMP JUMPDEST SWAP3 POP DUP3 PUSH2 0x108B JUMPI PUSH2 0x108A PUSH2 0x1039 JUMP JUMPDEST JUMPDEST DUP3 DUP3 MOD SWAP1 POP SWAP3 SWAP2 POP POP JUMP JUMPDEST PUSH0 DUP2 SWAP1 POP SWAP3 SWAP2 POP POP JUMP JUMPDEST POP JUMP JUMPDEST PUSH0 PUSH2 0x10AE PUSH0 DUP4 PUSH2 0x1096 JUMP JUMPDEST SWAP2 POP PUSH2 0x10B9 DUP3 PUSH2 0x10A0 JUMP JUMPDEST PUSH0 DUP3 ADD SWAP1 POP SWAP2 SWAP1 POP JUMP JUMPDEST PUSH0 PUSH2 0x10CD DUP3 PUSH2 0x10A3 JUMP JUMPDEST SWAP2 POP DUP2 SWAP1 POP SWAP2 SWAP1 POP JUMP JUMPDEST PUSH32 0x4661696C656420746F2073656E64207072697A65000000000000000000000000 PUSH0 DUP3 ADD MSTORE POP JUMP JUMPDEST PUSH0 PUSH2 0x110B PUSH1 0x14 DUP4 PUSH2 0xCB3 JUMP JUMPDEST SWAP2 POP PUSH2 0x1116 DUP3 PUSH2 0x10D7 JUMP JUMPDEST PUSH1 0x20 DUP3 ADD SWAP1 POP SWAP2 SWAP1 POP JUMP JUMPDEST PUSH0 PUSH1 0x20 DUP3 ADD SWAP1 POP DUP2 DUP2 SUB PUSH0 DUP4 ADD MSTORE PUSH2 0x1138 DUP2 PUSH2 0x10FF JUMP JUMPDEST SWAP1 POP SWAP2 SWAP1 POP JUMP JUMPDEST PUSH0 DUP2 SWAP1 POP SWAP2 SWAP1 POP JUMP JUMPDEST PUSH0 PUSH2 0x1162 PUSH2 0x115D PUSH2 0x1158 DUP5 PUSH2 0xBA8 JUMP JUMPDEST PUSH2 0x113F JUMP JUMPDEST PUSH2 0xBA8 JUMP JUMPDEST SWAP1 POP SWAP2 SWAP1 POP JUMP JUMPDEST PUSH0 PUSH2 0x1173 DUP3 PUSH2 0x1148 JUMP JUMPDEST SWAP1 POP SWAP2 SWAP1 POP JUMP JUMPDEST PUSH0 PUSH2 0x1184 DUP3 PUSH2 0x1169 JUMP JUMPDEST SWAP1 POP SWAP2 SWAP1 POP JUMP JUMPDEST PUSH2 0x1194 DUP2 PUSH2 0x117A JUMP JUMPDEST DUP3 MSTORE POP POP JUMP JUMPDEST PUSH0 PUSH1 0x40 DUP3 ADD SWAP1 POP PUSH2 0x11AD PUSH0 DUP4 ADD DUP6 PUSH2 0x118B JUMP JUMPDEST PUSH2 0x11BA PUSH1 0x20 DUP4 ADD DUP5 PUSH2 0xC36 JUMP JUMPDEST SWAP4 SWAP3 POP POP POP JUMP INVALID LOG2 PUSH5 0x6970667358 0x22 SLT KECCAK256 PUSH19 0x43B04227B3F24F8F178EDEED235A2108A03685 PUSH32 0xEE1BE23DA4DAE828436F1E64736F6C634300081A003300000000000000000000 "
				},
				"gasEstimates": {
					"creation": {
						"codeDepositCost": "919800",
						"executionCost": "infinite",
						"totalCost": "infinite"
					},
					"external": {
						"buyTickets(uint256)": "infinite",
						"cleanup()": "89713",
						"game_status()": "2444",
						"selectWinner()": "infinite",
						"ticketAmount(address)": "2802"
					}
				},
				"methodIdentifiers": {
					"buyTickets(uint256)": "2f366637",
					"cleanup()": "3cecd719",
					"game_status()": "19c19b34",
					"selectWinner()": "33a99e04",
					"ticketAmount(address)": "28821efe"
				}
			},
			"storageLayout": {
				"storage": [
					{
						"astId": 4,
						"contract": "Lottery.sol:Lottery",
						"label": "ticket_price",
						"offset": 0,
						"slot": "0",
						"type": "t_uint256"
					},
					{
						"astId": 6,
						"contract": "Lottery.sol:Lottery",
						"label": "address1",
						"offset": 0,
						"slot": "1",
						"type": "t_address_payable"
					},
					{
						"astId": 8,
						"contract": "Lottery.sol:Lottery",
						"label": "address2",
						"offset": 0,
						"slot": "2",
						"type": "t_address_payable"
					},
					{
						"astId": 12,
						"contract": "Lottery.sol:Lottery",
						"label": "ticketAmount",
						"offset": 0,
						"slot": "3",
						"type": "t_mapping(t_address,t_uint256)"
					},
					{
						"astId": 15,
						"contract": "Lottery.sol:Lottery",
						"label": "game_status",
						"offset": 0,
						"slot": "4",
						"type": "t_bool"
					}
				],
				"types": {
					"t_address": {
						"encoding": "inplace",
						"label": "address",
						"numberOfBytes": "20"
					},
					"t_address_payable": {
						"encoding": "inplace",
						"label": "address payable",
						"numberOfBytes": "20"
					},
					"t_bool": {
						"encoding": "inplace",
						"label": "bool",
						"numberOfBytes": "1"
					},
					"t_mapping(t_address,t_uint256)": {
						"encoding": "mapping",
						"key": "t_address",
						"label": "mapping(address => uint256)",
						"numberOfBytes": "32",
						"value": "t_uint256"
					},
					"t_uint256": {
						"encoding": "inplace",
						"label": "uint256",
						"numberOfBytes": "32"
					}
				}
			},
			"userdoc": {
				"kind": "user",
				"methods": {},
				"version": 1
			}
		}
	}
}