{
	"Test.sol": {
		"GameHub": {
			"abi": [
				{
					"inputs": [
						{
							"internalType": "address",
							"name": "_vrfCoordinator",
							"type": "address"
						},
						{
							"internalType": "address",
							"name": "_linkToken",
							"type": "address"
						},
						{
							"internalType": "bytes32",
							"name": "_vrfKeyHash",
							"type": "bytes32"
						},
						{
							"internalType": "uint256",
							"name": "_vrfFee",
							"type": "uint256"
						}
					],
					"stateMutability": "nonpayable",
					"type": "constructor"
				},
				{
					"anonymous": false,
					"inputs": [
						{
							"indexed": false,
							"internalType": "address",
							"name": "gameAddress",
							"type": "address"
						},
						{
							"indexed": false,
							"internalType": "address",
							"name": "creator",
							"type": "address"
						}
					],
					"name": "GameCreated",
					"type": "event"
				},
				{
					"inputs": [
						{
							"internalType": "address",
							"name": "tokenAddr",
							"type": "address"
						},
						{
							"internalType": "uint256",
							"name": "stakeAmt",
							"type": "uint256"
						}
					],
					"name": "createHeadToHeadGame",
					"outputs": [
						{
							"internalType": "address",
							"name": "",
							"type": "address"
						}
					],
					"stateMutability": "nonpayable",
					"type": "function"
				},
				{
					"inputs": [],
					"name": "gameCount",
					"outputs": [
						{
							"internalType": "uint256",
							"name": "",
							"type": "uint256"
						}
					],
					"stateMutability": "view",
					"type": "function"
				},
				{
					"inputs": [
						{
							"internalType": "uint256",
							"name": "",
							"type": "uint256"
						}
					],
					"name": "games",
					"outputs": [
						{
							"internalType": "address",
							"name": "",
							"type": "address"
						}
					],
					"stateMutability": "view",
					"type": "function"
				},
				{
					"inputs": [],
					"name": "linkToken",
					"outputs": [
						{
							"internalType": "address",
							"name": "",
							"type": "address"
						}
					],
					"stateMutability": "view",
					"type": "function"
				},
				{
					"inputs": [],
					"name": "vrfCoordinator",
					"outputs": [
						{
							"internalType": "address",
							"name": "",
							"type": "address"
						}
					],
					"stateMutability": "view",
					"type": "function"
				},
				{
					"inputs": [],
					"name": "vrfFee",
					"outputs": [
						{
							"internalType": "uint256",
							"name": "",
							"type": "uint256"
						}
					],
					"stateMutability": "view",
					"type": "function"
				},
				{
					"inputs": [],
					"name": "vrfKeyHash",
					"outputs": [
						{
							"internalType": "bytes32",
							"name": "",
							"type": "bytes32"
						}
					],
					"stateMutability": "view",
					"type": "function"
				}
			],
			"devdoc": {
				"details": "Deploys and tracks individual game contracts.",
				"kind": "dev",
				"methods": {
					"createHeadToHeadGame(address,uint256)": {
						"details": "Create a new HeadToHeadGame",
						"params": {
							"stakeAmt": "amount each player stakes",
							"tokenAddr": "ERC20 token address for staking"
						}
					},
					"gameCount()": {
						"details": "Get number of games"
					}
				},
				"title": "GameHub",
				"version": 1
			},
			"evm": {
				"assembly": "    /* \"Test.sol\":3032:4276  contract GameHub {... */\n  mstore(0x40, 0x80)\n    /* \"Test.sol\":3270:3544  constructor(... */\n  callvalue\n  dup1\n  iszero\n  tag_1\n  jumpi\n  0x00\n  dup1\n  revert\ntag_1:\n  pop\n  mload(0x40)\n  sub(codesize, bytecodeSize)\n  dup1\n  bytecodeSize\n  dup4\n  codecopy\n  dup2\n  dup2\n  add\n  0x40\n  mstore\n  dup2\n  add\n  swap1\n  tag_2\n  swap2\n  swap1\n  tag_3\n  jump\t// in\ntag_2:\n    /* \"Test.sol\":3430:3445  _vrfCoordinator */\n  dup4\n    /* \"Test.sol\":3413:3427  vrfCoordinator */\n  0x01\n  0x00\n    /* \"Test.sol\":3413:3445  vrfCoordinator = _vrfCoordinator */\n  0x0100\n  exp\n  dup2\n  sload\n  dup2\n  0xffffffffffffffffffffffffffffffffffffffff\n  mul\n  not\n  and\n  swap1\n  dup4\n  0xffffffffffffffffffffffffffffffffffffffff\n  and\n  mul\n  or\n  swap1\n  sstore\n  pop\n    /* \"Test.sol\":3467:3477  _linkToken */\n  dup3\n    /* \"Test.sol\":3455:3464  linkToken */\n  0x02\n  0x00\n    /* \"Test.sol\":3455:3477  linkToken = _linkToken */\n  0x0100\n  exp\n  dup2\n  sload\n  dup2\n  0xffffffffffffffffffffffffffffffffffffffff\n  mul\n  not\n  and\n  swap1\n  dup4\n  0xffffffffffffffffffffffffffffffffffffffff\n  and\n  mul\n  or\n  swap1\n  sstore\n  pop\n    /* \"Test.sol\":3500:3511  _vrfKeyHash */\n  dup2\n    /* \"Test.sol\":3487:3497  vrfKeyHash */\n  0x03\n    /* \"Test.sol\":3487:3511  vrfKeyHash = _vrfKeyHash */\n  dup2\n  swap1\n  sstore\n  pop\n    /* \"Test.sol\":3530:3537  _vrfFee */\n  dup1\n    /* \"Test.sol\":3521:3527  vrfFee */\n  0x04\n    /* \"Test.sol\":3521:3537  vrfFee = _vrfFee */\n  dup2\n  swap1\n  sstore\n  pop\n    /* \"Test.sol\":3270:3544  constructor(... */\n  pop\n  pop\n  pop\n  pop\n    /* \"Test.sol\":3032:4276  contract GameHub {... */\n  jump(tag_6)\n    /* \"#utility.yul\":88:205   */\ntag_8:\n    /* \"#utility.yul\":197:198   */\n  0x00\n    /* \"#utility.yul\":194:195   */\n  dup1\n    /* \"#utility.yul\":187:199   */\n  revert\n    /* \"#utility.yul\":334:460   */\ntag_10:\n    /* \"#utility.yul\":371:378   */\n  0x00\n    /* \"#utility.yul\":411:453   */\n  0xffffffffffffffffffffffffffffffffffffffff\n    /* \"#utility.yul\":404:409   */\n  dup3\n    /* \"#utility.yul\":400:454   */\n  and\n    /* \"#utility.yul\":389:454   */\n  swap1\n  pop\n    /* \"#utility.yul\":334:460   */\n  swap2\n  swap1\n  pop\n  jump\t// out\n    /* \"#utility.yul\":466:562   */\ntag_11:\n    /* \"#utility.yul\":503:510   */\n  0x00\n    /* \"#utility.yul\":532:556   */\n  tag_26\n    /* \"#utility.yul\":550:555   */\n  dup3\n    /* \"#utility.yul\":532:556   */\n  tag_10\n  jump\t// in\ntag_26:\n    /* \"#utility.yul\":521:556   */\n  swap1\n  pop\n    /* \"#utility.yul\":466:562   */\n  swap2\n  swap1\n  pop\n  jump\t// out\n    /* \"#utility.yul\":568:690   */\ntag_12:\n    /* \"#utility.yul\":641:665   */\n  tag_28\n    /* \"#utility.yul\":659:664   */\n  dup2\n    /* \"#utility.yul\":641:665   */\n  tag_11\n  jump\t// in\ntag_28:\n    /* \"#utility.yul\":634:639   */\n  dup2\n    /* \"#utility.yul\":631:666   */\n  eq\n    /* \"#utility.yul\":621:684   */\n  tag_29\n  jumpi\n    /* \"#utility.yul\":680:681   */\n  0x00\n    /* \"#utility.yul\":677:678   */\n  dup1\n    /* \"#utility.yul\":670:682   */\n  revert\n    /* \"#utility.yul\":621:684   */\ntag_29:\n    /* \"#utility.yul\":568:690   */\n  pop\n  jump\t// out\n    /* \"#utility.yul\":696:839   */\ntag_13:\n    /* \"#utility.yul\":753:758   */\n  0x00\n    /* \"#utility.yul\":784:790   */\n  dup2\n    /* \"#utility.yul\":778:791   */\n  mload\n    /* \"#utility.yul\":769:791   */\n  swap1\n  pop\n    /* \"#utility.yul\":800:833   */\n  tag_31\n    /* \"#utility.yul\":827:832   */\n  dup2\n    /* \"#utility.yul\":800:833   */\n  tag_12\n  jump\t// in\ntag_31:\n    /* \"#utility.yul\":696:839   */\n  swap3\n  swap2\n  pop\n  pop\n  jump\t// out\n    /* \"#utility.yul\":845:922   */\ntag_14:\n    /* \"#utility.yul\":882:889   */\n  0x00\n    /* \"#utility.yul\":911:916   */\n  dup2\n    /* \"#utility.yul\":900:916   */\n  swap1\n  pop\n    /* \"#utility.yul\":845:922   */\n  swap2\n  swap1\n  pop\n  jump\t// out\n    /* \"#utility.yul\":928:1050   */\ntag_15:\n    /* \"#utility.yul\":1001:1025   */\n  tag_34\n    /* \"#utility.yul\":1019:1024   */\n  dup2\n    /* \"#utility.yul\":1001:1025   */\n  tag_14\n  jump\t// in\ntag_34:\n    /* \"#utility.yul\":994:999   */\n  dup2\n    /* \"#utility.yul\":991:1026   */\n  eq\n    /* \"#utility.yul\":981:1044   */\n  tag_35\n  jumpi\n    /* \"#utility.yul\":1040:1041   */\n  0x00\n    /* \"#utility.yul\":1037:1038   */\n  dup1\n    /* \"#utility.yul\":1030:1042   */\n  revert\n    /* \"#utility.yul\":981:1044   */\ntag_35:\n    /* \"#utility.yul\":928:1050   */\n  pop\n  jump\t// out\n    /* \"#utility.yul\":1056:1199   */\ntag_16:\n    /* \"#utility.yul\":1113:1118   */\n  0x00\n    /* \"#utility.yul\":1144:1150   */\n  dup2\n    /* \"#utility.yul\":1138:1151   */\n  mload\n    /* \"#utility.yul\":1129:1151   */\n  swap1\n  pop\n    /* \"#utility.yul\":1160:1193   */\n  tag_37\n    /* \"#utility.yul\":1187:1192   */\n  dup2\n    /* \"#utility.yul\":1160:1193   */\n  tag_15\n  jump\t// in\ntag_37:\n    /* \"#utility.yul\":1056:1199   */\n  swap3\n  swap2\n  pop\n  pop\n  jump\t// out\n    /* \"#utility.yul\":1205:1282   */\ntag_17:\n    /* \"#utility.yul\":1242:1249   */\n  0x00\n    /* \"#utility.yul\":1271:1276   */\n  dup2\n    /* \"#utility.yul\":1260:1276   */\n  swap1\n  pop\n    /* \"#utility.yul\":1205:1282   */\n  swap2\n  swap1\n  pop\n  jump\t// out\n    /* \"#utility.yul\":1288:1410   */\ntag_18:\n    /* \"#utility.yul\":1361:1385   */\n  tag_40\n    /* \"#utility.yul\":1379:1384   */\n  dup2\n    /* \"#utility.yul\":1361:1385   */\n  tag_17\n  jump\t// in\ntag_40:\n    /* \"#utility.yul\":1354:1359   */\n  dup2\n    /* \"#utility.yul\":1351:1386   */\n  eq\n    /* \"#utility.yul\":1341:1404   */\n  tag_41\n  jumpi\n    /* \"#utility.yul\":1400:1401   */\n  0x00\n    /* \"#utility.yul\":1397:1398   */\n  dup1\n    /* \"#utility.yul\":1390:1402   */\n  revert\n    /* \"#utility.yul\":1341:1404   */\ntag_41:\n    /* \"#utility.yul\":1288:1410   */\n  pop\n  jump\t// out\n    /* \"#utility.yul\":1416:1559   */\ntag_19:\n    /* \"#utility.yul\":1473:1478   */\n  0x00\n    /* \"#utility.yul\":1504:1510   */\n  dup2\n    /* \"#utility.yul\":1498:1511   */\n  mload\n    /* \"#utility.yul\":1489:1511   */\n  swap1\n  pop\n    /* \"#utility.yul\":1520:1553   */\n  tag_43\n    /* \"#utility.yul\":1547:1552   */\n  dup2\n    /* \"#utility.yul\":1520:1553   */\n  tag_18\n  jump\t// in\ntag_43:\n    /* \"#utility.yul\":1416:1559   */\n  swap3\n  swap2\n  pop\n  pop\n  jump\t// out\n    /* \"#utility.yul\":1565:2385   */\ntag_3:\n    /* \"#utility.yul\":1662:1668   */\n  0x00\n    /* \"#utility.yul\":1670:1676   */\n  dup1\n    /* \"#utility.yul\":1678:1684   */\n  0x00\n    /* \"#utility.yul\":1686:1692   */\n  dup1\n    /* \"#utility.yul\":1735:1738   */\n  0x80\n    /* \"#utility.yul\":1723:1732   */\n  dup6\n    /* \"#utility.yul\":1714:1721   */\n  dup8\n    /* \"#utility.yul\":1710:1733   */\n  sub\n    /* \"#utility.yul\":1706:1739   */\n  slt\n    /* \"#utility.yul\":1703:1823   */\n  iszero\n  tag_45\n  jumpi\n    /* \"#utility.yul\":1742:1821   */\n  tag_46\n  tag_8\n  jump\t// in\ntag_46:\n    /* \"#utility.yul\":1703:1823   */\ntag_45:\n    /* \"#utility.yul\":1862:1863   */\n  0x00\n    /* \"#utility.yul\":1887:1951   */\n  tag_47\n    /* \"#utility.yul\":1943:1950   */\n  dup8\n    /* \"#utility.yul\":1934:1940   */\n  dup3\n    /* \"#utility.yul\":1923:1932   */\n  dup9\n    /* \"#utility.yul\":1919:1941   */\n  add\n    /* \"#utility.yul\":1887:1951   */\n  tag_13\n  jump\t// in\ntag_47:\n    /* \"#utility.yul\":1877:1951   */\n  swap5\n  pop\n    /* \"#utility.yul\":1833:1961   */\n  pop\n    /* \"#utility.yul\":2000:2002   */\n  0x20\n    /* \"#utility.yul\":2026:2090   */\n  tag_48\n    /* \"#utility.yul\":2082:2089   */\n  dup8\n    /* \"#utility.yul\":2073:2079   */\n  dup3\n    /* \"#utility.yul\":2062:2071   */\n  dup9\n    /* \"#utility.yul\":2058:2080   */\n  add\n    /* \"#utility.yul\":2026:2090   */\n  tag_13\n  jump\t// in\ntag_48:\n    /* \"#utility.yul\":2016:2090   */\n  swap4\n  pop\n    /* \"#utility.yul\":1971:2100   */\n  pop\n    /* \"#utility.yul\":2139:2141   */\n  0x40\n    /* \"#utility.yul\":2165:2229   */\n  tag_49\n    /* \"#utility.yul\":2221:2228   */\n  dup8\n    /* \"#utility.yul\":2212:2218   */\n  dup3\n    /* \"#utility.yul\":2201:2210   */\n  dup9\n    /* \"#utility.yul\":2197:2219   */\n  add\n    /* \"#utility.yul\":2165:2229   */\n  tag_16\n  jump\t// in\ntag_49:\n    /* \"#utility.yul\":2155:2229   */\n  swap3\n  pop\n    /* \"#utility.yul\":2110:2239   */\n  pop\n    /* \"#utility.yul\":2278:2280   */\n  0x60\n    /* \"#utility.yul\":2304:2368   */\n  tag_50\n    /* \"#utility.yul\":2360:2367   */\n  dup8\n    /* \"#utility.yul\":2351:2357   */\n  dup3\n    /* \"#utility.yul\":2340:2349   */\n  dup9\n    /* \"#utility.yul\":2336:2358   */\n  add\n    /* \"#utility.yul\":2304:2368   */\n  tag_19\n  jump\t// in\ntag_50:\n    /* \"#utility.yul\":2294:2368   */\n  swap2\n  pop\n    /* \"#utility.yul\":2249:2378   */\n  pop\n    /* \"#utility.yul\":1565:2385   */\n  swap3\n  swap6\n  swap2\n  swap5\n  pop\n  swap3\n  pop\n  jump\t// out\n    /* \"Test.sol\":3032:4276  contract GameHub {... */\ntag_6:\n  dataSize(sub_0)\n  dup1\n  dataOffset(sub_0)\n  0x00\n  codecopy\n  0x00\n  return\nstop\n\nsub_0: assembly {\n        /* \"Test.sol\":3032:4276  contract GameHub {... */\n      mstore(0x40, 0x80)\n      callvalue\n      dup1\n      iszero\n      tag_1\n      jumpi\n      0x00\n      dup1\n      revert\n    tag_1:\n      pop\n      jumpi(tag_2, lt(calldatasize, 0x04))\n      shr(0xe0, calldataload(0x00))\n      dup1\n      0x117a5b90\n      gt\n      tag_10\n      jumpi\n      dup1\n      0x117a5b90\n      eq\n      tag_6\n      jumpi\n      dup1\n      0x4d1975b4\n      eq\n      tag_7\n      jumpi\n      dup1\n      0x57970e93\n      eq\n      tag_8\n      jumpi\n      dup1\n      0xa3e56fa8\n      eq\n      tag_9\n      jumpi\n      jump(tag_2)\n    tag_10:\n      dup1\n      0x041d443e\n      eq\n      tag_3\n      jumpi\n      dup1\n      0x0586bc5d\n      eq\n      tag_4\n      jumpi\n      dup1\n      0x1017507d\n      eq\n      tag_5\n      jumpi\n    tag_2:\n      0x00\n      dup1\n      revert\n        /* \"Test.sol\":3149:3174  bytes32 public vrfKeyHash */\n    tag_3:\n      tag_11\n      tag_12\n      jump\t// in\n    tag_11:\n      mload(0x40)\n      tag_13\n      swap2\n      swap1\n      tag_14\n      jump\t// in\n    tag_13:\n      mload(0x40)\n      dup1\n      swap2\n      sub\n      swap1\n      return\n        /* \"Test.sol\":3712:4131  function createHeadToHeadGame(address tokenAddr, uint256 stakeAmt) external returns (address) {... */\n    tag_4:\n      tag_15\n      0x04\n      dup1\n      calldatasize\n      sub\n      dup2\n      add\n      swap1\n      tag_16\n      swap2\n      swap1\n      tag_17\n      jump\t// in\n    tag_16:\n      tag_18\n      jump\t// in\n    tag_15:\n      mload(0x40)\n      tag_19\n      swap2\n      swap1\n      tag_20\n      jump\t// in\n    tag_19:\n      mload(0x40)\n      dup1\n      swap2\n      sub\n      swap1\n      return\n        /* \"Test.sol\":3180:3201  uint256 public vrfFee */\n    tag_5:\n      tag_21\n      tag_22\n      jump\t// in\n    tag_21:\n      mload(0x40)\n      tag_23\n      swap2\n      swap1\n      tag_24\n      jump\t// in\n    tag_23:\n      mload(0x40)\n      dup1\n      swap2\n      sub\n      swap1\n      return\n        /* \"Test.sol\":3055:3077  address[] public games */\n    tag_6:\n      tag_25\n      0x04\n      dup1\n      calldatasize\n      sub\n      dup2\n      add\n      swap1\n      tag_26\n      swap2\n      swap1\n      tag_27\n      jump\t// in\n    tag_26:\n      tag_28\n      jump\t// in\n    tag_25:\n      mload(0x40)\n      tag_29\n      swap2\n      swap1\n      tag_20\n      jump\t// in\n    tag_29:\n      mload(0x40)\n      dup1\n      swap2\n      sub\n      swap1\n      return\n        /* \"Test.sol\":4185:4274  function gameCount() external view returns (uint256) {... */\n    tag_7:\n      tag_30\n      tag_31\n      jump\t// in\n    tag_30:\n      mload(0x40)\n      tag_32\n      swap2\n      swap1\n      tag_24\n      jump\t// in\n    tag_32:\n      mload(0x40)\n      dup1\n      swap2\n      sub\n      swap1\n      return\n        /* \"Test.sol\":3119:3143  address public linkToken */\n    tag_8:\n      tag_33\n      tag_34\n      jump\t// in\n    tag_33:\n      mload(0x40)\n      tag_35\n      swap2\n      swap1\n      tag_20\n      jump\t// in\n    tag_35:\n      mload(0x40)\n      dup1\n      swap2\n      sub\n      swap1\n      return\n        /* \"Test.sol\":3084:3113  address public vrfCoordinator */\n    tag_9:\n      tag_36\n      tag_37\n      jump\t// in\n    tag_36:\n      mload(0x40)\n      tag_38\n      swap2\n      swap1\n      tag_20\n      jump\t// in\n    tag_38:\n      mload(0x40)\n      dup1\n      swap2\n      sub\n      swap1\n      return\n        /* \"Test.sol\":3149:3174  bytes32 public vrfKeyHash */\n    tag_12:\n      sload(0x03)\n      dup2\n      jump\t// out\n        /* \"Test.sol\":3712:4131  function createHeadToHeadGame(address tokenAddr, uint256 stakeAmt) external returns (address) {... */\n    tag_18:\n        /* \"Test.sol\":3797:3804  address */\n      0x00\n        /* \"Test.sol\":3816:3835  HeadToHeadGame game */\n      dup1\n        /* \"Test.sol\":3870:3879  tokenAddr */\n      dup4\n        /* \"Test.sol\":3893:3901  stakeAmt */\n      dup4\n        /* \"Test.sol\":3915:3929  vrfCoordinator */\n      0x01\n      0x00\n      swap1\n      sload\n      swap1\n      0x0100\n      exp\n      swap1\n      div\n      0xffffffffffffffffffffffffffffffffffffffff\n      and\n        /* \"Test.sol\":3943:3952  linkToken */\n      0x02\n      0x00\n      swap1\n      sload\n      swap1\n      0x0100\n      exp\n      swap1\n      div\n      0xffffffffffffffffffffffffffffffffffffffff\n      and\n        /* \"Test.sol\":3966:3976  vrfKeyHash */\n      sload(0x03)\n        /* \"Test.sol\":3990:3996  vrfFee */\n      sload(0x04)\n        /* \"Test.sol\":3838:4006  new HeadToHeadGame(... */\n      mload(0x40)\n      tag_40\n      swap1\n      tag_41\n      jump\t// in\n    tag_40:\n      tag_42\n      swap7\n      swap6\n      swap5\n      swap4\n      swap3\n      swap2\n      swap1\n      tag_43\n      jump\t// in\n    tag_42:\n      mload(0x40)\n      dup1\n      swap2\n      sub\n      swap1\n      0x00\n      create\n      dup1\n      iszero\n      dup1\n      iszero\n      tag_44\n      jumpi\n      returndatasize\n      0x00\n      dup1\n      returndatacopy\n      revert(0x00, returndatasize)\n    tag_44:\n      pop\n        /* \"Test.sol\":3816:4006  HeadToHeadGame game = new HeadToHeadGame(... */\n      swap1\n      pop\n        /* \"Test.sol\":4016:4021  games */\n      0x00\n        /* \"Test.sol\":4035:4039  game */\n      dup2\n        /* \"Test.sol\":4016:4041  games.push(address(game)) */\n      swap1\n      dup1\n      0x01\n      dup2\n      sload\n      add\n      dup1\n      dup3\n      sstore\n      dup1\n      swap2\n      pop\n      pop\n      0x01\n      swap1\n      sub\n      swap1\n      0x00\n      mstore\n      keccak256(0x00, 0x20)\n      add\n      0x00\n      swap1\n      swap2\n      swap1\n      swap2\n      swap1\n      swap2\n      0x0100\n      exp\n      dup2\n      sload\n      dup2\n      0xffffffffffffffffffffffffffffffffffffffff\n      mul\n      not\n      and\n      swap1\n      dup4\n      0xffffffffffffffffffffffffffffffffffffffff\n      and\n      mul\n      or\n      swap1\n      sstore\n      pop\n        /* \"Test.sol\":4056:4094  GameCreated(address(game), msg.sender) */\n      0xb60d84e37a6658effce28870b1d123cb86f86409df5888679310c0f276e1f5d2\n        /* \"Test.sol\":4076:4080  game */\n      dup2\n        /* \"Test.sol\":4083:4093  msg.sender */\n      caller\n        /* \"Test.sol\":4056:4094  GameCreated(address(game), msg.sender) */\n      mload(0x40)\n      tag_46\n      swap3\n      swap2\n      swap1\n      tag_47\n      jump\t// in\n    tag_46:\n      mload(0x40)\n      dup1\n      swap2\n      sub\n      swap1\n      log1\n        /* \"Test.sol\":4119:4123  game */\n      dup1\n        /* \"Test.sol\":4104:4124  return address(game) */\n      swap2\n      pop\n      pop\n        /* \"Test.sol\":3712:4131  function createHeadToHeadGame(address tokenAddr, uint256 stakeAmt) external returns (address) {... */\n      swap3\n      swap2\n      pop\n      pop\n      jump\t// out\n        /* \"Test.sol\":3180:3201  uint256 public vrfFee */\n    tag_22:\n      sload(0x04)\n      dup2\n      jump\t// out\n        /* \"Test.sol\":3055:3077  address[] public games */\n    tag_28:\n      0x00\n      dup2\n      dup2\n      sload\n      dup2\n      lt\n      tag_48\n      jumpi\n      0x00\n      dup1\n      revert\n    tag_48:\n      swap1\n      0x00\n      mstore\n      keccak256(0x00, 0x20)\n      add\n      0x00\n      swap2\n      pop\n      sload\n      swap1\n      0x0100\n      exp\n      swap1\n      div\n      0xffffffffffffffffffffffffffffffffffffffff\n      and\n      dup2\n      jump\t// out\n        /* \"Test.sol\":4185:4274  function gameCount() external view returns (uint256) {... */\n    tag_31:\n        /* \"Test.sol\":4229:4236  uint256 */\n      0x00\n        /* \"Test.sol\":4255:4260  games */\n      dup1\n        /* \"Test.sol\":4255:4267  games.length */\n      dup1\n      sload\n      swap1\n      pop\n        /* \"Test.sol\":4248:4267  return games.length */\n      swap1\n      pop\n        /* \"Test.sol\":4185:4274  function gameCount() external view returns (uint256) {... */\n      swap1\n      jump\t// out\n        /* \"Test.sol\":3119:3143  address public linkToken */\n    tag_34:\n      0x02\n      0x00\n      swap1\n      sload\n      swap1\n      0x0100\n      exp\n      swap1\n      div\n      0xffffffffffffffffffffffffffffffffffffffff\n      and\n      dup2\n      jump\t// out\n        /* \"Test.sol\":3084:3113  address public vrfCoordinator */\n    tag_37:\n      0x01\n      0x00\n      swap1\n      sload\n      swap1\n      0x0100\n      exp\n      swap1\n      div\n      0xffffffffffffffffffffffffffffffffffffffff\n      and\n      dup2\n      jump\t// out\n    tag_41:\n      dataSize(sub_0)\n      dup1\n      dataOffset(sub_0)\n      dup4\n      codecopy\n      add\n      swap1\n      jump\t// out\n        /* \"#utility.yul\":7:84   */\n    tag_51:\n        /* \"#utility.yul\":44:51   */\n      0x00\n        /* \"#utility.yul\":73:78   */\n      dup2\n        /* \"#utility.yul\":62:78   */\n      swap1\n      pop\n        /* \"#utility.yul\":7:84   */\n      swap2\n      swap1\n      pop\n      jump\t// out\n        /* \"#utility.yul\":90:208   */\n    tag_52:\n        /* \"#utility.yul\":177:201   */\n      tag_68\n        /* \"#utility.yul\":195:200   */\n      dup2\n        /* \"#utility.yul\":177:201   */\n      tag_51\n      jump\t// in\n    tag_68:\n        /* \"#utility.yul\":172:175   */\n      dup3\n        /* \"#utility.yul\":165:202   */\n      mstore\n        /* \"#utility.yul\":90:208   */\n      pop\n      pop\n      jump\t// out\n        /* \"#utility.yul\":214:436   */\n    tag_14:\n        /* \"#utility.yul\":307:311   */\n      0x00\n        /* \"#utility.yul\":345:347   */\n      0x20\n        /* \"#utility.yul\":334:343   */\n      dup3\n        /* \"#utility.yul\":330:348   */\n      add\n        /* \"#utility.yul\":322:348   */\n      swap1\n      pop\n        /* \"#utility.yul\":358:429   */\n      tag_70\n        /* \"#utility.yul\":426:427   */\n      0x00\n        /* \"#utility.yul\":415:424   */\n      dup4\n        /* \"#utility.yul\":411:428   */\n      add\n        /* \"#utility.yul\":402:408   */\n      dup5\n        /* \"#utility.yul\":358:429   */\n      tag_52\n      jump\t// in\n    tag_70:\n        /* \"#utility.yul\":214:436   */\n      swap3\n      swap2\n      pop\n      pop\n      jump\t// out\n        /* \"#utility.yul\":523:640   */\n    tag_54:\n        /* \"#utility.yul\":632:633   */\n      0x00\n        /* \"#utility.yul\":629:630   */\n      dup1\n        /* \"#utility.yul\":622:634   */\n      revert\n        /* \"#utility.yul\":769:895   */\n    tag_56:\n        /* \"#utility.yul\":806:813   */\n      0x00\n        /* \"#utility.yul\":846:888   */\n      0xffffffffffffffffffffffffffffffffffffffff\n        /* \"#utility.yul\":839:844   */\n      dup3\n        /* \"#utility.yul\":835:889   */\n      and\n        /* \"#utility.yul\":824:889   */\n      swap1\n      pop\n        /* \"#utility.yul\":769:895   */\n      swap2\n      swap1\n      pop\n      jump\t// out\n        /* \"#utility.yul\":901:997   */\n    tag_57:\n        /* \"#utility.yul\":938:945   */\n      0x00\n        /* \"#utility.yul\":967:991   */\n      tag_76\n        /* \"#utility.yul\":985:990   */\n      dup3\n        /* \"#utility.yul\":967:991   */\n      tag_56\n      jump\t// in\n    tag_76:\n        /* \"#utility.yul\":956:991   */\n      swap1\n      pop\n        /* \"#utility.yul\":901:997   */\n      swap2\n      swap1\n      pop\n      jump\t// out\n        /* \"#utility.yul\":1003:1125   */\n    tag_58:\n        /* \"#utility.yul\":1076:1100   */\n      tag_78\n        /* \"#utility.yul\":1094:1099   */\n      dup2\n        /* \"#utility.yul\":1076:1100   */\n      tag_57\n      jump\t// in\n    tag_78:\n        /* \"#utility.yul\":1069:1074   */\n      dup2\n        /* \"#utility.yul\":1066:1101   */\n      eq\n        /* \"#utility.yul\":1056:1119   */\n      tag_79\n      jumpi\n        /* \"#utility.yul\":1115:1116   */\n      0x00\n        /* \"#utility.yul\":1112:1113   */\n      dup1\n        /* \"#utility.yul\":1105:1117   */\n      revert\n        /* \"#utility.yul\":1056:1119   */\n    tag_79:\n        /* \"#utility.yul\":1003:1125   */\n      pop\n      jump\t// out\n        /* \"#utility.yul\":1131:1270   */\n    tag_59:\n        /* \"#utility.yul\":1177:1182   */\n      0x00\n        /* \"#utility.yul\":1215:1221   */\n      dup2\n        /* \"#utility.yul\":1202:1222   */\n      calldataload\n        /* \"#utility.yul\":1193:1222   */\n      swap1\n      pop\n        /* \"#utility.yul\":1231:1264   */\n      tag_81\n        /* \"#utility.yul\":1258:1263   */\n      dup2\n        /* \"#utility.yul\":1231:1264   */\n      tag_58\n      jump\t// in\n    tag_81:\n        /* \"#utility.yul\":1131:1270   */\n      swap3\n      swap2\n      pop\n      pop\n      jump\t// out\n        /* \"#utility.yul\":1276:1353   */\n    tag_60:\n        /* \"#utility.yul\":1313:1320   */\n      0x00\n        /* \"#utility.yul\":1342:1347   */\n      dup2\n        /* \"#utility.yul\":1331:1347   */\n      swap1\n      pop\n        /* \"#utility.yul\":1276:1353   */\n      swap2\n      swap1\n      pop\n      jump\t// out\n        /* \"#utility.yul\":1359:1481   */\n    tag_61:\n        /* \"#utility.yul\":1432:1456   */\n      tag_84\n        /* \"#utility.yul\":1450:1455   */\n      dup2\n        /* \"#utility.yul\":1432:1456   */\n      tag_60\n      jump\t// in\n    tag_84:\n        /* \"#utility.yul\":1425:1430   */\n      dup2\n        /* \"#utility.yul\":1422:1457   */\n      eq\n        /* \"#utility.yul\":1412:1475   */\n      tag_85\n      jumpi\n        /* \"#utility.yul\":1471:1472   */\n      0x00\n        /* \"#utility.yul\":1468:1469   */\n      dup1\n        /* \"#utility.yul\":1461:1473   */\n      revert\n        /* \"#utility.yul\":1412:1475   */\n    tag_85:\n        /* \"#utility.yul\":1359:1481   */\n      pop\n      jump\t// out\n        /* \"#utility.yul\":1487:1626   */\n    tag_62:\n        /* \"#utility.yul\":1533:1538   */\n      0x00\n        /* \"#utility.yul\":1571:1577   */\n      dup2\n        /* \"#utility.yul\":1558:1578   */\n      calldataload\n        /* \"#utility.yul\":1549:1578   */\n      swap1\n      pop\n        /* \"#utility.yul\":1587:1620   */\n      tag_87\n        /* \"#utility.yul\":1614:1619   */\n      dup2\n        /* \"#utility.yul\":1587:1620   */\n      tag_61\n      jump\t// in\n    tag_87:\n        /* \"#utility.yul\":1487:1626   */\n      swap3\n      swap2\n      pop\n      pop\n      jump\t// out\n        /* \"#utility.yul\":1632:2106   */\n    tag_17:\n        /* \"#utility.yul\":1700:1706   */\n      0x00\n        /* \"#utility.yul\":1708:1714   */\n      dup1\n        /* \"#utility.yul\":1757:1759   */\n      0x40\n        /* \"#utility.yul\":1745:1754   */\n      dup4\n        /* \"#utility.yul\":1736:1743   */\n      dup6\n        /* \"#utility.yul\":1732:1755   */\n      sub\n        /* \"#utility.yul\":1728:1760   */\n      slt\n        /* \"#utility.yul\":1725:1844   */\n      iszero\n      tag_89\n      jumpi\n        /* \"#utility.yul\":1763:1842   */\n      tag_90\n      tag_54\n      jump\t// in\n    tag_90:\n        /* \"#utility.yul\":1725:1844   */\n    tag_89:\n        /* \"#utility.yul\":1883:1884   */\n      0x00\n        /* \"#utility.yul\":1908:1961   */\n      tag_91\n        /* \"#utility.yul\":1953:1960   */\n      dup6\n        /* \"#utility.yul\":1944:1950   */\n      dup3\n        /* \"#utility.yul\":1933:1942   */\n      dup7\n        /* \"#utility.yul\":1929:1951   */\n      add\n        /* \"#utility.yul\":1908:1961   */\n      tag_59\n      jump\t// in\n    tag_91:\n        /* \"#utility.yul\":1898:1961   */\n      swap3\n      pop\n        /* \"#utility.yul\":1854:1971   */\n      pop\n        /* \"#utility.yul\":2010:2012   */\n      0x20\n        /* \"#utility.yul\":2036:2089   */\n      tag_92\n        /* \"#utility.yul\":2081:2088   */\n      dup6\n        /* \"#utility.yul\":2072:2078   */\n      dup3\n        /* \"#utility.yul\":2061:2070   */\n      dup7\n        /* \"#utility.yul\":2057:2079   */\n      add\n        /* \"#utility.yul\":2036:2089   */\n      tag_62\n      jump\t// in\n    tag_92:\n        /* \"#utility.yul\":2026:2089   */\n      swap2\n      pop\n        /* \"#utility.yul\":1981:2099   */\n      pop\n        /* \"#utility.yul\":1632:2106   */\n      swap3\n      pop\n      swap3\n      swap1\n      pop\n      jump\t// out\n        /* \"#utility.yul\":2112:2230   */\n    tag_63:\n        /* \"#utility.yul\":2199:2223   */\n      tag_94\n        /* \"#utility.yul\":2217:2222   */\n      dup2\n        /* \"#utility.yul\":2199:2223   */\n      tag_57\n      jump\t// in\n    tag_94:\n        /* \"#utility.yul\":2194:2197   */\n      dup3\n        /* \"#utility.yul\":2187:2224   */\n      mstore\n        /* \"#utility.yul\":2112:2230   */\n      pop\n      pop\n      jump\t// out\n        /* \"#utility.yul\":2236:2458   */\n    tag_20:\n        /* \"#utility.yul\":2329:2333   */\n      0x00\n        /* \"#utility.yul\":2367:2369   */\n      0x20\n        /* \"#utility.yul\":2356:2365   */\n      dup3\n        /* \"#utility.yul\":2352:2370   */\n      add\n        /* \"#utility.yul\":2344:2370   */\n      swap1\n      pop\n        /* \"#utility.yul\":2380:2451   */\n      tag_96\n        /* \"#utility.yul\":2448:2449   */\n      0x00\n        /* \"#utility.yul\":2437:2446   */\n      dup4\n        /* \"#utility.yul\":2433:2450   */\n      add\n        /* \"#utility.yul\":2424:2430   */\n      dup5\n        /* \"#utility.yul\":2380:2451   */\n      tag_63\n      jump\t// in\n    tag_96:\n        /* \"#utility.yul\":2236:2458   */\n      swap3\n      swap2\n      pop\n      pop\n      jump\t// out\n        /* \"#utility.yul\":2464:2582   */\n    tag_64:\n        /* \"#utility.yul\":2551:2575   */\n      tag_98\n        /* \"#utility.yul\":2569:2574   */\n      dup2\n        /* \"#utility.yul\":2551:2575   */\n      tag_60\n      jump\t// in\n    tag_98:\n        /* \"#utility.yul\":2546:2549   */\n      dup3\n        /* \"#utility.yul\":2539:2576   */\n      mstore\n        /* \"#utility.yul\":2464:2582   */\n      pop\n      pop\n      jump\t// out\n        /* \"#utility.yul\":2588:2810   */\n    tag_24:\n        /* \"#utility.yul\":2681:2685   */\n      0x00\n        /* \"#utility.yul\":2719:2721   */\n      0x20\n        /* \"#utility.yul\":2708:2717   */\n      dup3\n        /* \"#utility.yul\":2704:2722   */\n      add\n        /* \"#utility.yul\":2696:2722   */\n      swap1\n      pop\n        /* \"#utility.yul\":2732:2803   */\n      tag_100\n        /* \"#utility.yul\":2800:2801   */\n      0x00\n        /* \"#utility.yul\":2789:2798   */\n      dup4\n        /* \"#utility.yul\":2785:2802   */\n      add\n        /* \"#utility.yul\":2776:2782   */\n      dup5\n        /* \"#utility.yul\":2732:2803   */\n      tag_64\n      jump\t// in\n    tag_100:\n        /* \"#utility.yul\":2588:2810   */\n      swap3\n      swap2\n      pop\n      pop\n      jump\t// out\n        /* \"#utility.yul\":2816:3145   */\n    tag_27:\n        /* \"#utility.yul\":2875:2881   */\n      0x00\n        /* \"#utility.yul\":2924:2926   */\n      0x20\n        /* \"#utility.yul\":2912:2921   */\n      dup3\n        /* \"#utility.yul\":2903:2910   */\n      dup5\n        /* \"#utility.yul\":2899:2922   */\n      sub\n        /* \"#utility.yul\":2895:2927   */\n      slt\n        /* \"#utility.yul\":2892:3011   */\n      iszero\n      tag_102\n      jumpi\n        /* \"#utility.yul\":2930:3009   */\n      tag_103\n      tag_54\n      jump\t// in\n    tag_103:\n        /* \"#utility.yul\":2892:3011   */\n    tag_102:\n        /* \"#utility.yul\":3050:3051   */\n      0x00\n        /* \"#utility.yul\":3075:3128   */\n      tag_104\n        /* \"#utility.yul\":3120:3127   */\n      dup5\n        /* \"#utility.yul\":3111:3117   */\n      dup3\n        /* \"#utility.yul\":3100:3109   */\n      dup6\n        /* \"#utility.yul\":3096:3118   */\n      add\n        /* \"#utility.yul\":3075:3128   */\n      tag_62\n      jump\t// in\n    tag_104:\n        /* \"#utility.yul\":3065:3128   */\n      swap2\n      pop\n        /* \"#utility.yul\":3021:3138   */\n      pop\n        /* \"#utility.yul\":2816:3145   */\n      swap3\n      swap2\n      pop\n      pop\n      jump\t// out\n        /* \"#utility.yul\":3151:3926   */\n    tag_43:\n        /* \"#utility.yul\":3384:3388   */\n      0x00\n        /* \"#utility.yul\":3422:3425   */\n      0xc0\n        /* \"#utility.yul\":3411:3420   */\n      dup3\n        /* \"#utility.yul\":3407:3426   */\n      add\n        /* \"#utility.yul\":3399:3426   */\n      swap1\n      pop\n        /* \"#utility.yul\":3436:3507   */\n      tag_106\n        /* \"#utility.yul\":3504:3505   */\n      0x00\n        /* \"#utility.yul\":3493:3502   */\n      dup4\n        /* \"#utility.yul\":3489:3506   */\n      add\n        /* \"#utility.yul\":3480:3486   */\n      dup10\n        /* \"#utility.yul\":3436:3507   */\n      tag_63\n      jump\t// in\n    tag_106:\n        /* \"#utility.yul\":3517:3589   */\n      tag_107\n        /* \"#utility.yul\":3585:3587   */\n      0x20\n        /* \"#utility.yul\":3574:3583   */\n      dup4\n        /* \"#utility.yul\":3570:3588   */\n      add\n        /* \"#utility.yul\":3561:3567   */\n      dup9\n        /* \"#utility.yul\":3517:3589   */\n      tag_64\n      jump\t// in\n    tag_107:\n        /* \"#utility.yul\":3599:3671   */\n      tag_108\n        /* \"#utility.yul\":3667:3669   */\n      0x40\n        /* \"#utility.yul\":3656:3665   */\n      dup4\n        /* \"#utility.yul\":3652:3670   */\n      add\n        /* \"#utility.yul\":3643:3649   */\n      dup8\n        /* \"#utility.yul\":3599:3671   */\n      tag_63\n      jump\t// in\n    tag_108:\n        /* \"#utility.yul\":3681:3753   */\n      tag_109\n        /* \"#utility.yul\":3749:3751   */\n      0x60\n        /* \"#utility.yul\":3738:3747   */\n      dup4\n        /* \"#utility.yul\":3734:3752   */\n      add\n        /* \"#utility.yul\":3725:3731   */\n      dup7\n        /* \"#utility.yul\":3681:3753   */\n      tag_63\n      jump\t// in\n    tag_109:\n        /* \"#utility.yul\":3763:3836   */\n      tag_110\n        /* \"#utility.yul\":3831:3834   */\n      0x80\n        /* \"#utility.yul\":3820:3829   */\n      dup4\n        /* \"#utility.yul\":3816:3835   */\n      add\n        /* \"#utility.yul\":3807:3813   */\n      dup6\n        /* \"#utility.yul\":3763:3836   */\n      tag_52\n      jump\t// in\n    tag_110:\n        /* \"#utility.yul\":3846:3919   */\n      tag_111\n        /* \"#utility.yul\":3914:3917   */\n      0xa0\n        /* \"#utility.yul\":3903:3912   */\n      dup4\n        /* \"#utility.yul\":3899:3918   */\n      add\n        /* \"#utility.yul\":3890:3896   */\n      dup5\n        /* \"#utility.yul\":3846:3919   */\n      tag_64\n      jump\t// in\n    tag_111:\n        /* \"#utility.yul\":3151:3926   */\n      swap8\n      swap7\n      pop\n      pop\n      pop\n      pop\n      pop\n      pop\n      pop\n      jump\t// out\n        /* \"#utility.yul\":3932:4264   */\n    tag_47:\n        /* \"#utility.yul\":4053:4057   */\n      0x00\n        /* \"#utility.yul\":4091:4093   */\n      0x40\n        /* \"#utility.yul\":4080:4089   */\n      dup3\n        /* \"#utility.yul\":4076:4094   */\n      add\n        /* \"#utility.yul\":4068:4094   */\n      swap1\n      pop\n        /* \"#utility.yul\":4104:4175   */\n      tag_113\n        /* \"#utility.yul\":4172:4173   */\n      0x00\n        /* \"#utility.yul\":4161:4170   */\n      dup4\n        /* \"#utility.yul\":4157:4174   */\n      add\n        /* \"#utility.yul\":4148:4154   */\n      dup6\n        /* \"#utility.yul\":4104:4175   */\n      tag_63\n      jump\t// in\n    tag_113:\n        /* \"#utility.yul\":4185:4257   */\n      tag_114\n        /* \"#utility.yul\":4253:4255   */\n      0x20\n        /* \"#utility.yul\":4242:4251   */\n      dup4\n        /* \"#utility.yul\":4238:4256   */\n      add\n        /* \"#utility.yul\":4229:4235   */\n      dup5\n        /* \"#utility.yul\":4185:4257   */\n      tag_63\n      jump\t// in\n    tag_114:\n        /* \"#utility.yul\":3932:4264   */\n      swap4\n      swap3\n      pop\n      pop\n      pop\n      jump\t// out\n    stop\n\n    sub_0: assembly {\n            /* \"Test.sol\":359:2950  contract HeadToHeadGame is VRFConsumerBase, Ownable {... */\n          mstore(0x40, 0x0100)\n            /* \"Test.sol\":1264:1659  constructor(... */\n          callvalue\n          dup1\n          iszero\n          tag_1\n          jumpi\n          0x00\n          dup1\n          revert\n        tag_1:\n          pop\n          mload(0x40)\n          sub(codesize, bytecodeSize)\n          dup1\n          bytecodeSize\n          dup4\n          codecopy\n          dup2\n          dup2\n          add\n          0x40\n          mstore\n          dup2\n          add\n          swap1\n          tag_2\n          swap2\n          swap1\n          tag_3\n          jump\t// in\n        tag_2:\n            /* \"Test.sol\":1482:1492  msg.sender */\n          caller\n            /* \"Test.sol\":1450:1465  _vrfCoordinator */\n          dup5\n            /* \"Test.sol\":1467:1472  _link */\n          dup5\n            /* \"@chainlink/contracts/src/v0.8/VRFConsumerBase.sol\":9323:9338  _vrfCoordinator */\n          dup2\n            /* \"@chainlink/contracts/src/v0.8/VRFConsumerBase.sol\":9306:9338  vrfCoordinator = _vrfCoordinator */\n          0xffffffffffffffffffffffffffffffffffffffff\n          and\n          0xa0\n          dup2\n          0xffffffffffffffffffffffffffffffffffffffff\n          and\n          dup2\n          mstore\n          pop\n          pop\n            /* \"@chainlink/contracts/src/v0.8/VRFConsumerBase.sol\":9370:9375  _link */\n          dup1\n            /* \"@chainlink/contracts/src/v0.8/VRFConsumerBase.sol\":9344:9376  LINK = LinkTokenInterface(_link) */\n          0xffffffffffffffffffffffffffffffffffffffff\n          and\n          0x80\n          dup2\n          0xffffffffffffffffffffffffffffffffffffffff\n          and\n          dup2\n          mstore\n          pop\n          pop\n            /* \"@chainlink/contracts/src/v0.8/VRFConsumerBase.sol\":9248:9381  constructor(address _vrfCoordinator, address _link) {... */\n          pop\n          pop\n            /* \"@openzeppelin/contracts/access/Ownable.sol\":1297:1298  0 */\n          0x00\n            /* \"@openzeppelin/contracts/access/Ownable.sol\":1273:1299  initialOwner == address(0) */\n          0xffffffffffffffffffffffffffffffffffffffff\n          and\n            /* \"@openzeppelin/contracts/access/Ownable.sol\":1273:1285  initialOwner */\n          dup2\n            /* \"@openzeppelin/contracts/access/Ownable.sol\":1273:1299  initialOwner == address(0) */\n          0xffffffffffffffffffffffffffffffffffffffff\n          and\n          sub\n            /* \"@openzeppelin/contracts/access/Ownable.sol\":1269:1364  if (initialOwner == address(0)) {... */\n          tag_9\n          jumpi\n            /* \"@openzeppelin/contracts/access/Ownable.sol\":1350:1351  0 */\n          0x00\n            /* \"@openzeppelin/contracts/access/Ownable.sol\":1322:1353  OwnableInvalidOwner(address(0)) */\n          mload(0x40)\n          0x1e4fbdf700000000000000000000000000000000000000000000000000000000\n          dup2\n          mstore\n          0x04\n          add\n          tag_10\n          swap2\n          swap1\n          tag_11\n          jump\t// in\n        tag_10:\n          mload(0x40)\n          dup1\n          swap2\n          sub\n          swap1\n          revert\n            /* \"@openzeppelin/contracts/access/Ownable.sol\":1269:1364  if (initialOwner == address(0)) {... */\n        tag_9:\n            /* \"@openzeppelin/contracts/access/Ownable.sol\":1373:1405  _transferOwnership(initialOwner) */\n          tag_12\n            /* \"@openzeppelin/contracts/access/Ownable.sol\":1392:1404  initialOwner */\n          dup2\n            /* \"@openzeppelin/contracts/access/Ownable.sol\":1373:1391  _transferOwnership */\n          shl(0x20, tag_13)\n            /* \"@openzeppelin/contracts/access/Ownable.sol\":1373:1405  _transferOwnership(initialOwner) */\n          0x20\n          shr\n          jump\t// in\n        tag_12:\n            /* \"@openzeppelin/contracts/access/Ownable.sol\":1225:1412  constructor(address initialOwner) {... */\n          pop\n            /* \"Test.sol\":1519:1525  _token */\n          dup6\n            /* \"Test.sol\":1504:1526  token = IERC20(_token) */\n          0xffffffffffffffffffffffffffffffffffffffff\n          and\n          0xc0\n          dup2\n          0xffffffffffffffffffffffffffffffffffffffff\n          and\n          dup2\n          mstore\n          pop\n          pop\n            /* \"Test.sol\":1544:1550  _stake */\n          dup5\n            /* \"Test.sol\":1536:1550  stake = _stake */\n          0xe0\n          dup2\n          dup2\n          mstore\n          pop\n          pop\n            /* \"Test.sol\":1570:1578  _keyHash */\n          dup2\n            /* \"Test.sol\":1560:1567  keyHash */\n          0x05\n            /* \"Test.sol\":1560:1578  keyHash = _keyHash */\n          dup2\n          swap1\n          sstore\n          pop\n            /* \"Test.sol\":1594:1598  _fee */\n          dup1\n            /* \"Test.sol\":1588:1591  fee */\n          0x06\n            /* \"Test.sol\":1588:1598  fee = _fee */\n          dup2\n          swap1\n          sstore\n          pop\n            /* \"Test.sol\":1625:1635  msg.sender */\n          caller\n            /* \"Test.sol\":1613:1652  GameCreated(msg.sender, _token, _stake) */\n          0xffffffffffffffffffffffffffffffffffffffff\n          and\n          0xd152bf1ab39ec18e27d3dcb4f271007b0107191d3e8bed48c19ca8c9c1309e26\n            /* \"Test.sol\":1637:1643  _token */\n          dup8\n            /* \"Test.sol\":1645:1651  _stake */\n          dup8\n            /* \"Test.sol\":1613:1652  GameCreated(msg.sender, _token, _stake) */\n          mload(0x40)\n          tag_15\n          swap3\n          swap2\n          swap1\n          tag_16\n          jump\t// in\n        tag_15:\n          mload(0x40)\n          dup1\n          swap2\n          sub\n          swap1\n          log2\n            /* \"Test.sol\":1264:1659  constructor(... */\n          pop\n          pop\n          pop\n          pop\n          pop\n          pop\n            /* \"Test.sol\":359:2950  contract HeadToHeadGame is VRFConsumerBase, Ownable {... */\n          jump(tag_17)\n            /* \"@openzeppelin/contracts/access/Ownable.sol\":2912:3099  function _transferOwnership(address newOwner) internal virtual {... */\n        tag_13:\n            /* \"@openzeppelin/contracts/access/Ownable.sol\":2985:3001  address oldOwner */\n          0x00\n            /* \"@openzeppelin/contracts/access/Ownable.sol\":3004:3010  _owner */\n          0x01\n          0x00\n          swap1\n          sload\n          swap1\n          0x0100\n          exp\n          swap1\n          div\n          0xffffffffffffffffffffffffffffffffffffffff\n          and\n            /* \"@openzeppelin/contracts/access/Ownable.sol\":2985:3010  address oldOwner = _owner */\n          swap1\n          pop\n            /* \"@openzeppelin/contracts/access/Ownable.sol\":3029:3037  newOwner */\n          dup2\n            /* \"@openzeppelin/contracts/access/Ownable.sol\":3020:3026  _owner */\n          0x01\n          0x00\n            /* \"@openzeppelin/contracts/access/Ownable.sol\":3020:3037  _owner = newOwner */\n          0x0100\n          exp\n          dup2\n          sload\n          dup2\n          0xffffffffffffffffffffffffffffffffffffffff\n          mul\n          not\n          and\n          swap1\n          dup4\n          0xffffffffffffffffffffffffffffffffffffffff\n          and\n          mul\n          or\n          swap1\n          sstore\n          pop\n            /* \"@openzeppelin/contracts/access/Ownable.sol\":3083:3091  newOwner */\n          dup2\n            /* \"@openzeppelin/contracts/access/Ownable.sol\":3052:3092  OwnershipTransferred(oldOwner, newOwner) */\n          0xffffffffffffffffffffffffffffffffffffffff\n          and\n            /* \"@openzeppelin/contracts/access/Ownable.sol\":3073:3081  oldOwner */\n          dup2\n            /* \"@openzeppelin/contracts/access/Ownable.sol\":3052:3092  OwnershipTransferred(oldOwner, newOwner) */\n          0xffffffffffffffffffffffffffffffffffffffff\n          and\n          0x8be0079c531659141344cd1fd0a4f28419497f9722a3daafe3b4186f6b6457e0\n          mload(0x40)\n          mload(0x40)\n          dup1\n          swap2\n          sub\n          swap1\n          log3\n            /* \"@openzeppelin/contracts/access/Ownable.sol\":2975:3099  {... */\n          pop\n            /* \"@openzeppelin/contracts/access/Ownable.sol\":2912:3099  function _transferOwnership(address newOwner) internal virtual {... */\n          pop\n          jump\t// out\n            /* \"#utility.yul\":88:205   */\n        tag_20:\n            /* \"#utility.yul\":197:198   */\n          0x00\n            /* \"#utility.yul\":194:195   */\n          dup1\n            /* \"#utility.yul\":187:199   */\n          revert\n            /* \"#utility.yul\":334:460   */\n        tag_22:\n            /* \"#utility.yul\":371:378   */\n          0x00\n            /* \"#utility.yul\":411:453   */\n          0xffffffffffffffffffffffffffffffffffffffff\n            /* \"#utility.yul\":404:409   */\n          dup3\n            /* \"#utility.yul\":400:454   */\n          and\n            /* \"#utility.yul\":389:454   */\n          swap1\n          pop\n            /* \"#utility.yul\":334:460   */\n          swap2\n          swap1\n          pop\n          jump\t// out\n            /* \"#utility.yul\":466:562   */\n        tag_23:\n            /* \"#utility.yul\":503:510   */\n          0x00\n            /* \"#utility.yul\":532:556   */\n          tag_40\n            /* \"#utility.yul\":550:555   */\n          dup3\n            /* \"#utility.yul\":532:556   */\n          tag_22\n          jump\t// in\n        tag_40:\n            /* \"#utility.yul\":521:556   */\n          swap1\n          pop\n            /* \"#utility.yul\":466:562   */\n          swap2\n          swap1\n          pop\n          jump\t// out\n            /* \"#utility.yul\":568:690   */\n        tag_24:\n            /* \"#utility.yul\":641:665   */\n          tag_42\n            /* \"#utility.yul\":659:664   */\n          dup2\n            /* \"#utility.yul\":641:665   */\n          tag_23\n          jump\t// in\n        tag_42:\n            /* \"#utility.yul\":634:639   */\n          dup2\n            /* \"#utility.yul\":631:666   */\n          eq\n            /* \"#utility.yul\":621:684   */\n          tag_43\n          jumpi\n            /* \"#utility.yul\":680:681   */\n          0x00\n            /* \"#utility.yul\":677:678   */\n          dup1\n            /* \"#utility.yul\":670:682   */\n          revert\n            /* \"#utility.yul\":621:684   */\n        tag_43:\n            /* \"#utility.yul\":568:690   */\n          pop\n          jump\t// out\n            /* \"#utility.yul\":696:839   */\n        tag_25:\n            /* \"#utility.yul\":753:758   */\n          0x00\n            /* \"#utility.yul\":784:790   */\n          dup2\n            /* \"#utility.yul\":778:791   */\n          mload\n            /* \"#utility.yul\":769:791   */\n          swap1\n          pop\n            /* \"#utility.yul\":800:833   */\n          tag_45\n            /* \"#utility.yul\":827:832   */\n          dup2\n            /* \"#utility.yul\":800:833   */\n          tag_24\n          jump\t// in\n        tag_45:\n            /* \"#utility.yul\":696:839   */\n          swap3\n          swap2\n          pop\n          pop\n          jump\t// out\n            /* \"#utility.yul\":845:922   */\n        tag_26:\n            /* \"#utility.yul\":882:889   */\n          0x00\n            /* \"#utility.yul\":911:916   */\n          dup2\n            /* \"#utility.yul\":900:916   */\n          swap1\n          pop\n            /* \"#utility.yul\":845:922   */\n          swap2\n          swap1\n          pop\n          jump\t// out\n            /* \"#utility.yul\":928:1050   */\n        tag_27:\n            /* \"#utility.yul\":1001:1025   */\n          tag_48\n            /* \"#utility.yul\":1019:1024   */\n          dup2\n            /* \"#utility.yul\":1001:1025   */\n          tag_26\n          jump\t// in\n        tag_48:\n            /* \"#utility.yul\":994:999   */\n          dup2\n            /* \"#utility.yul\":991:1026   */\n          eq\n            /* \"#utility.yul\":981:1044   */\n          tag_49\n          jumpi\n            /* \"#utility.yul\":1040:1041   */\n          0x00\n            /* \"#utility.yul\":1037:1038   */\n          dup1\n            /* \"#utility.yul\":1030:1042   */\n          revert\n            /* \"#utility.yul\":981:1044   */\n        tag_49:\n            /* \"#utility.yul\":928:1050   */\n          pop\n          jump\t// out\n            /* \"#utility.yul\":1056:1199   */\n        tag_28:\n            /* \"#utility.yul\":1113:1118   */\n          0x00\n            /* \"#utility.yul\":1144:1150   */\n          dup2\n            /* \"#utility.yul\":1138:1151   */\n          mload\n            /* \"#utility.yul\":1129:1151   */\n          swap1\n          pop\n            /* \"#utility.yul\":1160:1193   */\n          tag_51\n            /* \"#utility.yul\":1187:1192   */\n          dup2\n            /* \"#utility.yul\":1160:1193   */\n          tag_27\n          jump\t// in\n        tag_51:\n            /* \"#utility.yul\":1056:1199   */\n          swap3\n          swap2\n          pop\n          pop\n          jump\t// out\n            /* \"#utility.yul\":1205:1282   */\n        tag_29:\n            /* \"#utility.yul\":1242:1249   */\n          0x00\n            /* \"#utility.yul\":1271:1276   */\n          dup2\n            /* \"#utility.yul\":1260:1276   */\n          swap1\n          pop\n            /* \"#utility.yul\":1205:1282   */\n          swap2\n          swap1\n          pop\n          jump\t// out\n            /* \"#utility.yul\":1288:1410   */\n        tag_30:\n            /* \"#utility.yul\":1361:1385   */\n          tag_54\n            /* \"#utility.yul\":1379:1384   */\n          dup2\n            /* \"#utility.yul\":1361:1385   */\n          tag_29\n          jump\t// in\n        tag_54:\n            /* \"#utility.yul\":1354:1359   */\n          dup2\n            /* \"#utility.yul\":1351:1386   */\n          eq\n            /* \"#utility.yul\":1341:1404   */\n          tag_55\n          jumpi\n            /* \"#utility.yul\":1400:1401   */\n          0x00\n            /* \"#utility.yul\":1397:1398   */\n          dup1\n            /* \"#utility.yul\":1390:1402   */\n          revert\n            /* \"#utility.yul\":1341:1404   */\n        tag_55:\n            /* \"#utility.yul\":1288:1410   */\n          pop\n          jump\t// out\n            /* \"#utility.yul\":1416:1559   */\n        tag_31:\n            /* \"#utility.yul\":1473:1478   */\n          0x00\n            /* \"#utility.yul\":1504:1510   */\n          dup2\n            /* \"#utility.yul\":1498:1511   */\n          mload\n            /* \"#utility.yul\":1489:1511   */\n          swap1\n          pop\n            /* \"#utility.yul\":1520:1553   */\n          tag_57\n            /* \"#utility.yul\":1547:1552   */\n          dup2\n            /* \"#utility.yul\":1520:1553   */\n          tag_30\n          jump\t// in\n        tag_57:\n            /* \"#utility.yul\":1416:1559   */\n          swap3\n          swap2\n          pop\n          pop\n          jump\t// out\n            /* \"#utility.yul\":1565:2699   */\n        tag_3:\n            /* \"#utility.yul\":1680:1686   */\n          0x00\n            /* \"#utility.yul\":1688:1694   */\n          dup1\n            /* \"#utility.yul\":1696:1702   */\n          0x00\n            /* \"#utility.yul\":1704:1710   */\n          dup1\n            /* \"#utility.yul\":1712:1718   */\n          0x00\n            /* \"#utility.yul\":1720:1726   */\n          dup1\n            /* \"#utility.yul\":1769:1772   */\n          0xc0\n            /* \"#utility.yul\":1757:1766   */\n          dup8\n            /* \"#utility.yul\":1748:1755   */\n          dup10\n            /* \"#utility.yul\":1744:1767   */\n          sub\n            /* \"#utility.yul\":1740:1773   */\n          slt\n            /* \"#utility.yul\":1737:1857   */\n          iszero\n          tag_59\n          jumpi\n            /* \"#utility.yul\":1776:1855   */\n          tag_60\n          tag_20\n          jump\t// in\n        tag_60:\n            /* \"#utility.yul\":1737:1857   */\n        tag_59:\n            /* \"#utility.yul\":1896:1897   */\n          0x00\n            /* \"#utility.yul\":1921:1985   */\n          tag_61\n            /* \"#utility.yul\":1977:1984   */\n          dup10\n            /* \"#utility.yul\":1968:1974   */\n          dup3\n            /* \"#utility.yul\":1957:1966   */\n          dup11\n            /* \"#utility.yul\":1953:1975   */\n          add\n            /* \"#utility.yul\":1921:1985   */\n          tag_25\n          jump\t// in\n        tag_61:\n            /* \"#utility.yul\":1911:1985   */\n          swap7\n          pop\n            /* \"#utility.yul\":1867:1995   */\n          pop\n            /* \"#utility.yul\":2034:2036   */\n          0x20\n            /* \"#utility.yul\":2060:2124   */\n          tag_62\n            /* \"#utility.yul\":2116:2123   */\n          dup10\n            /* \"#utility.yul\":2107:2113   */\n          dup3\n            /* \"#utility.yul\":2096:2105   */\n          dup11\n            /* \"#utility.yul\":2092:2114   */\n          add\n            /* \"#utility.yul\":2060:2124   */\n          tag_28\n          jump\t// in\n        tag_62:\n            /* \"#utility.yul\":2050:2124   */\n          swap6\n          pop\n            /* \"#utility.yul\":2005:2134   */\n          pop\n            /* \"#utility.yul\":2173:2175   */\n          0x40\n            /* \"#utility.yul\":2199:2263   */\n          tag_63\n            /* \"#utility.yul\":2255:2262   */\n          dup10\n            /* \"#utility.yul\":2246:2252   */\n          dup3\n            /* \"#utility.yul\":2235:2244   */\n          dup11\n            /* \"#utility.yul\":2231:2253   */\n          add\n            /* \"#utility.yul\":2199:2263   */\n          tag_25\n          jump\t// in\n        tag_63:\n            /* \"#utility.yul\":2189:2263   */\n          swap5\n          pop\n            /* \"#utility.yul\":2144:2273   */\n          pop\n            /* \"#utility.yul\":2312:2314   */\n          0x60\n            /* \"#utility.yul\":2338:2402   */\n          tag_64\n            /* \"#utility.yul\":2394:2401   */\n          dup10\n            /* \"#utility.yul\":2385:2391   */\n          dup3\n            /* \"#utility.yul\":2374:2383   */\n          dup11\n            /* \"#utility.yul\":2370:2392   */\n          add\n            /* \"#utility.yul\":2338:2402   */\n          tag_25\n          jump\t// in\n        tag_64:\n            /* \"#utility.yul\":2328:2402   */\n          swap4\n          pop\n            /* \"#utility.yul\":2283:2412   */\n          pop\n            /* \"#utility.yul\":2451:2454   */\n          0x80\n            /* \"#utility.yul\":2478:2542   */\n          tag_65\n            /* \"#utility.yul\":2534:2541   */\n          dup10\n            /* \"#utility.yul\":2525:2531   */\n          dup3\n            /* \"#utility.yul\":2514:2523   */\n          dup11\n            /* \"#utility.yul\":2510:2532   */\n          add\n            /* \"#utility.yul\":2478:2542   */\n          tag_31\n          jump\t// in\n        tag_65:\n            /* \"#utility.yul\":2468:2542   */\n          swap3\n          pop\n            /* \"#utility.yul\":2422:2552   */\n          pop\n            /* \"#utility.yul\":2591:2594   */\n          0xa0\n            /* \"#utility.yul\":2618:2682   */\n          tag_66\n            /* \"#utility.yul\":2674:2681   */\n          dup10\n            /* \"#utility.yul\":2665:2671   */\n          dup3\n            /* \"#utility.yul\":2654:2663   */\n          dup11\n            /* \"#utility.yul\":2650:2672   */\n          add\n            /* \"#utility.yul\":2618:2682   */\n          tag_28\n          jump\t// in\n        tag_66:\n            /* \"#utility.yul\":2608:2682   */\n          swap2\n          pop\n            /* \"#utility.yul\":2562:2692   */\n          pop\n            /* \"#utility.yul\":1565:2699   */\n          swap3\n          swap6\n          pop\n          swap3\n          swap6\n          pop\n          swap3\n          swap6\n          jump\t// out\n            /* \"#utility.yul\":2705:2823   */\n        tag_32:\n            /* \"#utility.yul\":2792:2816   */\n          tag_68\n            /* \"#utility.yul\":2810:2815   */\n          dup2\n            /* \"#utility.yul\":2792:2816   */\n          tag_23\n          jump\t// in\n        tag_68:\n            /* \"#utility.yul\":2787:2790   */\n          dup3\n            /* \"#utility.yul\":2780:2817   */\n          mstore\n            /* \"#utility.yul\":2705:2823   */\n          pop\n          pop\n          jump\t// out\n            /* \"#utility.yul\":2829:3051   */\n        tag_11:\n            /* \"#utility.yul\":2922:2926   */\n          0x00\n            /* \"#utility.yul\":2960:2962   */\n          0x20\n            /* \"#utility.yul\":2949:2958   */\n          dup3\n            /* \"#utility.yul\":2945:2963   */\n          add\n            /* \"#utility.yul\":2937:2963   */\n          swap1\n          pop\n            /* \"#utility.yul\":2973:3044   */\n          tag_70\n            /* \"#utility.yul\":3041:3042   */\n          0x00\n            /* \"#utility.yul\":3030:3039   */\n          dup4\n            /* \"#utility.yul\":3026:3043   */\n          add\n            /* \"#utility.yul\":3017:3023   */\n          dup5\n            /* \"#utility.yul\":2973:3044   */\n          tag_32\n          jump\t// in\n        tag_70:\n            /* \"#utility.yul\":2829:3051   */\n          swap3\n          swap2\n          pop\n          pop\n          jump\t// out\n            /* \"#utility.yul\":3057:3175   */\n        tag_33:\n            /* \"#utility.yul\":3144:3168   */\n          tag_72\n            /* \"#utility.yul\":3162:3167   */\n          dup2\n            /* \"#utility.yul\":3144:3168   */\n          tag_26\n          jump\t// in\n        tag_72:\n            /* \"#utility.yul\":3139:3142   */\n          dup3\n            /* \"#utility.yul\":3132:3169   */\n          mstore\n            /* \"#utility.yul\":3057:3175   */\n          pop\n          pop\n          jump\t// out\n            /* \"#utility.yul\":3181:3513   */\n        tag_16:\n            /* \"#utility.yul\":3302:3306   */\n          0x00\n            /* \"#utility.yul\":3340:3342   */\n          0x40\n            /* \"#utility.yul\":3329:3338   */\n          dup3\n            /* \"#utility.yul\":3325:3343   */\n          add\n            /* \"#utility.yul\":3317:3343   */\n          swap1\n          pop\n            /* \"#utility.yul\":3353:3424   */\n          tag_74\n            /* \"#utility.yul\":3421:3422   */\n          0x00\n            /* \"#utility.yul\":3410:3419   */\n          dup4\n            /* \"#utility.yul\":3406:3423   */\n          add\n            /* \"#utility.yul\":3397:3403   */\n          dup6\n            /* \"#utility.yul\":3353:3424   */\n          tag_32\n          jump\t// in\n        tag_74:\n            /* \"#utility.yul\":3434:3506   */\n          tag_75\n            /* \"#utility.yul\":3502:3504   */\n          0x20\n            /* \"#utility.yul\":3491:3500   */\n          dup4\n            /* \"#utility.yul\":3487:3505   */\n          add\n            /* \"#utility.yul\":3478:3484   */\n          dup5\n            /* \"#utility.yul\":3434:3506   */\n          tag_33\n          jump\t// in\n        tag_75:\n            /* \"#utility.yul\":3181:3513   */\n          swap4\n          swap3\n          pop\n          pop\n          pop\n          jump\t// out\n            /* \"Test.sol\":359:2950  contract HeadToHeadGame is VRFConsumerBase, Ownable {... */\n        tag_17:\n          mload(0x80)\n          mload(0xa0)\n          mload(0xc0)\n          mload(0xe0)\n          codecopy(0x00, dataOffset(sub_0), dataSize(sub_0))\n          0x00\n          assignImmutable(\"0x0f1bcf290b66a2cfed5f23463bc63e98c2b29d8093b3c4b39be593d60dfd3630\")\n          0x00\n          assignImmutable(\"0x937a83b1fb35606d63f1d9b9e924837433ad32450590eb1d8129d7cf4887e815\")\n          0x00\n          assignImmutable(\"0x6dbb33232cde86c8a04f90a8bed9fc1c5ef520188a14538d96eb100d69bc2a94\")\n          0x00\n          assignImmutable(\"0xb2219b801710730437d0358146c829b62297a059eceaa0b40b27aea2daecf595\")\n          return(0x00, dataSize(sub_0))\n        stop\n\n        sub_0: assembly {\n                /* \"Test.sol\":359:2950  contract HeadToHeadGame is VRFConsumerBase, Ownable {... */\n              mstore(0x40, 0x80)\n              callvalue\n              dup1\n              iszero\n              tag_1\n              jumpi\n              0x00\n              dup1\n              revert\n            tag_1:\n              pop\n              jumpi(tag_2, lt(calldatasize, 0x04))\n              shr(0xe0, calldataload(0x00))\n              dup1\n              0xcf8515f4\n              gt\n              tag_15\n              jumpi\n              dup1\n              0xcf8515f4\n              eq\n              tag_9\n              jumpi\n              dup1\n              0xd4f77b1c\n              eq\n              tag_10\n              jumpi\n              dup1\n              0xdfbf53ae\n              eq\n              tag_11\n              jumpi\n              dup1\n              0xf2fde38b\n              eq\n              tag_12\n              jumpi\n              dup1\n              0xf71d96cb\n              eq\n              tag_13\n              jumpi\n              dup1\n              0xfc0c546a\n              eq\n              tag_14\n              jumpi\n              jump(tag_2)\n            tag_15:\n              dup1\n              0x3a4b66f1\n              eq\n              tag_3\n              jumpi\n              dup1\n              0x3f6fa655\n              eq\n              tag_4\n              jumpi\n              dup1\n              0x42619f66\n              eq\n              tag_5\n              jumpi\n              dup1\n              0x715018a6\n              eq\n              tag_6\n              jumpi\n              dup1\n              0x8da5cb5b\n              eq\n              tag_7\n              jumpi\n              dup1\n              0x94985ddd\n              eq\n              tag_8\n              jumpi\n            tag_2:\n              0x00\n              dup1\n              revert\n                /* \"Test.sol\":452:482  uint256 public immutable stake */\n            tag_3:\n              tag_16\n              tag_17\n              jump\t// in\n            tag_16:\n              mload(0x40)\n              tag_18\n              swap2\n              swap1\n              tag_19\n              jump\t// in\n            tag_18:\n              mload(0x40)\n              dup1\n              swap2\n              sub\n              swap1\n              return\n                /* \"Test.sol\":641:661  bool public resolved */\n            tag_4:\n              tag_20\n              tag_21\n              jump\t// in\n            tag_20:\n              mload(0x40)\n              tag_22\n              swap2\n              swap1\n              tag_23\n              jump\t// in\n            tag_22:\n              mload(0x40)\n              dup1\n              swap2\n              sub\n              swap1\n              return\n                /* \"Test.sol\":607:634  uint256 public randomResult */\n            tag_5:\n              tag_24\n              tag_25\n              jump\t// in\n            tag_24:\n              mload(0x40)\n              tag_26\n              swap2\n              swap1\n              tag_19\n              jump\t// in\n            tag_26:\n              mload(0x40)\n              dup1\n              swap2\n              sub\n              swap1\n              return\n                /* \"@openzeppelin/contracts/access/Ownable.sol\":2293:2394  function renounceOwnership() public virtual onlyOwner {... */\n            tag_6:\n              tag_27\n              tag_28\n              jump\t// in\n            tag_27:\n              stop\n                /* \"@openzeppelin/contracts/access/Ownable.sol\":1638:1723  function owner() public view virtual returns (address) {... */\n            tag_7:\n              tag_29\n              tag_30\n              jump\t// in\n            tag_29:\n              mload(0x40)\n              tag_31\n              swap2\n              swap1\n              tag_32\n              jump\t// in\n            tag_31:\n              mload(0x40)\n              dup1\n              swap2\n              sub\n              swap1\n              return\n                /* \"@chainlink/contracts/src/v0.8/VRFConsumerBase.sol\":9576:9783  function rawFulfillRandomness(bytes32 requestId, uint256 randomness) external {... */\n            tag_8:\n              tag_33\n              0x04\n              dup1\n              calldatasize\n              sub\n              dup2\n              add\n              swap1\n              tag_34\n              swap2\n              swap1\n              tag_35\n              jump\t// in\n            tag_34:\n              tag_36\n              jump\t// in\n            tag_33:\n              stop\n                /* \"Test.sol\":520:544  uint8 public joinedCount */\n            tag_9:\n              tag_37\n              tag_38\n              jump\t// in\n            tag_37:\n              mload(0x40)\n              tag_39\n              swap2\n              swap1\n              tag_40\n              jump\t// in\n            tag_39:\n              mload(0x40)\n              dup1\n              swap2\n              sub\n              swap1\n              return\n                /* \"Test.sol\":1758:2120  function joinGame() external {... */\n            tag_10:\n              tag_41\n              tag_42\n              jump\t// in\n            tag_41:\n              stop\n                /* \"Test.sol\":667:688  address public winner */\n            tag_11:\n              tag_43\n              tag_44\n              jump\t// in\n            tag_43:\n              mload(0x40)\n              tag_45\n              swap2\n              swap1\n              tag_32\n              jump\t// in\n            tag_45:\n              mload(0x40)\n              dup1\n              swap2\n              sub\n              swap1\n              return\n                /* \"@openzeppelin/contracts/access/Ownable.sol\":2543:2758  function transferOwnership(address newOwner) public virtual onlyOwner {... */\n            tag_12:\n              tag_46\n              0x04\n              dup1\n              calldatasize\n              sub\n              dup2\n              add\n              swap1\n              tag_47\n              swap2\n              swap1\n              tag_48\n              jump\t// in\n            tag_47:\n              tag_49\n              jump\t// in\n            tag_46:\n              stop\n                /* \"Test.sol\":489:514  address[2] public players */\n            tag_13:\n              tag_50\n              0x04\n              dup1\n              calldatasize\n              sub\n              dup2\n              add\n              swap1\n              tag_51\n              swap2\n              swap1\n              tag_52\n              jump\t// in\n            tag_51:\n              tag_53\n              jump\t// in\n            tag_50:\n              mload(0x40)\n              tag_54\n              swap2\n              swap1\n              tag_32\n              jump\t// in\n            tag_54:\n              mload(0x40)\n              dup1\n              swap2\n              sub\n              swap1\n              return\n                /* \"Test.sol\":417:446  IERC20 public immutable token */\n            tag_14:\n              tag_55\n              tag_56\n              jump\t// in\n            tag_55:\n              mload(0x40)\n              tag_57\n              swap2\n              swap1\n              tag_58\n              jump\t// in\n            tag_57:\n              mload(0x40)\n              dup1\n              swap2\n              sub\n              swap1\n              return\n                /* \"Test.sol\":452:482  uint256 public immutable stake */\n            tag_17:\n              immutable(\"0x0f1bcf290b66a2cfed5f23463bc63e98c2b29d8093b3c4b39be593d60dfd3630\")\n              dup2\n              jump\t// out\n                /* \"Test.sol\":641:661  bool public resolved */\n            tag_21:\n              0x08\n              0x00\n              swap1\n              sload\n              swap1\n              0x0100\n              exp\n              swap1\n              div\n              0xff\n              and\n              dup2\n              jump\t// out\n                /* \"Test.sol\":607:634  uint256 public randomResult */\n            tag_25:\n              sload(0x07)\n              dup2\n              jump\t// out\n                /* \"@openzeppelin/contracts/access/Ownable.sol\":2293:2394  function renounceOwnership() public virtual onlyOwner {... */\n            tag_28:\n                /* \"@openzeppelin/contracts/access/Ownable.sol\":1531:1544  _checkOwner() */\n              tag_60\n                /* \"@openzeppelin/contracts/access/Ownable.sol\":1531:1542  _checkOwner */\n              tag_61\n                /* \"@openzeppelin/contracts/access/Ownable.sol\":1531:1544  _checkOwner() */\n              jump\t// in\n            tag_60:\n                /* \"@openzeppelin/contracts/access/Ownable.sol\":2357:2387  _transferOwnership(address(0)) */\n              tag_63\n                /* \"@openzeppelin/contracts/access/Ownable.sol\":2384:2385  0 */\n              0x00\n                /* \"@openzeppelin/contracts/access/Ownable.sol\":2357:2375  _transferOwnership */\n              tag_64\n                /* \"@openzeppelin/contracts/access/Ownable.sol\":2357:2387  _transferOwnership(address(0)) */\n              jump\t// in\n            tag_63:\n                /* \"@openzeppelin/contracts/access/Ownable.sol\":2293:2394  function renounceOwnership() public virtual onlyOwner {... */\n              jump\t// out\n                /* \"@openzeppelin/contracts/access/Ownable.sol\":1638:1723  function owner() public view virtual returns (address) {... */\n            tag_30:\n                /* \"@openzeppelin/contracts/access/Ownable.sol\":1684:1691  address */\n              0x00\n                /* \"@openzeppelin/contracts/access/Ownable.sol\":1710:1716  _owner */\n              0x01\n              0x00\n              swap1\n              sload\n              swap1\n              0x0100\n              exp\n              swap1\n              div\n              0xffffffffffffffffffffffffffffffffffffffff\n              and\n                /* \"@openzeppelin/contracts/access/Ownable.sol\":1703:1716  return _owner */\n              swap1\n              pop\n                /* \"@openzeppelin/contracts/access/Ownable.sol\":1638:1723  function owner() public view virtual returns (address) {... */\n              swap1\n              jump\t// out\n                /* \"@chainlink/contracts/src/v0.8/VRFConsumerBase.sol\":9576:9783  function rawFulfillRandomness(bytes32 requestId, uint256 randomness) external {... */\n            tag_36:\n                /* \"@chainlink/contracts/src/v0.8/VRFConsumerBase.sol\":9682:9696  vrfCoordinator */\n              immutable(\"0x6dbb33232cde86c8a04f90a8bed9fc1c5ef520188a14538d96eb100d69bc2a94\")\n                /* \"@chainlink/contracts/src/v0.8/VRFConsumerBase.sol\":9668:9696  msg.sender == vrfCoordinator */\n              0xffffffffffffffffffffffffffffffffffffffff\n              and\n                /* \"@chainlink/contracts/src/v0.8/VRFConsumerBase.sol\":9668:9678  msg.sender */\n              caller\n                /* \"@chainlink/contracts/src/v0.8/VRFConsumerBase.sol\":9668:9696  msg.sender == vrfCoordinator */\n              0xffffffffffffffffffffffffffffffffffffffff\n              and\n              eq\n                /* \"@chainlink/contracts/src/v0.8/VRFConsumerBase.sol\":9660:9732  require(msg.sender == vrfCoordinator, \"Only VRFCoordinator can fulfill\") */\n              tag_67\n              jumpi\n              mload(0x40)\n              0x08c379a000000000000000000000000000000000000000000000000000000000\n              dup2\n              mstore\n              0x04\n              add\n              tag_68\n              swap1\n              tag_69\n              jump\t// in\n            tag_68:\n              mload(0x40)\n              dup1\n              swap2\n              sub\n              swap1\n              revert\n            tag_67:\n                /* \"@chainlink/contracts/src/v0.8/VRFConsumerBase.sol\":9738:9778  fulfillRandomness(requestId, randomness) */\n              tag_70\n                /* \"@chainlink/contracts/src/v0.8/VRFConsumerBase.sol\":9756:9765  requestId */\n              dup3\n                /* \"@chainlink/contracts/src/v0.8/VRFConsumerBase.sol\":9767:9777  randomness */\n              dup3\n                /* \"@chainlink/contracts/src/v0.8/VRFConsumerBase.sol\":9738:9755  fulfillRandomness */\n              tag_71\n                /* \"@chainlink/contracts/src/v0.8/VRFConsumerBase.sol\":9738:9778  fulfillRandomness(requestId, randomness) */\n              jump\t// in\n            tag_70:\n                /* \"@chainlink/contracts/src/v0.8/VRFConsumerBase.sol\":9576:9783  function rawFulfillRandomness(bytes32 requestId, uint256 randomness) external {... */\n              pop\n              pop\n              jump\t// out\n                /* \"Test.sol\":520:544  uint8 public joinedCount */\n            tag_38:\n              0x04\n              0x00\n              swap1\n              sload\n              swap1\n              0x0100\n              exp\n              swap1\n              div\n              0xff\n              and\n              dup2\n              jump\t// out\n                /* \"Test.sol\":1758:2120  function joinGame() external {... */\n            tag_42:\n                /* \"Test.sol\":1819:1820  2 */\n              0x02\n                /* \"Test.sol\":1805:1816  joinedCount */\n              0x04\n              0x00\n              swap1\n              sload\n              swap1\n              0x0100\n              exp\n              swap1\n              div\n              0xff\n              and\n                /* \"Test.sol\":1805:1820  joinedCount < 2 */\n              0xff\n              and\n              lt\n                /* \"Test.sol\":1797:1834  require(joinedCount < 2, \"Game full\") */\n              tag_73\n              jumpi\n              mload(0x40)\n              0x08c379a000000000000000000000000000000000000000000000000000000000\n              dup2\n              mstore\n              0x04\n              add\n              tag_74\n              swap1\n              tag_75\n              jump\t// in\n            tag_74:\n              mload(0x40)\n              dup1\n              swap2\n              sub\n              swap1\n              revert\n            tag_73:\n                /* \"Test.sol\":1852:1857  token */\n              immutable(\"0x937a83b1fb35606d63f1d9b9e924837433ad32450590eb1d8129d7cf4887e815\")\n                /* \"Test.sol\":1852:1870  token.transferFrom */\n              0xffffffffffffffffffffffffffffffffffffffff\n              and\n              0x23b872dd\n                /* \"Test.sol\":1871:1881  msg.sender */\n              caller\n                /* \"Test.sol\":1891:1895  this */\n              address\n                /* \"Test.sol\":1898:1903  stake */\n              immutable(\"0x0f1bcf290b66a2cfed5f23463bc63e98c2b29d8093b3c4b39be593d60dfd3630\")\n                /* \"Test.sol\":1852:1904  token.transferFrom(msg.sender, address(this), stake) */\n              mload(0x40)\n              dup5\n              0xffffffff\n              and\n              0xe0\n              shl\n              dup2\n              mstore\n              0x04\n              add\n              tag_76\n              swap4\n              swap3\n              swap2\n              swap1\n              tag_77\n              jump\t// in\n            tag_76:\n              0x20\n              mload(0x40)\n              dup1\n              dup4\n              sub\n              dup2\n              0x00\n              dup8\n              gas\n              call\n              iszero\n              dup1\n              iszero\n              tag_79\n              jumpi\n              returndatasize\n              0x00\n              dup1\n              returndatacopy\n              revert(0x00, returndatasize)\n            tag_79:\n              pop\n              pop\n              pop\n              pop\n              mload(0x40)\n              returndatasize\n              not(0x1f)\n              0x1f\n              dup3\n              add\n              and\n              dup3\n              add\n              dup1\n              0x40\n              mstore\n              pop\n              dup2\n              add\n              swap1\n              tag_80\n              swap2\n              swap1\n              tag_81\n              jump\t// in\n            tag_80:\n                /* \"Test.sol\":1844:1930  require(token.transferFrom(msg.sender, address(this), stake), \"Stake transfer failed\") */\n              tag_82\n              jumpi\n              mload(0x40)\n              0x08c379a000000000000000000000000000000000000000000000000000000000\n              dup2\n              mstore\n              0x04\n              add\n              tag_83\n              swap1\n              tag_84\n              jump\t// in\n            tag_83:\n              mload(0x40)\n              dup1\n              swap2\n              sub\n              swap1\n              revert\n            tag_82:\n                /* \"Test.sol\":1963:1973  msg.sender */\n              caller\n                /* \"Test.sol\":1940:1947  players */\n              0x02\n                /* \"Test.sol\":1948:1959  joinedCount */\n              0x04\n              0x00\n              swap1\n              sload\n              swap1\n              0x0100\n              exp\n              swap1\n              div\n              0xff\n              and\n                /* \"Test.sol\":1940:1960  players[joinedCount] */\n              0xff\n              and\n              0x02\n              dup2\n              lt\n              tag_85\n              jumpi\n              tag_86\n              tag_87\n              jump\t// in\n            tag_86:\n            tag_85:\n              add\n              0x00\n                /* \"Test.sol\":1940:1973  players[joinedCount] = msg.sender */\n              0x0100\n              exp\n              dup2\n              sload\n              dup2\n              0xffffffffffffffffffffffffffffffffffffffff\n              mul\n              not\n              and\n              swap1\n              dup4\n              0xffffffffffffffffffffffffffffffffffffffff\n              and\n              mul\n              or\n              swap1\n              sstore\n              pop\n                /* \"Test.sol\":1983:1994  joinedCount */\n              0x04\n              0x00\n                /* \"Test.sol\":1983:1996  joinedCount++ */\n              dup2\n              dup2\n              swap1\n              sload\n              swap1\n              0x0100\n              exp\n              swap1\n              div\n              0xff\n              and\n              dup1\n              swap3\n              swap2\n              swap1\n              tag_89\n              swap1\n              tag_90\n              jump\t// in\n            tag_89:\n              swap2\n              swap1\n              0x0100\n              exp\n              dup2\n              sload\n              dup2\n              0xff\n              mul\n              not\n              and\n              swap1\n              dup4\n              0xff\n              and\n              mul\n              or\n              swap1\n              sstore\n              pop\n              pop\n                /* \"Test.sol\":2011:2035  PlayerJoined(msg.sender) */\n              0x31e760aa525306aba638a784082a013b6a1cc0a9a1789f3f22281c0453b10b1f\n                /* \"Test.sol\":2024:2034  msg.sender */\n              caller\n                /* \"Test.sol\":2011:2035  PlayerJoined(msg.sender) */\n              mload(0x40)\n              tag_91\n              swap2\n              swap1\n              tag_32\n              jump\t// in\n            tag_91:\n              mload(0x40)\n              dup1\n              swap2\n              sub\n              swap1\n              log1\n                /* \"Test.sol\":2065:2066  2 */\n              0x02\n                /* \"Test.sol\":2050:2061  joinedCount */\n              0x04\n              0x00\n              swap1\n              sload\n              swap1\n              0x0100\n              exp\n              swap1\n              div\n              0xff\n              and\n                /* \"Test.sol\":2050:2066  joinedCount == 2 */\n              0xff\n              and\n              sub\n                /* \"Test.sol\":2046:2114  if (joinedCount == 2) {... */\n              tag_92\n              jumpi\n                /* \"Test.sol\":2082:2103  requestRandomWinner() */\n              tag_93\n                /* \"Test.sol\":2082:2101  requestRandomWinner */\n              tag_94\n                /* \"Test.sol\":2082:2103  requestRandomWinner() */\n              jump\t// in\n            tag_93:\n              pop\n                /* \"Test.sol\":2046:2114  if (joinedCount == 2) {... */\n            tag_92:\n                /* \"Test.sol\":1758:2120  function joinGame() external {... */\n              jump\t// out\n                /* \"Test.sol\":667:688  address public winner */\n            tag_44:\n              0x08\n              0x01\n              swap1\n              sload\n              swap1\n              0x0100\n              exp\n              swap1\n              div\n              0xffffffffffffffffffffffffffffffffffffffff\n              and\n              dup2\n              jump\t// out\n                /* \"@openzeppelin/contracts/access/Ownable.sol\":2543:2758  function transferOwnership(address newOwner) public virtual onlyOwner {... */\n            tag_49:\n                /* \"@openzeppelin/contracts/access/Ownable.sol\":1531:1544  _checkOwner() */\n              tag_96\n                /* \"@openzeppelin/contracts/access/Ownable.sol\":1531:1542  _checkOwner */\n              tag_61\n                /* \"@openzeppelin/contracts/access/Ownable.sol\":1531:1544  _checkOwner() */\n              jump\t// in\n            tag_96:\n                /* \"@openzeppelin/contracts/access/Ownable.sol\":2647:2648  0 */\n              0x00\n                /* \"@openzeppelin/contracts/access/Ownable.sol\":2627:2649  newOwner == address(0) */\n              0xffffffffffffffffffffffffffffffffffffffff\n              and\n                /* \"@openzeppelin/contracts/access/Ownable.sol\":2627:2635  newOwner */\n              dup2\n                /* \"@openzeppelin/contracts/access/Ownable.sol\":2627:2649  newOwner == address(0) */\n              0xffffffffffffffffffffffffffffffffffffffff\n              and\n              sub\n                /* \"@openzeppelin/contracts/access/Ownable.sol\":2623:2714  if (newOwner == address(0)) {... */\n              tag_98\n              jumpi\n                /* \"@openzeppelin/contracts/access/Ownable.sol\":2700:2701  0 */\n              0x00\n                /* \"@openzeppelin/contracts/access/Ownable.sol\":2672:2703  OwnableInvalidOwner(address(0)) */\n              mload(0x40)\n              0x1e4fbdf700000000000000000000000000000000000000000000000000000000\n              dup2\n              mstore\n              0x04\n              add\n              tag_99\n              swap2\n              swap1\n              tag_32\n              jump\t// in\n            tag_99:\n              mload(0x40)\n              dup1\n              swap2\n              sub\n              swap1\n              revert\n                /* \"@openzeppelin/contracts/access/Ownable.sol\":2623:2714  if (newOwner == address(0)) {... */\n            tag_98:\n                /* \"@openzeppelin/contracts/access/Ownable.sol\":2723:2751  _transferOwnership(newOwner) */\n              tag_100\n                /* \"@openzeppelin/contracts/access/Ownable.sol\":2742:2750  newOwner */\n              dup2\n                /* \"@openzeppelin/contracts/access/Ownable.sol\":2723:2741  _transferOwnership */\n              tag_64\n                /* \"@openzeppelin/contracts/access/Ownable.sol\":2723:2751  _transferOwnership(newOwner) */\n              jump\t// in\n            tag_100:\n                /* \"@openzeppelin/contracts/access/Ownable.sol\":2543:2758  function transferOwnership(address newOwner) public virtual onlyOwner {... */\n              pop\n              jump\t// out\n                /* \"Test.sol\":489:514  address[2] public players */\n            tag_53:\n              0x02\n              dup2\n              0x02\n              dup2\n              lt\n              tag_101\n              jumpi\n              0x00\n              dup1\n              revert\n            tag_101:\n              add\n              0x00\n              swap2\n              pop\n              sload\n              swap1\n              0x0100\n              exp\n              swap1\n              div\n              0xffffffffffffffffffffffffffffffffffffffff\n              and\n              dup2\n              jump\t// out\n                /* \"Test.sol\":417:446  IERC20 public immutable token */\n            tag_56:\n              immutable(\"0x937a83b1fb35606d63f1d9b9e924837433ad32450590eb1d8129d7cf4887e815\")\n              dup2\n              jump\t// out\n                /* \"@openzeppelin/contracts/access/Ownable.sol\":1796:1958  function _checkOwner() internal view virtual {... */\n            tag_61:\n                /* \"@openzeppelin/contracts/access/Ownable.sol\":1866:1878  _msgSender() */\n              tag_104\n                /* \"@openzeppelin/contracts/access/Ownable.sol\":1866:1876  _msgSender */\n              tag_105\n                /* \"@openzeppelin/contracts/access/Ownable.sol\":1866:1878  _msgSender() */\n              jump\t// in\n            tag_104:\n                /* \"@openzeppelin/contracts/access/Ownable.sol\":1855:1878  owner() != _msgSender() */\n              0xffffffffffffffffffffffffffffffffffffffff\n              and\n                /* \"@openzeppelin/contracts/access/Ownable.sol\":1855:1862  owner() */\n              tag_106\n                /* \"@openzeppelin/contracts/access/Ownable.sol\":1855:1860  owner */\n              tag_30\n                /* \"@openzeppelin/contracts/access/Ownable.sol\":1855:1862  owner() */\n              jump\t// in\n            tag_106:\n                /* \"@openzeppelin/contracts/access/Ownable.sol\":1855:1878  owner() != _msgSender() */\n              0xffffffffffffffffffffffffffffffffffffffff\n              and\n              eq\n                /* \"@openzeppelin/contracts/access/Ownable.sol\":1851:1952  if (owner() != _msgSender()) {... */\n              tag_107\n              jumpi\n                /* \"@openzeppelin/contracts/access/Ownable.sol\":1928:1940  _msgSender() */\n              tag_108\n                /* \"@openzeppelin/contracts/access/Ownable.sol\":1928:1938  _msgSender */\n              tag_105\n                /* \"@openzeppelin/contracts/access/Ownable.sol\":1928:1940  _msgSender() */\n              jump\t// in\n            tag_108:\n                /* \"@openzeppelin/contracts/access/Ownable.sol\":1901:1941  OwnableUnauthorizedAccount(_msgSender()) */\n              mload(0x40)\n              0x118cdaa700000000000000000000000000000000000000000000000000000000\n              dup2\n              mstore\n              0x04\n              add\n              tag_109\n              swap2\n              swap1\n              tag_32\n              jump\t// in\n            tag_109:\n              mload(0x40)\n              dup1\n              swap2\n              sub\n              swap1\n              revert\n                /* \"@openzeppelin/contracts/access/Ownable.sol\":1851:1952  if (owner() != _msgSender()) {... */\n            tag_107:\n                /* \"@openzeppelin/contracts/access/Ownable.sol\":1796:1958  function _checkOwner() internal view virtual {... */\n              jump\t// out\n                /* \"@openzeppelin/contracts/access/Ownable.sol\":2912:3099  function _transferOwnership(address newOwner) internal virtual {... */\n            tag_64:\n                /* \"@openzeppelin/contracts/access/Ownable.sol\":2985:3001  address oldOwner */\n              0x00\n                /* \"@openzeppelin/contracts/access/Ownable.sol\":3004:3010  _owner */\n              0x01\n              0x00\n              swap1\n              sload\n              swap1\n              0x0100\n              exp\n              swap1\n              div\n              0xffffffffffffffffffffffffffffffffffffffff\n              and\n                /* \"@openzeppelin/contracts/access/Ownable.sol\":2985:3010  address oldOwner = _owner */\n              swap1\n              pop\n                /* \"@openzeppelin/contracts/access/Ownable.sol\":3029:3037  newOwner */\n              dup2\n                /* \"@openzeppelin/contracts/access/Ownable.sol\":3020:3026  _owner */\n              0x01\n              0x00\n                /* \"@openzeppelin/contracts/access/Ownable.sol\":3020:3037  _owner = newOwner */\n              0x0100\n              exp\n              dup2\n              sload\n              dup2\n              0xffffffffffffffffffffffffffffffffffffffff\n              mul\n              not\n              and\n              swap1\n              dup4\n              0xffffffffffffffffffffffffffffffffffffffff\n              and\n              mul\n              or\n              swap1\n              sstore\n              pop\n                /* \"@openzeppelin/contracts/access/Ownable.sol\":3083:3091  newOwner */\n              dup2\n                /* \"@openzeppelin/contracts/access/Ownable.sol\":3052:3092  OwnershipTransferred(oldOwner, newOwner) */\n              0xffffffffffffffffffffffffffffffffffffffff\n              and\n                /* \"@openzeppelin/contracts/access/Ownable.sol\":3073:3081  oldOwner */\n              dup2\n                /* \"@openzeppelin/contracts/access/Ownable.sol\":3052:3092  OwnershipTransferred(oldOwner, newOwner) */\n              0xffffffffffffffffffffffffffffffffffffffff\n              and\n              0x8be0079c531659141344cd1fd0a4f28419497f9722a3daafe3b4186f6b6457e0\n              mload(0x40)\n              mload(0x40)\n              dup1\n              swap2\n              sub\n              swap1\n              log3\n                /* \"@openzeppelin/contracts/access/Ownable.sol\":2975:3099  {... */\n              pop\n                /* \"@openzeppelin/contracts/access/Ownable.sol\":2912:3099  function _transferOwnership(address newOwner) internal virtual {... */\n              pop\n              jump\t// out\n                /* \"Test.sol\":2537:2948  function fulfillRandomness(bytes32 /* requestId */, uint256 randomness) internal override {... */\n            tag_71:\n                /* \"Test.sol\":2646:2654  resolved */\n              0x08\n              0x00\n              swap1\n              sload\n              swap1\n              0x0100\n              exp\n              swap1\n              div\n              0xff\n              and\n                /* \"Test.sol\":2645:2654  !resolved */\n              iszero\n                /* \"Test.sol\":2637:2675  require(!resolved, \"Already resolved\") */\n              tag_112\n              jumpi\n              mload(0x40)\n              0x08c379a000000000000000000000000000000000000000000000000000000000\n              dup2\n              mstore\n              0x04\n              add\n              tag_113\n              swap1\n              tag_114\n              jump\t// in\n            tag_113:\n              mload(0x40)\n              dup1\n              swap2\n              sub\n              swap1\n              revert\n            tag_112:\n                /* \"Test.sol\":2700:2710  randomness */\n              dup1\n                /* \"Test.sol\":2685:2697  randomResult */\n              0x07\n                /* \"Test.sol\":2685:2710  randomResult = randomness */\n              dup2\n              swap1\n              sstore\n              pop\n                /* \"Test.sol\":2720:2731  uint256 idx */\n              0x00\n                /* \"Test.sol\":2747:2748  2 */\n              0x02\n                /* \"Test.sol\":2734:2744  randomness */\n              dup3\n                /* \"Test.sol\":2734:2748  randomness % 2 */\n              tag_115\n              swap2\n              swap1\n              tag_116\n              jump\t// in\n            tag_115:\n                /* \"Test.sol\":2720:2748  uint256 idx = randomness % 2 */\n              swap1\n              pop\n                /* \"Test.sol\":2767:2774  players */\n              0x02\n                /* \"Test.sol\":2775:2778  idx */\n              dup2\n                /* \"Test.sol\":2767:2779  players[idx] */\n              0x02\n              dup2\n              lt\n              tag_117\n              jumpi\n              tag_118\n              tag_87\n              jump\t// in\n            tag_118:\n            tag_117:\n              add\n              0x00\n              swap1\n              sload\n              swap1\n              0x0100\n              exp\n              swap1\n              div\n              0xffffffffffffffffffffffffffffffffffffffff\n              and\n                /* \"Test.sol\":2758:2764  winner */\n              0x08\n              0x01\n                /* \"Test.sol\":2758:2779  winner = players[idx] */\n              0x0100\n              exp\n              dup2\n              sload\n              dup2\n              0xffffffffffffffffffffffffffffffffffffffff\n              mul\n              not\n              and\n              swap1\n              dup4\n              0xffffffffffffffffffffffffffffffffffffffff\n              and\n              mul\n              or\n              swap1\n              sstore\n              pop\n                /* \"Test.sol\":2800:2804  true */\n              0x01\n                /* \"Test.sol\":2789:2797  resolved */\n              0x08\n              0x00\n                /* \"Test.sol\":2789:2804  resolved = true */\n              0x0100\n              exp\n              dup2\n              sload\n              dup2\n              0xff\n              mul\n              not\n              and\n              swap1\n              dup4\n              iszero\n              iszero\n              mul\n              or\n              swap1\n              sstore\n              pop\n                /* \"Test.sol\":2815:2828  uint256 total */\n              0x00\n                /* \"Test.sol\":2839:2840  2 */\n              0x02\n                /* \"Test.sol\":2831:2836  stake */\n              immutable(\"0x0f1bcf290b66a2cfed5f23463bc63e98c2b29d8093b3c4b39be593d60dfd3630\")\n                /* \"Test.sol\":2831:2840  stake * 2 */\n              tag_120\n              swap2\n              swap1\n              tag_121\n              jump\t// in\n            tag_120:\n                /* \"Test.sol\":2815:2840  uint256 total = stake * 2 */\n              swap1\n              pop\n                /* \"Test.sol\":2858:2863  token */\n              immutable(\"0x937a83b1fb35606d63f1d9b9e924837433ad32450590eb1d8129d7cf4887e815\")\n                /* \"Test.sol\":2858:2872  token.transfer */\n              0xffffffffffffffffffffffffffffffffffffffff\n              and\n              0xa9059cbb\n                /* \"Test.sol\":2873:2879  winner */\n              0x08\n              0x01\n              swap1\n              sload\n              swap1\n              0x0100\n              exp\n              swap1\n              div\n              0xffffffffffffffffffffffffffffffffffffffff\n              and\n                /* \"Test.sol\":2881:2886  total */\n              dup4\n                /* \"Test.sol\":2858:2887  token.transfer(winner, total) */\n              mload(0x40)\n              dup4\n              0xffffffff\n              and\n              0xe0\n              shl\n              dup2\n              mstore\n              0x04\n              add\n              tag_122\n              swap3\n              swap2\n              swap1\n              tag_123\n              jump\t// in\n            tag_122:\n              0x20\n              mload(0x40)\n              dup1\n              dup4\n              sub\n              dup2\n              0x00\n              dup8\n              gas\n              call\n              iszero\n              dup1\n              iszero\n              tag_125\n              jumpi\n              returndatasize\n              0x00\n              dup1\n              returndatacopy\n              revert(0x00, returndatasize)\n            tag_125:\n              pop\n              pop\n              pop\n              pop\n              mload(0x40)\n              returndatasize\n              not(0x1f)\n              0x1f\n              dup3\n              add\n              and\n              dup3\n              add\n              dup1\n              0x40\n              mstore\n              pop\n              dup2\n              add\n              swap1\n              tag_126\n              swap2\n              swap1\n              tag_81\n              jump\t// in\n            tag_126:\n                /* \"Test.sol\":2850:2905  require(token.transfer(winner, total), \"Payout failed\") */\n              tag_127\n              jumpi\n              mload(0x40)\n              0x08c379a000000000000000000000000000000000000000000000000000000000\n              dup2\n              mstore\n              0x04\n              add\n              tag_128\n              swap1\n              tag_129\n              jump\t// in\n            tag_128:\n              mload(0x40)\n              dup1\n              swap2\n              sub\n              swap1\n              revert\n            tag_127:\n                /* \"Test.sol\":2921:2941  GameResolved(winner) */\n              0x2a2cb2e94a6626cc0ba41c90bd87ad701bdf47a8c3d7300070c92c0fd36b872b\n                /* \"Test.sol\":2934:2940  winner */\n              0x08\n              0x01\n              swap1\n              sload\n              swap1\n              0x0100\n              exp\n              swap1\n              div\n              0xffffffffffffffffffffffffffffffffffffffff\n              and\n                /* \"Test.sol\":2921:2941  GameResolved(winner) */\n              mload(0x40)\n              tag_130\n              swap2\n              swap1\n              tag_32\n              jump\t// in\n            tag_130:\n              mload(0x40)\n              dup1\n              swap2\n              sub\n              swap1\n              log1\n                /* \"Test.sol\":2627:2948  {... */\n              pop\n              pop\n                /* \"Test.sol\":2537:2948  function fulfillRandomness(bytes32 /* requestId */, uint256 randomness) internal override {... */\n              pop\n              pop\n              jump\t// out\n                /* \"Test.sol\":2214:2461  function requestRandomWinner() internal returns (bytes32 requestId) {... */\n            tag_94:\n                /* \"Test.sol\":2263:2280  bytes32 requestId */\n              0x00\n                /* \"Test.sol\":2333:2336  fee */\n              sload(0x06)\n                /* \"Test.sol\":2300:2304  LINK */\n              immutable(\"0xb2219b801710730437d0358146c829b62297a059eceaa0b40b27aea2daecf595\")\n                /* \"Test.sol\":2300:2314  LINK.balanceOf */\n              0xffffffffffffffffffffffffffffffffffffffff\n              and\n              0x70a08231\n                /* \"Test.sol\":2323:2327  this */\n              address\n                /* \"Test.sol\":2300:2329  LINK.balanceOf(address(this)) */\n              mload(0x40)\n              dup3\n              0xffffffff\n              and\n              0xe0\n              shl\n              dup2\n              mstore\n              0x04\n              add\n              tag_132\n              swap2\n              swap1\n              tag_32\n              jump\t// in\n            tag_132:\n              0x20\n              mload(0x40)\n              dup1\n              dup4\n              sub\n              dup2\n              dup7\n              gas\n              staticcall\n              iszero\n              dup1\n              iszero\n              tag_134\n              jumpi\n              returndatasize\n              0x00\n              dup1\n              returndatacopy\n              revert(0x00, returndatasize)\n            tag_134:\n              pop\n              pop\n              pop\n              pop\n              mload(0x40)\n              returndatasize\n              not(0x1f)\n              0x1f\n              dup3\n              add\n              and\n              dup3\n              add\n              dup1\n              0x40\n              mstore\n              pop\n              dup2\n              add\n              swap1\n              tag_135\n              swap2\n              swap1\n              tag_136\n              jump\t// in\n            tag_135:\n                /* \"Test.sol\":2300:2336  LINK.balanceOf(address(this)) >= fee */\n              lt\n              iszero\n                /* \"Test.sol\":2292:2356  require(LINK.balanceOf(address(this)) >= fee, \"Not enough LINK\") */\n              tag_137\n              jumpi\n              mload(0x40)\n              0x08c379a000000000000000000000000000000000000000000000000000000000\n              dup2\n              mstore\n              0x04\n              add\n              tag_138\n              swap1\n              tag_139\n              jump\t// in\n            tag_138:\n              mload(0x40)\n              dup1\n              swap2\n              sub\n              swap1\n              revert\n            tag_137:\n                /* \"Test.sol\":2378:2409  requestRandomness(keyHash, fee) */\n              tag_140\n                /* \"Test.sol\":2396:2403  keyHash */\n              sload(0x05)\n                /* \"Test.sol\":2405:2408  fee */\n              sload(0x06)\n                /* \"Test.sol\":2378:2395  requestRandomness */\n              tag_141\n                /* \"Test.sol\":2378:2409  requestRandomness(keyHash, fee) */\n              jump\t// in\n            tag_140:\n                /* \"Test.sol\":2366:2409  requestId = requestRandomness(keyHash, fee) */\n              swap1\n              pop\n                /* \"Test.sol\":2424:2454  RandomnessRequested(requestId) */\n              0x3573455bfd612c588441d8f1bec935c6cf4d3643fc8fda959594e4ea24a234d0\n                /* \"Test.sol\":2444:2453  requestId */\n              dup2\n                /* \"Test.sol\":2424:2454  RandomnessRequested(requestId) */\n              mload(0x40)\n              tag_142\n              swap2\n              swap1\n              tag_143\n              jump\t// in\n            tag_142:\n              mload(0x40)\n              dup1\n              swap2\n              sub\n              swap1\n              log1\n                /* \"Test.sol\":2214:2461  function requestRandomWinner() internal returns (bytes32 requestId) {... */\n              swap1\n              jump\t// out\n                /* \"@openzeppelin/contracts/utils/Context.sol\":656:752  function _msgSender() internal view virtual returns (address) {... */\n            tag_105:\n                /* \"@openzeppelin/contracts/utils/Context.sol\":709:716  address */\n              0x00\n                /* \"@openzeppelin/contracts/utils/Context.sol\":735:745  msg.sender */\n              caller\n                /* \"@openzeppelin/contracts/utils/Context.sol\":728:745  return msg.sender */\n              swap1\n              pop\n                /* \"@openzeppelin/contracts/utils/Context.sol\":656:752  function _msgSender() internal view virtual returns (address) {... */\n              swap1\n              jump\t// out\n                /* \"@chainlink/contracts/src/v0.8/VRFConsumerBase.sol\":7732:8752  function requestRandomness(bytes32 _keyHash, uint256 _fee) internal returns (bytes32 requestId) {... */\n            tag_141:\n                /* \"@chainlink/contracts/src/v0.8/VRFConsumerBase.sol\":7809:7826  bytes32 requestId */\n              0x00\n                /* \"@chainlink/contracts/src/v0.8/VRFConsumerBase.sol\":7834:7838  LINK */\n              immutable(\"0xb2219b801710730437d0358146c829b62297a059eceaa0b40b27aea2daecf595\")\n                /* \"@chainlink/contracts/src/v0.8/VRFConsumerBase.sol\":7834:7854  LINK.transferAndCall */\n              0xffffffffffffffffffffffffffffffffffffffff\n              and\n              0x4000aea0\n                /* \"@chainlink/contracts/src/v0.8/VRFConsumerBase.sol\":7855:7869  vrfCoordinator */\n              immutable(\"0x6dbb33232cde86c8a04f90a8bed9fc1c5ef520188a14538d96eb100d69bc2a94\")\n                /* \"@chainlink/contracts/src/v0.8/VRFConsumerBase.sol\":7871:7875  _fee */\n              dup5\n                /* \"@chainlink/contracts/src/v0.8/VRFConsumerBase.sol\":7888:7896  _keyHash */\n              dup7\n                /* \"@chainlink/contracts/src/v0.8/VRFConsumerBase.sol\":6589:6590  0 */\n              0x00\n                /* \"@chainlink/contracts/src/v0.8/VRFConsumerBase.sol\":7877:7920  abi.encode(_keyHash, USER_SEED_PLACEHOLDER) */\n              add(0x20, mload(0x40))\n              tag_146\n              swap3\n              swap2\n              swap1\n              tag_147\n              jump\t// in\n            tag_146:\n              mload(0x40)\n              0x20\n              dup2\n              dup4\n              sub\n              sub\n              dup2\n              mstore\n              swap1\n              0x40\n              mstore\n                /* \"@chainlink/contracts/src/v0.8/VRFConsumerBase.sol\":7834:7921  LINK.transferAndCall(vrfCoordinator, _fee, abi.encode(_keyHash, USER_SEED_PLACEHOLDER)) */\n              mload(0x40)\n              dup5\n              0xffffffff\n              and\n              0xe0\n              shl\n              dup2\n              mstore\n              0x04\n              add\n              tag_148\n              swap4\n              swap3\n              swap2\n              swap1\n              tag_149\n              jump\t// in\n            tag_148:\n              0x20\n              mload(0x40)\n              dup1\n              dup4\n              sub\n              dup2\n              0x00\n              dup8\n              gas\n              call\n              iszero\n              dup1\n              iszero\n              tag_151\n              jumpi\n              returndatasize\n              0x00\n              dup1\n              returndatacopy\n              revert(0x00, returndatasize)\n            tag_151:\n              pop\n              pop\n              pop\n              pop\n              mload(0x40)\n              returndatasize\n              not(0x1f)\n              0x1f\n              dup3\n              add\n              and\n              dup3\n              add\n              dup1\n              0x40\n              mstore\n              pop\n              dup2\n              add\n              swap1\n              tag_152\n              swap2\n              swap1\n              tag_81\n              jump\t// in\n            tag_152:\n              pop\n                /* \"@chainlink/contracts/src/v0.8/VRFConsumerBase.sol\":8152:8167  uint256 vRFSeed */\n              0x00\n                /* \"@chainlink/contracts/src/v0.8/VRFConsumerBase.sol\":8170:8252  makeVRFInputSeed(_keyHash, USER_SEED_PLACEHOLDER, address(this), nonces[_keyHash]) */\n              tag_153\n                /* \"@chainlink/contracts/src/v0.8/VRFConsumerBase.sol\":8187:8195  _keyHash */\n              dup5\n                /* \"@chainlink/contracts/src/v0.8/VRFConsumerBase.sol\":6589:6590  0 */\n              0x00\n                /* \"@chainlink/contracts/src/v0.8/VRFConsumerBase.sol\":8228:8232  this */\n              address\n                /* \"@chainlink/contracts/src/v0.8/VRFConsumerBase.sol\":8235:8241  nonces */\n              0x00\n                /* \"@chainlink/contracts/src/v0.8/VRFConsumerBase.sol\":8235:8251  nonces[_keyHash] */\n              dup1\n                /* \"@chainlink/contracts/src/v0.8/VRFConsumerBase.sol\":8242:8250  _keyHash */\n              dup10\n                /* \"@chainlink/contracts/src/v0.8/VRFConsumerBase.sol\":8235:8251  nonces[_keyHash] */\n              dup2\n              mstore\n              0x20\n              add\n              swap1\n              dup2\n              mstore\n              0x20\n              add\n              0x00\n              keccak256\n              sload\n                /* \"@chainlink/contracts/src/v0.8/VRFConsumerBase.sol\":8170:8186  makeVRFInputSeed */\n              tag_154\n                /* \"@chainlink/contracts/src/v0.8/VRFConsumerBase.sol\":8170:8252  makeVRFInputSeed(_keyHash, USER_SEED_PLACEHOLDER, address(this), nonces[_keyHash]) */\n              jump\t// in\n            tag_153:\n                /* \"@chainlink/contracts/src/v0.8/VRFConsumerBase.sol\":8152:8252  uint256 vRFSeed = makeVRFInputSeed(_keyHash, USER_SEED_PLACEHOLDER, address(this), nonces[_keyHash]) */\n              swap1\n              pop\n                /* \"@chainlink/contracts/src/v0.8/VRFConsumerBase.sol\":8701:8702  1 */\n              0x01\n                /* \"@chainlink/contracts/src/v0.8/VRFConsumerBase.sol\":8682:8688  nonces */\n              0x00\n                /* \"@chainlink/contracts/src/v0.8/VRFConsumerBase.sol\":8682:8698  nonces[_keyHash] */\n              dup1\n                /* \"@chainlink/contracts/src/v0.8/VRFConsumerBase.sol\":8689:8697  _keyHash */\n              dup7\n                /* \"@chainlink/contracts/src/v0.8/VRFConsumerBase.sol\":8682:8698  nonces[_keyHash] */\n              dup2\n              mstore\n              0x20\n              add\n              swap1\n              dup2\n              mstore\n              0x20\n              add\n              0x00\n              keccak256\n              sload\n                /* \"@chainlink/contracts/src/v0.8/VRFConsumerBase.sol\":8682:8702  nonces[_keyHash] + 1 */\n              tag_155\n              swap2\n              swap1\n              tag_156\n              jump\t// in\n            tag_155:\n                /* \"@chainlink/contracts/src/v0.8/VRFConsumerBase.sol\":8663:8669  nonces */\n              0x00\n                /* \"@chainlink/contracts/src/v0.8/VRFConsumerBase.sol\":8663:8679  nonces[_keyHash] */\n              dup1\n                /* \"@chainlink/contracts/src/v0.8/VRFConsumerBase.sol\":8670:8678  _keyHash */\n              dup7\n                /* \"@chainlink/contracts/src/v0.8/VRFConsumerBase.sol\":8663:8679  nonces[_keyHash] */\n              dup2\n              mstore\n              0x20\n              add\n              swap1\n              dup2\n              mstore\n              0x20\n              add\n              0x00\n              keccak256\n                /* \"@chainlink/contracts/src/v0.8/VRFConsumerBase.sol\":8663:8702  nonces[_keyHash] = nonces[_keyHash] + 1 */\n              dup2\n              swap1\n              sstore\n              pop\n                /* \"@chainlink/contracts/src/v0.8/VRFConsumerBase.sol\":8715:8747  makeRequestId(_keyHash, vRFSeed) */\n              tag_157\n                /* \"@chainlink/contracts/src/v0.8/VRFConsumerBase.sol\":8729:8737  _keyHash */\n              dup5\n                /* \"@chainlink/contracts/src/v0.8/VRFConsumerBase.sol\":8739:8746  vRFSeed */\n              dup3\n                /* \"@chainlink/contracts/src/v0.8/VRFConsumerBase.sol\":8715:8728  makeRequestId */\n              tag_158\n                /* \"@chainlink/contracts/src/v0.8/VRFConsumerBase.sol\":8715:8747  makeRequestId(_keyHash, vRFSeed) */\n              jump\t// in\n            tag_157:\n                /* \"@chainlink/contracts/src/v0.8/VRFConsumerBase.sol\":8708:8747  return makeRequestId(_keyHash, vRFSeed) */\n              swap2\n              pop\n              pop\n                /* \"@chainlink/contracts/src/v0.8/VRFConsumerBase.sol\":7732:8752  function requestRandomness(bytes32 _keyHash, uint256 _fee) internal returns (bytes32 requestId) {... */\n              swap3\n              swap2\n              pop\n              pop\n              jump\t// out\n                /* \"@chainlink/contracts/src/v0.8/VRFRequestIDBase.sol\":796:1036  function makeVRFInputSeed(... */\n            tag_154:\n                /* \"@chainlink/contracts/src/v0.8/VRFRequestIDBase.sol\":938:945  uint256 */\n              0x00\n                /* \"@chainlink/contracts/src/v0.8/VRFRequestIDBase.sol\":989:997  _keyHash */\n              dup5\n                /* \"@chainlink/contracts/src/v0.8/VRFRequestIDBase.sol\":999:1008  _userSeed */\n              dup5\n                /* \"@chainlink/contracts/src/v0.8/VRFRequestIDBase.sol\":1010:1020  _requester */\n              dup5\n                /* \"@chainlink/contracts/src/v0.8/VRFRequestIDBase.sol\":1022:1028  _nonce */\n              dup5\n                /* \"@chainlink/contracts/src/v0.8/VRFRequestIDBase.sol\":978:1029  abi.encode(_keyHash, _userSeed, _requester, _nonce) */\n              add(0x20, mload(0x40))\n              tag_160\n              swap5\n              swap4\n              swap3\n              swap2\n              swap1\n              tag_161\n              jump\t// in\n            tag_160:\n              mload(0x40)\n              0x20\n              dup2\n              dup4\n              sub\n              sub\n              dup2\n              mstore\n              swap1\n              0x40\n              mstore\n                /* \"@chainlink/contracts/src/v0.8/VRFRequestIDBase.sol\":968:1030  keccak256(abi.encode(_keyHash, _userSeed, _requester, _nonce)) */\n              dup1\n              mload\n              swap1\n              0x20\n              add\n              keccak256\n                /* \"@chainlink/contracts/src/v0.8/VRFRequestIDBase.sol\":960:1031  uint256(keccak256(abi.encode(_keyHash, _userSeed, _requester, _nonce))) */\n              0x00\n              shr\n                /* \"@chainlink/contracts/src/v0.8/VRFRequestIDBase.sol\":953:1031  return uint256(keccak256(abi.encode(_keyHash, _userSeed, _requester, _nonce))) */\n              swap1\n              pop\n                /* \"@chainlink/contracts/src/v0.8/VRFRequestIDBase.sol\":796:1036  function makeVRFInputSeed(... */\n              swap5\n              swap4\n              pop\n              pop\n              pop\n              pop\n              jump\t// out\n                /* \"@chainlink/contracts/src/v0.8/VRFRequestIDBase.sol\":1416:1582  function makeRequestId(bytes32 _keyHash, uint256 _vRFInputSeed) internal pure returns (bytes32) {... */\n            tag_158:\n                /* \"@chainlink/contracts/src/v0.8/VRFRequestIDBase.sol\":1503:1510  bytes32 */\n              0x00\n                /* \"@chainlink/contracts/src/v0.8/VRFRequestIDBase.sol\":1552:1560  _keyHash */\n              dup3\n                /* \"@chainlink/contracts/src/v0.8/VRFRequestIDBase.sol\":1562:1575  _vRFInputSeed */\n              dup3\n                /* \"@chainlink/contracts/src/v0.8/VRFRequestIDBase.sol\":1535:1576  abi.encodePacked(_keyHash, _vRFInputSeed) */\n              add(0x20, mload(0x40))\n              tag_163\n              swap3\n              swap2\n              swap1\n              tag_164\n              jump\t// in\n            tag_163:\n              mload(0x40)\n              0x20\n              dup2\n              dup4\n              sub\n              sub\n              dup2\n              mstore\n              swap1\n              0x40\n              mstore\n                /* \"@chainlink/contracts/src/v0.8/VRFRequestIDBase.sol\":1525:1577  keccak256(abi.encodePacked(_keyHash, _vRFInputSeed)) */\n              dup1\n              mload\n              swap1\n              0x20\n              add\n              keccak256\n                /* \"@chainlink/contracts/src/v0.8/VRFRequestIDBase.sol\":1518:1577  return keccak256(abi.encodePacked(_keyHash, _vRFInputSeed)) */\n              swap1\n              pop\n                /* \"@chainlink/contracts/src/v0.8/VRFRequestIDBase.sol\":1416:1582  function makeRequestId(bytes32 _keyHash, uint256 _vRFInputSeed) internal pure returns (bytes32) {... */\n              swap3\n              swap2\n              pop\n              pop\n              jump\t// out\n                /* \"#utility.yul\":7:84   */\n            tag_165:\n                /* \"#utility.yul\":44:51   */\n              0x00\n                /* \"#utility.yul\":73:78   */\n              dup2\n                /* \"#utility.yul\":62:78   */\n              swap1\n              pop\n                /* \"#utility.yul\":7:84   */\n              swap2\n              swap1\n              pop\n              jump\t// out\n                /* \"#utility.yul\":90:208   */\n            tag_166:\n                /* \"#utility.yul\":177:201   */\n              tag_220\n                /* \"#utility.yul\":195:200   */\n              dup2\n                /* \"#utility.yul\":177:201   */\n              tag_165\n              jump\t// in\n            tag_220:\n                /* \"#utility.yul\":172:175   */\n              dup3\n                /* \"#utility.yul\":165:202   */\n              mstore\n                /* \"#utility.yul\":90:208   */\n              pop\n              pop\n              jump\t// out\n                /* \"#utility.yul\":214:436   */\n            tag_19:\n                /* \"#utility.yul\":307:311   */\n              0x00\n                /* \"#utility.yul\":345:347   */\n              0x20\n                /* \"#utility.yul\":334:343   */\n              dup3\n                /* \"#utility.yul\":330:348   */\n              add\n                /* \"#utility.yul\":322:348   */\n              swap1\n              pop\n                /* \"#utility.yul\":358:429   */\n              tag_222\n                /* \"#utility.yul\":426:427   */\n              0x00\n                /* \"#utility.yul\":415:424   */\n              dup4\n                /* \"#utility.yul\":411:428   */\n              add\n                /* \"#utility.yul\":402:408   */\n              dup5\n                /* \"#utility.yul\":358:429   */\n              tag_166\n              jump\t// in\n            tag_222:\n                /* \"#utility.yul\":214:436   */\n              swap3\n              swap2\n              pop\n              pop\n              jump\t// out\n                /* \"#utility.yul\":442:532   */\n            tag_167:\n                /* \"#utility.yul\":476:483   */\n              0x00\n                /* \"#utility.yul\":519:524   */\n              dup2\n                /* \"#utility.yul\":512:525   */\n              iszero\n                /* \"#utility.yul\":505:526   */\n              iszero\n                /* \"#utility.yul\":494:526   */\n              swap1\n              pop\n                /* \"#utility.yul\":442:532   */\n              swap2\n              swap1\n              pop\n              jump\t// out\n                /* \"#utility.yul\":538:647   */\n            tag_168:\n                /* \"#utility.yul\":619:640   */\n              tag_225\n                /* \"#utility.yul\":634:639   */\n              dup2\n                /* \"#utility.yul\":619:640   */\n              tag_167\n              jump\t// in\n            tag_225:\n                /* \"#utility.yul\":614:617   */\n              dup3\n                /* \"#utility.yul\":607:641   */\n              mstore\n                /* \"#utility.yul\":538:647   */\n              pop\n              pop\n              jump\t// out\n                /* \"#utility.yul\":653:863   */\n            tag_23:\n                /* \"#utility.yul\":740:744   */\n              0x00\n                /* \"#utility.yul\":778:780   */\n              0x20\n                /* \"#utility.yul\":767:776   */\n              dup3\n                /* \"#utility.yul\":763:781   */\n              add\n                /* \"#utility.yul\":755:781   */\n              swap1\n              pop\n                /* \"#utility.yul\":791:856   */\n              tag_227\n                /* \"#utility.yul\":853:854   */\n              0x00\n                /* \"#utility.yul\":842:851   */\n              dup4\n                /* \"#utility.yul\":838:855   */\n              add\n                /* \"#utility.yul\":829:835   */\n              dup5\n                /* \"#utility.yul\":791:856   */\n              tag_168\n              jump\t// in\n            tag_227:\n                /* \"#utility.yul\":653:863   */\n              swap3\n              swap2\n              pop\n              pop\n              jump\t// out\n                /* \"#utility.yul\":869:995   */\n            tag_169:\n                /* \"#utility.yul\":906:913   */\n              0x00\n                /* \"#utility.yul\":946:988   */\n              0xffffffffffffffffffffffffffffffffffffffff\n                /* \"#utility.yul\":939:944   */\n              dup3\n                /* \"#utility.yul\":935:989   */\n              and\n                /* \"#utility.yul\":924:989   */\n              swap1\n              pop\n                /* \"#utility.yul\":869:995   */\n              swap2\n              swap1\n              pop\n              jump\t// out\n                /* \"#utility.yul\":1001:1097   */\n            tag_170:\n                /* \"#utility.yul\":1038:1045   */\n              0x00\n                /* \"#utility.yul\":1067:1091   */\n              tag_230\n                /* \"#utility.yul\":1085:1090   */\n              dup3\n                /* \"#utility.yul\":1067:1091   */\n              tag_169\n              jump\t// in\n            tag_230:\n                /* \"#utility.yul\":1056:1091   */\n              swap1\n              pop\n                /* \"#utility.yul\":1001:1097   */\n              swap2\n              swap1\n              pop\n              jump\t// out\n                /* \"#utility.yul\":1103:1221   */\n            tag_171:\n                /* \"#utility.yul\":1190:1214   */\n              tag_232\n                /* \"#utility.yul\":1208:1213   */\n              dup2\n                /* \"#utility.yul\":1190:1214   */\n              tag_170\n              jump\t// in\n            tag_232:\n                /* \"#utility.yul\":1185:1188   */\n              dup3\n                /* \"#utility.yul\":1178:1215   */\n              mstore\n                /* \"#utility.yul\":1103:1221   */\n              pop\n              pop\n              jump\t// out\n                /* \"#utility.yul\":1227:1449   */\n            tag_32:\n                /* \"#utility.yul\":1320:1324   */\n              0x00\n                /* \"#utility.yul\":1358:1360   */\n              0x20\n                /* \"#utility.yul\":1347:1356   */\n              dup3\n                /* \"#utility.yul\":1343:1361   */\n              add\n                /* \"#utility.yul\":1335:1361   */\n              swap1\n              pop\n                /* \"#utility.yul\":1371:1442   */\n              tag_234\n                /* \"#utility.yul\":1439:1440   */\n              0x00\n                /* \"#utility.yul\":1428:1437   */\n              dup4\n                /* \"#utility.yul\":1424:1441   */\n              add\n                /* \"#utility.yul\":1415:1421   */\n              dup5\n                /* \"#utility.yul\":1371:1442   */\n              tag_171\n              jump\t// in\n            tag_234:\n                /* \"#utility.yul\":1227:1449   */\n              swap3\n              swap2\n              pop\n              pop\n              jump\t// out\n                /* \"#utility.yul\":1536:1653   */\n            tag_173:\n                /* \"#utility.yul\":1645:1646   */\n              0x00\n                /* \"#utility.yul\":1642:1643   */\n              dup1\n                /* \"#utility.yul\":1635:1647   */\n              revert\n                /* \"#utility.yul\":1782:1859   */\n            tag_175:\n                /* \"#utility.yul\":1819:1826   */\n              0x00\n                /* \"#utility.yul\":1848:1853   */\n              dup2\n                /* \"#utility.yul\":1837:1853   */\n              swap1\n              pop\n                /* \"#utility.yul\":1782:1859   */\n              swap2\n              swap1\n              pop\n              jump\t// out\n                /* \"#utility.yul\":1865:1987   */\n            tag_176:\n                /* \"#utility.yul\":1938:1962   */\n              tag_240\n                /* \"#utility.yul\":1956:1961   */\n              dup2\n                /* \"#utility.yul\":1938:1962   */\n              tag_175\n              jump\t// in\n            tag_240:\n                /* \"#utility.yul\":1931:1936   */\n              dup2\n                /* \"#utility.yul\":1928:1963   */\n              eq\n                /* \"#utility.yul\":1918:1981   */\n              tag_241\n              jumpi\n                /* \"#utility.yul\":1977:1978   */\n              0x00\n                /* \"#utility.yul\":1974:1975   */\n              dup1\n                /* \"#utility.yul\":1967:1979   */\n              revert\n                /* \"#utility.yul\":1918:1981   */\n            tag_241:\n                /* \"#utility.yul\":1865:1987   */\n              pop\n              jump\t// out\n                /* \"#utility.yul\":1993:2132   */\n            tag_177:\n                /* \"#utility.yul\":2039:2044   */\n              0x00\n                /* \"#utility.yul\":2077:2083   */\n              dup2\n                /* \"#utility.yul\":2064:2084   */\n              calldataload\n                /* \"#utility.yul\":2055:2084   */\n              swap1\n              pop\n                /* \"#utility.yul\":2093:2126   */\n              tag_243\n                /* \"#utility.yul\":2120:2125   */\n              dup2\n                /* \"#utility.yul\":2093:2126   */\n              tag_176\n              jump\t// in\n            tag_243:\n                /* \"#utility.yul\":1993:2132   */\n              swap3\n              swap2\n              pop\n              pop\n              jump\t// out\n                /* \"#utility.yul\":2138:2260   */\n            tag_178:\n                /* \"#utility.yul\":2211:2235   */\n              tag_245\n                /* \"#utility.yul\":2229:2234   */\n              dup2\n                /* \"#utility.yul\":2211:2235   */\n              tag_165\n              jump\t// in\n            tag_245:\n                /* \"#utility.yul\":2204:2209   */\n              dup2\n                /* \"#utility.yul\":2201:2236   */\n              eq\n                /* \"#utility.yul\":2191:2254   */\n              tag_246\n              jumpi\n                /* \"#utility.yul\":2250:2251   */\n              0x00\n                /* \"#utility.yul\":2247:2248   */\n              dup1\n                /* \"#utility.yul\":2240:2252   */\n              revert\n                /* \"#utility.yul\":2191:2254   */\n            tag_246:\n                /* \"#utility.yul\":2138:2260   */\n              pop\n              jump\t// out\n                /* \"#utility.yul\":2266:2405   */\n            tag_179:\n                /* \"#utility.yul\":2312:2317   */\n              0x00\n                /* \"#utility.yul\":2350:2356   */\n              dup2\n                /* \"#utility.yul\":2337:2357   */\n              calldataload\n                /* \"#utility.yul\":2328:2357   */\n              swap1\n              pop\n                /* \"#utility.yul\":2366:2399   */\n              tag_248\n                /* \"#utility.yul\":2393:2398   */\n              dup2\n                /* \"#utility.yul\":2366:2399   */\n              tag_178\n              jump\t// in\n            tag_248:\n                /* \"#utility.yul\":2266:2405   */\n              swap3\n              swap2\n              pop\n              pop\n              jump\t// out\n                /* \"#utility.yul\":2411:2885   */\n            tag_35:\n                /* \"#utility.yul\":2479:2485   */\n              0x00\n                /* \"#utility.yul\":2487:2493   */\n              dup1\n                /* \"#utility.yul\":2536:2538   */\n              0x40\n                /* \"#utility.yul\":2524:2533   */\n              dup4\n                /* \"#utility.yul\":2515:2522   */\n              dup6\n                /* \"#utility.yul\":2511:2534   */\n              sub\n                /* \"#utility.yul\":2507:2539   */\n              slt\n                /* \"#utility.yul\":2504:2623   */\n              iszero\n              tag_250\n              jumpi\n                /* \"#utility.yul\":2542:2621   */\n              tag_251\n              tag_173\n              jump\t// in\n            tag_251:\n                /* \"#utility.yul\":2504:2623   */\n            tag_250:\n                /* \"#utility.yul\":2662:2663   */\n              0x00\n                /* \"#utility.yul\":2687:2740   */\n              tag_252\n                /* \"#utility.yul\":2732:2739   */\n              dup6\n                /* \"#utility.yul\":2723:2729   */\n              dup3\n                /* \"#utility.yul\":2712:2721   */\n              dup7\n                /* \"#utility.yul\":2708:2730   */\n              add\n                /* \"#utility.yul\":2687:2740   */\n              tag_177\n              jump\t// in\n            tag_252:\n                /* \"#utility.yul\":2677:2740   */\n              swap3\n              pop\n                /* \"#utility.yul\":2633:2750   */\n              pop\n                /* \"#utility.yul\":2789:2791   */\n              0x20\n                /* \"#utility.yul\":2815:2868   */\n              tag_253\n                /* \"#utility.yul\":2860:2867   */\n              dup6\n                /* \"#utility.yul\":2851:2857   */\n              dup3\n                /* \"#utility.yul\":2840:2849   */\n              dup7\n                /* \"#utility.yul\":2836:2858   */\n              add\n                /* \"#utility.yul\":2815:2868   */\n              tag_179\n              jump\t// in\n            tag_253:\n                /* \"#utility.yul\":2805:2868   */\n              swap2\n              pop\n                /* \"#utility.yul\":2760:2878   */\n              pop\n                /* \"#utility.yul\":2411:2885   */\n              swap3\n              pop\n              swap3\n              swap1\n              pop\n              jump\t// out\n                /* \"#utility.yul\":2891:2977   */\n            tag_180:\n                /* \"#utility.yul\":2926:2933   */\n              0x00\n                /* \"#utility.yul\":2966:2970   */\n              0xff\n                /* \"#utility.yul\":2959:2964   */\n              dup3\n                /* \"#utility.yul\":2955:2971   */\n              and\n                /* \"#utility.yul\":2944:2971   */\n              swap1\n              pop\n                /* \"#utility.yul\":2891:2977   */\n              swap2\n              swap1\n              pop\n              jump\t// out\n                /* \"#utility.yul\":2983:3095   */\n            tag_181:\n                /* \"#utility.yul\":3066:3088   */\n              tag_256\n                /* \"#utility.yul\":3082:3087   */\n              dup2\n                /* \"#utility.yul\":3066:3088   */\n              tag_180\n              jump\t// in\n            tag_256:\n                /* \"#utility.yul\":3061:3064   */\n              dup3\n                /* \"#utility.yul\":3054:3089   */\n              mstore\n                /* \"#utility.yul\":2983:3095   */\n              pop\n              pop\n              jump\t// out\n                /* \"#utility.yul\":3101:3315   */\n            tag_40:\n                /* \"#utility.yul\":3190:3194   */\n              0x00\n                /* \"#utility.yul\":3228:3230   */\n              0x20\n                /* \"#utility.yul\":3217:3226   */\n              dup3\n                /* \"#utility.yul\":3213:3231   */\n              add\n                /* \"#utility.yul\":3205:3231   */\n              swap1\n              pop\n                /* \"#utility.yul\":3241:3308   */\n              tag_258\n                /* \"#utility.yul\":3305:3306   */\n              0x00\n                /* \"#utility.yul\":3294:3303   */\n              dup4\n                /* \"#utility.yul\":3290:3307   */\n              add\n                /* \"#utility.yul\":3281:3287   */\n              dup5\n                /* \"#utility.yul\":3241:3308   */\n              tag_181\n              jump\t// in\n            tag_258:\n                /* \"#utility.yul\":3101:3315   */\n              swap3\n              swap2\n              pop\n              pop\n              jump\t// out\n                /* \"#utility.yul\":3321:3443   */\n            tag_182:\n                /* \"#utility.yul\":3394:3418   */\n              tag_260\n                /* \"#utility.yul\":3412:3417   */\n              dup2\n                /* \"#utility.yul\":3394:3418   */\n              tag_170\n              jump\t// in\n            tag_260:\n                /* \"#utility.yul\":3387:3392   */\n              dup2\n                /* \"#utility.yul\":3384:3419   */\n              eq\n                /* \"#utility.yul\":3374:3437   */\n              tag_261\n              jumpi\n                /* \"#utility.yul\":3433:3434   */\n              0x00\n                /* \"#utility.yul\":3430:3431   */\n              dup1\n                /* \"#utility.yul\":3423:3435   */\n              revert\n                /* \"#utility.yul\":3374:3437   */\n            tag_261:\n                /* \"#utility.yul\":3321:3443   */\n              pop\n              jump\t// out\n                /* \"#utility.yul\":3449:3588   */\n            tag_183:\n                /* \"#utility.yul\":3495:3500   */\n              0x00\n                /* \"#utility.yul\":3533:3539   */\n              dup2\n                /* \"#utility.yul\":3520:3540   */\n              calldataload\n                /* \"#utility.yul\":3511:3540   */\n              swap1\n              pop\n                /* \"#utility.yul\":3549:3582   */\n              tag_263\n                /* \"#utility.yul\":3576:3581   */\n              dup2\n                /* \"#utility.yul\":3549:3582   */\n              tag_182\n              jump\t// in\n            tag_263:\n                /* \"#utility.yul\":3449:3588   */\n              swap3\n              swap2\n              pop\n              pop\n              jump\t// out\n                /* \"#utility.yul\":3594:3923   */\n            tag_48:\n                /* \"#utility.yul\":3653:3659   */\n              0x00\n                /* \"#utility.yul\":3702:3704   */\n              0x20\n                /* \"#utility.yul\":3690:3699   */\n              dup3\n                /* \"#utility.yul\":3681:3688   */\n              dup5\n                /* \"#utility.yul\":3677:3700   */\n              sub\n                /* \"#utility.yul\":3673:3705   */\n              slt\n                /* \"#utility.yul\":3670:3789   */\n              iszero\n              tag_265\n              jumpi\n                /* \"#utility.yul\":3708:3787   */\n              tag_266\n              tag_173\n              jump\t// in\n            tag_266:\n                /* \"#utility.yul\":3670:3789   */\n            tag_265:\n                /* \"#utility.yul\":3828:3829   */\n              0x00\n                /* \"#utility.yul\":3853:3906   */\n              tag_267\n                /* \"#utility.yul\":3898:3905   */\n              dup5\n                /* \"#utility.yul\":3889:3895   */\n              dup3\n                /* \"#utility.yul\":3878:3887   */\n              dup6\n                /* \"#utility.yul\":3874:3896   */\n              add\n                /* \"#utility.yul\":3853:3906   */\n              tag_183\n              jump\t// in\n            tag_267:\n                /* \"#utility.yul\":3843:3906   */\n              swap2\n              pop\n                /* \"#utility.yul\":3799:3916   */\n              pop\n                /* \"#utility.yul\":3594:3923   */\n              swap3\n              swap2\n              pop\n              pop\n              jump\t// out\n                /* \"#utility.yul\":3929:4258   */\n            tag_52:\n                /* \"#utility.yul\":3988:3994   */\n              0x00\n                /* \"#utility.yul\":4037:4039   */\n              0x20\n                /* \"#utility.yul\":4025:4034   */\n              dup3\n                /* \"#utility.yul\":4016:4023   */\n              dup5\n                /* \"#utility.yul\":4012:4035   */\n              sub\n                /* \"#utility.yul\":4008:4040   */\n              slt\n                /* \"#utility.yul\":4005:4124   */\n              iszero\n              tag_269\n              jumpi\n                /* \"#utility.yul\":4043:4122   */\n              tag_270\n              tag_173\n              jump\t// in\n            tag_270:\n                /* \"#utility.yul\":4005:4124   */\n            tag_269:\n                /* \"#utility.yul\":4163:4164   */\n              0x00\n                /* \"#utility.yul\":4188:4241   */\n              tag_271\n                /* \"#utility.yul\":4233:4240   */\n              dup5\n                /* \"#utility.yul\":4224:4230   */\n              dup3\n                /* \"#utility.yul\":4213:4222   */\n              dup6\n                /* \"#utility.yul\":4209:4231   */\n              add\n                /* \"#utility.yul\":4188:4241   */\n              tag_179\n              jump\t// in\n            tag_271:\n                /* \"#utility.yul\":4178:4241   */\n              swap2\n              pop\n                /* \"#utility.yul\":4134:4251   */\n              pop\n                /* \"#utility.yul\":3929:4258   */\n              swap3\n              swap2\n              pop\n              pop\n              jump\t// out\n                /* \"#utility.yul\":4264:4324   */\n            tag_184:\n                /* \"#utility.yul\":4292:4295   */\n              0x00\n                /* \"#utility.yul\":4313:4318   */\n              dup2\n                /* \"#utility.yul\":4306:4318   */\n              swap1\n              pop\n                /* \"#utility.yul\":4264:4324   */\n              swap2\n              swap1\n              pop\n              jump\t// out\n                /* \"#utility.yul\":4330:4472   */\n            tag_185:\n                /* \"#utility.yul\":4380:4389   */\n              0x00\n                /* \"#utility.yul\":4413:4466   */\n              tag_274\n                /* \"#utility.yul\":4431:4465   */\n              tag_275\n                /* \"#utility.yul\":4440:4464   */\n              tag_276\n                /* \"#utility.yul\":4458:4463   */\n              dup5\n                /* \"#utility.yul\":4440:4464   */\n              tag_169\n              jump\t// in\n            tag_276:\n                /* \"#utility.yul\":4431:4465   */\n              tag_184\n              jump\t// in\n            tag_275:\n                /* \"#utility.yul\":4413:4466   */\n              tag_169\n              jump\t// in\n            tag_274:\n                /* \"#utility.yul\":4400:4466   */\n              swap1\n              pop\n                /* \"#utility.yul\":4330:4472   */\n              swap2\n              swap1\n              pop\n              jump\t// out\n                /* \"#utility.yul\":4478:4604   */\n            tag_186:\n                /* \"#utility.yul\":4528:4537   */\n              0x00\n                /* \"#utility.yul\":4561:4598   */\n              tag_278\n                /* \"#utility.yul\":4592:4597   */\n              dup3\n                /* \"#utility.yul\":4561:4598   */\n              tag_185\n              jump\t// in\n            tag_278:\n                /* \"#utility.yul\":4548:4598   */\n              swap1\n              pop\n                /* \"#utility.yul\":4478:4604   */\n              swap2\n              swap1\n              pop\n              jump\t// out\n                /* \"#utility.yul\":4610:4750   */\n            tag_187:\n                /* \"#utility.yul\":4674:4683   */\n              0x00\n                /* \"#utility.yul\":4707:4744   */\n              tag_280\n                /* \"#utility.yul\":4738:4743   */\n              dup3\n                /* \"#utility.yul\":4707:4744   */\n              tag_186\n              jump\t// in\n            tag_280:\n                /* \"#utility.yul\":4694:4744   */\n              swap1\n              pop\n                /* \"#utility.yul\":4610:4750   */\n              swap2\n              swap1\n              pop\n              jump\t// out\n                /* \"#utility.yul\":4756:4915   */\n            tag_188:\n                /* \"#utility.yul\":4857:4908   */\n              tag_282\n                /* \"#utility.yul\":4902:4907   */\n              dup2\n                /* \"#utility.yul\":4857:4908   */\n              tag_187\n              jump\t// in\n            tag_282:\n                /* \"#utility.yul\":4852:4855   */\n              dup3\n                /* \"#utility.yul\":4845:4909   */\n              mstore\n                /* \"#utility.yul\":4756:4915   */\n              pop\n              pop\n              jump\t// out\n                /* \"#utility.yul\":4921:5171   */\n            tag_58:\n                /* \"#utility.yul\":5028:5032   */\n              0x00\n                /* \"#utility.yul\":5066:5068   */\n              0x20\n                /* \"#utility.yul\":5055:5064   */\n              dup3\n                /* \"#utility.yul\":5051:5069   */\n              add\n                /* \"#utility.yul\":5043:5069   */\n              swap1\n              pop\n                /* \"#utility.yul\":5079:5164   */\n              tag_284\n                /* \"#utility.yul\":5161:5162   */\n              0x00\n                /* \"#utility.yul\":5150:5159   */\n              dup4\n                /* \"#utility.yul\":5146:5163   */\n              add\n                /* \"#utility.yul\":5137:5143   */\n              dup5\n                /* \"#utility.yul\":5079:5164   */\n              tag_188\n              jump\t// in\n            tag_284:\n                /* \"#utility.yul\":4921:5171   */\n              swap3\n              swap2\n              pop\n              pop\n              jump\t// out\n                /* \"#utility.yul\":5177:5346   */\n            tag_189:\n                /* \"#utility.yul\":5261:5272   */\n              0x00\n                /* \"#utility.yul\":5295:5301   */\n              dup3\n                /* \"#utility.yul\":5290:5293   */\n              dup3\n                /* \"#utility.yul\":5283:5302   */\n              mstore\n                /* \"#utility.yul\":5335:5339   */\n              0x20\n                /* \"#utility.yul\":5330:5333   */\n              dup3\n                /* \"#utility.yul\":5326:5340   */\n              add\n                /* \"#utility.yul\":5311:5340   */\n              swap1\n              pop\n                /* \"#utility.yul\":5177:5346   */\n              swap3\n              swap2\n              pop\n              pop\n              jump\t// out\n                /* \"#utility.yul\":5352:5533   */\n            tag_190:\n                /* \"#utility.yul\":5492:5525   */\n              0x4f6e6c7920565246436f6f7264696e61746f722063616e2066756c66696c6c00\n                /* \"#utility.yul\":5488:5489   */\n              0x00\n                /* \"#utility.yul\":5480:5486   */\n              dup3\n                /* \"#utility.yul\":5476:5490   */\n              add\n                /* \"#utility.yul\":5469:5526   */\n              mstore\n                /* \"#utility.yul\":5352:5533   */\n              pop\n              jump\t// out\n                /* \"#utility.yul\":5539:5905   */\n            tag_191:\n                /* \"#utility.yul\":5681:5684   */\n              0x00\n                /* \"#utility.yul\":5702:5769   */\n              tag_288\n                /* \"#utility.yul\":5766:5768   */\n              0x1f\n                /* \"#utility.yul\":5761:5764   */\n              dup4\n                /* \"#utility.yul\":5702:5769   */\n              tag_189\n              jump\t// in\n            tag_288:\n                /* \"#utility.yul\":5695:5769   */\n              swap2\n              pop\n                /* \"#utility.yul\":5778:5871   */\n              tag_289\n                /* \"#utility.yul\":5867:5870   */\n              dup3\n                /* \"#utility.yul\":5778:5871   */\n              tag_190\n              jump\t// in\n            tag_289:\n                /* \"#utility.yul\":5896:5898   */\n              0x20\n                /* \"#utility.yul\":5891:5894   */\n              dup3\n                /* \"#utility.yul\":5887:5899   */\n              add\n                /* \"#utility.yul\":5880:5899   */\n              swap1\n              pop\n                /* \"#utility.yul\":5539:5905   */\n              swap2\n              swap1\n              pop\n              jump\t// out\n                /* \"#utility.yul\":5911:6330   */\n            tag_69:\n                /* \"#utility.yul\":6077:6081   */\n              0x00\n                /* \"#utility.yul\":6115:6117   */\n              0x20\n                /* \"#utility.yul\":6104:6113   */\n              dup3\n                /* \"#utility.yul\":6100:6118   */\n              add\n                /* \"#utility.yul\":6092:6118   */\n              swap1\n              pop\n                /* \"#utility.yul\":6164:6173   */\n              dup2\n                /* \"#utility.yul\":6158:6162   */\n              dup2\n                /* \"#utility.yul\":6154:6174   */\n              sub\n                /* \"#utility.yul\":6150:6151   */\n              0x00\n                /* \"#utility.yul\":6139:6148   */\n              dup4\n                /* \"#utility.yul\":6135:6152   */\n              add\n                /* \"#utility.yul\":6128:6175   */\n              mstore\n                /* \"#utility.yul\":6192:6323   */\n              tag_291\n                /* \"#utility.yul\":6318:6322   */\n              dup2\n                /* \"#utility.yul\":6192:6323   */\n              tag_191\n              jump\t// in\n            tag_291:\n                /* \"#utility.yul\":6184:6323   */\n              swap1\n              pop\n                /* \"#utility.yul\":5911:6330   */\n              swap2\n              swap1\n              pop\n              jump\t// out\n                /* \"#utility.yul\":6336:6495   */\n            tag_192:\n                /* \"#utility.yul\":6476:6487   */\n              0x47616d652066756c6c0000000000000000000000000000000000000000000000\n                /* \"#utility.yul\":6472:6473   */\n              0x00\n                /* \"#utility.yul\":6464:6470   */\n              dup3\n                /* \"#utility.yul\":6460:6474   */\n              add\n                /* \"#utility.yul\":6453:6488   */\n              mstore\n                /* \"#utility.yul\":6336:6495   */\n              pop\n              jump\t// out\n                /* \"#utility.yul\":6501:6866   */\n            tag_193:\n                /* \"#utility.yul\":6643:6646   */\n              0x00\n                /* \"#utility.yul\":6664:6730   */\n              tag_294\n                /* \"#utility.yul\":6728:6729   */\n              0x09\n                /* \"#utility.yul\":6723:6726   */\n              dup4\n                /* \"#utility.yul\":6664:6730   */\n              tag_189\n              jump\t// in\n            tag_294:\n                /* \"#utility.yul\":6657:6730   */\n              swap2\n              pop\n                /* \"#utility.yul\":6739:6832   */\n              tag_295\n                /* \"#utility.yul\":6828:6831   */\n              dup3\n                /* \"#utility.yul\":6739:6832   */\n              tag_192\n              jump\t// in\n            tag_295:\n                /* \"#utility.yul\":6857:6859   */\n              0x20\n                /* \"#utility.yul\":6852:6855   */\n              dup3\n                /* \"#utility.yul\":6848:6860   */\n              add\n                /* \"#utility.yul\":6841:6860   */\n              swap1\n              pop\n                /* \"#utility.yul\":6501:6866   */\n              swap2\n              swap1\n              pop\n              jump\t// out\n                /* \"#utility.yul\":6872:7291   */\n            tag_75:\n                /* \"#utility.yul\":7038:7042   */\n              0x00\n                /* \"#utility.yul\":7076:7078   */\n              0x20\n                /* \"#utility.yul\":7065:7074   */\n              dup3\n                /* \"#utility.yul\":7061:7079   */\n              add\n                /* \"#utility.yul\":7053:7079   */\n              swap1\n              pop\n                /* \"#utility.yul\":7125:7134   */\n              dup2\n                /* \"#utility.yul\":7119:7123   */\n              dup2\n                /* \"#utility.yul\":7115:7135   */\n              sub\n                /* \"#utility.yul\":7111:7112   */\n              0x00\n                /* \"#utility.yul\":7100:7109   */\n              dup4\n                /* \"#utility.yul\":7096:7113   */\n              add\n                /* \"#utility.yul\":7089:7136   */\n              mstore\n                /* \"#utility.yul\":7153:7284   */\n              tag_297\n                /* \"#utility.yul\":7279:7283   */\n              dup2\n                /* \"#utility.yul\":7153:7284   */\n              tag_193\n              jump\t// in\n            tag_297:\n                /* \"#utility.yul\":7145:7284   */\n              swap1\n              pop\n                /* \"#utility.yul\":6872:7291   */\n              swap2\n              swap1\n              pop\n              jump\t// out\n                /* \"#utility.yul\":7297:7739   */\n            tag_77:\n                /* \"#utility.yul\":7446:7450   */\n              0x00\n                /* \"#utility.yul\":7484:7486   */\n              0x60\n                /* \"#utility.yul\":7473:7482   */\n              dup3\n                /* \"#utility.yul\":7469:7487   */\n              add\n                /* \"#utility.yul\":7461:7487   */\n              swap1\n              pop\n                /* \"#utility.yul\":7497:7568   */\n              tag_299\n                /* \"#utility.yul\":7565:7566   */\n              0x00\n                /* \"#utility.yul\":7554:7563   */\n              dup4\n                /* \"#utility.yul\":7550:7567   */\n              add\n                /* \"#utility.yul\":7541:7547   */\n              dup7\n                /* \"#utility.yul\":7497:7568   */\n              tag_171\n              jump\t// in\n            tag_299:\n                /* \"#utility.yul\":7578:7650   */\n              tag_300\n                /* \"#utility.yul\":7646:7648   */\n              0x20\n                /* \"#utility.yul\":7635:7644   */\n              dup4\n                /* \"#utility.yul\":7631:7649   */\n              add\n                /* \"#utility.yul\":7622:7628   */\n              dup6\n                /* \"#utility.yul\":7578:7650   */\n              tag_171\n              jump\t// in\n            tag_300:\n                /* \"#utility.yul\":7660:7732   */\n              tag_301\n                /* \"#utility.yul\":7728:7730   */\n              0x40\n                /* \"#utility.yul\":7717:7726   */\n              dup4\n                /* \"#utility.yul\":7713:7731   */\n              add\n                /* \"#utility.yul\":7704:7710   */\n              dup5\n                /* \"#utility.yul\":7660:7732   */\n              tag_166\n              jump\t// in\n            tag_301:\n                /* \"#utility.yul\":7297:7739   */\n              swap5\n              swap4\n              pop\n              pop\n              pop\n              pop\n              jump\t// out\n                /* \"#utility.yul\":7745:7861   */\n            tag_194:\n                /* \"#utility.yul\":7815:7836   */\n              tag_303\n                /* \"#utility.yul\":7830:7835   */\n              dup2\n                /* \"#utility.yul\":7815:7836   */\n              tag_167\n              jump\t// in\n            tag_303:\n                /* \"#utility.yul\":7808:7813   */\n              dup2\n                /* \"#utility.yul\":7805:7837   */\n              eq\n                /* \"#utility.yul\":7795:7855   */\n              tag_304\n              jumpi\n                /* \"#utility.yul\":7851:7852   */\n              0x00\n                /* \"#utility.yul\":7848:7849   */\n              dup1\n                /* \"#utility.yul\":7841:7853   */\n              revert\n                /* \"#utility.yul\":7795:7855   */\n            tag_304:\n                /* \"#utility.yul\":7745:7861   */\n              pop\n              jump\t// out\n                /* \"#utility.yul\":7867:8004   */\n            tag_195:\n                /* \"#utility.yul\":7921:7926   */\n              0x00\n                /* \"#utility.yul\":7952:7958   */\n              dup2\n                /* \"#utility.yul\":7946:7959   */\n              mload\n                /* \"#utility.yul\":7937:7959   */\n              swap1\n              pop\n                /* \"#utility.yul\":7968:7998   */\n              tag_306\n                /* \"#utility.yul\":7992:7997   */\n              dup2\n                /* \"#utility.yul\":7968:7998   */\n              tag_194\n              jump\t// in\n            tag_306:\n                /* \"#utility.yul\":7867:8004   */\n              swap3\n              swap2\n              pop\n              pop\n              jump\t// out\n                /* \"#utility.yul\":8010:8355   */\n            tag_81:\n                /* \"#utility.yul\":8077:8083   */\n              0x00\n                /* \"#utility.yul\":8126:8128   */\n              0x20\n                /* \"#utility.yul\":8114:8123   */\n              dup3\n                /* \"#utility.yul\":8105:8112   */\n              dup5\n                /* \"#utility.yul\":8101:8124   */\n              sub\n                /* \"#utility.yul\":8097:8129   */\n              slt\n                /* \"#utility.yul\":8094:8213   */\n              iszero\n              tag_308\n              jumpi\n                /* \"#utility.yul\":8132:8211   */\n              tag_309\n              tag_173\n              jump\t// in\n            tag_309:\n                /* \"#utility.yul\":8094:8213   */\n            tag_308:\n                /* \"#utility.yul\":8252:8253   */\n              0x00\n                /* \"#utility.yul\":8277:8338   */\n              tag_310\n                /* \"#utility.yul\":8330:8337   */\n              dup5\n                /* \"#utility.yul\":8321:8327   */\n              dup3\n                /* \"#utility.yul\":8310:8319   */\n              dup6\n                /* \"#utility.yul\":8306:8328   */\n              add\n                /* \"#utility.yul\":8277:8338   */\n              tag_195\n              jump\t// in\n            tag_310:\n                /* \"#utility.yul\":8267:8338   */\n              swap2\n              pop\n                /* \"#utility.yul\":8223:8348   */\n              pop\n                /* \"#utility.yul\":8010:8355   */\n              swap3\n              swap2\n              pop\n              pop\n              jump\t// out\n                /* \"#utility.yul\":8361:8532   */\n            tag_196:\n                /* \"#utility.yul\":8501:8524   */\n              0x5374616b65207472616e73666572206661696c65640000000000000000000000\n                /* \"#utility.yul\":8497:8498   */\n              0x00\n                /* \"#utility.yul\":8489:8495   */\n              dup3\n                /* \"#utility.yul\":8485:8499   */\n              add\n                /* \"#utility.yul\":8478:8525   */\n              mstore\n                /* \"#utility.yul\":8361:8532   */\n              pop\n              jump\t// out\n                /* \"#utility.yul\":8538:8904   */\n            tag_197:\n                /* \"#utility.yul\":8680:8683   */\n              0x00\n                /* \"#utility.yul\":8701:8768   */\n              tag_313\n                /* \"#utility.yul\":8765:8767   */\n              0x15\n                /* \"#utility.yul\":8760:8763   */\n              dup4\n                /* \"#utility.yul\":8701:8768   */\n              tag_189\n              jump\t// in\n            tag_313:\n                /* \"#utility.yul\":8694:8768   */\n              swap2\n              pop\n                /* \"#utility.yul\":8777:8870   */\n              tag_314\n                /* \"#utility.yul\":8866:8869   */\n              dup3\n                /* \"#utility.yul\":8777:8870   */\n              tag_196\n              jump\t// in\n            tag_314:\n                /* \"#utility.yul\":8895:8897   */\n              0x20\n                /* \"#utility.yul\":8890:8893   */\n              dup3\n                /* \"#utility.yul\":8886:8898   */\n              add\n                /* \"#utility.yul\":8879:8898   */\n              swap1\n              pop\n                /* \"#utility.yul\":8538:8904   */\n              swap2\n              swap1\n              pop\n              jump\t// out\n                /* \"#utility.yul\":8910:9329   */\n            tag_84:\n                /* \"#utility.yul\":9076:9080   */\n              0x00\n                /* \"#utility.yul\":9114:9116   */\n              0x20\n                /* \"#utility.yul\":9103:9112   */\n              dup3\n                /* \"#utility.yul\":9099:9117   */\n              add\n                /* \"#utility.yul\":9091:9117   */\n              swap1\n              pop\n                /* \"#utility.yul\":9163:9172   */\n              dup2\n                /* \"#utility.yul\":9157:9161   */\n              dup2\n                /* \"#utility.yul\":9153:9173   */\n              sub\n                /* \"#utility.yul\":9149:9150   */\n              0x00\n                /* \"#utility.yul\":9138:9147   */\n              dup4\n                /* \"#utility.yul\":9134:9151   */\n              add\n                /* \"#utility.yul\":9127:9174   */\n              mstore\n                /* \"#utility.yul\":9191:9322   */\n              tag_316\n                /* \"#utility.yul\":9317:9321   */\n              dup2\n                /* \"#utility.yul\":9191:9322   */\n              tag_197\n              jump\t// in\n            tag_316:\n                /* \"#utility.yul\":9183:9322   */\n              swap1\n              pop\n                /* \"#utility.yul\":8910:9329   */\n              swap2\n              swap1\n              pop\n              jump\t// out\n                /* \"#utility.yul\":9335:9515   */\n            tag_87:\n                /* \"#utility.yul\":9383:9460   */\n              0x4e487b7100000000000000000000000000000000000000000000000000000000\n                /* \"#utility.yul\":9380:9381   */\n              0x00\n                /* \"#utility.yul\":9373:9461   */\n              mstore\n                /* \"#utility.yul\":9480:9484   */\n              0x32\n                /* \"#utility.yul\":9477:9478   */\n              0x04\n                /* \"#utility.yul\":9470:9485   */\n              mstore\n                /* \"#utility.yul\":9504:9508   */\n              0x24\n                /* \"#utility.yul\":9501:9502   */\n              0x00\n                /* \"#utility.yul\":9494:9509   */\n              revert\n                /* \"#utility.yul\":9521:9701   */\n            tag_198:\n                /* \"#utility.yul\":9569:9646   */\n              0x4e487b7100000000000000000000000000000000000000000000000000000000\n                /* \"#utility.yul\":9566:9567   */\n              0x00\n                /* \"#utility.yul\":9559:9647   */\n              mstore\n                /* \"#utility.yul\":9666:9670   */\n              0x11\n                /* \"#utility.yul\":9663:9664   */\n              0x04\n                /* \"#utility.yul\":9656:9671   */\n              mstore\n                /* \"#utility.yul\":9690:9694   */\n              0x24\n                /* \"#utility.yul\":9687:9688   */\n              0x00\n                /* \"#utility.yul\":9680:9695   */\n              revert\n                /* \"#utility.yul\":9707:9874   */\n            tag_90:\n                /* \"#utility.yul\":9744:9747   */\n              0x00\n                /* \"#utility.yul\":9767:9789   */\n              tag_320\n                /* \"#utility.yul\":9783:9788   */\n              dup3\n                /* \"#utility.yul\":9767:9789   */\n              tag_180\n              jump\t// in\n            tag_320:\n                /* \"#utility.yul\":9758:9789   */\n              swap2\n              pop\n                /* \"#utility.yul\":9811:9815   */\n              0xff\n                /* \"#utility.yul\":9804:9809   */\n              dup3\n                /* \"#utility.yul\":9801:9816   */\n              sub\n                /* \"#utility.yul\":9798:9839   */\n              tag_321\n              jumpi\n                /* \"#utility.yul\":9819:9837   */\n              tag_322\n              tag_198\n              jump\t// in\n            tag_322:\n                /* \"#utility.yul\":9798:9839   */\n            tag_321:\n                /* \"#utility.yul\":9866:9867   */\n              0x01\n                /* \"#utility.yul\":9859:9864   */\n              dup3\n                /* \"#utility.yul\":9855:9868   */\n              add\n                /* \"#utility.yul\":9848:9868   */\n              swap1\n              pop\n                /* \"#utility.yul\":9707:9874   */\n              swap2\n              swap1\n              pop\n              jump\t// out\n                /* \"#utility.yul\":9880:10046   */\n            tag_199:\n                /* \"#utility.yul\":10020:10038   */\n              0x416c7265616479207265736f6c76656400000000000000000000000000000000\n                /* \"#utility.yul\":10016:10017   */\n              0x00\n                /* \"#utility.yul\":10008:10014   */\n              dup3\n                /* \"#utility.yul\":10004:10018   */\n              add\n                /* \"#utility.yul\":9997:10039   */\n              mstore\n                /* \"#utility.yul\":9880:10046   */\n              pop\n              jump\t// out\n                /* \"#utility.yul\":10052:10418   */\n            tag_200:\n                /* \"#utility.yul\":10194:10197   */\n              0x00\n                /* \"#utility.yul\":10215:10282   */\n              tag_325\n                /* \"#utility.yul\":10279:10281   */\n              0x10\n                /* \"#utility.yul\":10274:10277   */\n              dup4\n                /* \"#utility.yul\":10215:10282   */\n              tag_189\n              jump\t// in\n            tag_325:\n                /* \"#utility.yul\":10208:10282   */\n              swap2\n              pop\n                /* \"#utility.yul\":10291:10384   */\n              tag_326\n                /* \"#utility.yul\":10380:10383   */\n              dup3\n                /* \"#utility.yul\":10291:10384   */\n              tag_199\n              jump\t// in\n            tag_326:\n                /* \"#utility.yul\":10409:10411   */\n              0x20\n                /* \"#utility.yul\":10404:10407   */\n              dup3\n                /* \"#utility.yul\":10400:10412   */\n              add\n                /* \"#utility.yul\":10393:10412   */\n              swap1\n              pop\n                /* \"#utility.yul\":10052:10418   */\n              swap2\n              swap1\n              pop\n              jump\t// out\n                /* \"#utility.yul\":10424:10843   */\n            tag_114:\n                /* \"#utility.yul\":10590:10594   */\n              0x00\n                /* \"#utility.yul\":10628:10630   */\n              0x20\n                /* \"#utility.yul\":10617:10626   */\n              dup3\n                /* \"#utility.yul\":10613:10631   */\n              add\n                /* \"#utility.yul\":10605:10631   */\n              swap1\n              pop\n                /* \"#utility.yul\":10677:10686   */\n              dup2\n                /* \"#utility.yul\":10671:10675   */\n              dup2\n                /* \"#utility.yul\":10667:10687   */\n              sub\n                /* \"#utility.yul\":10663:10664   */\n              0x00\n                /* \"#utility.yul\":10652:10661   */\n              dup4\n                /* \"#utility.yul\":10648:10665   */\n              add\n                /* \"#utility.yul\":10641:10688   */\n              mstore\n                /* \"#utility.yul\":10705:10836   */\n              tag_328\n                /* \"#utility.yul\":10831:10835   */\n              dup2\n                /* \"#utility.yul\":10705:10836   */\n              tag_200\n              jump\t// in\n            tag_328:\n                /* \"#utility.yul\":10697:10836   */\n              swap1\n              pop\n                /* \"#utility.yul\":10424:10843   */\n              swap2\n              swap1\n              pop\n              jump\t// out\n                /* \"#utility.yul\":10849:11029   */\n            tag_201:\n                /* \"#utility.yul\":10897:10974   */\n              0x4e487b7100000000000000000000000000000000000000000000000000000000\n                /* \"#utility.yul\":10894:10895   */\n              0x00\n                /* \"#utility.yul\":10887:10975   */\n              mstore\n                /* \"#utility.yul\":10994:10998   */\n              0x12\n                /* \"#utility.yul\":10991:10992   */\n              0x04\n                /* \"#utility.yul\":10984:10999   */\n              mstore\n                /* \"#utility.yul\":11018:11022   */\n              0x24\n                /* \"#utility.yul\":11015:11016   */\n              0x00\n                /* \"#utility.yul\":11008:11023   */\n              revert\n                /* \"#utility.yul\":11035:11211   */\n            tag_116:\n                /* \"#utility.yul\":11067:11068   */\n              0x00\n                /* \"#utility.yul\":11084:11104   */\n              tag_331\n                /* \"#utility.yul\":11102:11103   */\n              dup3\n                /* \"#utility.yul\":11084:11104   */\n              tag_165\n              jump\t// in\n            tag_331:\n                /* \"#utility.yul\":11079:11104   */\n              swap2\n              pop\n                /* \"#utility.yul\":11118:11138   */\n              tag_332\n                /* \"#utility.yul\":11136:11137   */\n              dup4\n                /* \"#utility.yul\":11118:11138   */\n              tag_165\n              jump\t// in\n            tag_332:\n                /* \"#utility.yul\":11113:11138   */\n              swap3\n              pop\n                /* \"#utility.yul\":11157:11158   */\n              dup3\n                /* \"#utility.yul\":11147:11182   */\n              tag_333\n              jumpi\n                /* \"#utility.yul\":11162:11180   */\n              tag_334\n              tag_201\n              jump\t// in\n            tag_334:\n                /* \"#utility.yul\":11147:11182   */\n            tag_333:\n                /* \"#utility.yul\":11203:11204   */\n              dup3\n                /* \"#utility.yul\":11200:11201   */\n              dup3\n                /* \"#utility.yul\":11196:11205   */\n              mod\n                /* \"#utility.yul\":11191:11205   */\n              swap1\n              pop\n                /* \"#utility.yul\":11035:11211   */\n              swap3\n              swap2\n              pop\n              pop\n              jump\t// out\n                /* \"#utility.yul\":11217:11627   */\n            tag_121:\n                /* \"#utility.yul\":11257:11264   */\n              0x00\n                /* \"#utility.yul\":11280:11300   */\n              tag_336\n                /* \"#utility.yul\":11298:11299   */\n              dup3\n                /* \"#utility.yul\":11280:11300   */\n              tag_165\n              jump\t// in\n            tag_336:\n                /* \"#utility.yul\":11275:11300   */\n              swap2\n              pop\n                /* \"#utility.yul\":11314:11334   */\n              tag_337\n                /* \"#utility.yul\":11332:11333   */\n              dup4\n                /* \"#utility.yul\":11314:11334   */\n              tag_165\n              jump\t// in\n            tag_337:\n                /* \"#utility.yul\":11309:11334   */\n              swap3\n              pop\n                /* \"#utility.yul\":11369:11370   */\n              dup3\n                /* \"#utility.yul\":11366:11367   */\n              dup3\n                /* \"#utility.yul\":11362:11371   */\n              mul\n                /* \"#utility.yul\":11391:11421   */\n              tag_338\n                /* \"#utility.yul\":11409:11420   */\n              dup2\n                /* \"#utility.yul\":11391:11421   */\n              tag_165\n              jump\t// in\n            tag_338:\n                /* \"#utility.yul\":11380:11421   */\n              swap2\n              pop\n                /* \"#utility.yul\":11570:11571   */\n              dup3\n                /* \"#utility.yul\":11561:11568   */\n              dup3\n                /* \"#utility.yul\":11557:11572   */\n              div\n                /* \"#utility.yul\":11554:11555   */\n              dup5\n                /* \"#utility.yul\":11551:11573   */\n              eq\n                /* \"#utility.yul\":11531:11532   */\n              dup4\n                /* \"#utility.yul\":11524:11533   */\n              iszero\n                /* \"#utility.yul\":11504:11587   */\n              or\n                /* \"#utility.yul\":11481:11620   */\n              tag_339\n              jumpi\n                /* \"#utility.yul\":11600:11618   */\n              tag_340\n              tag_198\n              jump\t// in\n            tag_340:\n                /* \"#utility.yul\":11481:11620   */\n            tag_339:\n                /* \"#utility.yul\":11265:11627   */\n              pop\n                /* \"#utility.yul\":11217:11627   */\n              swap3\n              swap2\n              pop\n              pop\n              jump\t// out\n                /* \"#utility.yul\":11633:11965   */\n            tag_123:\n                /* \"#utility.yul\":11754:11758   */\n              0x00\n                /* \"#utility.yul\":11792:11794   */\n              0x40\n                /* \"#utility.yul\":11781:11790   */\n              dup3\n                /* \"#utility.yul\":11777:11795   */\n              add\n                /* \"#utility.yul\":11769:11795   */\n              swap1\n              pop\n                /* \"#utility.yul\":11805:11876   */\n              tag_342\n                /* \"#utility.yul\":11873:11874   */\n              0x00\n                /* \"#utility.yul\":11862:11871   */\n              dup4\n                /* \"#utility.yul\":11858:11875   */\n              add\n                /* \"#utility.yul\":11849:11855   */\n              dup6\n                /* \"#utility.yul\":11805:11876   */\n              tag_171\n              jump\t// in\n            tag_342:\n                /* \"#utility.yul\":11886:11958   */\n              tag_343\n                /* \"#utility.yul\":11954:11956   */\n              0x20\n                /* \"#utility.yul\":11943:11952   */\n              dup4\n                /* \"#utility.yul\":11939:11957   */\n              add\n                /* \"#utility.yul\":11930:11936   */\n              dup5\n                /* \"#utility.yul\":11886:11958   */\n              tag_166\n              jump\t// in\n            tag_343:\n                /* \"#utility.yul\":11633:11965   */\n              swap4\n              swap3\n              pop\n              pop\n              pop\n              jump\t// out\n                /* \"#utility.yul\":11971:12134   */\n            tag_202:\n                /* \"#utility.yul\":12111:12126   */\n              0x5061796f7574206661696c656400000000000000000000000000000000000000\n                /* \"#utility.yul\":12107:12108   */\n              0x00\n                /* \"#utility.yul\":12099:12105   */\n              dup3\n                /* \"#utility.yul\":12095:12109   */\n              add\n                /* \"#utility.yul\":12088:12127   */\n              mstore\n                /* \"#utility.yul\":11971:12134   */\n              pop\n              jump\t// out\n                /* \"#utility.yul\":12140:12506   */\n            tag_203:\n                /* \"#utility.yul\":12282:12285   */\n              0x00\n                /* \"#utility.yul\":12303:12370   */\n              tag_346\n                /* \"#utility.yul\":12367:12369   */\n              0x0d\n                /* \"#utility.yul\":12362:12365   */\n              dup4\n                /* \"#utility.yul\":12303:12370   */\n              tag_189\n              jump\t// in\n            tag_346:\n                /* \"#utility.yul\":12296:12370   */\n              swap2\n              pop\n                /* \"#utility.yul\":12379:12472   */\n              tag_347\n                /* \"#utility.yul\":12468:12471   */\n              dup3\n                /* \"#utility.yul\":12379:12472   */\n              tag_202\n              jump\t// in\n            tag_347:\n                /* \"#utility.yul\":12497:12499   */\n              0x20\n                /* \"#utility.yul\":12492:12495   */\n              dup3\n                /* \"#utility.yul\":12488:12500   */\n              add\n                /* \"#utility.yul\":12481:12500   */\n              swap1\n              pop\n                /* \"#utility.yul\":12140:12506   */\n              swap2\n              swap1\n              pop\n              jump\t// out\n                /* \"#utility.yul\":12512:12931   */\n            tag_129:\n                /* \"#utility.yul\":12678:12682   */\n              0x00\n                /* \"#utility.yul\":12716:12718   */\n              0x20\n                /* \"#utility.yul\":12705:12714   */\n              dup3\n                /* \"#utility.yul\":12701:12719   */\n              add\n                /* \"#utility.yul\":12693:12719   */\n              swap1\n              pop\n                /* \"#utility.yul\":12765:12774   */\n              dup2\n                /* \"#utility.yul\":12759:12763   */\n              dup2\n                /* \"#utility.yul\":12755:12775   */\n              sub\n                /* \"#utility.yul\":12751:12752   */\n              0x00\n                /* \"#utility.yul\":12740:12749   */\n              dup4\n                /* \"#utility.yul\":12736:12753   */\n              add\n                /* \"#utility.yul\":12729:12776   */\n              mstore\n                /* \"#utility.yul\":12793:12924   */\n              tag_349\n                /* \"#utility.yul\":12919:12923   */\n              dup2\n                /* \"#utility.yul\":12793:12924   */\n              tag_203\n              jump\t// in\n            tag_349:\n                /* \"#utility.yul\":12785:12924   */\n              swap1\n              pop\n                /* \"#utility.yul\":12512:12931   */\n              swap2\n              swap1\n              pop\n              jump\t// out\n                /* \"#utility.yul\":12937:13080   */\n            tag_204:\n                /* \"#utility.yul\":12994:12999   */\n              0x00\n                /* \"#utility.yul\":13025:13031   */\n              dup2\n                /* \"#utility.yul\":13019:13032   */\n              mload\n                /* \"#utility.yul\":13010:13032   */\n              swap1\n              pop\n                /* \"#utility.yul\":13041:13074   */\n              tag_351\n                /* \"#utility.yul\":13068:13073   */\n              dup2\n                /* \"#utility.yul\":13041:13074   */\n              tag_178\n              jump\t// in\n            tag_351:\n                /* \"#utility.yul\":12937:13080   */\n              swap3\n              swap2\n              pop\n              pop\n              jump\t// out\n                /* \"#utility.yul\":13086:13437   */\n            tag_136:\n                /* \"#utility.yul\":13156:13162   */\n              0x00\n                /* \"#utility.yul\":13205:13207   */\n              0x20\n                /* \"#utility.yul\":13193:13202   */\n              dup3\n                /* \"#utility.yul\":13184:13191   */\n              dup5\n                /* \"#utility.yul\":13180:13203   */\n              sub\n                /* \"#utility.yul\":13176:13208   */\n              slt\n                /* \"#utility.yul\":13173:13292   */\n              iszero\n              tag_353\n              jumpi\n                /* \"#utility.yul\":13211:13290   */\n              tag_354\n              tag_173\n              jump\t// in\n            tag_354:\n                /* \"#utility.yul\":13173:13292   */\n            tag_353:\n                /* \"#utility.yul\":13331:13332   */\n              0x00\n                /* \"#utility.yul\":13356:13420   */\n              tag_355\n                /* \"#utility.yul\":13412:13419   */\n              dup5\n                /* \"#utility.yul\":13403:13409   */\n              dup3\n                /* \"#utility.yul\":13392:13401   */\n              dup6\n                /* \"#utility.yul\":13388:13410   */\n              add\n                /* \"#utility.yul\":13356:13420   */\n              tag_204\n              jump\t// in\n            tag_355:\n                /* \"#utility.yul\":13346:13420   */\n              swap2\n              pop\n                /* \"#utility.yul\":13302:13430   */\n              pop\n                /* \"#utility.yul\":13086:13437   */\n              swap3\n              swap2\n              pop\n              pop\n              jump\t// out\n                /* \"#utility.yul\":13443:13608   */\n            tag_205:\n                /* \"#utility.yul\":13583:13600   */\n              0x4e6f7420656e6f756768204c494e4b0000000000000000000000000000000000\n                /* \"#utility.yul\":13579:13580   */\n              0x00\n                /* \"#utility.yul\":13571:13577   */\n              dup3\n                /* \"#utility.yul\":13567:13581   */\n              add\n                /* \"#utility.yul\":13560:13601   */\n              mstore\n                /* \"#utility.yul\":13443:13608   */\n              pop\n              jump\t// out\n                /* \"#utility.yul\":13614:13980   */\n            tag_206:\n                /* \"#utility.yul\":13756:13759   */\n              0x00\n                /* \"#utility.yul\":13777:13844   */\n              tag_358\n                /* \"#utility.yul\":13841:13843   */\n              0x0f\n                /* \"#utility.yul\":13836:13839   */\n              dup4\n                /* \"#utility.yul\":13777:13844   */\n              tag_189\n              jump\t// in\n            tag_358:\n                /* \"#utility.yul\":13770:13844   */\n              swap2\n              pop\n                /* \"#utility.yul\":13853:13946   */\n              tag_359\n                /* \"#utility.yul\":13942:13945   */\n              dup3\n                /* \"#utility.yul\":13853:13946   */\n              tag_205\n              jump\t// in\n            tag_359:\n                /* \"#utility.yul\":13971:13973   */\n              0x20\n                /* \"#utility.yul\":13966:13969   */\n              dup3\n                /* \"#utility.yul\":13962:13974   */\n              add\n                /* \"#utility.yul\":13955:13974   */\n              swap1\n              pop\n                /* \"#utility.yul\":13614:13980   */\n              swap2\n              swap1\n              pop\n              jump\t// out\n                /* \"#utility.yul\":13986:14405   */\n            tag_139:\n                /* \"#utility.yul\":14152:14156   */\n              0x00\n                /* \"#utility.yul\":14190:14192   */\n              0x20\n                /* \"#utility.yul\":14179:14188   */\n              dup3\n                /* \"#utility.yul\":14175:14193   */\n              add\n                /* \"#utility.yul\":14167:14193   */\n              swap1\n              pop\n                /* \"#utility.yul\":14239:14248   */\n              dup2\n                /* \"#utility.yul\":14233:14237   */\n              dup2\n                /* \"#utility.yul\":14229:14249   */\n              sub\n                /* \"#utility.yul\":14225:14226   */\n              0x00\n                /* \"#utility.yul\":14214:14223   */\n              dup4\n                /* \"#utility.yul\":14210:14227   */\n              add\n                /* \"#utility.yul\":14203:14250   */\n              mstore\n                /* \"#utility.yul\":14267:14398   */\n              tag_361\n                /* \"#utility.yul\":14393:14397   */\n              dup2\n                /* \"#utility.yul\":14267:14398   */\n              tag_206\n              jump\t// in\n            tag_361:\n                /* \"#utility.yul\":14259:14398   */\n              swap1\n              pop\n                /* \"#utility.yul\":13986:14405   */\n              swap2\n              swap1\n              pop\n              jump\t// out\n                /* \"#utility.yul\":14411:14529   */\n            tag_207:\n                /* \"#utility.yul\":14498:14522   */\n              tag_363\n                /* \"#utility.yul\":14516:14521   */\n              dup2\n                /* \"#utility.yul\":14498:14522   */\n              tag_175\n              jump\t// in\n            tag_363:\n                /* \"#utility.yul\":14493:14496   */\n              dup3\n                /* \"#utility.yul\":14486:14523   */\n              mstore\n                /* \"#utility.yul\":14411:14529   */\n              pop\n              pop\n              jump\t// out\n                /* \"#utility.yul\":14535:14757   */\n            tag_143:\n                /* \"#utility.yul\":14628:14632   */\n              0x00\n                /* \"#utility.yul\":14666:14668   */\n              0x20\n                /* \"#utility.yul\":14655:14664   */\n              dup3\n                /* \"#utility.yul\":14651:14669   */\n              add\n                /* \"#utility.yul\":14643:14669   */\n              swap1\n              pop\n                /* \"#utility.yul\":14679:14750   */\n              tag_365\n                /* \"#utility.yul\":14747:14748   */\n              0x00\n                /* \"#utility.yul\":14736:14745   */\n              dup4\n                /* \"#utility.yul\":14732:14749   */\n              add\n                /* \"#utility.yul\":14723:14729   */\n              dup5\n                /* \"#utility.yul\":14679:14750   */\n              tag_207\n              jump\t// in\n            tag_365:\n                /* \"#utility.yul\":14535:14757   */\n              swap3\n              swap2\n              pop\n              pop\n              jump\t// out\n                /* \"#utility.yul\":14763:15095   */\n            tag_147:\n                /* \"#utility.yul\":14884:14888   */\n              0x00\n                /* \"#utility.yul\":14922:14924   */\n              0x40\n                /* \"#utility.yul\":14911:14920   */\n              dup3\n                /* \"#utility.yul\":14907:14925   */\n              add\n                /* \"#utility.yul\":14899:14925   */\n              swap1\n              pop\n                /* \"#utility.yul\":14935:15006   */\n              tag_367\n                /* \"#utility.yul\":15003:15004   */\n              0x00\n                /* \"#utility.yul\":14992:15001   */\n              dup4\n                /* \"#utility.yul\":14988:15005   */\n              add\n                /* \"#utility.yul\":14979:14985   */\n              dup6\n                /* \"#utility.yul\":14935:15006   */\n              tag_207\n              jump\t// in\n            tag_367:\n                /* \"#utility.yul\":15016:15088   */\n              tag_368\n                /* \"#utility.yul\":15084:15086   */\n              0x20\n                /* \"#utility.yul\":15073:15082   */\n              dup4\n                /* \"#utility.yul\":15069:15087   */\n              add\n                /* \"#utility.yul\":15060:15066   */\n              dup5\n                /* \"#utility.yul\":15016:15088   */\n              tag_166\n              jump\t// in\n            tag_368:\n                /* \"#utility.yul\":14763:15095   */\n              swap4\n              swap3\n              pop\n              pop\n              pop\n              jump\t// out\n                /* \"#utility.yul\":15101:15199   */\n            tag_208:\n                /* \"#utility.yul\":15152:15158   */\n              0x00\n                /* \"#utility.yul\":15186:15191   */\n              dup2\n                /* \"#utility.yul\":15180:15192   */\n              mload\n                /* \"#utility.yul\":15170:15192   */\n              swap1\n              pop\n                /* \"#utility.yul\":15101:15199   */\n              swap2\n              swap1\n              pop\n              jump\t// out\n                /* \"#utility.yul\":15205:15373   */\n            tag_209:\n                /* \"#utility.yul\":15288:15299   */\n              0x00\n                /* \"#utility.yul\":15322:15328   */\n              dup3\n                /* \"#utility.yul\":15317:15320   */\n              dup3\n                /* \"#utility.yul\":15310:15329   */\n              mstore\n                /* \"#utility.yul\":15362:15366   */\n              0x20\n                /* \"#utility.yul\":15357:15360   */\n              dup3\n                /* \"#utility.yul\":15353:15367   */\n              add\n                /* \"#utility.yul\":15338:15367   */\n              swap1\n              pop\n                /* \"#utility.yul\":15205:15373   */\n              swap3\n              swap2\n              pop\n              pop\n              jump\t// out\n                /* \"#utility.yul\":15379:15518   */\n            tag_210:\n                /* \"#utility.yul\":15468:15474   */\n              dup3\n                /* \"#utility.yul\":15463:15466   */\n              dup2\n                /* \"#utility.yul\":15458:15461   */\n              dup4\n                /* \"#utility.yul\":15452:15475   */\n              mcopy\n                /* \"#utility.yul\":15509:15510   */\n              0x00\n                /* \"#utility.yul\":15500:15506   */\n              dup4\n                /* \"#utility.yul\":15495:15498   */\n              dup4\n                /* \"#utility.yul\":15491:15507   */\n              add\n                /* \"#utility.yul\":15484:15511   */\n              mstore\n                /* \"#utility.yul\":15379:15518   */\n              pop\n              pop\n              pop\n              jump\t// out\n                /* \"#utility.yul\":15524:15626   */\n            tag_211:\n                /* \"#utility.yul\":15565:15571   */\n              0x00\n                /* \"#utility.yul\":15616:15618   */\n              0x1f\n                /* \"#utility.yul\":15612:15619   */\n              not\n                /* \"#utility.yul\":15607:15609   */\n              0x1f\n                /* \"#utility.yul\":15600:15605   */\n              dup4\n                /* \"#utility.yul\":15596:15610   */\n              add\n                /* \"#utility.yul\":15592:15620   */\n              and\n                /* \"#utility.yul\":15582:15620   */\n              swap1\n              pop\n                /* \"#utility.yul\":15524:15626   */\n              swap2\n              swap1\n              pop\n              jump\t// out\n                /* \"#utility.yul\":15632:16005   */\n            tag_212:\n                /* \"#utility.yul\":15718:15721   */\n              0x00\n                /* \"#utility.yul\":15746:15784   */\n              tag_374\n                /* \"#utility.yul\":15778:15783   */\n              dup3\n                /* \"#utility.yul\":15746:15784   */\n              tag_208\n              jump\t// in\n            tag_374:\n                /* \"#utility.yul\":15800:15870   */\n              tag_375\n                /* \"#utility.yul\":15863:15869   */\n              dup2\n                /* \"#utility.yul\":15858:15861   */\n              dup6\n                /* \"#utility.yul\":15800:15870   */\n              tag_209\n              jump\t// in\n            tag_375:\n                /* \"#utility.yul\":15793:15870   */\n              swap4\n              pop\n                /* \"#utility.yul\":15879:15944   */\n              tag_376\n                /* \"#utility.yul\":15937:15943   */\n              dup2\n                /* \"#utility.yul\":15932:15935   */\n              dup6\n                /* \"#utility.yul\":15925:15929   */\n              0x20\n                /* \"#utility.yul\":15918:15923   */\n              dup7\n                /* \"#utility.yul\":15914:15930   */\n              add\n                /* \"#utility.yul\":15879:15944   */\n              tag_210\n              jump\t// in\n            tag_376:\n                /* \"#utility.yul\":15969:15998   */\n              tag_377\n                /* \"#utility.yul\":15991:15997   */\n              dup2\n                /* \"#utility.yul\":15969:15998   */\n              tag_211\n              jump\t// in\n            tag_377:\n                /* \"#utility.yul\":15964:15967   */\n              dup5\n                /* \"#utility.yul\":15960:15999   */\n              add\n                /* \"#utility.yul\":15953:15999   */\n              swap2\n              pop\n                /* \"#utility.yul\":15722:16005   */\n              pop\n                /* \"#utility.yul\":15632:16005   */\n              swap3\n              swap2\n              pop\n              pop\n              jump\t// out\n                /* \"#utility.yul\":16011:16540   */\n            tag_149:\n                /* \"#utility.yul\":16178:16182   */\n              0x00\n                /* \"#utility.yul\":16216:16218   */\n              0x60\n                /* \"#utility.yul\":16205:16214   */\n              dup3\n                /* \"#utility.yul\":16201:16219   */\n              add\n                /* \"#utility.yul\":16193:16219   */\n              swap1\n              pop\n                /* \"#utility.yul\":16229:16300   */\n              tag_379\n                /* \"#utility.yul\":16297:16298   */\n              0x00\n                /* \"#utility.yul\":16286:16295   */\n              dup4\n                /* \"#utility.yul\":16282:16299   */\n              add\n                /* \"#utility.yul\":16273:16279   */\n              dup7\n                /* \"#utility.yul\":16229:16300   */\n              tag_171\n              jump\t// in\n            tag_379:\n                /* \"#utility.yul\":16310:16382   */\n              tag_380\n                /* \"#utility.yul\":16378:16380   */\n              0x20\n                /* \"#utility.yul\":16367:16376   */\n              dup4\n                /* \"#utility.yul\":16363:16381   */\n              add\n                /* \"#utility.yul\":16354:16360   */\n              dup6\n                /* \"#utility.yul\":16310:16382   */\n              tag_166\n              jump\t// in\n            tag_380:\n                /* \"#utility.yul\":16429:16438   */\n              dup2\n                /* \"#utility.yul\":16423:16427   */\n              dup2\n                /* \"#utility.yul\":16419:16439   */\n              sub\n                /* \"#utility.yul\":16414:16416   */\n              0x40\n                /* \"#utility.yul\":16403:16412   */\n              dup4\n                /* \"#utility.yul\":16399:16417   */\n              add\n                /* \"#utility.yul\":16392:16440   */\n              mstore\n                /* \"#utility.yul\":16457:16533   */\n              tag_381\n                /* \"#utility.yul\":16528:16532   */\n              dup2\n                /* \"#utility.yul\":16519:16525   */\n              dup5\n                /* \"#utility.yul\":16457:16533   */\n              tag_212\n              jump\t// in\n            tag_381:\n                /* \"#utility.yul\":16449:16533   */\n              swap1\n              pop\n                /* \"#utility.yul\":16011:16540   */\n              swap5\n              swap4\n              pop\n              pop\n              pop\n              pop\n              jump\t// out\n                /* \"#utility.yul\":16546:16737   */\n            tag_156:\n                /* \"#utility.yul\":16586:16589   */\n              0x00\n                /* \"#utility.yul\":16605:16625   */\n              tag_383\n                /* \"#utility.yul\":16623:16624   */\n              dup3\n                /* \"#utility.yul\":16605:16625   */\n              tag_165\n              jump\t// in\n            tag_383:\n                /* \"#utility.yul\":16600:16625   */\n              swap2\n              pop\n                /* \"#utility.yul\":16639:16659   */\n              tag_384\n                /* \"#utility.yul\":16657:16658   */\n              dup4\n                /* \"#utility.yul\":16639:16659   */\n              tag_165\n              jump\t// in\n            tag_384:\n                /* \"#utility.yul\":16634:16659   */\n              swap3\n              pop\n                /* \"#utility.yul\":16682:16683   */\n              dup3\n                /* \"#utility.yul\":16679:16680   */\n              dup3\n                /* \"#utility.yul\":16675:16684   */\n              add\n                /* \"#utility.yul\":16668:16684   */\n              swap1\n              pop\n                /* \"#utility.yul\":16703:16706   */\n              dup1\n                /* \"#utility.yul\":16700:16701   */\n              dup3\n                /* \"#utility.yul\":16697:16707   */\n              gt\n                /* \"#utility.yul\":16694:16730   */\n              iszero\n              tag_385\n              jumpi\n                /* \"#utility.yul\":16710:16728   */\n              tag_386\n              tag_198\n              jump\t// in\n            tag_386:\n                /* \"#utility.yul\":16694:16730   */\n            tag_385:\n                /* \"#utility.yul\":16546:16737   */\n              swap3\n              swap2\n              pop\n              pop\n              jump\t// out\n                /* \"#utility.yul\":16743:17296   */\n            tag_161:\n                /* \"#utility.yul\":16920:16924   */\n              0x00\n                /* \"#utility.yul\":16958:16961   */\n              0x80\n                /* \"#utility.yul\":16947:16956   */\n              dup3\n                /* \"#utility.yul\":16943:16962   */\n              add\n                /* \"#utility.yul\":16935:16962   */\n              swap1\n              pop\n                /* \"#utility.yul\":16972:17043   */\n              tag_388\n                /* \"#utility.yul\":17040:17041   */\n              0x00\n                /* \"#utility.yul\":17029:17038   */\n              dup4\n                /* \"#utility.yul\":17025:17042   */\n              add\n                /* \"#utility.yul\":17016:17022   */\n              dup8\n                /* \"#utility.yul\":16972:17043   */\n              tag_207\n              jump\t// in\n            tag_388:\n                /* \"#utility.yul\":17053:17125   */\n              tag_389\n                /* \"#utility.yul\":17121:17123   */\n              0x20\n                /* \"#utility.yul\":17110:17119   */\n              dup4\n                /* \"#utility.yul\":17106:17124   */\n              add\n                /* \"#utility.yul\":17097:17103   */\n              dup7\n                /* \"#utility.yul\":17053:17125   */\n              tag_166\n              jump\t// in\n            tag_389:\n                /* \"#utility.yul\":17135:17207   */\n              tag_390\n                /* \"#utility.yul\":17203:17205   */\n              0x40\n                /* \"#utility.yul\":17192:17201   */\n              dup4\n                /* \"#utility.yul\":17188:17206   */\n              add\n                /* \"#utility.yul\":17179:17185   */\n              dup6\n                /* \"#utility.yul\":17135:17207   */\n              tag_171\n              jump\t// in\n            tag_390:\n                /* \"#utility.yul\":17217:17289   */\n              tag_391\n                /* \"#utility.yul\":17285:17287   */\n              0x60\n                /* \"#utility.yul\":17274:17283   */\n              dup4\n                /* \"#utility.yul\":17270:17288   */\n              add\n                /* \"#utility.yul\":17261:17267   */\n              dup5\n                /* \"#utility.yul\":17217:17289   */\n              tag_166\n              jump\t// in\n            tag_391:\n                /* \"#utility.yul\":16743:17296   */\n              swap6\n              swap5\n              pop\n              pop\n              pop\n              pop\n              pop\n              jump\t// out\n                /* \"#utility.yul\":17302:17381   */\n            tag_213:\n                /* \"#utility.yul\":17341:17348   */\n              0x00\n                /* \"#utility.yul\":17370:17375   */\n              dup2\n                /* \"#utility.yul\":17359:17375   */\n              swap1\n              pop\n                /* \"#utility.yul\":17302:17381   */\n              swap2\n              swap1\n              pop\n              jump\t// out\n                /* \"#utility.yul\":17387:17544   */\n            tag_214:\n                /* \"#utility.yul\":17492:17537   */\n              tag_394\n                /* \"#utility.yul\":17512:17536   */\n              tag_395\n                /* \"#utility.yul\":17530:17535   */\n              dup3\n                /* \"#utility.yul\":17512:17536   */\n              tag_175\n              jump\t// in\n            tag_395:\n                /* \"#utility.yul\":17492:17537   */\n              tag_213\n              jump\t// in\n            tag_394:\n                /* \"#utility.yul\":17487:17490   */\n              dup3\n                /* \"#utility.yul\":17480:17538   */\n              mstore\n                /* \"#utility.yul\":17387:17544   */\n              pop\n              pop\n              jump\t// out\n                /* \"#utility.yul\":17550:17629   */\n            tag_215:\n                /* \"#utility.yul\":17589:17596   */\n              0x00\n                /* \"#utility.yul\":17618:17623   */\n              dup2\n                /* \"#utility.yul\":17607:17623   */\n              swap1\n              pop\n                /* \"#utility.yul\":17550:17629   */\n              swap2\n              swap1\n              pop\n              jump\t// out\n                /* \"#utility.yul\":17635:17792   */\n            tag_216:\n                /* \"#utility.yul\":17740:17785   */\n              tag_398\n                /* \"#utility.yul\":17760:17784   */\n              tag_399\n                /* \"#utility.yul\":17778:17783   */\n              dup3\n                /* \"#utility.yul\":17760:17784   */\n              tag_165\n              jump\t// in\n            tag_399:\n                /* \"#utility.yul\":17740:17785   */\n              tag_215\n              jump\t// in\n            tag_398:\n                /* \"#utility.yul\":17735:17738   */\n              dup3\n                /* \"#utility.yul\":17728:17786   */\n              mstore\n                /* \"#utility.yul\":17635:17792   */\n              pop\n              pop\n              jump\t// out\n                /* \"#utility.yul\":17798:18195   */\n            tag_164:\n                /* \"#utility.yul\":17938:17941   */\n              0x00\n                /* \"#utility.yul\":17953:18028   */\n              tag_401\n                /* \"#utility.yul\":18024:18027   */\n              dup3\n                /* \"#utility.yul\":18015:18021   */\n              dup6\n                /* \"#utility.yul\":17953:18028   */\n              tag_214\n              jump\t// in\n            tag_401:\n                /* \"#utility.yul\":18053:18055   */\n              0x20\n                /* \"#utility.yul\":18048:18051   */\n              dup3\n                /* \"#utility.yul\":18044:18056   */\n              add\n                /* \"#utility.yul\":18037:18056   */\n              swap2\n              pop\n                /* \"#utility.yul\":18066:18141   */\n              tag_402\n                /* \"#utility.yul\":18137:18140   */\n              dup3\n                /* \"#utility.yul\":18128:18134   */\n              dup5\n                /* \"#utility.yul\":18066:18141   */\n              tag_216\n              jump\t// in\n            tag_402:\n                /* \"#utility.yul\":18166:18168   */\n              0x20\n                /* \"#utility.yul\":18161:18164   */\n              dup3\n                /* \"#utility.yul\":18157:18169   */\n              add\n                /* \"#utility.yul\":18150:18169   */\n              swap2\n              pop\n                /* \"#utility.yul\":18186:18189   */\n              dup2\n                /* \"#utility.yul\":18179:18189   */\n              swap1\n              pop\n                /* \"#utility.yul\":17798:18195   */\n              swap4\n              swap3\n              pop\n              pop\n              pop\n              jump\t// out\n\n            auxdata: 0xa264697066735822122040e3575ec73a622224a05521bb6870ccbb2efb02b34149af288a7de5c57adb5c64736f6c634300081a0033\n        }\n    }\n\n    auxdata: 0xa26469706673582212200d3e31a9d2275ddcd66d56edfe3afb812b1a14c3aa6635a6a6f48a91e2c9a70964736f6c634300081a0033\n}\n",
				"bytecode": {
					"linkReferences": {},
					"object": "608060405234801561000f575f80fd5b506040516122453803806122458339818101604052810190610031919061018c565b8360015f6101000a81548173ffffffffffffffffffffffffffffffffffffffff021916908373ffffffffffffffffffffffffffffffffffffffff1602179055508260025f6101000a81548173ffffffffffffffffffffffffffffffffffffffff021916908373ffffffffffffffffffffffffffffffffffffffff1602179055508160038190555080600481905550505050506101f0565b5f80fd5b5f73ffffffffffffffffffffffffffffffffffffffff82169050919050565b5f6100f5826100cc565b9050919050565b610105816100eb565b811461010f575f80fd5b50565b5f81519050610120816100fc565b92915050565b5f819050919050565b61013881610126565b8114610142575f80fd5b50565b5f815190506101538161012f565b92915050565b5f819050919050565b61016b81610159565b8114610175575f80fd5b50565b5f8151905061018681610162565b92915050565b5f805f80608085870312156101a4576101a36100c8565b5b5f6101b187828801610112565b94505060206101c287828801610112565b93505060406101d387828801610145565b92505060606101e487828801610178565b91505092959194509250565b612048806101fd5f395ff3fe608060405234801561000f575f80fd5b506004361061007b575f3560e01c8063117a5b9011610059578063117a5b90146100eb5780634d1975b41461011b57806357970e9314610139578063a3e56fa8146101575761007b565b8063041d443e1461007f5780630586bc5d1461009d5780631017507d146100cd575b5f80fd5b610087610175565b604051610094919061035c565b60405180910390f35b6100b760048036038101906100b29190610406565b61017b565b6040516100c49190610453565b60405180910390f35b6100d56102a2565b6040516100e2919061047b565b60405180910390f35b61010560048036038101906101009190610494565b6102a8565b6040516101129190610453565b60405180910390f35b6101236102e2565b604051610130919061047b565b60405180910390f35b6101416102ed565b60405161014e9190610453565b60405180910390f35b61015f610312565b60405161016c9190610453565b60405180910390f35b60035481565b5f80838360015f9054906101000a900473ffffffffffffffffffffffffffffffffffffffff1660025f9054906101000a900473ffffffffffffffffffffffffffffffffffffffff166003546004546040516101d590610337565b6101e4969594939291906104bf565b604051809103905ff0801580156101fd573d5f803e3d5ffd5b5090505f81908060018154018082558091505060019003905f5260205f20015f9091909190916101000a81548173ffffffffffffffffffffffffffffffffffffffff021916908373ffffffffffffffffffffffffffffffffffffffff1602179055507fb60d84e37a6658effce28870b1d123cb86f86409df5888679310c0f276e1f5d2813360405161029092919061051e565b60405180910390a18091505092915050565b60045481565b5f81815481106102b6575f80fd5b905f5260205f20015f915054906101000a900473ffffffffffffffffffffffffffffffffffffffff1681565b5f8080549050905090565b60025f9054906101000a900473ffffffffffffffffffffffffffffffffffffffff1681565b60015f9054906101000a900473ffffffffffffffffffffffffffffffffffffffff1681565b611acd8061054683390190565b5f819050919050565b61035681610344565b82525050565b5f60208201905061036f5f83018461034d565b92915050565b5f80fd5b5f73ffffffffffffffffffffffffffffffffffffffff82169050919050565b5f6103a282610379565b9050919050565b6103b281610398565b81146103bc575f80fd5b50565b5f813590506103cd816103a9565b92915050565b5f819050919050565b6103e5816103d3565b81146103ef575f80fd5b50565b5f81359050610400816103dc565b92915050565b5f806040838503121561041c5761041b610375565b5b5f610429858286016103bf565b925050602061043a858286016103f2565b9150509250929050565b61044d81610398565b82525050565b5f6020820190506104665f830184610444565b92915050565b610475816103d3565b82525050565b5f60208201905061048e5f83018461046c565b92915050565b5f602082840312156104a9576104a8610375565b5b5f6104b6848285016103f2565b91505092915050565b5f60c0820190506104d25f830189610444565b6104df602083018861046c565b6104ec6040830187610444565b6104f96060830186610444565b610506608083018561034d565b61051360a083018461046c565b979650505050505050565b5f6040820190506105315f830185610444565b61053e6020830184610444565b939250505056fe610100604052348015610010575f80fd5b50604051611acd380380611acd8339818101604052810190610032919061034b565b3384848173ffffffffffffffffffffffffffffffffffffffff1660a08173ffffffffffffffffffffffffffffffffffffffff16815250508073ffffffffffffffffffffffffffffffffffffffff1660808173ffffffffffffffffffffffffffffffffffffffff168152505050505f73ffffffffffffffffffffffffffffffffffffffff168173ffffffffffffffffffffffffffffffffffffffff160361010f575f6040517f1e4fbdf700000000000000000000000000000000000000000000000000000000815260040161010691906103e3565b60405180910390fd5b61011e816101c460201b60201c565b508573ffffffffffffffffffffffffffffffffffffffff1660c08173ffffffffffffffffffffffffffffffffffffffff16815250508460e0818152505081600581905550806006819055503373ffffffffffffffffffffffffffffffffffffffff167fd152bf1ab39ec18e27d3dcb4f271007b0107191d3e8bed48c19ca8c9c1309e2687876040516101b192919061040b565b60405180910390a2505050505050610432565b5f60015f9054906101000a900473ffffffffffffffffffffffffffffffffffffffff1690508160015f6101000a81548173ffffffffffffffffffffffffffffffffffffffff021916908373ffffffffffffffffffffffffffffffffffffffff1602179055508173ffffffffffffffffffffffffffffffffffffffff168173ffffffffffffffffffffffffffffffffffffffff167f8be0079c531659141344cd1fd0a4f28419497f9722a3daafe3b4186f6b6457e060405160405180910390a35050565b5f80fd5b5f73ffffffffffffffffffffffffffffffffffffffff82169050919050565b5f6102b48261028b565b9050919050565b6102c4816102aa565b81146102ce575f80fd5b50565b5f815190506102df816102bb565b92915050565b5f819050919050565b6102f7816102e5565b8114610301575f80fd5b50565b5f81519050610312816102ee565b92915050565b5f819050919050565b61032a81610318565b8114610334575f80fd5b50565b5f8151905061034581610321565b92915050565b5f805f805f8060c0878903121561036557610364610287565b5b5f61037289828a016102d1565b965050602061038389828a01610304565b955050604061039489828a016102d1565b94505060606103a589828a016102d1565b93505060806103b689828a01610337565b92505060a06103c789828a01610304565b9150509295509295509295565b6103dd816102aa565b82525050565b5f6020820190506103f65f8301846103d4565b92915050565b610405816102e5565b82525050565b5f60408201905061041e5f8301856103d4565b61042b60208301846103fc565b9392505050565b60805160a05160c05160e05161163e61048f5f395f8181610206015281816103bd01526108b601525f818161037f0152818161065001526108e301525f818161027d0152610ba901525f8181610a420152610b6d015261163e5ff3fe608060405234801561000f575f80fd5b50600436106100b2575f3560e01c8063cf8515f41161006f578063cf8515f414610154578063d4f77b1c14610172578063dfbf53ae1461017c578063f2fde38b1461019a578063f71d96cb146101b6578063fc0c546a146101e6576100b2565b80633a4b66f1146100b65780633f6fa655146100d457806342619f66146100f2578063715018a6146101105780638da5cb5b1461011a57806394985ddd14610138575b5f80fd5b6100be610204565b6040516100cb9190610d31565b60405180910390f35b6100dc610228565b6040516100e99190610d64565b60405180910390f35b6100fa61023a565b6040516101079190610d31565b60405180910390f35b610118610240565b005b610122610253565b60405161012f9190610dbc565b60405180910390f35b610152600480360381019061014d9190610e36565b61027b565b005b61015c610317565b6040516101699190610e8f565b60405180910390f35b61017a610329565b005b610184610570565b6040516101919190610dbc565b60405180910390f35b6101b460048036038101906101af9190610ed2565b610596565b005b6101d060048036038101906101cb9190610efd565b61061a565b6040516101dd9190610dbc565b60405180910390f35b6101ee61064e565b6040516101fb9190610f83565b60405180910390f35b7f000000000000000000000000000000000000000000000000000000000000000081565b60085f9054906101000a900460ff1681565b60075481565b610248610672565b6102515f6106f9565b565b5f60015f9054906101000a900473ffffffffffffffffffffffffffffffffffffffff16905090565b7f000000000000000000000000000000000000000000000000000000000000000073ffffffffffffffffffffffffffffffffffffffff163373ffffffffffffffffffffffffffffffffffffffff1614610309576040517f08c379a000000000000000000000000000000000000000000000000000000000815260040161030090610ff6565b60405180910390fd5b61031382826107bc565b5050565b60045f9054906101000a900460ff1681565b600260045f9054906101000a900460ff1660ff161061037d576040517f08c379a00000000000000000000000000000000000000000000000000000000081526004016103749061105e565b60405180910390fd5b7f000000000000000000000000000000000000000000000000000000000000000073ffffffffffffffffffffffffffffffffffffffff166323b872dd33307f00000000000000000000000000000000000000000000000000000000000000006040518463ffffffff1660e01b81526004016103fa9392919061107c565b6020604051808303815f875af1158015610416573d5f803e3d5ffd5b505050506040513d601f19601f8201168201806040525081019061043a91906110db565b610479576040517f08c379a000000000000000000000000000000000000000000000000000000000815260040161047090611150565b60405180910390fd5b33600260045f9054906101000a900460ff1660ff166002811061049f5761049e61116e565b5b015f6101000a81548173ffffffffffffffffffffffffffffffffffffffff021916908373ffffffffffffffffffffffffffffffffffffffff16021790555060045f81819054906101000a900460ff16809291906104fb906111c8565b91906101000a81548160ff021916908360ff160217905550507f31e760aa525306aba638a784082a013b6a1cc0a9a1789f3f22281c0453b10b1f336040516105439190610dbc565b60405180910390a1600260045f9054906101000a900460ff1660ff160361056e5761056c610a3c565b505b565b600860019054906101000a900473ffffffffffffffffffffffffffffffffffffffff1681565b61059e610672565b5f73ffffffffffffffffffffffffffffffffffffffff168173ffffffffffffffffffffffffffffffffffffffff160361060e575f6040517f1e4fbdf70000000000000000000000000000000000000000000000000000000081526004016106059190610dbc565b60405180910390fd5b610617816106f9565b50565b60028160028110610629575f80fd5b015f915054906101000a900473ffffffffffffffffffffffffffffffffffffffff1681565b7f000000000000000000000000000000000000000000000000000000000000000081565b61067a610b63565b73ffffffffffffffffffffffffffffffffffffffff16610698610253565b73ffffffffffffffffffffffffffffffffffffffff16146106f7576106bb610b63565b6040517f118cdaa70000000000000000000000000000000000000000000000000000000081526004016106ee9190610dbc565b60405180910390fd5b565b5f60015f9054906101000a900473ffffffffffffffffffffffffffffffffffffffff1690508160015f6101000a81548173ffffffffffffffffffffffffffffffffffffffff021916908373ffffffffffffffffffffffffffffffffffffffff1602179055508173ffffffffffffffffffffffffffffffffffffffff168173ffffffffffffffffffffffffffffffffffffffff167f8be0079c531659141344cd1fd0a4f28419497f9722a3daafe3b4186f6b6457e060405160405180910390a35050565b60085f9054906101000a900460ff161561080b576040517f08c379a00000000000000000000000000000000000000000000000000000000081526004016108029061123a565b60405180910390fd5b806007819055505f6002826108209190611285565b9050600281600281106108365761083561116e565b5b015f9054906101000a900473ffffffffffffffffffffffffffffffffffffffff16600860016101000a81548173ffffffffffffffffffffffffffffffffffffffff021916908373ffffffffffffffffffffffffffffffffffffffff160217905550600160085f6101000a81548160ff0219169083151502179055505f60027f00000000000000000000000000000000000000000000000000000000000000006108df91906112b5565b90507f000000000000000000000000000000000000000000000000000000000000000073ffffffffffffffffffffffffffffffffffffffff1663a9059cbb600860019054906101000a900473ffffffffffffffffffffffffffffffffffffffff16836040518363ffffffff1660e01b815260040161095e9291906112f6565b6020604051808303815f875af115801561097a573d5f803e3d5ffd5b505050506040513d601f19601f8201168201806040525081019061099e91906110db565b6109dd576040517f08c379a00000000000000000000000000000000000000000000000000000000081526004016109d490611367565b60405180910390fd5b7f2a2cb2e94a6626cc0ba41c90bd87ad701bdf47a8c3d7300070c92c0fd36b872b600860019054906101000a900473ffffffffffffffffffffffffffffffffffffffff16604051610a2e9190610dbc565b60405180910390a150505050565b5f6006547f000000000000000000000000000000000000000000000000000000000000000073ffffffffffffffffffffffffffffffffffffffff166370a08231306040518263ffffffff1660e01b8152600401610a999190610dbc565b602060405180830381865afa158015610ab4573d5f803e3d5ffd5b505050506040513d601f19601f82011682018060405250810190610ad89190611399565b1015610b19576040517f08c379a0000000000000000000000000000000000000000000000000000000008152600401610b109061140e565b60405180910390fd5b610b27600554600654610b6a565b90507f3573455bfd612c588441d8f1bec935c6cf4d3643fc8fda959594e4ea24a234d081604051610b58919061143b565b60405180910390a190565b5f33905090565b5f7f000000000000000000000000000000000000000000000000000000000000000073ffffffffffffffffffffffffffffffffffffffff16634000aea07f000000000000000000000000000000000000000000000000000000000000000084865f604051602001610bdc929190611454565b6040516020818303038152906040526040518463ffffffff1660e01b8152600401610c09939291906114eb565b6020604051808303815f875af1158015610c25573d5f803e3d5ffd5b505050506040513d601f19601f82011682018060405250810190610c4991906110db565b505f610c67845f305f808981526020019081526020015f2054610cad565b905060015f808681526020019081526020015f2054610c869190611527565b5f808681526020019081526020015f2081905550610ca48482610ce7565b91505092915050565b5f84848484604051602001610cc5949392919061155a565b604051602081830303815290604052805190602001205f1c9050949350505050565b5f8282604051602001610cfb9291906115dd565b60405160208183030381529060405280519060200120905092915050565b5f819050919050565b610d2b81610d19565b82525050565b5f602082019050610d445f830184610d22565b92915050565b5f8115159050919050565b610d5e81610d4a565b82525050565b5f602082019050610d775f830184610d55565b92915050565b5f73ffffffffffffffffffffffffffffffffffffffff82169050919050565b5f610da682610d7d565b9050919050565b610db681610d9c565b82525050565b5f602082019050610dcf5f830184610dad565b92915050565b5f80fd5b5f819050919050565b610deb81610dd9565b8114610df5575f80fd5b50565b5f81359050610e0681610de2565b92915050565b610e1581610d19565b8114610e1f575f80fd5b50565b5f81359050610e3081610e0c565b92915050565b5f8060408385031215610e4c57610e4b610dd5565b5b5f610e5985828601610df8565b9250506020610e6a85828601610e22565b9150509250929050565b5f60ff82169050919050565b610e8981610e74565b82525050565b5f602082019050610ea25f830184610e80565b92915050565b610eb181610d9c565b8114610ebb575f80fd5b50565b5f81359050610ecc81610ea8565b92915050565b5f60208284031215610ee757610ee6610dd5565b5b5f610ef484828501610ebe565b91505092915050565b5f60208284031215610f1257610f11610dd5565b5b5f610f1f84828501610e22565b91505092915050565b5f819050919050565b5f610f4b610f46610f4184610d7d565b610f28565b610d7d565b9050919050565b5f610f5c82610f31565b9050919050565b5f610f6d82610f52565b9050919050565b610f7d81610f63565b82525050565b5f602082019050610f965f830184610f74565b92915050565b5f82825260208201905092915050565b7f4f6e6c7920565246436f6f7264696e61746f722063616e2066756c66696c6c005f82015250565b5f610fe0601f83610f9c565b9150610feb82610fac565b602082019050919050565b5f6020820190508181035f83015261100d81610fd4565b9050919050565b7f47616d652066756c6c00000000000000000000000000000000000000000000005f82015250565b5f611048600983610f9c565b915061105382611014565b602082019050919050565b5f6020820190508181035f8301526110758161103c565b9050919050565b5f60608201905061108f5f830186610dad565b61109c6020830185610dad565b6110a96040830184610d22565b949350505050565b6110ba81610d4a565b81146110c4575f80fd5b50565b5f815190506110d5816110b1565b92915050565b5f602082840312156110f0576110ef610dd5565b5b5f6110fd848285016110c7565b91505092915050565b7f5374616b65207472616e73666572206661696c656400000000000000000000005f82015250565b5f61113a601583610f9c565b915061114582611106565b602082019050919050565b5f6020820190508181035f8301526111678161112e565b9050919050565b7f4e487b71000000000000000000000000000000000000000000000000000000005f52603260045260245ffd5b7f4e487b71000000000000000000000000000000000000000000000000000000005f52601160045260245ffd5b5f6111d282610e74565b915060ff82036111e5576111e461119b565b5b600182019050919050565b7f416c7265616479207265736f6c766564000000000000000000000000000000005f82015250565b5f611224601083610f9c565b915061122f826111f0565b602082019050919050565b5f6020820190508181035f83015261125181611218565b9050919050565b7f4e487b71000000000000000000000000000000000000000000000000000000005f52601260045260245ffd5b5f61128f82610d19565b915061129a83610d19565b9250826112aa576112a9611258565b5b828206905092915050565b5f6112bf82610d19565b91506112ca83610d19565b92508282026112d881610d19565b915082820484148315176112ef576112ee61119b565b5b5092915050565b5f6040820190506113095f830185610dad565b6113166020830184610d22565b9392505050565b7f5061796f7574206661696c6564000000000000000000000000000000000000005f82015250565b5f611351600d83610f9c565b915061135c8261131d565b602082019050919050565b5f6020820190508181035f83015261137e81611345565b9050919050565b5f8151905061139381610e0c565b92915050565b5f602082840312156113ae576113ad610dd5565b5b5f6113bb84828501611385565b91505092915050565b7f4e6f7420656e6f756768204c494e4b00000000000000000000000000000000005f82015250565b5f6113f8600f83610f9c565b9150611403826113c4565b602082019050919050565b5f6020820190508181035f830152611425816113ec565b9050919050565b61143581610dd9565b82525050565b5f60208201905061144e5f83018461142c565b92915050565b5f6040820190506114675f83018561142c565b6114746020830184610d22565b9392505050565b5f81519050919050565b5f82825260208201905092915050565b8281835e5f83830152505050565b5f601f19601f8301169050919050565b5f6114bd8261147b565b6114c78185611485565b93506114d7818560208601611495565b6114e0816114a3565b840191505092915050565b5f6060820190506114fe5f830186610dad565b61150b6020830185610d22565b818103604083015261151d81846114b3565b9050949350505050565b5f61153182610d19565b915061153c83610d19565b92508282019050808211156115545761155361119b565b5b92915050565b5f60808201905061156d5f83018761142c565b61157a6020830186610d22565b6115876040830185610dad565b6115946060830184610d22565b95945050505050565b5f819050919050565b6115b76115b282610dd9565b61159d565b82525050565b5f819050919050565b6115d76115d282610d19565b6115bd565b82525050565b5f6115e882856115a6565b6020820191506115f882846115c6565b602082019150819050939250505056fea264697066735822122040e3575ec73a622224a05521bb6870ccbb2efb02b34149af288a7de5c57adb5c64736f6c634300081a0033a26469706673582212200d3e31a9d2275ddcd66d56edfe3afb812b1a14c3aa6635a6a6f48a91e2c9a70964736f6c634300081a0033",
					"opcodes": "PUSH1 0x80 PUSH1 0x40 MSTORE CALLVALUE DUP1 ISZERO PUSH2 0xF JUMPI PUSH0 DUP1 REVERT JUMPDEST POP PUSH1 0x40 MLOAD PUSH2 0x2245 CODESIZE SUB DUP1 PUSH2 0x2245 DUP4 CODECOPY DUP2 DUP2 ADD PUSH1 0x40 MSTORE DUP2 ADD SWAP1 PUSH2 0x31 SWAP2 SWAP1 PUSH2 0x18C JUMP JUMPDEST DUP4 PUSH1 0x1 PUSH0 PUSH2 0x100 EXP DUP2 SLOAD DUP2 PUSH20 0xFFFFFFFFFFFFFFFFFFFFFFFFFFFFFFFFFFFFFFFF MUL NOT AND SWAP1 DUP4 PUSH20 0xFFFFFFFFFFFFFFFFFFFFFFFFFFFFFFFFFFFFFFFF AND MUL OR SWAP1 SSTORE POP DUP3 PUSH1 0x2 PUSH0 PUSH2 0x100 EXP DUP2 SLOAD DUP2 PUSH20 0xFFFFFFFFFFFFFFFFFFFFFFFFFFFFFFFFFFFFFFFF MUL NOT AND SWAP1 DUP4 PUSH20 0xFFFFFFFFFFFFFFFFFFFFFFFFFFFFFFFFFFFFFFFF AND MUL OR SWAP1 SSTORE POP DUP2 PUSH1 0x3 DUP2 SWAP1 SSTORE POP DUP1 PUSH1 0x4 DUP2 SWAP1 SSTORE POP POP POP POP POP PUSH2 0x1F0 JUMP JUMPDEST PUSH0 DUP1 REVERT JUMPDEST PUSH0 PUSH20 0xFFFFFFFFFFFFFFFFFFFFFFFFFFFFFFFFFFFFFFFF DUP3 AND SWAP1 POP SWAP2 SWAP1 POP JUMP JUMPDEST PUSH0 PUSH2 0xF5 DUP3 PUSH2 0xCC JUMP JUMPDEST SWAP1 POP SWAP2 SWAP1 POP JUMP JUMPDEST PUSH2 0x105 DUP2 PUSH2 0xEB JUMP JUMPDEST DUP2 EQ PUSH2 0x10F JUMPI PUSH0 DUP1 REVERT JUMPDEST POP JUMP JUMPDEST PUSH0 DUP2 MLOAD SWAP1 POP PUSH2 0x120 DUP2 PUSH2 0xFC JUMP JUMPDEST SWAP3 SWAP2 POP POP JUMP JUMPDEST PUSH0 DUP2 SWAP1 POP SWAP2 SWAP1 POP JUMP JUMPDEST PUSH2 0x138 DUP2 PUSH2 0x126 JUMP JUMPDEST DUP2 EQ PUSH2 0x142 JUMPI PUSH0 DUP1 REVERT JUMPDEST POP JUMP JUMPDEST PUSH0 DUP2 MLOAD SWAP1 POP PUSH2 0x153 DUP2 PUSH2 0x12F JUMP JUMPDEST SWAP3 SWAP2 POP POP JUMP JUMPDEST PUSH0 DUP2 SWAP1 POP SWAP2 SWAP1 POP JUMP JUMPDEST PUSH2 0x16B DUP2 PUSH2 0x159 JUMP JUMPDEST DUP2 EQ PUSH2 0x175 JUMPI PUSH0 DUP1 REVERT JUMPDEST POP JUMP JUMPDEST PUSH0 DUP2 MLOAD SWAP1 POP PUSH2 0x186 DUP2 PUSH2 0x162 JUMP JUMPDEST SWAP3 SWAP2 POP POP JUMP JUMPDEST PUSH0 DUP1 PUSH0 DUP1 PUSH1 0x80 DUP6 DUP8 SUB SLT ISZERO PUSH2 0x1A4 JUMPI PUSH2 0x1A3 PUSH2 0xC8 JUMP JUMPDEST JUMPDEST PUSH0 PUSH2 0x1B1 DUP8 DUP3 DUP9 ADD PUSH2 0x112 JUMP JUMPDEST SWAP5 POP POP PUSH1 0x20 PUSH2 0x1C2 DUP8 DUP3 DUP9 ADD PUSH2 0x112 JUMP JUMPDEST SWAP4 POP POP PUSH1 0x40 PUSH2 0x1D3 DUP8 DUP3 DUP9 ADD PUSH2 0x145 JUMP JUMPDEST SWAP3 POP POP PUSH1 0x60 PUSH2 0x1E4 DUP8 DUP3 DUP9 ADD PUSH2 0x178 JUMP JUMPDEST SWAP2 POP POP SWAP3 SWAP6 SWAP2 SWAP5 POP SWAP3 POP JUMP JUMPDEST PUSH2 0x2048 DUP1 PUSH2 0x1FD PUSH0 CODECOPY PUSH0 RETURN INVALID PUSH1 0x80 PUSH1 0x40 MSTORE CALLVALUE DUP1 ISZERO PUSH2 0xF JUMPI PUSH0 DUP1 REVERT JUMPDEST POP PUSH1 0x4 CALLDATASIZE LT PUSH2 0x7B JUMPI PUSH0 CALLDATALOAD PUSH1 0xE0 SHR DUP1 PUSH4 0x117A5B90 GT PUSH2 0x59 JUMPI DUP1 PUSH4 0x117A5B90 EQ PUSH2 0xEB JUMPI DUP1 PUSH4 0x4D1975B4 EQ PUSH2 0x11B JUMPI DUP1 PUSH4 0x57970E93 EQ PUSH2 0x139 JUMPI DUP1 PUSH4 0xA3E56FA8 EQ PUSH2 0x157 JUMPI PUSH2 0x7B JUMP JUMPDEST DUP1 PUSH4 0x41D443E EQ PUSH2 0x7F JUMPI DUP1 PUSH4 0x586BC5D EQ PUSH2 0x9D JUMPI DUP1 PUSH4 0x1017507D EQ PUSH2 0xCD JUMPI JUMPDEST PUSH0 DUP1 REVERT JUMPDEST PUSH2 0x87 PUSH2 0x175 JUMP JUMPDEST PUSH1 0x40 MLOAD PUSH2 0x94 SWAP2 SWAP1 PUSH2 0x35C JUMP JUMPDEST PUSH1 0x40 MLOAD DUP1 SWAP2 SUB SWAP1 RETURN JUMPDEST PUSH2 0xB7 PUSH1 0x4 DUP1 CALLDATASIZE SUB DUP2 ADD SWAP1 PUSH2 0xB2 SWAP2 SWAP1 PUSH2 0x406 JUMP JUMPDEST PUSH2 0x17B JUMP JUMPDEST PUSH1 0x40 MLOAD PUSH2 0xC4 SWAP2 SWAP1 PUSH2 0x453 JUMP JUMPDEST PUSH1 0x40 MLOAD DUP1 SWAP2 SUB SWAP1 RETURN JUMPDEST PUSH2 0xD5 PUSH2 0x2A2 JUMP JUMPDEST PUSH1 0x40 MLOAD PUSH2 0xE2 SWAP2 SWAP1 PUSH2 0x47B JUMP JUMPDEST PUSH1 0x40 MLOAD DUP1 SWAP2 SUB SWAP1 RETURN JUMPDEST PUSH2 0x105 PUSH1 0x4 DUP1 CALLDATASIZE SUB DUP2 ADD SWAP1 PUSH2 0x100 SWAP2 SWAP1 PUSH2 0x494 JUMP JUMPDEST PUSH2 0x2A8 JUMP JUMPDEST PUSH1 0x40 MLOAD PUSH2 0x112 SWAP2 SWAP1 PUSH2 0x453 JUMP JUMPDEST PUSH1 0x40 MLOAD DUP1 SWAP2 SUB SWAP1 RETURN JUMPDEST PUSH2 0x123 PUSH2 0x2E2 JUMP JUMPDEST PUSH1 0x40 MLOAD PUSH2 0x130 SWAP2 SWAP1 PUSH2 0x47B JUMP JUMPDEST PUSH1 0x40 MLOAD DUP1 SWAP2 SUB SWAP1 RETURN JUMPDEST PUSH2 0x141 PUSH2 0x2ED JUMP JUMPDEST PUSH1 0x40 MLOAD PUSH2 0x14E SWAP2 SWAP1 PUSH2 0x453 JUMP JUMPDEST PUSH1 0x40 MLOAD DUP1 SWAP2 SUB SWAP1 RETURN JUMPDEST PUSH2 0x15F PUSH2 0x312 JUMP JUMPDEST PUSH1 0x40 MLOAD PUSH2 0x16C SWAP2 SWAP1 PUSH2 0x453 JUMP JUMPDEST PUSH1 0x40 MLOAD DUP1 SWAP2 SUB SWAP1 RETURN JUMPDEST PUSH1 0x3 SLOAD DUP2 JUMP JUMPDEST PUSH0 DUP1 DUP4 DUP4 PUSH1 0x1 PUSH0 SWAP1 SLOAD SWAP1 PUSH2 0x100 EXP SWAP1 DIV PUSH20 0xFFFFFFFFFFFFFFFFFFFFFFFFFFFFFFFFFFFFFFFF AND PUSH1 0x2 PUSH0 SWAP1 SLOAD SWAP1 PUSH2 0x100 EXP SWAP1 DIV PUSH20 0xFFFFFFFFFFFFFFFFFFFFFFFFFFFFFFFFFFFFFFFF AND PUSH1 0x3 SLOAD PUSH1 0x4 SLOAD PUSH1 0x40 MLOAD PUSH2 0x1D5 SWAP1 PUSH2 0x337 JUMP JUMPDEST PUSH2 0x1E4 SWAP7 SWAP6 SWAP5 SWAP4 SWAP3 SWAP2 SWAP1 PUSH2 0x4BF JUMP JUMPDEST PUSH1 0x40 MLOAD DUP1 SWAP2 SUB SWAP1 PUSH0 CREATE DUP1 ISZERO DUP1 ISZERO PUSH2 0x1FD JUMPI RETURNDATASIZE PUSH0 DUP1 RETURNDATACOPY RETURNDATASIZE PUSH0 REVERT JUMPDEST POP SWAP1 POP PUSH0 DUP2 SWAP1 DUP1 PUSH1 0x1 DUP2 SLOAD ADD DUP1 DUP3 SSTORE DUP1 SWAP2 POP POP PUSH1 0x1 SWAP1 SUB SWAP1 PUSH0 MSTORE PUSH1 0x20 PUSH0 KECCAK256 ADD PUSH0 SWAP1 SWAP2 SWAP1 SWAP2 SWAP1 SWAP2 PUSH2 0x100 EXP DUP2 SLOAD DUP2 PUSH20 0xFFFFFFFFFFFFFFFFFFFFFFFFFFFFFFFFFFFFFFFF MUL NOT AND SWAP1 DUP4 PUSH20 0xFFFFFFFFFFFFFFFFFFFFFFFFFFFFFFFFFFFFFFFF AND MUL OR SWAP1 SSTORE POP PUSH32 0xB60D84E37A6658EFFCE28870B1D123CB86F86409DF5888679310C0F276E1F5D2 DUP2 CALLER PUSH1 0x40 MLOAD PUSH2 0x290 SWAP3 SWAP2 SWAP1 PUSH2 0x51E JUMP JUMPDEST PUSH1 0x40 MLOAD DUP1 SWAP2 SUB SWAP1 LOG1 DUP1 SWAP2 POP POP SWAP3 SWAP2 POP POP JUMP JUMPDEST PUSH1 0x4 SLOAD DUP2 JUMP JUMPDEST PUSH0 DUP2 DUP2 SLOAD DUP2 LT PUSH2 0x2B6 JUMPI PUSH0 DUP1 REVERT JUMPDEST SWAP1 PUSH0 MSTORE PUSH1 0x20 PUSH0 KECCAK256 ADD PUSH0 SWAP2 POP SLOAD SWAP1 PUSH2 0x100 EXP SWAP1 DIV PUSH20 0xFFFFFFFFFFFFFFFFFFFFFFFFFFFFFFFFFFFFFFFF AND DUP2 JUMP JUMPDEST PUSH0 DUP1 DUP1 SLOAD SWAP1 POP SWAP1 POP SWAP1 JUMP JUMPDEST PUSH1 0x2 PUSH0 SWAP1 SLOAD SWAP1 PUSH2 0x100 EXP SWAP1 DIV PUSH20 0xFFFFFFFFFFFFFFFFFFFFFFFFFFFFFFFFFFFFFFFF AND DUP2 JUMP JUMPDEST PUSH1 0x1 PUSH0 SWAP1 SLOAD SWAP1 PUSH2 0x100 EXP SWAP1 DIV PUSH20 0xFFFFFFFFFFFFFFFFFFFFFFFFFFFFFFFFFFFFFFFF AND DUP2 JUMP JUMPDEST PUSH2 0x1ACD DUP1 PUSH2 0x546 DUP4 CODECOPY ADD SWAP1 JUMP JUMPDEST PUSH0 DUP2 SWAP1 POP SWAP2 SWAP1 POP JUMP JUMPDEST PUSH2 0x356 DUP2 PUSH2 0x344 JUMP JUMPDEST DUP3 MSTORE POP POP JUMP JUMPDEST PUSH0 PUSH1 0x20 DUP3 ADD SWAP1 POP PUSH2 0x36F PUSH0 DUP4 ADD DUP5 PUSH2 0x34D JUMP JUMPDEST SWAP3 SWAP2 POP POP JUMP JUMPDEST PUSH0 DUP1 REVERT JUMPDEST PUSH0 PUSH20 0xFFFFFFFFFFFFFFFFFFFFFFFFFFFFFFFFFFFFFFFF DUP3 AND SWAP1 POP SWAP2 SWAP1 POP JUMP JUMPDEST PUSH0 PUSH2 0x3A2 DUP3 PUSH2 0x379 JUMP JUMPDEST SWAP1 POP SWAP2 SWAP1 POP JUMP JUMPDEST PUSH2 0x3B2 DUP2 PUSH2 0x398 JUMP JUMPDEST DUP2 EQ PUSH2 0x3BC JUMPI PUSH0 DUP1 REVERT JUMPDEST POP JUMP JUMPDEST PUSH0 DUP2 CALLDATALOAD SWAP1 POP PUSH2 0x3CD DUP2 PUSH2 0x3A9 JUMP JUMPDEST SWAP3 SWAP2 POP POP JUMP JUMPDEST PUSH0 DUP2 SWAP1 POP SWAP2 SWAP1 POP JUMP JUMPDEST PUSH2 0x3E5 DUP2 PUSH2 0x3D3 JUMP JUMPDEST DUP2 EQ PUSH2 0x3EF JUMPI PUSH0 DUP1 REVERT JUMPDEST POP JUMP JUMPDEST PUSH0 DUP2 CALLDATALOAD SWAP1 POP PUSH2 0x400 DUP2 PUSH2 0x3DC JUMP JUMPDEST SWAP3 SWAP2 POP POP JUMP JUMPDEST PUSH0 DUP1 PUSH1 0x40 DUP4 DUP6 SUB SLT ISZERO PUSH2 0x41C JUMPI PUSH2 0x41B PUSH2 0x375 JUMP JUMPDEST JUMPDEST PUSH0 PUSH2 0x429 DUP6 DUP3 DUP7 ADD PUSH2 0x3BF JUMP JUMPDEST SWAP3 POP POP PUSH1 0x20 PUSH2 0x43A DUP6 DUP3 DUP7 ADD PUSH2 0x3F2 JUMP JUMPDEST SWAP2 POP POP SWAP3 POP SWAP3 SWAP1 POP JUMP JUMPDEST PUSH2 0x44D DUP2 PUSH2 0x398 JUMP JUMPDEST DUP3 MSTORE POP POP JUMP JUMPDEST PUSH0 PUSH1 0x20 DUP3 ADD SWAP1 POP PUSH2 0x466 PUSH0 DUP4 ADD DUP5 PUSH2 0x444 JUMP JUMPDEST SWAP3 SWAP2 POP POP JUMP JUMPDEST PUSH2 0x475 DUP2 PUSH2 0x3D3 JUMP JUMPDEST DUP3 MSTORE POP POP JUMP JUMPDEST PUSH0 PUSH1 0x20 DUP3 ADD SWAP1 POP PUSH2 0x48E PUSH0 DUP4 ADD DUP5 PUSH2 0x46C JUMP JUMPDEST SWAP3 SWAP2 POP POP JUMP JUMPDEST PUSH0 PUSH1 0x20 DUP3 DUP5 SUB SLT ISZERO PUSH2 0x4A9 JUMPI PUSH2 0x4A8 PUSH2 0x375 JUMP JUMPDEST JUMPDEST PUSH0 PUSH2 0x4B6 DUP5 DUP3 DUP6 ADD PUSH2 0x3F2 JUMP JUMPDEST SWAP2 POP POP SWAP3 SWAP2 POP POP JUMP JUMPDEST PUSH0 PUSH1 0xC0 DUP3 ADD SWAP1 POP PUSH2 0x4D2 PUSH0 DUP4 ADD DUP10 PUSH2 0x444 JUMP JUMPDEST PUSH2 0x4DF PUSH1 0x20 DUP4 ADD DUP9 PUSH2 0x46C JUMP JUMPDEST PUSH2 0x4EC PUSH1 0x40 DUP4 ADD DUP8 PUSH2 0x444 JUMP JUMPDEST PUSH2 0x4F9 PUSH1 0x60 DUP4 ADD DUP7 PUSH2 0x444 JUMP JUMPDEST PUSH2 0x506 PUSH1 0x80 DUP4 ADD DUP6 PUSH2 0x34D JUMP JUMPDEST PUSH2 0x513 PUSH1 0xA0 DUP4 ADD DUP5 PUSH2 0x46C JUMP JUMPDEST SWAP8 SWAP7 POP POP POP POP POP POP POP JUMP JUMPDEST PUSH0 PUSH1 0x40 DUP3 ADD SWAP1 POP PUSH2 0x531 PUSH0 DUP4 ADD DUP6 PUSH2 0x444 JUMP JUMPDEST PUSH2 0x53E PUSH1 0x20 DUP4 ADD DUP5 PUSH2 0x444 JUMP JUMPDEST SWAP4 SWAP3 POP POP POP JUMP INVALID PUSH2 0x100 PUSH1 0x40 MSTORE CALLVALUE DUP1 ISZERO PUSH2 0x10 JUMPI PUSH0 DUP1 REVERT JUMPDEST POP PUSH1 0x40 MLOAD PUSH2 0x1ACD CODESIZE SUB DUP1 PUSH2 0x1ACD DUP4 CODECOPY DUP2 DUP2 ADD PUSH1 0x40 MSTORE DUP2 ADD SWAP1 PUSH2 0x32 SWAP2 SWAP1 PUSH2 0x34B JUMP JUMPDEST CALLER DUP5 DUP5 DUP2 PUSH20 0xFFFFFFFFFFFFFFFFFFFFFFFFFFFFFFFFFFFFFFFF AND PUSH1 0xA0 DUP2 PUSH20 0xFFFFFFFFFFFFFFFFFFFFFFFFFFFFFFFFFFFFFFFF AND DUP2 MSTORE POP POP DUP1 PUSH20 0xFFFFFFFFFFFFFFFFFFFFFFFFFFFFFFFFFFFFFFFF AND PUSH1 0x80 DUP2 PUSH20 0xFFFFFFFFFFFFFFFFFFFFFFFFFFFFFFFFFFFFFFFF AND DUP2 MSTORE POP POP POP POP PUSH0 PUSH20 0xFFFFFFFFFFFFFFFFFFFFFFFFFFFFFFFFFFFFFFFF AND DUP2 PUSH20 0xFFFFFFFFFFFFFFFFFFFFFFFFFFFFFFFFFFFFFFFF AND SUB PUSH2 0x10F JUMPI PUSH0 PUSH1 0x40 MLOAD PUSH32 0x1E4FBDF700000000000000000000000000000000000000000000000000000000 DUP2 MSTORE PUSH1 0x4 ADD PUSH2 0x106 SWAP2 SWAP1 PUSH2 0x3E3 JUMP JUMPDEST PUSH1 0x40 MLOAD DUP1 SWAP2 SUB SWAP1 REVERT JUMPDEST PUSH2 0x11E DUP2 PUSH2 0x1C4 PUSH1 0x20 SHL PUSH1 0x20 SHR JUMP JUMPDEST POP DUP6 PUSH20 0xFFFFFFFFFFFFFFFFFFFFFFFFFFFFFFFFFFFFFFFF AND PUSH1 0xC0 DUP2 PUSH20 0xFFFFFFFFFFFFFFFFFFFFFFFFFFFFFFFFFFFFFFFF AND DUP2 MSTORE POP POP DUP5 PUSH1 0xE0 DUP2 DUP2 MSTORE POP POP DUP2 PUSH1 0x5 DUP2 SWAP1 SSTORE POP DUP1 PUSH1 0x6 DUP2 SWAP1 SSTORE POP CALLER PUSH20 0xFFFFFFFFFFFFFFFFFFFFFFFFFFFFFFFFFFFFFFFF AND PUSH32 0xD152BF1AB39EC18E27D3DCB4F271007B0107191D3E8BED48C19CA8C9C1309E26 DUP8 DUP8 PUSH1 0x40 MLOAD PUSH2 0x1B1 SWAP3 SWAP2 SWAP1 PUSH2 0x40B JUMP JUMPDEST PUSH1 0x40 MLOAD DUP1 SWAP2 SUB SWAP1 LOG2 POP POP POP POP POP POP PUSH2 0x432 JUMP JUMPDEST PUSH0 PUSH1 0x1 PUSH0 SWAP1 SLOAD SWAP1 PUSH2 0x100 EXP SWAP1 DIV PUSH20 0xFFFFFFFFFFFFFFFFFFFFFFFFFFFFFFFFFFFFFFFF AND SWAP1 POP DUP2 PUSH1 0x1 PUSH0 PUSH2 0x100 EXP DUP2 SLOAD DUP2 PUSH20 0xFFFFFFFFFFFFFFFFFFFFFFFFFFFFFFFFFFFFFFFF MUL NOT AND SWAP1 DUP4 PUSH20 0xFFFFFFFFFFFFFFFFFFFFFFFFFFFFFFFFFFFFFFFF AND MUL OR SWAP1 SSTORE POP DUP2 PUSH20 0xFFFFFFFFFFFFFFFFFFFFFFFFFFFFFFFFFFFFFFFF AND DUP2 PUSH20 0xFFFFFFFFFFFFFFFFFFFFFFFFFFFFFFFFFFFFFFFF AND PUSH32 0x8BE0079C531659141344CD1FD0A4F28419497F9722A3DAAFE3B4186F6B6457E0 PUSH1 0x40 MLOAD PUSH1 0x40 MLOAD DUP1 SWAP2 SUB SWAP1 LOG3 POP POP JUMP JUMPDEST PUSH0 DUP1 REVERT JUMPDEST PUSH0 PUSH20 0xFFFFFFFFFFFFFFFFFFFFFFFFFFFFFFFFFFFFFFFF DUP3 AND SWAP1 POP SWAP2 SWAP1 POP JUMP JUMPDEST PUSH0 PUSH2 0x2B4 DUP3 PUSH2 0x28B JUMP JUMPDEST SWAP1 POP SWAP2 SWAP1 POP JUMP JUMPDEST PUSH2 0x2C4 DUP2 PUSH2 0x2AA JUMP JUMPDEST DUP2 EQ PUSH2 0x2CE JUMPI PUSH0 DUP1 REVERT JUMPDEST POP JUMP JUMPDEST PUSH0 DUP2 MLOAD SWAP1 POP PUSH2 0x2DF DUP2 PUSH2 0x2BB JUMP JUMPDEST SWAP3 SWAP2 POP POP JUMP JUMPDEST PUSH0 DUP2 SWAP1 POP SWAP2 SWAP1 POP JUMP JUMPDEST PUSH2 0x2F7 DUP2 PUSH2 0x2E5 JUMP JUMPDEST DUP2 EQ PUSH2 0x301 JUMPI PUSH0 DUP1 REVERT JUMPDEST POP JUMP JUMPDEST PUSH0 DUP2 MLOAD SWAP1 POP PUSH2 0x312 DUP2 PUSH2 0x2EE JUMP JUMPDEST SWAP3 SWAP2 POP POP JUMP JUMPDEST PUSH0 DUP2 SWAP1 POP SWAP2 SWAP1 POP JUMP JUMPDEST PUSH2 0x32A DUP2 PUSH2 0x318 JUMP JUMPDEST DUP2 EQ PUSH2 0x334 JUMPI PUSH0 DUP1 REVERT JUMPDEST POP JUMP JUMPDEST PUSH0 DUP2 MLOAD SWAP1 POP PUSH2 0x345 DUP2 PUSH2 0x321 JUMP JUMPDEST SWAP3 SWAP2 POP POP JUMP JUMPDEST PUSH0 DUP1 PUSH0 DUP1 PUSH0 DUP1 PUSH1 0xC0 DUP8 DUP10 SUB SLT ISZERO PUSH2 0x365 JUMPI PUSH2 0x364 PUSH2 0x287 JUMP JUMPDEST JUMPDEST PUSH0 PUSH2 0x372 DUP10 DUP3 DUP11 ADD PUSH2 0x2D1 JUMP JUMPDEST SWAP7 POP POP PUSH1 0x20 PUSH2 0x383 DUP10 DUP3 DUP11 ADD PUSH2 0x304 JUMP JUMPDEST SWAP6 POP POP PUSH1 0x40 PUSH2 0x394 DUP10 DUP3 DUP11 ADD PUSH2 0x2D1 JUMP JUMPDEST SWAP5 POP POP PUSH1 0x60 PUSH2 0x3A5 DUP10 DUP3 DUP11 ADD PUSH2 0x2D1 JUMP JUMPDEST SWAP4 POP POP PUSH1 0x80 PUSH2 0x3B6 DUP10 DUP3 DUP11 ADD PUSH2 0x337 JUMP JUMPDEST SWAP3 POP POP PUSH1 0xA0 PUSH2 0x3C7 DUP10 DUP3 DUP11 ADD PUSH2 0x304 JUMP JUMPDEST SWAP2 POP POP SWAP3 SWAP6 POP SWAP3 SWAP6 POP SWAP3 SWAP6 JUMP JUMPDEST PUSH2 0x3DD DUP2 PUSH2 0x2AA JUMP JUMPDEST DUP3 MSTORE POP POP JUMP JUMPDEST PUSH0 PUSH1 0x20 DUP3 ADD SWAP1 POP PUSH2 0x3F6 PUSH0 DUP4 ADD DUP5 PUSH2 0x3D4 JUMP JUMPDEST SWAP3 SWAP2 POP POP JUMP JUMPDEST PUSH2 0x405 DUP2 PUSH2 0x2E5 JUMP JUMPDEST DUP3 MSTORE POP POP JUMP JUMPDEST PUSH0 PUSH1 0x40 DUP3 ADD SWAP1 POP PUSH2 0x41E PUSH0 DUP4 ADD DUP6 PUSH2 0x3D4 JUMP JUMPDEST PUSH2 0x42B PUSH1 0x20 DUP4 ADD DUP5 PUSH2 0x3FC JUMP JUMPDEST SWAP4 SWAP3 POP POP POP JUMP JUMPDEST PUSH1 0x80 MLOAD PUSH1 0xA0 MLOAD PUSH1 0xC0 MLOAD PUSH1 0xE0 MLOAD PUSH2 0x163E PUSH2 0x48F PUSH0 CODECOPY PUSH0 DUP2 DUP2 PUSH2 0x206 ADD MSTORE DUP2 DUP2 PUSH2 0x3BD ADD MSTORE PUSH2 0x8B6 ADD MSTORE PUSH0 DUP2 DUP2 PUSH2 0x37F ADD MSTORE DUP2 DUP2 PUSH2 0x650 ADD MSTORE PUSH2 0x8E3 ADD MSTORE PUSH0 DUP2 DUP2 PUSH2 0x27D ADD MSTORE PUSH2 0xBA9 ADD MSTORE PUSH0 DUP2 DUP2 PUSH2 0xA42 ADD MSTORE PUSH2 0xB6D ADD MSTORE PUSH2 0x163E PUSH0 RETURN INVALID PUSH1 0x80 PUSH1 0x40 MSTORE CALLVALUE DUP1 ISZERO PUSH2 0xF JUMPI PUSH0 DUP1 REVERT JUMPDEST POP PUSH1 0x4 CALLDATASIZE LT PUSH2 0xB2 JUMPI PUSH0 CALLDATALOAD PUSH1 0xE0 SHR DUP1 PUSH4 0xCF8515F4 GT PUSH2 0x6F JUMPI DUP1 PUSH4 0xCF8515F4 EQ PUSH2 0x154 JUMPI DUP1 PUSH4 0xD4F77B1C EQ PUSH2 0x172 JUMPI DUP1 PUSH4 0xDFBF53AE EQ PUSH2 0x17C JUMPI DUP1 PUSH4 0xF2FDE38B EQ PUSH2 0x19A JUMPI DUP1 PUSH4 0xF71D96CB EQ PUSH2 0x1B6 JUMPI DUP1 PUSH4 0xFC0C546A EQ PUSH2 0x1E6 JUMPI PUSH2 0xB2 JUMP JUMPDEST DUP1 PUSH4 0x3A4B66F1 EQ PUSH2 0xB6 JUMPI DUP1 PUSH4 0x3F6FA655 EQ PUSH2 0xD4 JUMPI DUP1 PUSH4 0x42619F66 EQ PUSH2 0xF2 JUMPI DUP1 PUSH4 0x715018A6 EQ PUSH2 0x110 JUMPI DUP1 PUSH4 0x8DA5CB5B EQ PUSH2 0x11A JUMPI DUP1 PUSH4 0x94985DDD EQ PUSH2 0x138 JUMPI JUMPDEST PUSH0 DUP1 REVERT JUMPDEST PUSH2 0xBE PUSH2 0x204 JUMP JUMPDEST PUSH1 0x40 MLOAD PUSH2 0xCB SWAP2 SWAP1 PUSH2 0xD31 JUMP JUMPDEST PUSH1 0x40 MLOAD DUP1 SWAP2 SUB SWAP1 RETURN JUMPDEST PUSH2 0xDC PUSH2 0x228 JUMP JUMPDEST PUSH1 0x40 MLOAD PUSH2 0xE9 SWAP2 SWAP1 PUSH2 0xD64 JUMP JUMPDEST PUSH1 0x40 MLOAD DUP1 SWAP2 SUB SWAP1 RETURN JUMPDEST PUSH2 0xFA PUSH2 0x23A JUMP JUMPDEST PUSH1 0x40 MLOAD PUSH2 0x107 SWAP2 SWAP1 PUSH2 0xD31 JUMP JUMPDEST PUSH1 0x40 MLOAD DUP1 SWAP2 SUB SWAP1 RETURN JUMPDEST PUSH2 0x118 PUSH2 0x240 JUMP JUMPDEST STOP JUMPDEST PUSH2 0x122 PUSH2 0x253 JUMP JUMPDEST PUSH1 0x40 MLOAD PUSH2 0x12F SWAP2 SWAP1 PUSH2 0xDBC JUMP JUMPDEST PUSH1 0x40 MLOAD DUP1 SWAP2 SUB SWAP1 RETURN JUMPDEST PUSH2 0x152 PUSH1 0x4 DUP1 CALLDATASIZE SUB DUP2 ADD SWAP1 PUSH2 0x14D SWAP2 SWAP1 PUSH2 0xE36 JUMP JUMPDEST PUSH2 0x27B JUMP JUMPDEST STOP JUMPDEST PUSH2 0x15C PUSH2 0x317 JUMP JUMPDEST PUSH1 0x40 MLOAD PUSH2 0x169 SWAP2 SWAP1 PUSH2 0xE8F JUMP JUMPDEST PUSH1 0x40 MLOAD DUP1 SWAP2 SUB SWAP1 RETURN JUMPDEST PUSH2 0x17A PUSH2 0x329 JUMP JUMPDEST STOP JUMPDEST PUSH2 0x184 PUSH2 0x570 JUMP JUMPDEST PUSH1 0x40 MLOAD PUSH2 0x191 SWAP2 SWAP1 PUSH2 0xDBC JUMP JUMPDEST PUSH1 0x40 MLOAD DUP1 SWAP2 SUB SWAP1 RETURN JUMPDEST PUSH2 0x1B4 PUSH1 0x4 DUP1 CALLDATASIZE SUB DUP2 ADD SWAP1 PUSH2 0x1AF SWAP2 SWAP1 PUSH2 0xED2 JUMP JUMPDEST PUSH2 0x596 JUMP JUMPDEST STOP JUMPDEST PUSH2 0x1D0 PUSH1 0x4 DUP1 CALLDATASIZE SUB DUP2 ADD SWAP1 PUSH2 0x1CB SWAP2 SWAP1 PUSH2 0xEFD JUMP JUMPDEST PUSH2 0x61A JUMP JUMPDEST PUSH1 0x40 MLOAD PUSH2 0x1DD SWAP2 SWAP1 PUSH2 0xDBC JUMP JUMPDEST PUSH1 0x40 MLOAD DUP1 SWAP2 SUB SWAP1 RETURN JUMPDEST PUSH2 0x1EE PUSH2 0x64E JUMP JUMPDEST PUSH1 0x40 MLOAD PUSH2 0x1FB SWAP2 SWAP1 PUSH2 0xF83 JUMP JUMPDEST PUSH1 0x40 MLOAD DUP1 SWAP2 SUB SWAP1 RETURN JUMPDEST PUSH32 0x0 DUP2 JUMP JUMPDEST PUSH1 0x8 PUSH0 SWAP1 SLOAD SWAP1 PUSH2 0x100 EXP SWAP1 DIV PUSH1 0xFF AND DUP2 JUMP JUMPDEST PUSH1 0x7 SLOAD DUP2 JUMP JUMPDEST PUSH2 0x248 PUSH2 0x672 JUMP JUMPDEST PUSH2 0x251 PUSH0 PUSH2 0x6F9 JUMP JUMPDEST JUMP JUMPDEST PUSH0 PUSH1 0x1 PUSH0 SWAP1 SLOAD SWAP1 PUSH2 0x100 EXP SWAP1 DIV PUSH20 0xFFFFFFFFFFFFFFFFFFFFFFFFFFFFFFFFFFFFFFFF AND SWAP1 POP SWAP1 JUMP JUMPDEST PUSH32 0x0 PUSH20 0xFFFFFFFFFFFFFFFFFFFFFFFFFFFFFFFFFFFFFFFF AND CALLER PUSH20 0xFFFFFFFFFFFFFFFFFFFFFFFFFFFFFFFFFFFFFFFF AND EQ PUSH2 0x309 JUMPI PUSH1 0x40 MLOAD PUSH32 0x8C379A000000000000000000000000000000000000000000000000000000000 DUP2 MSTORE PUSH1 0x4 ADD PUSH2 0x300 SWAP1 PUSH2 0xFF6 JUMP JUMPDEST PUSH1 0x40 MLOAD DUP1 SWAP2 SUB SWAP1 REVERT JUMPDEST PUSH2 0x313 DUP3 DUP3 PUSH2 0x7BC JUMP JUMPDEST POP POP JUMP JUMPDEST PUSH1 0x4 PUSH0 SWAP1 SLOAD SWAP1 PUSH2 0x100 EXP SWAP1 DIV PUSH1 0xFF AND DUP2 JUMP JUMPDEST PUSH1 0x2 PUSH1 0x4 PUSH0 SWAP1 SLOAD SWAP1 PUSH2 0x100 EXP SWAP1 DIV PUSH1 0xFF AND PUSH1 0xFF AND LT PUSH2 0x37D JUMPI PUSH1 0x40 MLOAD PUSH32 0x8C379A000000000000000000000000000000000000000000000000000000000 DUP2 MSTORE PUSH1 0x4 ADD PUSH2 0x374 SWAP1 PUSH2 0x105E JUMP JUMPDEST PUSH1 0x40 MLOAD DUP1 SWAP2 SUB SWAP1 REVERT JUMPDEST PUSH32 0x0 PUSH20 0xFFFFFFFFFFFFFFFFFFFFFFFFFFFFFFFFFFFFFFFF AND PUSH4 0x23B872DD CALLER ADDRESS PUSH32 0x0 PUSH1 0x40 MLOAD DUP5 PUSH4 0xFFFFFFFF AND PUSH1 0xE0 SHL DUP2 MSTORE PUSH1 0x4 ADD PUSH2 0x3FA SWAP4 SWAP3 SWAP2 SWAP1 PUSH2 0x107C JUMP JUMPDEST PUSH1 0x20 PUSH1 0x40 MLOAD DUP1 DUP4 SUB DUP2 PUSH0 DUP8 GAS CALL ISZERO DUP1 ISZERO PUSH2 0x416 JUMPI RETURNDATASIZE PUSH0 DUP1 RETURNDATACOPY RETURNDATASIZE PUSH0 REVERT JUMPDEST POP POP POP POP PUSH1 0x40 MLOAD RETURNDATASIZE PUSH1 0x1F NOT PUSH1 0x1F DUP3 ADD AND DUP3 ADD DUP1 PUSH1 0x40 MSTORE POP DUP2 ADD SWAP1 PUSH2 0x43A SWAP2 SWAP1 PUSH2 0x10DB JUMP JUMPDEST PUSH2 0x479 JUMPI PUSH1 0x40 MLOAD PUSH32 0x8C379A000000000000000000000000000000000000000000000000000000000 DUP2 MSTORE PUSH1 0x4 ADD PUSH2 0x470 SWAP1 PUSH2 0x1150 JUMP JUMPDEST PUSH1 0x40 MLOAD DUP1 SWAP2 SUB SWAP1 REVERT JUMPDEST CALLER PUSH1 0x2 PUSH1 0x4 PUSH0 SWAP1 SLOAD SWAP1 PUSH2 0x100 EXP SWAP1 DIV PUSH1 0xFF AND PUSH1 0xFF AND PUSH1 0x2 DUP2 LT PUSH2 0x49F JUMPI PUSH2 0x49E PUSH2 0x116E JUMP JUMPDEST JUMPDEST ADD PUSH0 PUSH2 0x100 EXP DUP2 SLOAD DUP2 PUSH20 0xFFFFFFFFFFFFFFFFFFFFFFFFFFFFFFFFFFFFFFFF MUL NOT AND SWAP1 DUP4 PUSH20 0xFFFFFFFFFFFFFFFFFFFFFFFFFFFFFFFFFFFFFFFF AND MUL OR SWAP1 SSTORE POP PUSH1 0x4 PUSH0 DUP2 DUP2 SWAP1 SLOAD SWAP1 PUSH2 0x100 EXP SWAP1 DIV PUSH1 0xFF AND DUP1 SWAP3 SWAP2 SWAP1 PUSH2 0x4FB SWAP1 PUSH2 0x11C8 JUMP JUMPDEST SWAP2 SWAP1 PUSH2 0x100 EXP DUP2 SLOAD DUP2 PUSH1 0xFF MUL NOT AND SWAP1 DUP4 PUSH1 0xFF AND MUL OR SWAP1 SSTORE POP POP PUSH32 0x31E760AA525306ABA638A784082A013B6A1CC0A9A1789F3F22281C0453B10B1F CALLER PUSH1 0x40 MLOAD PUSH2 0x543 SWAP2 SWAP1 PUSH2 0xDBC JUMP JUMPDEST PUSH1 0x40 MLOAD DUP1 SWAP2 SUB SWAP1 LOG1 PUSH1 0x2 PUSH1 0x4 PUSH0 SWAP1 SLOAD SWAP1 PUSH2 0x100 EXP SWAP1 DIV PUSH1 0xFF AND PUSH1 0xFF AND SUB PUSH2 0x56E JUMPI PUSH2 0x56C PUSH2 0xA3C JUMP JUMPDEST POP JUMPDEST JUMP JUMPDEST PUSH1 0x8 PUSH1 0x1 SWAP1 SLOAD SWAP1 PUSH2 0x100 EXP SWAP1 DIV PUSH20 0xFFFFFFFFFFFFFFFFFFFFFFFFFFFFFFFFFFFFFFFF AND DUP2 JUMP JUMPDEST PUSH2 0x59E PUSH2 0x672 JUMP JUMPDEST PUSH0 PUSH20 0xFFFFFFFFFFFFFFFFFFFFFFFFFFFFFFFFFFFFFFFF AND DUP2 PUSH20 0xFFFFFFFFFFFFFFFFFFFFFFFFFFFFFFFFFFFFFFFF AND SUB PUSH2 0x60E JUMPI PUSH0 PUSH1 0x40 MLOAD PUSH32 0x1E4FBDF700000000000000000000000000000000000000000000000000000000 DUP2 MSTORE PUSH1 0x4 ADD PUSH2 0x605 SWAP2 SWAP1 PUSH2 0xDBC JUMP JUMPDEST PUSH1 0x40 MLOAD DUP1 SWAP2 SUB SWAP1 REVERT JUMPDEST PUSH2 0x617 DUP2 PUSH2 0x6F9 JUMP JUMPDEST POP JUMP JUMPDEST PUSH1 0x2 DUP2 PUSH1 0x2 DUP2 LT PUSH2 0x629 JUMPI PUSH0 DUP1 REVERT JUMPDEST ADD PUSH0 SWAP2 POP SLOAD SWAP1 PUSH2 0x100 EXP SWAP1 DIV PUSH20 0xFFFFFFFFFFFFFFFFFFFFFFFFFFFFFFFFFFFFFFFF AND DUP2 JUMP JUMPDEST PUSH32 0x0 DUP2 JUMP JUMPDEST PUSH2 0x67A PUSH2 0xB63 JUMP JUMPDEST PUSH20 0xFFFFFFFFFFFFFFFFFFFFFFFFFFFFFFFFFFFFFFFF AND PUSH2 0x698 PUSH2 0x253 JUMP JUMPDEST PUSH20 0xFFFFFFFFFFFFFFFFFFFFFFFFFFFFFFFFFFFFFFFF AND EQ PUSH2 0x6F7 JUMPI PUSH2 0x6BB PUSH2 0xB63 JUMP JUMPDEST PUSH1 0x40 MLOAD PUSH32 0x118CDAA700000000000000000000000000000000000000000000000000000000 DUP2 MSTORE PUSH1 0x4 ADD PUSH2 0x6EE SWAP2 SWAP1 PUSH2 0xDBC JUMP JUMPDEST PUSH1 0x40 MLOAD DUP1 SWAP2 SUB SWAP1 REVERT JUMPDEST JUMP JUMPDEST PUSH0 PUSH1 0x1 PUSH0 SWAP1 SLOAD SWAP1 PUSH2 0x100 EXP SWAP1 DIV PUSH20 0xFFFFFFFFFFFFFFFFFFFFFFFFFFFFFFFFFFFFFFFF AND SWAP1 POP DUP2 PUSH1 0x1 PUSH0 PUSH2 0x100 EXP DUP2 SLOAD DUP2 PUSH20 0xFFFFFFFFFFFFFFFFFFFFFFFFFFFFFFFFFFFFFFFF MUL NOT AND SWAP1 DUP4 PUSH20 0xFFFFFFFFFFFFFFFFFFFFFFFFFFFFFFFFFFFFFFFF AND MUL OR SWAP1 SSTORE POP DUP2 PUSH20 0xFFFFFFFFFFFFFFFFFFFFFFFFFFFFFFFFFFFFFFFF AND DUP2 PUSH20 0xFFFFFFFFFFFFFFFFFFFFFFFFFFFFFFFFFFFFFFFF AND PUSH32 0x8BE0079C531659141344CD1FD0A4F28419497F9722A3DAAFE3B4186F6B6457E0 PUSH1 0x40 MLOAD PUSH1 0x40 MLOAD DUP1 SWAP2 SUB SWAP1 LOG3 POP POP JUMP JUMPDEST PUSH1 0x8 PUSH0 SWAP1 SLOAD SWAP1 PUSH2 0x100 EXP SWAP1 DIV PUSH1 0xFF AND ISZERO PUSH2 0x80B JUMPI PUSH1 0x40 MLOAD PUSH32 0x8C379A000000000000000000000000000000000000000000000000000000000 DUP2 MSTORE PUSH1 0x4 ADD PUSH2 0x802 SWAP1 PUSH2 0x123A JUMP JUMPDEST PUSH1 0x40 MLOAD DUP1 SWAP2 SUB SWAP1 REVERT JUMPDEST DUP1 PUSH1 0x7 DUP2 SWAP1 SSTORE POP PUSH0 PUSH1 0x2 DUP3 PUSH2 0x820 SWAP2 SWAP1 PUSH2 0x1285 JUMP JUMPDEST SWAP1 POP PUSH1 0x2 DUP2 PUSH1 0x2 DUP2 LT PUSH2 0x836 JUMPI PUSH2 0x835 PUSH2 0x116E JUMP JUMPDEST JUMPDEST ADD PUSH0 SWAP1 SLOAD SWAP1 PUSH2 0x100 EXP SWAP1 DIV PUSH20 0xFFFFFFFFFFFFFFFFFFFFFFFFFFFFFFFFFFFFFFFF AND PUSH1 0x8 PUSH1 0x1 PUSH2 0x100 EXP DUP2 SLOAD DUP2 PUSH20 0xFFFFFFFFFFFFFFFFFFFFFFFFFFFFFFFFFFFFFFFF MUL NOT AND SWAP1 DUP4 PUSH20 0xFFFFFFFFFFFFFFFFFFFFFFFFFFFFFFFFFFFFFFFF AND MUL OR SWAP1 SSTORE POP PUSH1 0x1 PUSH1 0x8 PUSH0 PUSH2 0x100 EXP DUP2 SLOAD DUP2 PUSH1 0xFF MUL NOT AND SWAP1 DUP4 ISZERO ISZERO MUL OR SWAP1 SSTORE POP PUSH0 PUSH1 0x2 PUSH32 0x0 PUSH2 0x8DF SWAP2 SWAP1 PUSH2 0x12B5 JUMP JUMPDEST SWAP1 POP PUSH32 0x0 PUSH20 0xFFFFFFFFFFFFFFFFFFFFFFFFFFFFFFFFFFFFFFFF AND PUSH4 0xA9059CBB PUSH1 0x8 PUSH1 0x1 SWAP1 SLOAD SWAP1 PUSH2 0x100 EXP SWAP1 DIV PUSH20 0xFFFFFFFFFFFFFFFFFFFFFFFFFFFFFFFFFFFFFFFF AND DUP4 PUSH1 0x40 MLOAD DUP4 PUSH4 0xFFFFFFFF AND PUSH1 0xE0 SHL DUP2 MSTORE PUSH1 0x4 ADD PUSH2 0x95E SWAP3 SWAP2 SWAP1 PUSH2 0x12F6 JUMP JUMPDEST PUSH1 0x20 PUSH1 0x40 MLOAD DUP1 DUP4 SUB DUP2 PUSH0 DUP8 GAS CALL ISZERO DUP1 ISZERO PUSH2 0x97A JUMPI RETURNDATASIZE PUSH0 DUP1 RETURNDATACOPY RETURNDATASIZE PUSH0 REVERT JUMPDEST POP POP POP POP PUSH1 0x40 MLOAD RETURNDATASIZE PUSH1 0x1F NOT PUSH1 0x1F DUP3 ADD AND DUP3 ADD DUP1 PUSH1 0x40 MSTORE POP DUP2 ADD SWAP1 PUSH2 0x99E SWAP2 SWAP1 PUSH2 0x10DB JUMP JUMPDEST PUSH2 0x9DD JUMPI PUSH1 0x40 MLOAD PUSH32 0x8C379A000000000000000000000000000000000000000000000000000000000 DUP2 MSTORE PUSH1 0x4 ADD PUSH2 0x9D4 SWAP1 PUSH2 0x1367 JUMP JUMPDEST PUSH1 0x40 MLOAD DUP1 SWAP2 SUB SWAP1 REVERT JUMPDEST PUSH32 0x2A2CB2E94A6626CC0BA41C90BD87AD701BDF47A8C3D7300070C92C0FD36B872B PUSH1 0x8 PUSH1 0x1 SWAP1 SLOAD SWAP1 PUSH2 0x100 EXP SWAP1 DIV PUSH20 0xFFFFFFFFFFFFFFFFFFFFFFFFFFFFFFFFFFFFFFFF AND PUSH1 0x40 MLOAD PUSH2 0xA2E SWAP2 SWAP1 PUSH2 0xDBC JUMP JUMPDEST PUSH1 0x40 MLOAD DUP1 SWAP2 SUB SWAP1 LOG1 POP POP POP POP JUMP JUMPDEST PUSH0 PUSH1 0x6 SLOAD PUSH32 0x0 PUSH20 0xFFFFFFFFFFFFFFFFFFFFFFFFFFFFFFFFFFFFFFFF AND PUSH4 0x70A08231 ADDRESS PUSH1 0x40 MLOAD DUP3 PUSH4 0xFFFFFFFF AND PUSH1 0xE0 SHL DUP2 MSTORE PUSH1 0x4 ADD PUSH2 0xA99 SWAP2 SWAP1 PUSH2 0xDBC JUMP JUMPDEST PUSH1 0x20 PUSH1 0x40 MLOAD DUP1 DUP4 SUB DUP2 DUP7 GAS STATICCALL ISZERO DUP1 ISZERO PUSH2 0xAB4 JUMPI RETURNDATASIZE PUSH0 DUP1 RETURNDATACOPY RETURNDATASIZE PUSH0 REVERT JUMPDEST POP POP POP POP PUSH1 0x40 MLOAD RETURNDATASIZE PUSH1 0x1F NOT PUSH1 0x1F DUP3 ADD AND DUP3 ADD DUP1 PUSH1 0x40 MSTORE POP DUP2 ADD SWAP1 PUSH2 0xAD8 SWAP2 SWAP1 PUSH2 0x1399 JUMP JUMPDEST LT ISZERO PUSH2 0xB19 JUMPI PUSH1 0x40 MLOAD PUSH32 0x8C379A000000000000000000000000000000000000000000000000000000000 DUP2 MSTORE PUSH1 0x4 ADD PUSH2 0xB10 SWAP1 PUSH2 0x140E JUMP JUMPDEST PUSH1 0x40 MLOAD DUP1 SWAP2 SUB SWAP1 REVERT JUMPDEST PUSH2 0xB27 PUSH1 0x5 SLOAD PUSH1 0x6 SLOAD PUSH2 0xB6A JUMP JUMPDEST SWAP1 POP PUSH32 0x3573455BFD612C588441D8F1BEC935C6CF4D3643FC8FDA959594E4EA24A234D0 DUP2 PUSH1 0x40 MLOAD PUSH2 0xB58 SWAP2 SWAP1 PUSH2 0x143B JUMP JUMPDEST PUSH1 0x40 MLOAD DUP1 SWAP2 SUB SWAP1 LOG1 SWAP1 JUMP JUMPDEST PUSH0 CALLER SWAP1 POP SWAP1 JUMP JUMPDEST PUSH0 PUSH32 0x0 PUSH20 0xFFFFFFFFFFFFFFFFFFFFFFFFFFFFFFFFFFFFFFFF AND PUSH4 0x4000AEA0 PUSH32 0x0 DUP5 DUP7 PUSH0 PUSH1 0x40 MLOAD PUSH1 0x20 ADD PUSH2 0xBDC SWAP3 SWAP2 SWAP1 PUSH2 0x1454 JUMP JUMPDEST PUSH1 0x40 MLOAD PUSH1 0x20 DUP2 DUP4 SUB SUB DUP2 MSTORE SWAP1 PUSH1 0x40 MSTORE PUSH1 0x40 MLOAD DUP5 PUSH4 0xFFFFFFFF AND PUSH1 0xE0 SHL DUP2 MSTORE PUSH1 0x4 ADD PUSH2 0xC09 SWAP4 SWAP3 SWAP2 SWAP1 PUSH2 0x14EB JUMP JUMPDEST PUSH1 0x20 PUSH1 0x40 MLOAD DUP1 DUP4 SUB DUP2 PUSH0 DUP8 GAS CALL ISZERO DUP1 ISZERO PUSH2 0xC25 JUMPI RETURNDATASIZE PUSH0 DUP1 RETURNDATACOPY RETURNDATASIZE PUSH0 REVERT JUMPDEST POP POP POP POP PUSH1 0x40 MLOAD RETURNDATASIZE PUSH1 0x1F NOT PUSH1 0x1F DUP3 ADD AND DUP3 ADD DUP1 PUSH1 0x40 MSTORE POP DUP2 ADD SWAP1 PUSH2 0xC49 SWAP2 SWAP1 PUSH2 0x10DB JUMP JUMPDEST POP PUSH0 PUSH2 0xC67 DUP5 PUSH0 ADDRESS PUSH0 DUP1 DUP10 DUP2 MSTORE PUSH1 0x20 ADD SWAP1 DUP2 MSTORE PUSH1 0x20 ADD PUSH0 KECCAK256 SLOAD PUSH2 0xCAD JUMP JUMPDEST SWAP1 POP PUSH1 0x1 PUSH0 DUP1 DUP7 DUP2 MSTORE PUSH1 0x20 ADD SWAP1 DUP2 MSTORE PUSH1 0x20 ADD PUSH0 KECCAK256 SLOAD PUSH2 0xC86 SWAP2 SWAP1 PUSH2 0x1527 JUMP JUMPDEST PUSH0 DUP1 DUP7 DUP2 MSTORE PUSH1 0x20 ADD SWAP1 DUP2 MSTORE PUSH1 0x20 ADD PUSH0 KECCAK256 DUP2 SWAP1 SSTORE POP PUSH2 0xCA4 DUP5 DUP3 PUSH2 0xCE7 JUMP JUMPDEST SWAP2 POP POP SWAP3 SWAP2 POP POP JUMP JUMPDEST PUSH0 DUP5 DUP5 DUP5 DUP5 PUSH1 0x40 MLOAD PUSH1 0x20 ADD PUSH2 0xCC5 SWAP5 SWAP4 SWAP3 SWAP2 SWAP1 PUSH2 0x155A JUMP JUMPDEST PUSH1 0x40 MLOAD PUSH1 0x20 DUP2 DUP4 SUB SUB DUP2 MSTORE SWAP1 PUSH1 0x40 MSTORE DUP1 MLOAD SWAP1 PUSH1 0x20 ADD KECCAK256 PUSH0 SHR SWAP1 POP SWAP5 SWAP4 POP POP POP POP JUMP JUMPDEST PUSH0 DUP3 DUP3 PUSH1 0x40 MLOAD PUSH1 0x20 ADD PUSH2 0xCFB SWAP3 SWAP2 SWAP1 PUSH2 0x15DD JUMP JUMPDEST PUSH1 0x40 MLOAD PUSH1 0x20 DUP2 DUP4 SUB SUB DUP2 MSTORE SWAP1 PUSH1 0x40 MSTORE DUP1 MLOAD SWAP1 PUSH1 0x20 ADD KECCAK256 SWAP1 POP SWAP3 SWAP2 POP POP JUMP JUMPDEST PUSH0 DUP2 SWAP1 POP SWAP2 SWAP1 POP JUMP JUMPDEST PUSH2 0xD2B DUP2 PUSH2 0xD19 JUMP JUMPDEST DUP3 MSTORE POP POP JUMP JUMPDEST PUSH0 PUSH1 0x20 DUP3 ADD SWAP1 POP PUSH2 0xD44 PUSH0 DUP4 ADD DUP5 PUSH2 0xD22 JUMP JUMPDEST SWAP3 SWAP2 POP POP JUMP JUMPDEST PUSH0 DUP2 ISZERO ISZERO SWAP1 POP SWAP2 SWAP1 POP JUMP JUMPDEST PUSH2 0xD5E DUP2 PUSH2 0xD4A JUMP JUMPDEST DUP3 MSTORE POP POP JUMP JUMPDEST PUSH0 PUSH1 0x20 DUP3 ADD SWAP1 POP PUSH2 0xD77 PUSH0 DUP4 ADD DUP5 PUSH2 0xD55 JUMP JUMPDEST SWAP3 SWAP2 POP POP JUMP JUMPDEST PUSH0 PUSH20 0xFFFFFFFFFFFFFFFFFFFFFFFFFFFFFFFFFFFFFFFF DUP3 AND SWAP1 POP SWAP2 SWAP1 POP JUMP JUMPDEST PUSH0 PUSH2 0xDA6 DUP3 PUSH2 0xD7D JUMP JUMPDEST SWAP1 POP SWAP2 SWAP1 POP JUMP JUMPDEST PUSH2 0xDB6 DUP2 PUSH2 0xD9C JUMP JUMPDEST DUP3 MSTORE POP POP JUMP JUMPDEST PUSH0 PUSH1 0x20 DUP3 ADD SWAP1 POP PUSH2 0xDCF PUSH0 DUP4 ADD DUP5 PUSH2 0xDAD JUMP JUMPDEST SWAP3 SWAP2 POP POP JUMP JUMPDEST PUSH0 DUP1 REVERT JUMPDEST PUSH0 DUP2 SWAP1 POP SWAP2 SWAP1 POP JUMP JUMPDEST PUSH2 0xDEB DUP2 PUSH2 0xDD9 JUMP JUMPDEST DUP2 EQ PUSH2 0xDF5 JUMPI PUSH0 DUP1 REVERT JUMPDEST POP JUMP JUMPDEST PUSH0 DUP2 CALLDATALOAD SWAP1 POP PUSH2 0xE06 DUP2 PUSH2 0xDE2 JUMP JUMPDEST SWAP3 SWAP2 POP POP JUMP JUMPDEST PUSH2 0xE15 DUP2 PUSH2 0xD19 JUMP JUMPDEST DUP2 EQ PUSH2 0xE1F JUMPI PUSH0 DUP1 REVERT JUMPDEST POP JUMP JUMPDEST PUSH0 DUP2 CALLDATALOAD SWAP1 POP PUSH2 0xE30 DUP2 PUSH2 0xE0C JUMP JUMPDEST SWAP3 SWAP2 POP POP JUMP JUMPDEST PUSH0 DUP1 PUSH1 0x40 DUP4 DUP6 SUB SLT ISZERO PUSH2 0xE4C JUMPI PUSH2 0xE4B PUSH2 0xDD5 JUMP JUMPDEST JUMPDEST PUSH0 PUSH2 0xE59 DUP6 DUP3 DUP7 ADD PUSH2 0xDF8 JUMP JUMPDEST SWAP3 POP POP PUSH1 0x20 PUSH2 0xE6A DUP6 DUP3 DUP7 ADD PUSH2 0xE22 JUMP JUMPDEST SWAP2 POP POP SWAP3 POP SWAP3 SWAP1 POP JUMP JUMPDEST PUSH0 PUSH1 0xFF DUP3 AND SWAP1 POP SWAP2 SWAP1 POP JUMP JUMPDEST PUSH2 0xE89 DUP2 PUSH2 0xE74 JUMP JUMPDEST DUP3 MSTORE POP POP JUMP JUMPDEST PUSH0 PUSH1 0x20 DUP3 ADD SWAP1 POP PUSH2 0xEA2 PUSH0 DUP4 ADD DUP5 PUSH2 0xE80 JUMP JUMPDEST SWAP3 SWAP2 POP POP JUMP JUMPDEST PUSH2 0xEB1 DUP2 PUSH2 0xD9C JUMP JUMPDEST DUP2 EQ PUSH2 0xEBB JUMPI PUSH0 DUP1 REVERT JUMPDEST POP JUMP JUMPDEST PUSH0 DUP2 CALLDATALOAD SWAP1 POP PUSH2 0xECC DUP2 PUSH2 0xEA8 JUMP JUMPDEST SWAP3 SWAP2 POP POP JUMP JUMPDEST PUSH0 PUSH1 0x20 DUP3 DUP5 SUB SLT ISZERO PUSH2 0xEE7 JUMPI PUSH2 0xEE6 PUSH2 0xDD5 JUMP JUMPDEST JUMPDEST PUSH0 PUSH2 0xEF4 DUP5 DUP3 DUP6 ADD PUSH2 0xEBE JUMP JUMPDEST SWAP2 POP POP SWAP3 SWAP2 POP POP JUMP JUMPDEST PUSH0 PUSH1 0x20 DUP3 DUP5 SUB SLT ISZERO PUSH2 0xF12 JUMPI PUSH2 0xF11 PUSH2 0xDD5 JUMP JUMPDEST JUMPDEST PUSH0 PUSH2 0xF1F DUP5 DUP3 DUP6 ADD PUSH2 0xE22 JUMP JUMPDEST SWAP2 POP POP SWAP3 SWAP2 POP POP JUMP JUMPDEST PUSH0 DUP2 SWAP1 POP SWAP2 SWAP1 POP JUMP JUMPDEST PUSH0 PUSH2 0xF4B PUSH2 0xF46 PUSH2 0xF41 DUP5 PUSH2 0xD7D JUMP JUMPDEST PUSH2 0xF28 JUMP JUMPDEST PUSH2 0xD7D JUMP JUMPDEST SWAP1 POP SWAP2 SWAP1 POP JUMP JUMPDEST PUSH0 PUSH2 0xF5C DUP3 PUSH2 0xF31 JUMP JUMPDEST SWAP1 POP SWAP2 SWAP1 POP JUMP JUMPDEST PUSH0 PUSH2 0xF6D DUP3 PUSH2 0xF52 JUMP JUMPDEST SWAP1 POP SWAP2 SWAP1 POP JUMP JUMPDEST PUSH2 0xF7D DUP2 PUSH2 0xF63 JUMP JUMPDEST DUP3 MSTORE POP POP JUMP JUMPDEST PUSH0 PUSH1 0x20 DUP3 ADD SWAP1 POP PUSH2 0xF96 PUSH0 DUP4 ADD DUP5 PUSH2 0xF74 JUMP JUMPDEST SWAP3 SWAP2 POP POP JUMP JUMPDEST PUSH0 DUP3 DUP3 MSTORE PUSH1 0x20 DUP3 ADD SWAP1 POP SWAP3 SWAP2 POP POP JUMP JUMPDEST PUSH32 0x4F6E6C7920565246436F6F7264696E61746F722063616E2066756C66696C6C00 PUSH0 DUP3 ADD MSTORE POP JUMP JUMPDEST PUSH0 PUSH2 0xFE0 PUSH1 0x1F DUP4 PUSH2 0xF9C JUMP JUMPDEST SWAP2 POP PUSH2 0xFEB DUP3 PUSH2 0xFAC JUMP JUMPDEST PUSH1 0x20 DUP3 ADD SWAP1 POP SWAP2 SWAP1 POP JUMP JUMPDEST PUSH0 PUSH1 0x20 DUP3 ADD SWAP1 POP DUP2 DUP2 SUB PUSH0 DUP4 ADD MSTORE PUSH2 0x100D DUP2 PUSH2 0xFD4 JUMP JUMPDEST SWAP1 POP SWAP2 SWAP1 POP JUMP JUMPDEST PUSH32 0x47616D652066756C6C0000000000000000000000000000000000000000000000 PUSH0 DUP3 ADD MSTORE POP JUMP JUMPDEST PUSH0 PUSH2 0x1048 PUSH1 0x9 DUP4 PUSH2 0xF9C JUMP JUMPDEST SWAP2 POP PUSH2 0x1053 DUP3 PUSH2 0x1014 JUMP JUMPDEST PUSH1 0x20 DUP3 ADD SWAP1 POP SWAP2 SWAP1 POP JUMP JUMPDEST PUSH0 PUSH1 0x20 DUP3 ADD SWAP1 POP DUP2 DUP2 SUB PUSH0 DUP4 ADD MSTORE PUSH2 0x1075 DUP2 PUSH2 0x103C JUMP JUMPDEST SWAP1 POP SWAP2 SWAP1 POP JUMP JUMPDEST PUSH0 PUSH1 0x60 DUP3 ADD SWAP1 POP PUSH2 0x108F PUSH0 DUP4 ADD DUP7 PUSH2 0xDAD JUMP JUMPDEST PUSH2 0x109C PUSH1 0x20 DUP4 ADD DUP6 PUSH2 0xDAD JUMP JUMPDEST PUSH2 0x10A9 PUSH1 0x40 DUP4 ADD DUP5 PUSH2 0xD22 JUMP JUMPDEST SWAP5 SWAP4 POP POP POP POP JUMP JUMPDEST PUSH2 0x10BA DUP2 PUSH2 0xD4A JUMP JUMPDEST DUP2 EQ PUSH2 0x10C4 JUMPI PUSH0 DUP1 REVERT JUMPDEST POP JUMP JUMPDEST PUSH0 DUP2 MLOAD SWAP1 POP PUSH2 0x10D5 DUP2 PUSH2 0x10B1 JUMP JUMPDEST SWAP3 SWAP2 POP POP JUMP JUMPDEST PUSH0 PUSH1 0x20 DUP3 DUP5 SUB SLT ISZERO PUSH2 0x10F0 JUMPI PUSH2 0x10EF PUSH2 0xDD5 JUMP JUMPDEST JUMPDEST PUSH0 PUSH2 0x10FD DUP5 DUP3 DUP6 ADD PUSH2 0x10C7 JUMP JUMPDEST SWAP2 POP POP SWAP3 SWAP2 POP POP JUMP JUMPDEST PUSH32 0x5374616B65207472616E73666572206661696C65640000000000000000000000 PUSH0 DUP3 ADD MSTORE POP JUMP JUMPDEST PUSH0 PUSH2 0x113A PUSH1 0x15 DUP4 PUSH2 0xF9C JUMP JUMPDEST SWAP2 POP PUSH2 0x1145 DUP3 PUSH2 0x1106 JUMP JUMPDEST PUSH1 0x20 DUP3 ADD SWAP1 POP SWAP2 SWAP1 POP JUMP JUMPDEST PUSH0 PUSH1 0x20 DUP3 ADD SWAP1 POP DUP2 DUP2 SUB PUSH0 DUP4 ADD MSTORE PUSH2 0x1167 DUP2 PUSH2 0x112E JUMP JUMPDEST SWAP1 POP SWAP2 SWAP1 POP JUMP JUMPDEST PUSH32 0x4E487B7100000000000000000000000000000000000000000000000000000000 PUSH0 MSTORE PUSH1 0x32 PUSH1 0x4 MSTORE PUSH1 0x24 PUSH0 REVERT JUMPDEST PUSH32 0x4E487B7100000000000000000000000000000000000000000000000000000000 PUSH0 MSTORE PUSH1 0x11 PUSH1 0x4 MSTORE PUSH1 0x24 PUSH0 REVERT JUMPDEST PUSH0 PUSH2 0x11D2 DUP3 PUSH2 0xE74 JUMP JUMPDEST SWAP2 POP PUSH1 0xFF DUP3 SUB PUSH2 0x11E5 JUMPI PUSH2 0x11E4 PUSH2 0x119B JUMP JUMPDEST JUMPDEST PUSH1 0x1 DUP3 ADD SWAP1 POP SWAP2 SWAP1 POP JUMP JUMPDEST PUSH32 0x416C7265616479207265736F6C76656400000000000000000000000000000000 PUSH0 DUP3 ADD MSTORE POP JUMP JUMPDEST PUSH0 PUSH2 0x1224 PUSH1 0x10 DUP4 PUSH2 0xF9C JUMP JUMPDEST SWAP2 POP PUSH2 0x122F DUP3 PUSH2 0x11F0 JUMP JUMPDEST PUSH1 0x20 DUP3 ADD SWAP1 POP SWAP2 SWAP1 POP JUMP JUMPDEST PUSH0 PUSH1 0x20 DUP3 ADD SWAP1 POP DUP2 DUP2 SUB PUSH0 DUP4 ADD MSTORE PUSH2 0x1251 DUP2 PUSH2 0x1218 JUMP JUMPDEST SWAP1 POP SWAP2 SWAP1 POP JUMP JUMPDEST PUSH32 0x4E487B7100000000000000000000000000000000000000000000000000000000 PUSH0 MSTORE PUSH1 0x12 PUSH1 0x4 MSTORE PUSH1 0x24 PUSH0 REVERT JUMPDEST PUSH0 PUSH2 0x128F DUP3 PUSH2 0xD19 JUMP JUMPDEST SWAP2 POP PUSH2 0x129A DUP4 PUSH2 0xD19 JUMP JUMPDEST SWAP3 POP DUP3 PUSH2 0x12AA JUMPI PUSH2 0x12A9 PUSH2 0x1258 JUMP JUMPDEST JUMPDEST DUP3 DUP3 MOD SWAP1 POP SWAP3 SWAP2 POP POP JUMP JUMPDEST PUSH0 PUSH2 0x12BF DUP3 PUSH2 0xD19 JUMP JUMPDEST SWAP2 POP PUSH2 0x12CA DUP4 PUSH2 0xD19 JUMP JUMPDEST SWAP3 POP DUP3 DUP3 MUL PUSH2 0x12D8 DUP2 PUSH2 0xD19 JUMP JUMPDEST SWAP2 POP DUP3 DUP3 DIV DUP5 EQ DUP4 ISZERO OR PUSH2 0x12EF JUMPI PUSH2 0x12EE PUSH2 0x119B JUMP JUMPDEST JUMPDEST POP SWAP3 SWAP2 POP POP JUMP JUMPDEST PUSH0 PUSH1 0x40 DUP3 ADD SWAP1 POP PUSH2 0x1309 PUSH0 DUP4 ADD DUP6 PUSH2 0xDAD JUMP JUMPDEST PUSH2 0x1316 PUSH1 0x20 DUP4 ADD DUP5 PUSH2 0xD22 JUMP JUMPDEST SWAP4 SWAP3 POP POP POP JUMP JUMPDEST PUSH32 0x5061796F7574206661696C656400000000000000000000000000000000000000 PUSH0 DUP3 ADD MSTORE POP JUMP JUMPDEST PUSH0 PUSH2 0x1351 PUSH1 0xD DUP4 PUSH2 0xF9C JUMP JUMPDEST SWAP2 POP PUSH2 0x135C DUP3 PUSH2 0x131D JUMP JUMPDEST PUSH1 0x20 DUP3 ADD SWAP1 POP SWAP2 SWAP1 POP JUMP JUMPDEST PUSH0 PUSH1 0x20 DUP3 ADD SWAP1 POP DUP2 DUP2 SUB PUSH0 DUP4 ADD MSTORE PUSH2 0x137E DUP2 PUSH2 0x1345 JUMP JUMPDEST SWAP1 POP SWAP2 SWAP1 POP JUMP JUMPDEST PUSH0 DUP2 MLOAD SWAP1 POP PUSH2 0x1393 DUP2 PUSH2 0xE0C JUMP JUMPDEST SWAP3 SWAP2 POP POP JUMP JUMPDEST PUSH0 PUSH1 0x20 DUP3 DUP5 SUB SLT ISZERO PUSH2 0x13AE JUMPI PUSH2 0x13AD PUSH2 0xDD5 JUMP JUMPDEST JUMPDEST PUSH0 PUSH2 0x13BB DUP5 DUP3 DUP6 ADD PUSH2 0x1385 JUMP JUMPDEST SWAP2 POP POP SWAP3 SWAP2 POP POP JUMP JUMPDEST PUSH32 0x4E6F7420656E6F756768204C494E4B0000000000000000000000000000000000 PUSH0 DUP3 ADD MSTORE POP JUMP JUMPDEST PUSH0 PUSH2 0x13F8 PUSH1 0xF DUP4 PUSH2 0xF9C JUMP JUMPDEST SWAP2 POP PUSH2 0x1403 DUP3 PUSH2 0x13C4 JUMP JUMPDEST PUSH1 0x20 DUP3 ADD SWAP1 POP SWAP2 SWAP1 POP JUMP JUMPDEST PUSH0 PUSH1 0x20 DUP3 ADD SWAP1 POP DUP2 DUP2 SUB PUSH0 DUP4 ADD MSTORE PUSH2 0x1425 DUP2 PUSH2 0x13EC JUMP JUMPDEST SWAP1 POP SWAP2 SWAP1 POP JUMP JUMPDEST PUSH2 0x1435 DUP2 PUSH2 0xDD9 JUMP JUMPDEST DUP3 MSTORE POP POP JUMP JUMPDEST PUSH0 PUSH1 0x20 DUP3 ADD SWAP1 POP PUSH2 0x144E PUSH0 DUP4 ADD DUP5 PUSH2 0x142C JUMP JUMPDEST SWAP3 SWAP2 POP POP JUMP JUMPDEST PUSH0 PUSH1 0x40 DUP3 ADD SWAP1 POP PUSH2 0x1467 PUSH0 DUP4 ADD DUP6 PUSH2 0x142C JUMP JUMPDEST PUSH2 0x1474 PUSH1 0x20 DUP4 ADD DUP5 PUSH2 0xD22 JUMP JUMPDEST SWAP4 SWAP3 POP POP POP JUMP JUMPDEST PUSH0 DUP2 MLOAD SWAP1 POP SWAP2 SWAP1 POP JUMP JUMPDEST PUSH0 DUP3 DUP3 MSTORE PUSH1 0x20 DUP3 ADD SWAP1 POP SWAP3 SWAP2 POP POP JUMP JUMPDEST DUP3 DUP2 DUP4 MCOPY PUSH0 DUP4 DUP4 ADD MSTORE POP POP POP JUMP JUMPDEST PUSH0 PUSH1 0x1F NOT PUSH1 0x1F DUP4 ADD AND SWAP1 POP SWAP2 SWAP1 POP JUMP JUMPDEST PUSH0 PUSH2 0x14BD DUP3 PUSH2 0x147B JUMP JUMPDEST PUSH2 0x14C7 DUP2 DUP6 PUSH2 0x1485 JUMP JUMPDEST SWAP4 POP PUSH2 0x14D7 DUP2 DUP6 PUSH1 0x20 DUP7 ADD PUSH2 0x1495 JUMP JUMPDEST PUSH2 0x14E0 DUP2 PUSH2 0x14A3 JUMP JUMPDEST DUP5 ADD SWAP2 POP POP SWAP3 SWAP2 POP POP JUMP JUMPDEST PUSH0 PUSH1 0x60 DUP3 ADD SWAP1 POP PUSH2 0x14FE PUSH0 DUP4 ADD DUP7 PUSH2 0xDAD JUMP JUMPDEST PUSH2 0x150B PUSH1 0x20 DUP4 ADD DUP6 PUSH2 0xD22 JUMP JUMPDEST DUP2 DUP2 SUB PUSH1 0x40 DUP4 ADD MSTORE PUSH2 0x151D DUP2 DUP5 PUSH2 0x14B3 JUMP JUMPDEST SWAP1 POP SWAP5 SWAP4 POP POP POP POP JUMP JUMPDEST PUSH0 PUSH2 0x1531 DUP3 PUSH2 0xD19 JUMP JUMPDEST SWAP2 POP PUSH2 0x153C DUP4 PUSH2 0xD19 JUMP JUMPDEST SWAP3 POP DUP3 DUP3 ADD SWAP1 POP DUP1 DUP3 GT ISZERO PUSH2 0x1554 JUMPI PUSH2 0x1553 PUSH2 0x119B JUMP JUMPDEST JUMPDEST SWAP3 SWAP2 POP POP JUMP JUMPDEST PUSH0 PUSH1 0x80 DUP3 ADD SWAP1 POP PUSH2 0x156D PUSH0 DUP4 ADD DUP8 PUSH2 0x142C JUMP JUMPDEST PUSH2 0x157A PUSH1 0x20 DUP4 ADD DUP7 PUSH2 0xD22 JUMP JUMPDEST PUSH2 0x1587 PUSH1 0x40 DUP4 ADD DUP6 PUSH2 0xDAD JUMP JUMPDEST PUSH2 0x1594 PUSH1 0x60 DUP4 ADD DUP5 PUSH2 0xD22 JUMP JUMPDEST SWAP6 SWAP5 POP POP POP POP POP JUMP JUMPDEST PUSH0 DUP2 SWAP1 POP SWAP2 SWAP1 POP JUMP JUMPDEST PUSH2 0x15B7 PUSH2 0x15B2 DUP3 PUSH2 0xDD9 JUMP JUMPDEST PUSH2 0x159D JUMP JUMPDEST DUP3 MSTORE POP POP JUMP JUMPDEST PUSH0 DUP2 SWAP1 POP SWAP2 SWAP1 POP JUMP JUMPDEST PUSH2 0x15D7 PUSH2 0x15D2 DUP3 PUSH2 0xD19 JUMP JUMPDEST PUSH2 0x15BD JUMP JUMPDEST DUP3 MSTORE POP POP JUMP JUMPDEST PUSH0 PUSH2 0x15E8 DUP3 DUP6 PUSH2 0x15A6 JUMP JUMPDEST PUSH1 0x20 DUP3 ADD SWAP2 POP PUSH2 0x15F8 DUP3 DUP5 PUSH2 0x15C6 JUMP JUMPDEST PUSH1 0x20 DUP3 ADD SWAP2 POP DUP2 SWAP1 POP SWAP4 SWAP3 POP POP POP JUMP INVALID LOG2 PUSH5 0x6970667358 0x22 SLT KECCAK256 BLOCKHASH 0xE3 JUMPI MCOPY 0xC7 GASPRICE PUSH3 0x2224A0 SSTORE 0x21 0xBB PUSH9 0x70CCBB2EFB02B34149 0xAF 0x28 DUP11 PUSH30 0xE5C57ADB5C64736F6C634300081A0033A26469706673582212200D3E31A9 0xD2 0x27 TSTORE 0xDC 0xD6 PUSH14 0x56EDFE3AFB812B1A14C3AA6635A6 0xA6 DELEGATECALL DUP11 SWAP2 0xE2 0xC9 0xA7 MULMOD PUSH5 0x736F6C6343 STOP ADDMOD BYTE STOP CALLER "
				},
				"gasEstimates": {
					"creation": {
						"codeDepositCost": "1652800",
						"executionCost": "infinite",
						"totalCost": "infinite"
					},
					"external": {
						"createHeadToHeadGame(address,uint256)": "infinite",
						"gameCount()": "2462",
						"games(uint256)": "4943",
						"linkToken()": "2552",
						"vrfCoordinator()": "2574",
						"vrfFee()": "2470",
						"vrfKeyHash()": "2426"
					}
				},
				"methodIdentifiers": {
					"createHeadToHeadGame(address,uint256)": "0586bc5d",
					"gameCount()": "4d1975b4",
					"games(uint256)": "117a5b90",
					"linkToken()": "57970e93",
					"vrfCoordinator()": "a3e56fa8",
					"vrfFee()": "1017507d",
					"vrfKeyHash()": "041d443e"
				}
			},
			"storageLayout": {
				"storage": [
					{
						"astId": 762,
						"contract": "Test.sol:GameHub",
						"label": "games",
						"offset": 0,
						"slot": "0",
						"type": "t_array(t_address)dyn_storage"
					},
					{
						"astId": 764,
						"contract": "Test.sol:GameHub",
						"label": "vrfCoordinator",
						"offset": 0,
						"slot": "1",
						"type": "t_address"
					},
					{
						"astId": 766,
						"contract": "Test.sol:GameHub",
						"label": "linkToken",
						"offset": 0,
						"slot": "2",
						"type": "t_address"
					},
					{
						"astId": 768,
						"contract": "Test.sol:GameHub",
						"label": "vrfKeyHash",
						"offset": 0,
						"slot": "3",
						"type": "t_bytes32"
					},
					{
						"astId": 770,
						"contract": "Test.sol:GameHub",
						"label": "vrfFee",
						"offset": 0,
						"slot": "4",
						"type": "t_uint256"
					}
				],
				"types": {
					"t_address": {
						"encoding": "inplace",
						"label": "address",
						"numberOfBytes": "20"
					},
					"t_array(t_address)dyn_storage": {
						"base": "t_address",
						"encoding": "dynamic_array",
						"label": "address[]",
						"numberOfBytes": "32"
					},
					"t_bytes32": {
						"encoding": "inplace",
						"label": "bytes32",
						"numberOfBytes": "32"
					},
					"t_uint256": {
						"encoding": "inplace",
						"label": "uint256",
						"numberOfBytes": "32"
					}
				}
			},
			"userdoc": {
				"kind": "user",
				"methods": {},
				"version": 1
			}
		}
	}
}